{"abi":[{"type":"constructor","inputs":[],"stateMutability":"nonpayable"},{"type":"function","name":"BLACKLISTED_ROLE","inputs":[],"outputs":[{"name":"","type":"bytes32","internalType":"bytes32"}],"stateMutability":"view"},{"type":"function","name":"BLOCKLISTER_ROLE","inputs":[],"outputs":[{"name":"","type":"bytes32","internalType":"bytes32"}],"stateMutability":"view"},{"type":"function","name":"DEFAULT_ADMIN_ROLE","inputs":[],"outputs":[{"name":"","type":"bytes32","internalType":"bytes32"}],"stateMutability":"view"},{"type":"function","name":"DOMAIN_SEPARATOR","inputs":[],"outputs":[{"name":"","type":"bytes32","internalType":"bytes32"}],"stateMutability":"view"},{"type":"function","name":"MINTER_BURNER_ROLE","inputs":[],"outputs":[{"name":"","type":"bytes32","internalType":"bytes32"}],"stateMutability":"view"},{"type":"function","name":"PAUSER_ROLE","inputs":[],"outputs":[{"name":"","type":"bytes32","internalType":"bytes32"}],"stateMutability":"view"},{"type":"function","name":"__DEPRECATED_BLACKLIST_MANAGER_ROLE","inputs":[],"outputs":[{"name":"","type":"bytes32","internalType":"bytes32"}],"stateMutability":"view"},{"type":"function","name":"__DEPRECATED_MINTER_CONTRACT","inputs":[],"outputs":[{"name":"","type":"bytes32","internalType":"bytes32"}],"stateMutability":"view"},{"type":"function","name":"__DEPRECATED_WHITELISTED_ROLE","inputs":[],"outputs":[{"name":"","type":"bytes32","internalType":"bytes32"}],"stateMutability":"view"},{"type":"function","name":"__DEPRECATED_WHITELIST_MANAGER_ROLE","inputs":[],"outputs":[{"name":"","type":"bytes32","internalType":"bytes32"}],"stateMutability":"view"},{"type":"function","name":"acceptAdmin","inputs":[],"outputs":[],"stateMutability":"nonpayable"},{"type":"function","name":"allowance","inputs":[{"name":"owner","type":"address","internalType":"address"},{"name":"spender","type":"address","internalType":"address"}],"outputs":[{"name":"","type":"uint256","internalType":"uint256"}],"stateMutability":"view"},{"type":"function","name":"approve","inputs":[{"name":"spender","type":"address","internalType":"address"},{"name":"amount","type":"uint256","internalType":"uint256"}],"outputs":[{"name":"","type":"bool","internalType":"bool"}],"stateMutability":"nonpayable"},{"type":"function","name":"balanceOf","inputs":[{"name":"account","type":"address","internalType":"address"}],"outputs":[{"name":"","type":"uint256","internalType":"uint256"}],"stateMutability":"view"},{"type":"function","name":"blockAccounts","inputs":[{"name":"accounts","type":"address[]","internalType":"address[]"}],"outputs":[],"stateMutability":"nonpayable"},{"type":"function","name":"burn","inputs":[{"name":"","type":"uint256","internalType":"uint256"}],"outputs":[],"stateMutability":"pure"},{"type":"function","name":"burn","inputs":[{"name":"from","type":"address","internalType":"address"},{"name":"amount","type":"uint256","internalType":"uint256"}],"outputs":[],"stateMutability":"nonpayable"},{"type":"function","name":"burnFrom","inputs":[{"name":"","type":"address","internalType":"address"},{"name":"","type":"uint256","internalType":"uint256"}],"outputs":[],"stateMutability":"pure"},{"type":"function","name":"decimals","inputs":[],"outputs":[{"name":"","type":"uint8","internalType":"uint8"}],"stateMutability":"view"},{"type":"function","name":"decreaseAllowance","inputs":[{"name":"spender","type":"address","internalType":"address"},{"name":"subtractedValue","type":"uint256","internalType":"uint256"}],"outputs":[{"name":"","type":"bool","internalType":"bool"}],"stateMutability":"nonpayable"},{"type":"function","name":"eip712Domain","inputs":[],"outputs":[{"name":"fields","type":"bytes1","internalType":"bytes1"},{"name":"name","type":"string","internalType":"string"},{"name":"version","type":"string","internalType":"string"},{"name":"chainId","type":"uint256","internalType":"uint256"},{"name":"verifyingContract","type":"address","internalType":"address"},{"name":"salt","type":"bytes32","internalType":"bytes32"},{"name":"extensions","type":"uint256[]","internalType":"uint256[]"}],"stateMutability":"view"},{"type":"function","name":"getRoleAdmin","inputs":[{"name":"role","type":"bytes32","internalType":"bytes32"}],"outputs":[{"name":"","type":"bytes32","internalType":"bytes32"}],"stateMutability":"view"},{"type":"function","name":"grantRole","inputs":[{"name":"role","type":"bytes32","internalType":"bytes32"},{"name":"account","type":"address","internalType":"address"}],"outputs":[],"stateMutability":"nonpayable"},{"type":"function","name":"hasRole","inputs":[{"name":"role","type":"bytes32","internalType":"bytes32"},{"name":"account","type":"address","internalType":"address"}],"outputs":[{"name":"","type":"bool","internalType":"bool"}],"stateMutability":"view"},{"type":"function","name":"increaseAllowance","inputs":[{"name":"spender","type":"address","internalType":"address"},{"name":"addedValue","type":"uint256","internalType":"uint256"}],"outputs":[{"name":"","type":"bool","internalType":"bool"}],"stateMutability":"nonpayable"},{"type":"function","name":"initialize","inputs":[{"name":"name","type":"string","internalType":"string"},{"name":"symbol","type":"string","internalType":"string"},{"name":"admin","type":"address","internalType":"address"}],"outputs":[],"stateMutability":"nonpayable"},{"type":"function","name":"initializeV2","inputs":[{"name":"admin","type":"address","internalType":"address"},{"name":"minterBurner","type":"address","internalType":"address"},{"name":"blocklister","type":"address","internalType":"address"},{"name":"pauser","type":"address","internalType":"address"}],"outputs":[],"stateMutability":"nonpayable"},{"type":"function","name":"isBlocked","inputs":[{"name":"account","type":"address","internalType":"address"}],"outputs":[{"name":"","type":"bool","internalType":"bool"}],"stateMutability":"view"},{"type":"function","name":"mint","inputs":[{"name":"to","type":"address","internalType":"address"},{"name":"amount","type":"uint256","internalType":"uint256"}],"outputs":[],"stateMutability":"nonpayable"},{"type":"function","name":"name","inputs":[],"outputs":[{"name":"","type":"string","internalType":"string"}],"stateMutability":"view"},{"type":"function","name":"nonces","inputs":[{"name":"owner","type":"address","internalType":"address"}],"outputs":[{"name":"","type":"uint256","internalType":"uint256"}],"stateMutability":"view"},{"type":"function","name":"owner","inputs":[],"outputs":[{"name":"","type":"address","internalType":"address"}],"stateMutability":"view"},{"type":"function","name":"pause","inputs":[],"outputs":[],"stateMutability":"nonpayable"},{"type":"function","name":"paused","inputs":[],"outputs":[{"name":"","type":"bool","internalType":"bool"}],"stateMutability":"view"},{"type":"function","name":"permit","inputs":[{"name":"owner","type":"address","internalType":"address"},{"name":"spender","type":"address","internalType":"address"},{"name":"value","type":"uint256","internalType":"uint256"},{"name":"deadline","type":"uint256","internalType":"uint256"},{"name":"v","type":"uint8","internalType":"uint8"},{"name":"r","type":"bytes32","internalType":"bytes32"},{"name":"s","type":"bytes32","internalType":"bytes32"}],"outputs":[],"stateMutability":"nonpayable"},{"type":"function","name":"renounceRole","inputs":[{"name":"role","type":"bytes32","internalType":"bytes32"},{"name":"account","type":"address","internalType":"address"}],"outputs":[],"stateMutability":"nonpayable"},{"type":"function","name":"revokeRole","inputs":[{"name":"role","type":"bytes32","internalType":"bytes32"},{"name":"account","type":"address","internalType":"address"}],"outputs":[],"stateMutability":"nonpayable"},{"type":"function","name":"supportsInterface","inputs":[{"name":"interfaceId","type":"bytes4","internalType":"bytes4"}],"outputs":[{"name":"","type":"bool","internalType":"bool"}],"stateMutability":"view"},{"type":"function","name":"symbol","inputs":[],"outputs":[{"name":"","type":"string","internalType":"string"}],"stateMutability":"view"},{"type":"function","name":"totalSupply","inputs":[],"outputs":[{"name":"","type":"uint256","internalType":"uint256"}],"stateMutability":"view"},{"type":"function","name":"transfer","inputs":[{"name":"to","type":"address","internalType":"address"},{"name":"amount","type":"uint256","internalType":"uint256"}],"outputs":[{"name":"","type":"bool","internalType":"bool"}],"stateMutability":"nonpayable"},{"type":"function","name":"transferAdmin","inputs":[{"name":"newAdmin","type":"address","internalType":"address"}],"outputs":[],"stateMutability":"nonpayable"},{"type":"function","name":"transferFrom","inputs":[{"name":"from","type":"address","internalType":"address"},{"name":"to","type":"address","internalType":"address"},{"name":"amount","type":"uint256","internalType":"uint256"}],"outputs":[{"name":"","type":"bool","internalType":"bool"}],"stateMutability":"nonpayable"},{"type":"function","name":"unblockAccounts","inputs":[{"name":"accounts","type":"address[]","internalType":"address[]"}],"outputs":[],"stateMutability":"nonpayable"},{"type":"function","name":"unpause","inputs":[],"outputs":[],"stateMutability":"nonpayable"},{"type":"event","name":"AccountsBlocked","inputs":[{"name":"accounts","type":"address[]","indexed":false,"internalType":"address[]"}],"anonymous":false},{"type":"event","name":"AccountsUnblocked","inputs":[{"name":"accounts","type":"address[]","indexed":false,"internalType":"address[]"}],"anonymous":false},{"type":"event","name":"AdminTransferRequested","inputs":[{"name":"oldAdmin","type":"address","indexed":true,"internalType":"address"},{"name":"newAdmin","type":"address","indexed":true,"internalType":"address"}],"anonymous":false},{"type":"event","name":"AdminTransferred","inputs":[{"name":"oldAdmin","type":"address","indexed":true,"internalType":"address"},{"name":"newAdmin","type":"address","indexed":true,"internalType":"address"}],"anonymous":false},{"type":"event","name":"Approval","inputs":[{"name":"owner","type":"address","indexed":true,"internalType":"address"},{"name":"spender","type":"address","indexed":true,"internalType":"address"},{"name":"value","type":"uint256","indexed":false,"internalType":"uint256"}],"anonymous":false},{"type":"event","name":"EIP712DomainChanged","inputs":[],"anonymous":false},{"type":"event","name":"Initialized","inputs":[{"name":"version","type":"uint8","indexed":false,"internalType":"uint8"}],"anonymous":false},{"type":"event","name":"Paused","inputs":[{"name":"account","type":"address","indexed":false,"internalType":"address"}],"anonymous":false},{"type":"event","name":"RoleAdminChanged","inputs":[{"name":"role","type":"bytes32","indexed":true,"internalType":"bytes32"},{"name":"previousAdminRole","type":"bytes32","indexed":true,"internalType":"bytes32"},{"name":"newAdminRole","type":"bytes32","indexed":true,"internalType":"bytes32"}],"anonymous":false},{"type":"event","name":"RoleGranted","inputs":[{"name":"role","type":"bytes32","indexed":true,"internalType":"bytes32"},{"name":"account","type":"address","indexed":true,"internalType":"address"},{"name":"sender","type":"address","indexed":true,"internalType":"address"}],"anonymous":false},{"type":"event","name":"RoleRevoked","inputs":[{"name":"role","type":"bytes32","indexed":true,"internalType":"bytes32"},{"name":"account","type":"address","indexed":true,"internalType":"address"},{"name":"sender","type":"address","indexed":true,"internalType":"address"}],"anonymous":false},{"type":"event","name":"Transfer","inputs":[{"name":"from","type":"address","indexed":true,"internalType":"address"},{"name":"to","type":"address","indexed":true,"internalType":"address"},{"name":"value","type":"uint256","indexed":false,"internalType":"uint256"}],"anonymous":false},{"type":"event","name":"Unpaused","inputs":[{"name":"account","type":"address","indexed":false,"internalType":"address"}],"anonymous":false},{"type":"error","name":"AccountBlocked","inputs":[]},{"type":"error","name":"Deprecated","inputs":[]},{"type":"error","name":"InvalidAdminChange","inputs":[]},{"type":"error","name":"NotPendingAdmin","inputs":[]},{"type":"error","name":"OperationNotAllowed","inputs":[]},{"type":"error","name":"ZeroAddress","inputs":[]}],"bytecode":{"object":"0x608060405234801561000f575f5ffd5b5061001e61002360201b60201c565b6101b3565b5f60019054906101000a900460ff1615610072576040517f08c379a000000000000000000000000000000000000000000000000000000000815260040161006990610161565b60405180910390fd5b60ff80165f5f9054906101000a900460ff1660ff16146100df5760ff5f5f6101000a81548160ff021916908360ff1602179055507f7f26b83ff96e1f2b6a682f133852f6798a09c465da95921460cefb384740249860ff6040516100d6919061019a565b60405180910390a15b565b5f82825260208201905092915050565b7f496e697469616c697a61626c653a20636f6e747261637420697320696e6974695f8201527f616c697a696e6700000000000000000000000000000000000000000000000000602082015250565b5f61014b6027836100e1565b9150610156826100f1565b604082019050919050565b5f6020820190508181035f8301526101788161013f565b9050919050565b5f60ff82169050919050565b6101948161017f565b82525050565b5f6020820190506101ad5f83018461018b565b92915050565b614f87806101c05f395ff3fe608060405234801561000f575f5ffd5b506004361061027d575f3560e01c80636e60318e1161015a5780639dc29fac116100cc578063dd62ed3e11610085578063dd62ed3e1461077b578063e63ab1e9146107ab578063f27ebced146107c9578063faed47fd146107e5578063fbac395114610801578063fc19dddc146108315761027d565b80639dc29fac146106a9578063a217fddf146106c5578063a457c2d7146106e3578063a9059cbb14610713578063d505accf14610743578063d547741f1461075f5761027d565b80637ecebe001161011e5780637ecebe00146105df5780638456cb591461060f57806384b0196e146106195780638da5cb5b1461063d57806391d148541461065b57806395d89b411461068b5761027d565b80636e60318e1461053b57806370a082311461055957806372c328601461058957806375829def146105a757806379cc6790146105c35761027d565b80633644e515116101f357806342966c68116101b757806342966c681461048b5780635c975abb146104a75780635cb65d05146104c55780635d0d4c5b146104e357806362b199c5146105015780636abf70811461051f5761027d565b80633644e515146103fb57806336568abe1461041957806339509351146104355780633f4ba83a1461046557806340c10f191461046f5761027d565b80630e18b681116102455780630e18b6811461033957806318160ddd1461034357806323b872dd14610361578063248a9ca3146103915780632f2ff15d146103c1578063313ce567146103dd5761027d565b806301ae111c1461028157806301ffc9a71461029f57806306fdde03146102cf578063077f224a146102ed578063095ea7b314610309575b5f5ffd5b61028961084f565b60405161029691906133c6565b60405180910390f35b6102b960048036038101906102b49190613445565b610873565b6040516102c6919061348a565b60405180910390f35b6102d76108ec565b6040516102e49190613513565b60405180910390f35b610307600480360381019061030291906136b9565b61097c565b005b610323600480360381019061031e9190613774565b610ad0565b604051610330919061348a565b60405180910390f35b610341610af2565b005b61034b610b87565b60405161035891906137c1565b60405180910390f35b61037b600480360381019061037691906137da565b610b90565b604051610388919061348a565b60405180910390f35b6103ab60048036038101906103a69190613854565b610bbe565b6040516103b891906133c6565b60405180910390f35b6103db60048036038101906103d6919061387f565b610bdc565b005b6103e5610c34565b6040516103f291906138d8565b60405180910390f35b610403610c3c565b60405161041091906133c6565b60405180910390f35b610433600480360381019061042e919061387f565b610c4a565b005b61044f600480360381019061044a9190613774565b610cb1565b60405161045c919061348a565b60405180910390f35b61046d610ce7565b005b61048960048036038101906104849190613774565b610d1c565b005b6104a560048036038101906104a091906138f1565b610d5d565b005b6104af610d8f565b6040516104bc919061348a565b60405180910390f35b6104cd610da6565b6040516104da91906133c6565b60405180910390f35b6104eb610dca565b6040516104f891906133c6565b60405180910390f35b610509610dee565b60405161051691906133c6565b60405180910390f35b61053960048036038101906105349190613979565b610e12565b005b610543610ee9565b60405161055091906133c6565b60405180910390f35b610573600480360381019061056e91906139c4565b610f0d565b60405161058091906137c1565b60405180910390f35b610591610f53565b60405161059e91906133c6565b60405180910390f35b6105c160048036038101906105bc91906139c4565b610f77565b005b6105dd60048036038101906105d89190613774565b6110a9565b005b6105f960048036038101906105f491906139c4565b6110db565b60405161060691906137c1565b60405180910390f35b610617611128565b005b61062161115d565b6040516106349796959493929190613aef565b60405180910390f35b610645611257565b6040516106529190613b71565b60405180910390f35b6106756004803603810190610670919061387f565b611280565b604051610682919061348a565b60405180910390f35b6106936112e5565b6040516106a09190613513565b60405180910390f35b6106c360048036038101906106be9190613774565b611375565b005b6106cd6113b6565b6040516106da91906133c6565b60405180910390f35b6106fd60048036038101906106f89190613774565b6113bc565b60405161070a919061348a565b60405180910390f35b61072d60048036038101906107289190613774565b611431565b60405161073a919061348a565b60405180910390f35b61075d60048036038101906107589190613bb4565b611453565b005b6107796004803603810190610774919061387f565b611592565b005b61079560048036038101906107909190613c51565b6115ea565b6040516107a291906137c1565b60405180910390f35b6107b361166c565b6040516107c091906133c6565b60405180910390f35b6107e360048036038101906107de9190613c8f565b611690565b005b6107ff60048036038101906107fa9190613979565b6119a7565b005b61081b600480360381019061081691906139c4565b611a7e565b604051610828919061348a565b60405180910390f35b610839611ab0565b60405161084691906133c6565b60405180910390f35b7f8429d542926e6695b59ac6fbdcd9b37e8b1aeb757afab06ab60b1bb5878c3b4981565b5f7f7965db0b000000000000000000000000000000000000000000000000000000007bffffffffffffffffffffffffffffffffffffffffffffffffffffffff1916827bffffffffffffffffffffffffffffffffffffffffffffffffffffffff191614806108e557506108e482611ad4565b5b9050919050565b6060603680546108fb90613d20565b80601f016020809104026020016040519081016040528092919081815260200182805461092790613d20565b80156109725780601f1061094957610100808354040283529160200191610972565b820191905f5260205f20905b81548152906001019060200180831161095557829003601f168201915b5050505050905090565b5f5f60019054906101000a900460ff161590508080156109ac575060015f5f9054906101000a900460ff1660ff16105b806109d957506109bb30611b3d565b1580156109d8575060015f5f9054906101000a900460ff1660ff16145b5b610a18576040517f08c379a0000000000000000000000000000000000000000000000000000000008152600401610a0f90613dc0565b60405180910390fd5b60015f5f6101000a81548160ff021916908360ff1602179055508015610a535760015f60016101000a81548160ff0219169083151502179055505b610a5d8484611b5f565b610a6684611bbb565b610a725f5f1b83611c4b565b8015610aca575f5f60016101000a81548160ff0219169083151502179055507f7f26b83ff96e1f2b6a682f133852f6798a09c465da95921460cefb38474024986001604051610ac19190613e20565b60405180910390a15b50505050565b5f5f610ada611d73565b9050610ae7818585611d7a565b600191505092915050565b6101955f9054906101000a900473ffffffffffffffffffffffffffffffffffffffff1673ffffffffffffffffffffffffffffffffffffffff163373ffffffffffffffffffffffffffffffffffffffff1614610b79576040517f058d9a1b00000000000000000000000000000000000000000000000000000000815260040160405180910390fd5b610b855f5f1b33611c4b565b565b5f603554905090565b5f5f610b9a611d73565b9050610ba7858285611f3d565b610bb2858585611fc8565b60019150509392505050565b5f6101625f8381526020019081526020015f20600101549050919050565b5f5f1b610be881612237565b825f5f1b8103610c24576040517f6317a0fa00000000000000000000000000000000000000000000000000000000815260040160405180910390fd5b610c2e8484611c4b565b50505050565b5f6012905090565b5f610c4561224b565b905090565b7f548c7f0307ab2a7ea894e5c7e8c5353cc750bb9385ee2e945f189a9a83daa8ed8203610ca3576040517ff50a3b5200000000000000000000000000000000000000000000000000000000815260040160405180910390fd5b610cad8282612259565b5050565b5f5f610cbb611d73565b9050610cdc818585610ccd85896115ea565b610cd79190613e66565b611d7a565b600191505092915050565b7f65d7a28e3265b37a6474929f336521b332c1681b933f6cb9f3376673440d862a610d1181612237565b610d196122a4565b50565b7fcfd53186d792f1ec9d0679afc2dc3ffc86fc31fe1e0f342b838eb6c3eade62b3610d4681612237565b610d4e612307565b610d588383612351565b505050565b6040517fc73b9d7c00000000000000000000000000000000000000000000000000000000815260040160405180910390fd5b5f61019560159054906101000a900460ff16905090565b7ff988e4fb62b8e14f4820fed03192306ddf4d7dbfa215595ba1c6ba4b76b369ee81565b7f2a3dab589bcc9747970dd85ac3f222668741ae51f2a1bbb8f8355be28dd8a86881565b7f548c7f0307ab2a7ea894e5c7e8c5353cc750bb9385ee2e945f189a9a83daa8ed81565b7f5442dc837335aa278534a338d1e63d0c5649b0678ad376ddd382f1af9b8f250a610e3c81612237565b5f8383905090505f5b81811015610ea957610e9e7f548c7f0307ab2a7ea894e5c7e8c5353cc750bb9385ee2e945f189a9a83daa8ed868684818110610e8457610e83613e99565b5b9050602002016020810190610e9991906139c4565b611c4b565b806001019050610e45565b507f5444f9841c04ce78987f28701fa07fc4c112840c1c8439e8f52bda50c3788a878484604051610edb929190613f82565b60405180910390a150505050565b7f5e60f7acd354195c64e1c2c1e3ac5d68aea74bb6f1bf6b3a464c08e4b2fce80481565b5f60335f8373ffffffffffffffffffffffffffffffffffffffff1673ffffffffffffffffffffffffffffffffffffffff1681526020019081526020015f20549050919050565b7fcfd53186d792f1ec9d0679afc2dc3ffc86fc31fe1e0f342b838eb6c3eade62b381565b5f5f1b610f8381612237565b3373ffffffffffffffffffffffffffffffffffffffff168273ffffffffffffffffffffffffffffffffffffffff1603610fe8576040517f6317a0fa00000000000000000000000000000000000000000000000000000000815260040160405180910390fd5b816101955f6101000a81548173ffffffffffffffffffffffffffffffffffffffff021916908373ffffffffffffffffffffffffffffffffffffffff1602179055508173ffffffffffffffffffffffffffffffffffffffff166101945f9054906101000a900473ffffffffffffffffffffffffffffffffffffffff1673ffffffffffffffffffffffffffffffffffffffff167fefdcbba819467e00b0262c12892dda980bac68580b72178e57a162368b80876660405160405180910390a35050565b6040517fc73b9d7c00000000000000000000000000000000000000000000000000000000815260040160405180910390fd5b5f61112160cb5f8473ffffffffffffffffffffffffffffffffffffffff1673ffffffffffffffffffffffffffffffffffffffff1681526020019081526020015f206124a0565b9050919050565b7f65d7a28e3265b37a6474929f336521b332c1681b933f6cb9f3376673440d862a61115281612237565b61115a6124ac565b50565b5f6060805f5f5f60605f5f1b60975414801561117c57505f5f1b609854145b6111bb576040517f08c379a00000000000000000000000000000000000000000000000000000000081526004016111b290613fee565b60405180910390fd5b6111c3612510565b6111cb6125a0565b46305f5f1b5f67ffffffffffffffff8111156111ea576111e961353b565b5b6040519080825280602002602001820160405280156112185781602001602082028036833780820191505090505b507f0f00000000000000000000000000000000000000000000000000000000000000959493929190965096509650965096509650965090919293949596565b5f6101945f9054906101000a900473ffffffffffffffffffffffffffffffffffffffff16905090565b5f6101625f8481526020019081526020015f205f015f8373ffffffffffffffffffffffffffffffffffffffff1673ffffffffffffffffffffffffffffffffffffffff1681526020019081526020015f205f9054906101000a900460ff16905092915050565b6060603780546112f490613d20565b80601f016020809104026020016040519081016040528092919081815260200182805461132090613d20565b801561136b5780601f106113425761010080835404028352916020019161136b565b820191905f5260205f20905b81548152906001019060200180831161134e57829003601f168201915b5050505050905090565b7fcfd53186d792f1ec9d0679afc2dc3ffc86fc31fe1e0f342b838eb6c3eade62b361139f81612237565b6113a7612307565b6113b18383612630565b505050565b5f5f1b81565b5f5f6113c6611d73565b90505f6113d382866115ea565b905083811015611418576040517f08c379a000000000000000000000000000000000000000000000000000000000815260040161140f9061407c565b60405180910390fd5b6114258286868403611d7a565b60019250505092915050565b5f5f61143b611d73565b9050611448818585611fc8565b600191505092915050565b83421115611496576040517f08c379a000000000000000000000000000000000000000000000000000000000815260040161148d906140e4565b60405180910390fd5b5f7f6e71edae12b1b97f4d1f60370fef10105fa2faae0126114a169c64845d6126c98888886114c48c6127f5565b896040516020016114da96959493929190614102565b6040516020818303038152906040528051906020012090505f6114fc82612850565b90505f61150b82878787612869565b90508973ffffffffffffffffffffffffffffffffffffffff168173ffffffffffffffffffffffffffffffffffffffff161461157b576040517f08c379a0000000000000000000000000000000000000000000000000000000008152600401611572906141ab565b60405180910390fd5b6115868a8a8a611d7a565b50505050505050505050565b5f5f1b61159e81612237565b825f5f1b81036115da576040517f6317a0fa00000000000000000000000000000000000000000000000000000000815260040160405180910390fd5b6115e48484612892565b50505050565b5f60345f8473ffffffffffffffffffffffffffffffffffffffff1673ffffffffffffffffffffffffffffffffffffffff1681526020019081526020015f205f8373ffffffffffffffffffffffffffffffffffffffff1673ffffffffffffffffffffffffffffffffffffffff1681526020019081526020015f2054905092915050565b7f65d7a28e3265b37a6474929f336521b332c1681b933f6cb9f3376673440d862a81565b60025f60019054906101000a900460ff161580156116c057508060ff165f5f9054906101000a900460ff1660ff16105b6116ff576040517f08c379a00000000000000000000000000000000000000000000000000000000081526004016116f690613dc0565b60405180910390fd5b805f5f6101000a81548160ff021916908360ff16021790555060015f60016101000a81548160ff0219169083151502179055505f73ffffffffffffffffffffffffffffffffffffffff168573ffffffffffffffffffffffffffffffffffffffff1603611797576040517fd92e233d00000000000000000000000000000000000000000000000000000000815260040160405180910390fd5b5f73ffffffffffffffffffffffffffffffffffffffff168473ffffffffffffffffffffffffffffffffffffffff16036117fc576040517fd92e233d00000000000000000000000000000000000000000000000000000000815260040160405180910390fd5b5f73ffffffffffffffffffffffffffffffffffffffff168373ffffffffffffffffffffffffffffffffffffffff1603611861576040517fd92e233d00000000000000000000000000000000000000000000000000000000815260040160405180910390fd5b5f73ffffffffffffffffffffffffffffffffffffffff168273ffffffffffffffffffffffffffffffffffffffff16036118c6576040517fd92e233d00000000000000000000000000000000000000000000000000000000815260040160405180910390fd5b6118d25f5f1b86611c4b565b6118fc7fcfd53186d792f1ec9d0679afc2dc3ffc86fc31fe1e0f342b838eb6c3eade62b385611c4b565b6119267f5442dc837335aa278534a338d1e63d0c5649b0678ad376ddd382f1af9b8f250a84611c4b565b6119507f65d7a28e3265b37a6474929f336521b332c1681b933f6cb9f3376673440d862a83611c4b565b5f5f60016101000a81548160ff0219169083151502179055507f7f26b83ff96e1f2b6a682f133852f6798a09c465da95921460cefb38474024988160405161199891906138d8565b60405180910390a15050505050565b7f5442dc837335aa278534a338d1e63d0c5649b0678ad376ddd382f1af9b8f250a6119d181612237565b5f8383905090505f5b81811015611a3e57611a337f548c7f0307ab2a7ea894e5c7e8c5353cc750bb9385ee2e945f189a9a83daa8ed868684818110611a1957611a18613e99565b5b9050602002016020810190611a2e91906139c4565b612892565b8060010190506119da565b507f4a637dd1cd99ae43d353009d0ffbc16b05cc69808b819ebf852c68ea47b34dd48484604051611a70929190613f82565b60405180910390a150505050565b5f611aa97f548c7f0307ab2a7ea894e5c7e8c5353cc750bb9385ee2e945f189a9a83daa8ed83611280565b9050919050565b7f5442dc837335aa278534a338d1e63d0c5649b0678ad376ddd382f1af9b8f250a81565b5f7f01ffc9a7000000000000000000000000000000000000000000000000000000007bffffffffffffffffffffffffffffffffffffffffffffffffffffffff1916827bffffffffffffffffffffffffffffffffffffffffffffffffffffffff1916149050919050565b5f5f8273ffffffffffffffffffffffffffffffffffffffff163b119050919050565b5f60019054906101000a900460ff16611bad576040517f08c379a0000000000000000000000000000000000000000000000000000000008152600401611ba490614239565b60405180910390fd5b611bb7828261296e565b5050565b5f60019054906101000a900460ff16611c09576040517f08c379a0000000000000000000000000000000000000000000000000000000008152600401611c0090614239565b60405180910390fd5b611c48816040518060400160405280600181526020017f31000000000000000000000000000000000000000000000000000000000000008152506129e0565b50565b5f5f1b8203611d65578073ffffffffffffffffffffffffffffffffffffffff166101945f9054906101000a900473ffffffffffffffffffffffffffffffffffffffff1673ffffffffffffffffffffffffffffffffffffffff167ff8ccb027dfcd135e000e9d45e6cc2d662578a8825d4c45b5e32e0adf67e79ec660405160405180910390a3611cfe5f5f1b6101945f9054906101000a900473ffffffffffffffffffffffffffffffffffffffff16612892565b806101945f6101000a81548173ffffffffffffffffffffffffffffffffffffffff021916908373ffffffffffffffffffffffffffffffffffffffff1602179055506101955f6101000a81549073ffffffffffffffffffffffffffffffffffffffff02191690555b611d6f8282612a64565b5050565b5f33905090565b5f73ffffffffffffffffffffffffffffffffffffffff168373ffffffffffffffffffffffffffffffffffffffff1603611de8576040517f08c379a0000000000000000000000000000000000000000000000000000000008152600401611ddf906142c7565b60405180910390fd5b5f73ffffffffffffffffffffffffffffffffffffffff168273ffffffffffffffffffffffffffffffffffffffff1603611e56576040517f08c379a0000000000000000000000000000000000000000000000000000000008152600401611e4d90614355565b60405180910390fd5b8060345f8573ffffffffffffffffffffffffffffffffffffffff1673ffffffffffffffffffffffffffffffffffffffff1681526020019081526020015f205f8473ffffffffffffffffffffffffffffffffffffffff1673ffffffffffffffffffffffffffffffffffffffff1681526020019081526020015f20819055508173ffffffffffffffffffffffffffffffffffffffff168373ffffffffffffffffffffffffffffffffffffffff167f8c5be1e5ebec7d5bd14f71427d1e84f3dd0314c0f7b2291e5b200ac8c7c3b92583604051611f3091906137c1565b60405180910390a3505050565b5f611f4884846115ea565b90507fffffffffffffffffffffffffffffffffffffffffffffffffffffffffffffffff8114611fc25781811015611fb4576040517f08c379a0000000000000000000000000000000000000000000000000000000008152600401611fab906143bd565b60405180910390fd5b611fc18484848403611d7a565b5b50505050565b5f73ffffffffffffffffffffffffffffffffffffffff168373ffffffffffffffffffffffffffffffffffffffff1603612036576040517f08c379a000000000000000000000000000000000000000000000000000000000815260040161202d9061444b565b60405180910390fd5b5f73ffffffffffffffffffffffffffffffffffffffff168273ffffffffffffffffffffffffffffffffffffffff16036120a4576040517f08c379a000000000000000000000000000000000000000000000000000000000815260040161209b906144d9565b60405180910390fd5b6120af838383612b40565b5f60335f8573ffffffffffffffffffffffffffffffffffffffff1673ffffffffffffffffffffffffffffffffffffffff1681526020019081526020015f2054905081811015612133576040517f08c379a000000000000000000000000000000000000000000000000000000000815260040161212a90614567565b60405180910390fd5b81810360335f8673ffffffffffffffffffffffffffffffffffffffff1673ffffffffffffffffffffffffffffffffffffffff1681526020019081526020015f20819055508160335f8573ffffffffffffffffffffffffffffffffffffffff1673ffffffffffffffffffffffffffffffffffffffff1681526020019081526020015f205f82825401925050819055508273ffffffffffffffffffffffffffffffffffffffff168473ffffffffffffffffffffffffffffffffffffffff167fddf252ad1be2c89b69c2b068fc378daa952ba7f163c4a11628f55a4df523b3ef8460405161221e91906137c1565b60405180910390a3612231848484612bd8565b50505050565b61224881612243611d73565b612bdd565b50565b5f612254612c61565b905090565b815f5f1b8103612295576040517f6317a0fa00000000000000000000000000000000000000000000000000000000815260040160405180910390fd5b61229f8383612cc4565b505050565b6122ac612d47565b5f61019560156101000a81548160ff0219169083151502179055507f5db9ee0a495bf2e6ff9c91a7834c1ba4fdd244a5e8aa4e537bd38aeae4b073aa6122f0611d73565b6040516122fd9190613b71565b60405180910390a1565b61230f610d8f565b1561234f576040517f08c379a0000000000000000000000000000000000000000000000000000000008152600401612346906145cf565b60405180910390fd5b565b5f73ffffffffffffffffffffffffffffffffffffffff168273ffffffffffffffffffffffffffffffffffffffff16036123bf576040517f08c379a00000000000000000000000000000000000000000000000000000000081526004016123b690614637565b60405180910390fd5b6123ca5f8383612b40565b8060355f8282546123db9190613e66565b925050819055508060335f8473ffffffffffffffffffffffffffffffffffffffff1673ffffffffffffffffffffffffffffffffffffffff1681526020019081526020015f205f82825401925050819055508173ffffffffffffffffffffffffffffffffffffffff165f73ffffffffffffffffffffffffffffffffffffffff167fddf252ad1be2c89b69c2b068fc378daa952ba7f163c4a11628f55a4df523b3ef8360405161248991906137c1565b60405180910390a361249c5f8383612bd8565b5050565b5f815f01549050919050565b6124b4612307565b600161019560156101000a81548160ff0219169083151502179055507f62e78cea01bee320cd4e420270b5ea74000d11b0c9f74754ebdbfc544b05a2586124f9611d73565b6040516125069190613b71565b60405180910390a1565b60606099805461251f90613d20565b80601f016020809104026020016040519081016040528092919081815260200182805461254b90613d20565b80156125965780601f1061256d57610100808354040283529160200191612596565b820191905f5260205f20905b81548152906001019060200180831161257957829003601f168201915b5050505050905090565b6060609a80546125af90613d20565b80601f01602080910402602001604051908101604052809291908181526020018280546125db90613d20565b80156126265780601f106125fd57610100808354040283529160200191612626565b820191905f5260205f20905b81548152906001019060200180831161260957829003601f168201915b5050505050905090565b5f73ffffffffffffffffffffffffffffffffffffffff168273ffffffffffffffffffffffffffffffffffffffff160361269e576040517f08c379a0000000000000000000000000000000000000000000000000000000008152600401612695906146c5565b60405180910390fd5b6126a9825f83612b40565b5f60335f8473ffffffffffffffffffffffffffffffffffffffff1673ffffffffffffffffffffffffffffffffffffffff1681526020019081526020015f205490508181101561272d576040517f08c379a000000000000000000000000000000000000000000000000000000000815260040161272490614753565b60405180910390fd5b81810360335f8573ffffffffffffffffffffffffffffffffffffffff1673ffffffffffffffffffffffffffffffffffffffff1681526020019081526020015f20819055508160355f82825403925050819055505f73ffffffffffffffffffffffffffffffffffffffff168373ffffffffffffffffffffffffffffffffffffffff167fddf252ad1be2c89b69c2b068fc378daa952ba7f163c4a11628f55a4df523b3ef846040516127dd91906137c1565b60405180910390a36127f0835f84612bd8565b505050565b5f5f60cb5f8473ffffffffffffffffffffffffffffffffffffffff1673ffffffffffffffffffffffffffffffffffffffff1681526020019081526020015f20905061283f816124a0565b915061284a81612d90565b50919050565b5f61286261285c61224b565b83612da4565b9050919050565b5f5f5f61287887878787612de4565b9150915061288581612ebc565b8192505050949350505050565b61289c8282611280565b1561296a575f6101625f8481526020019081526020015f205f015f8373ffffffffffffffffffffffffffffffffffffffff1673ffffffffffffffffffffffffffffffffffffffff1681526020019081526020015f205f6101000a81548160ff02191690831515021790555061290f611d73565b73ffffffffffffffffffffffffffffffffffffffff168173ffffffffffffffffffffffffffffffffffffffff16837ff6391f5c32d9c69d2a47ea670b442974b53935d1edc7fd64eb21e047a839171b60405160405180910390a45b5050565b5f60019054906101000a900460ff166129bc576040517f08c379a00000000000000000000000000000000000000000000000000000000081526004016129b390614239565b60405180910390fd5b81603690816129cb9190614908565b5080603790816129db9190614908565b505050565b5f60019054906101000a900460ff16612a2e576040517f08c379a0000000000000000000000000000000000000000000000000000000008152600401612a2590614239565b60405180910390fd5b8160999081612a3d9190614908565b5080609a9081612a4d9190614908565b505f5f1b6097819055505f5f1b6098819055505050565b612a6e8282611280565b612b3c5760016101625f8481526020019081526020015f205f015f8373ffffffffffffffffffffffffffffffffffffffff1673ffffffffffffffffffffffffffffffffffffffff1681526020019081526020015f205f6101000a81548160ff021916908315150217905550612ae1611d73565b73ffffffffffffffffffffffffffffffffffffffff168173ffffffffffffffffffffffffffffffffffffffff16837f2f8788117e7eff1d82e926ec794901d17c78024a50270940304540a733656f0d60405160405180910390a45b5050565b5f73ffffffffffffffffffffffffffffffffffffffff168273ffffffffffffffffffffffffffffffffffffffff1614158015612b915750612b8083611a7e565b80612b905750612b8f82611a7e565b5b5b15612bc8576040517f6bc671fd00000000000000000000000000000000000000000000000000000000815260040160405180910390fd5b612bd3838383613021565b505050565b505050565b612be78282611280565b612c5d57612bf481613079565b612c01835f1c60206130a6565b604051602001612c12929190614aa5565b6040516020818303038152906040526040517f08c379a0000000000000000000000000000000000000000000000000000000008152600401612c549190613513565b60405180910390fd5b5050565b5f7f8b73c3c69bb8fe3d512ecc4cf759cc79239f7b179b0ffacaa9a75d522b39400f612c8b6132db565b612c93613342565b4630604051602001612ca9959493929190614ade565b60405160208183030381529060405280519060200120905090565b612ccc611d73565b73ffffffffffffffffffffffffffffffffffffffff168173ffffffffffffffffffffffffffffffffffffffff1614612d39576040517f08c379a0000000000000000000000000000000000000000000000000000000008152600401612d3090614b9f565b60405180910390fd5b612d438282612892565b5050565b612d4f610d8f565b612d8e576040517f08c379a0000000000000000000000000000000000000000000000000000000008152600401612d8590614c07565b60405180910390fd5b565b6001815f015f828254019250508190555050565b5f6040517f190100000000000000000000000000000000000000000000000000000000000081528360028201528260228201526042812091505092915050565b5f5f7f7fffffffffffffffffffffffffffffff5d576e7357a4501ddfe92f46681b20a0835f1c1115612e1c575f600391509150612eb3565b5f6001878787876040515f8152602001604052604051612e3f9493929190614c25565b6020604051602081039080840390855afa158015612e5f573d5f5f3e3d5ffd5b5050506020604051035190505f73ffffffffffffffffffffffffffffffffffffffff168173ffffffffffffffffffffffffffffffffffffffff1603612eab575f60019250925050612eb3565b805f92509250505b94509492505050565b5f6004811115612ecf57612ece614c68565b5b816004811115612ee257612ee1614c68565b5b031561301e5760016004811115612efc57612efb614c68565b5b816004811115612f0f57612f0e614c68565b5b03612f4f576040517f08c379a0000000000000000000000000000000000000000000000000000000008152600401612f4690614cdf565b60405180910390fd5b60026004811115612f6357612f62614c68565b5b816004811115612f7657612f75614c68565b5b03612fb6576040517f08c379a0000000000000000000000000000000000000000000000000000000008152600401612fad90614d47565b60405180910390fd5b60036004811115612fca57612fc9614c68565b5b816004811115612fdd57612fdc614c68565b5b0361301d576040517f08c379a000000000000000000000000000000000000000000000000000000000815260040161301490614dd5565b60405180910390fd5b5b50565b61302c8383836133a9565b613034610d8f565b15613074576040517f08c379a000000000000000000000000000000000000000000000000000000000815260040161306b90614e63565b60405180910390fd5b505050565b606061309f8273ffffffffffffffffffffffffffffffffffffffff16601460ff166130a6565b9050919050565b60605f60028360026130b89190614e81565b6130c29190613e66565b67ffffffffffffffff8111156130db576130da61353b565b5b6040519080825280601f01601f19166020018201604052801561310d5781602001600182028036833780820191505090505b5090507f3000000000000000000000000000000000000000000000000000000000000000815f8151811061314457613143613e99565b5b60200101907effffffffffffffffffffffffffffffffffffffffffffffffffffffffffffff191690815f1a9053507f7800000000000000000000000000000000000000000000000000000000000000816001815181106131a7576131a6613e99565b5b60200101907effffffffffffffffffffffffffffffffffffffffffffffffffffffffffffff191690815f1a9053505f60018460026131e59190614e81565b6131ef9190613e66565b90505b600181111561328e577f3031323334353637383961626364656600000000000000000000000000000000600f86166010811061323157613230613e99565b5b1a60f81b82828151811061324857613247613e99565b5b60200101907effffffffffffffffffffffffffffffffffffffffffffffffffffffffffffff191690815f1a905350600485901c94508061328790614ec2565b90506131f2565b505f84146132d1576040517f08c379a00000000000000000000000000000000000000000000000000000000081526004016132c890614f33565b60405180910390fd5b8091505092915050565b5f5f6132e5612510565b90505f8151111561330057808051906020012091505061333f565b5f60975490505f5f1b811461331957809250505061333f565b7fc5d2460186f7233c927e7db2dcc703c0e500b653ca82273b7bfad8045d85a470925050505b90565b5f5f61334c6125a0565b90505f815111156133675780805190602001209150506133a6565b5f60985490505f5f1b81146133805780925050506133a6565b7fc5d2460186f7233c927e7db2dcc703c0e500b653ca82273b7bfad8045d85a470925050505b90565b505050565b5f819050919050565b6133c0816133ae565b82525050565b5f6020820190506133d95f8301846133b7565b92915050565b5f604051905090565b5f5ffd5b5f5ffd5b5f7fffffffff0000000000000000000000000000000000000000000000000000000082169050919050565b613424816133f0565b811461342e575f5ffd5b50565b5f8135905061343f8161341b565b92915050565b5f6020828403121561345a576134596133e8565b5b5f61346784828501613431565b91505092915050565b5f8115159050919050565b61348481613470565b82525050565b5f60208201905061349d5f83018461347b565b92915050565b5f81519050919050565b5f82825260208201905092915050565b8281835e5f83830152505050565b5f601f19601f8301169050919050565b5f6134e5826134a3565b6134ef81856134ad565b93506134ff8185602086016134bd565b613508816134cb565b840191505092915050565b5f6020820190508181035f83015261352b81846134db565b905092915050565b5f5ffd5b5f5ffd5b7f4e487b71000000000000000000000000000000000000000000000000000000005f52604160045260245ffd5b613571826134cb565b810181811067ffffffffffffffff821117156135905761358f61353b565b5b80604052505050565b5f6135a26133df565b90506135ae8282613568565b919050565b5f67ffffffffffffffff8211156135cd576135cc61353b565b5b6135d6826134cb565b9050602081019050919050565b828183375f83830152505050565b5f6136036135fe846135b3565b613599565b90508281526020810184848401111561361f5761361e613537565b5b61362a8482856135e3565b509392505050565b5f82601f83011261364657613645613533565b5b81356136568482602086016135f1565b91505092915050565b5f73ffffffffffffffffffffffffffffffffffffffff82169050919050565b5f6136888261365f565b9050919050565b6136988161367e565b81146136a2575f5ffd5b50565b5f813590506136b38161368f565b92915050565b5f5f5f606084860312156136d0576136cf6133e8565b5b5f84013567ffffffffffffffff8111156136ed576136ec6133ec565b5b6136f986828701613632565b935050602084013567ffffffffffffffff81111561371a576137196133ec565b5b61372686828701613632565b9250506040613737868287016136a5565b9150509250925092565b5f819050919050565b61375381613741565b811461375d575f5ffd5b50565b5f8135905061376e8161374a565b92915050565b5f5f6040838503121561378a576137896133e8565b5b5f613797858286016136a5565b92505060206137a885828601613760565b9150509250929050565b6137bb81613741565b82525050565b5f6020820190506137d45f8301846137b2565b92915050565b5f5f5f606084860312156137f1576137f06133e8565b5b5f6137fe868287016136a5565b935050602061380f868287016136a5565b925050604061382086828701613760565b9150509250925092565b613833816133ae565b811461383d575f5ffd5b50565b5f8135905061384e8161382a565b92915050565b5f60208284031215613869576138686133e8565b5b5f61387684828501613840565b91505092915050565b5f5f60408385031215613895576138946133e8565b5b5f6138a285828601613840565b92505060206138b3858286016136a5565b9150509250929050565b5f60ff82169050919050565b6138d2816138bd565b82525050565b5f6020820190506138eb5f8301846138c9565b92915050565b5f60208284031215613906576139056133e8565b5b5f61391384828501613760565b91505092915050565b5f5ffd5b5f5ffd5b5f5f83601f84011261393957613938613533565b5b8235905067ffffffffffffffff8111156139565761395561391c565b5b60208301915083602082028301111561397257613971613920565b5b9250929050565b5f5f6020838503121561398f5761398e6133e8565b5b5f83013567ffffffffffffffff8111156139ac576139ab6133ec565b5b6139b885828601613924565b92509250509250929050565b5f602082840312156139d9576139d86133e8565b5b5f6139e6848285016136a5565b91505092915050565b5f7fff0000000000000000000000000000000000000000000000000000000000000082169050919050565b613a23816139ef565b82525050565b613a328161367e565b82525050565b5f81519050919050565b5f82825260208201905092915050565b5f819050602082019050919050565b613a6a81613741565b82525050565b5f613a7b8383613a61565b60208301905092915050565b5f602082019050919050565b5f613a9d82613a38565b613aa78185613a42565b9350613ab283613a52565b805f5b83811015613ae2578151613ac98882613a70565b9750613ad483613a87565b925050600181019050613ab5565b5085935050505092915050565b5f60e082019050613b025f83018a613a1a565b8181036020830152613b1481896134db565b90508181036040830152613b2881886134db565b9050613b3760608301876137b2565b613b446080830186613a29565b613b5160a08301856133b7565b81810360c0830152613b638184613a93565b905098975050505050505050565b5f602082019050613b845f830184613a29565b92915050565b613b93816138bd565b8114613b9d575f5ffd5b50565b5f81359050613bae81613b8a565b92915050565b5f5f5f5f5f5f5f60e0888a031215613bcf57613bce6133e8565b5b5f613bdc8a828b016136a5565b9750506020613bed8a828b016136a5565b9650506040613bfe8a828b01613760565b9550506060613c0f8a828b01613760565b9450506080613c208a828b01613ba0565b93505060a0613c318a828b01613840565b92505060c0613c428a828b01613840565b91505092959891949750929550565b5f5f60408385031215613c6757613c666133e8565b5b5f613c74858286016136a5565b9250506020613c85858286016136a5565b9150509250929050565b5f5f5f5f60808587031215613ca757613ca66133e8565b5b5f613cb4878288016136a5565b9450506020613cc5878288016136a5565b9350506040613cd6878288016136a5565b9250506060613ce7878288016136a5565b91505092959194509250565b7f4e487b71000000000000000000000000000000000000000000000000000000005f52602260045260245ffd5b5f6002820490506001821680613d3757607f821691505b602082108103613d4a57613d49613cf3565b5b50919050565b7f496e697469616c697a61626c653a20636f6e747261637420697320616c7265615f8201527f647920696e697469616c697a6564000000000000000000000000000000000000602082015250565b5f613daa602e836134ad565b9150613db582613d50565b604082019050919050565b5f6020820190508181035f830152613dd781613d9e565b9050919050565b5f819050919050565b5f819050919050565b5f613e0a613e05613e0084613dde565b613de7565b6138bd565b9050919050565b613e1a81613df0565b82525050565b5f602082019050613e335f830184613e11565b92915050565b7f4e487b71000000000000000000000000000000000000000000000000000000005f52601160045260245ffd5b5f613e7082613741565b9150613e7b83613741565b9250828201905080821115613e9357613e92613e39565b5b92915050565b7f4e487b71000000000000000000000000000000000000000000000000000000005f52603260045260245ffd5b5f82825260208201905092915050565b5f819050919050565b613ee88161367e565b82525050565b5f613ef98383613edf565b60208301905092915050565b5f613f1360208401846136a5565b905092915050565b5f602082019050919050565b5f613f328385613ec6565b9350613f3d82613ed6565b805f5b85811015613f7557613f528284613f05565b613f5c8882613eee565b9750613f6783613f1b565b925050600181019050613f40565b5085925050509392505050565b5f6020820190508181035f830152613f9b818486613f27565b90509392505050565b7f4549503731323a20556e696e697469616c697a656400000000000000000000005f82015250565b5f613fd86015836134ad565b9150613fe382613fa4565b602082019050919050565b5f6020820190508181035f83015261400581613fcc565b9050919050565b7f45524332303a2064656372656173656420616c6c6f77616e63652062656c6f775f8201527f207a65726f000000000000000000000000000000000000000000000000000000602082015250565b5f6140666025836134ad565b91506140718261400c565b604082019050919050565b5f6020820190508181035f8301526140938161405a565b9050919050565b7f45524332305065726d69743a206578706972656420646561646c696e650000005f82015250565b5f6140ce601d836134ad565b91506140d98261409a565b602082019050919050565b5f6020820190508181035f8301526140fb816140c2565b9050919050565b5f60c0820190506141155f8301896133b7565b6141226020830188613a29565b61412f6040830187613a29565b61413c60608301866137b2565b61414960808301856137b2565b61415660a08301846137b2565b979650505050505050565b7f45524332305065726d69743a20696e76616c6964207369676e617475726500005f82015250565b5f614195601e836134ad565b91506141a082614161565b602082019050919050565b5f6020820190508181035f8301526141c281614189565b9050919050565b7f496e697469616c697a61626c653a20636f6e7472616374206973206e6f7420695f8201527f6e697469616c697a696e67000000000000000000000000000000000000000000602082015250565b5f614223602b836134ad565b915061422e826141c9565b604082019050919050565b5f6020820190508181035f83015261425081614217565b9050919050565b7f45524332303a20617070726f76652066726f6d20746865207a65726f206164645f8201527f7265737300000000000000000000000000000000000000000000000000000000602082015250565b5f6142b16024836134ad565b91506142bc82614257565b604082019050919050565b5f6020820190508181035f8301526142de816142a5565b9050919050565b7f45524332303a20617070726f766520746f20746865207a65726f2061646472655f8201527f7373000000000000000000000000000000000000000000000000000000000000602082015250565b5f61433f6022836134ad565b915061434a826142e5565b604082019050919050565b5f6020820190508181035f83015261436c81614333565b9050919050565b7f45524332303a20696e73756666696369656e7420616c6c6f77616e63650000005f82015250565b5f6143a7601d836134ad565b91506143b282614373565b602082019050919050565b5f6020820190508181035f8301526143d48161439b565b9050919050565b7f45524332303a207472616e736665722066726f6d20746865207a65726f2061645f8201527f6472657373000000000000000000000000000000000000000000000000000000602082015250565b5f6144356025836134ad565b9150614440826143db565b604082019050919050565b5f6020820190508181035f83015261446281614429565b9050919050565b7f45524332303a207472616e7366657220746f20746865207a65726f20616464725f8201527f6573730000000000000000000000000000000000000000000000000000000000602082015250565b5f6144c36023836134ad565b91506144ce82614469565b604082019050919050565b5f6020820190508181035f8301526144f0816144b7565b9050919050565b7f45524332303a207472616e7366657220616d6f756e74206578636565647320625f8201527f616c616e63650000000000000000000000000000000000000000000000000000602082015250565b5f6145516026836134ad565b915061455c826144f7565b604082019050919050565b5f6020820190508181035f83015261457e81614545565b9050919050565b7f5061757361626c653a20706175736564000000000000000000000000000000005f82015250565b5f6145b96010836134ad565b91506145c482614585565b602082019050919050565b5f6020820190508181035f8301526145e6816145ad565b9050919050565b7f45524332303a206d696e7420746f20746865207a65726f2061646472657373005f82015250565b5f614621601f836134ad565b915061462c826145ed565b602082019050919050565b5f6020820190508181035f83015261464e81614615565b9050919050565b7f45524332303a206275726e2066726f6d20746865207a65726f206164647265735f8201527f7300000000000000000000000000000000000000000000000000000000000000602082015250565b5f6146af6021836134ad565b91506146ba82614655565b604082019050919050565b5f6020820190508181035f8301526146dc816146a3565b9050919050565b7f45524332303a206275726e20616d6f756e7420657863656564732062616c616e5f8201527f6365000000000000000000000000000000000000000000000000000000000000602082015250565b5f61473d6022836134ad565b9150614748826146e3565b604082019050919050565b5f6020820190508181035f83015261476a81614731565b9050919050565b5f819050815f5260205f209050919050565b5f6020601f8301049050919050565b5f82821b905092915050565b5f600883026147cd7fffffffffffffffffffffffffffffffffffffffffffffffffffffffffffffffff82614792565b6147d78683614792565b95508019841693508086168417925050509392505050565b5f6148096148046147ff84613741565b613de7565b613741565b9050919050565b5f819050919050565b614822836147ef565b61483661482e82614810565b84845461479e565b825550505050565b5f5f905090565b61484d61483e565b614858818484614819565b505050565b5b8181101561487b576148705f82614845565b60018101905061485e565b5050565b601f8211156148c05761489181614771565b61489a84614783565b810160208510156148a9578190505b6148bd6148b585614783565b83018261485d565b50505b505050565b5f82821c905092915050565b5f6148e05f19846008026148c5565b1980831691505092915050565b5f6148f883836148d1565b9150826002028217905092915050565b614911826134a3565b67ffffffffffffffff81111561492a5761492961353b565b5b6149348254613d20565b61493f82828561487f565b5f60209050601f831160018114614970575f841561495e578287015190505b61496885826148ed565b8655506149cf565b601f19841661497e86614771565b5f5b828110156149a557848901518255600182019150602085019450602081019050614980565b868310156149c257848901516149be601f8916826148d1565b8355505b6001600288020188555050505b505050505050565b5f81905092915050565b7f416363657373436f6e74726f6c3a206163636f756e74200000000000000000005f82015250565b5f614a156017836149d7565b9150614a20826149e1565b601782019050919050565b5f614a35826134a3565b614a3f81856149d7565b9350614a4f8185602086016134bd565b80840191505092915050565b7f206973206d697373696e6720726f6c65200000000000000000000000000000005f82015250565b5f614a8f6011836149d7565b9150614a9a82614a5b565b601182019050919050565b5f614aaf82614a09565b9150614abb8285614a2b565b9150614ac682614a83565b9150614ad28284614a2b565b91508190509392505050565b5f60a082019050614af15f8301886133b7565b614afe60208301876133b7565b614b0b60408301866133b7565b614b1860608301856137b2565b614b256080830184613a29565b9695505050505050565b7f416363657373436f6e74726f6c3a2063616e206f6e6c792072656e6f756e63655f8201527f20726f6c657320666f722073656c660000000000000000000000000000000000602082015250565b5f614b89602f836134ad565b9150614b9482614b2f565b604082019050919050565b5f6020820190508181035f830152614bb681614b7d565b9050919050565b7f5061757361626c653a206e6f74207061757365640000000000000000000000005f82015250565b5f614bf16014836134ad565b9150614bfc82614bbd565b602082019050919050565b5f6020820190508181035f830152614c1e81614be5565b9050919050565b5f608082019050614c385f8301876133b7565b614c4560208301866138c9565b614c5260408301856133b7565b614c5f60608301846133b7565b95945050505050565b7f4e487b71000000000000000000000000000000000000000000000000000000005f52602160045260245ffd5b7f45434453413a20696e76616c6964207369676e617475726500000000000000005f82015250565b5f614cc96018836134ad565b9150614cd482614c95565b602082019050919050565b5f6020820190508181035f830152614cf681614cbd565b9050919050565b7f45434453413a20696e76616c6964207369676e6174757265206c656e677468005f82015250565b5f614d31601f836134ad565b9150614d3c82614cfd565b602082019050919050565b5f6020820190508181035f830152614d5e81614d25565b9050919050565b7f45434453413a20696e76616c6964207369676e6174757265202773272076616c5f8201527f7565000000000000000000000000000000000000000000000000000000000000602082015250565b5f614dbf6022836134ad565b9150614dca82614d65565b604082019050919050565b5f6020820190508181035f830152614dec81614db3565b9050919050565b7f45524332305061757361626c653a20746f6b656e207472616e736665722077685f8201527f696c652070617573656400000000000000000000000000000000000000000000602082015250565b5f614e4d602a836134ad565b9150614e5882614df3565b604082019050919050565b5f6020820190508181035f830152614e7a81614e41565b9050919050565b5f614e8b82613741565b9150614e9683613741565b9250828202614ea481613741565b91508282048414831517614ebb57614eba613e39565b5b5092915050565b5f614ecc82613741565b91505f8203614ede57614edd613e39565b5b600182039050919050565b7f537472696e67733a20686578206c656e67746820696e73756666696369656e745f82015250565b5f614f1d6020836134ad565b9150614f2882614ee9565b602082019050919050565b5f6020820190508181035f830152614f4a81614f11565b905091905056fea264697066735822122042cc738c9510d5dfe7fa10fc7d8248a40c4c1a4be8fcd82004bbaed59a6ae0f664736f6c634300081e0033","linkReferences":{}},"methodIdentifiers":{"BLACKLISTED_ROLE()":"62b199c5","BLOCKLISTER_ROLE()":"fc19dddc","DEFAULT_ADMIN_ROLE()":"a217fddf","DOMAIN_SEPARATOR()":"3644e515","MINTER_BURNER_ROLE()":"72c32860","PAUSER_ROLE()":"e63ab1e9","__DEPRECATED_BLACKLIST_MANAGER_ROLE()":"5cb65d05","__DEPRECATED_MINTER_CONTRACT()":"6e60318e","__DEPRECATED_WHITELISTED_ROLE()":"01ae111c","__DEPRECATED_WHITELIST_MANAGER_ROLE()":"5d0d4c5b","acceptAdmin()":"0e18b681","allowance(address,address)":"dd62ed3e","approve(address,uint256)":"095ea7b3","balanceOf(address)":"70a08231","blockAccounts(address[])":"6abf7081","burn(address,uint256)":"9dc29fac","burn(uint256)":"42966c68","burnFrom(address,uint256)":"79cc6790","decimals()":"313ce567","decreaseAllowance(address,uint256)":"a457c2d7","eip712Domain()":"84b0196e","getRoleAdmin(bytes32)":"248a9ca3","grantRole(bytes32,address)":"2f2ff15d","hasRole(bytes32,address)":"91d14854","increaseAllowance(address,uint256)":"39509351","initialize(string,string,address)":"077f224a","initializeV2(address,address,address,address)":"f27ebced","isBlocked(address)":"fbac3951","mint(address,uint256)":"40c10f19","name()":"06fdde03","nonces(address)":"7ecebe00","owner()":"8da5cb5b","pause()":"8456cb59","paused()":"5c975abb","permit(address,address,uint256,uint256,uint8,bytes32,bytes32)":"d505accf","renounceRole(bytes32,address)":"36568abe","revokeRole(bytes32,address)":"d547741f","supportsInterface(bytes4)":"01ffc9a7","symbol()":"95d89b41","totalSupply()":"18160ddd","transfer(address,uint256)":"a9059cbb","transferAdmin(address)":"75829def","transferFrom(address,address,uint256)":"23b872dd","unblockAccounts(address[])":"faed47fd","unpause()":"3f4ba83a"},"id":24}