{"abi":[{"type":"constructor","inputs":[{"name":"_assets","type":"address[]","internalType":"address[]"},{"name":"_tokenConfig","type":"tuple[]","internalType":"struct IUSDtbMinting.TokenConfig[]","components":[{"name":"tokenType","type":"uint8","internalType":"enum IUSDtbMinting.TokenType"},{"name":"isActive","type":"bool","internalType":"bool"},{"name":"maxMintPerBlock","type":"uint128","internalType":"uint128"},{"name":"maxRedeemPerBlock","type":"uint128","internalType":"uint128"}]},{"name":"_globalConfig","type":"tuple","internalType":"struct IUSDtbMinting.GlobalConfig","components":[{"name":"globalMaxMintPerBlock","type":"uint128","internalType":"uint128"},{"name":"globalMaxRedeemPerBlock","type":"uint128","internalType":"uint128"}]},{"name":"_custodians","type":"address[]","internalType":"address[]"},{"name":"_admin","type":"address","internalType":"address"}],"stateMutability":"nonpayable"},{"type":"receive","stateMutability":"payable"},{"type":"function","name":"DEFAULT_ADMIN_ROLE","inputs":[],"outputs":[{"name":"","type":"bytes32","internalType":"bytes32"}],"stateMutability":"view"},{"type":"function","name":"acceptAdmin","inputs":[],"outputs":[],"stateMutability":"nonpayable"},{"type":"function","name":"addCustodianAddress","inputs":[{"name":"custodian","type":"address","internalType":"address"}],"outputs":[],"stateMutability":"nonpayable"},{"type":"function","name":"addSupportedAsset","inputs":[{"name":"asset","type":"address","internalType":"address"},{"name":"_tokenConfig","type":"tuple","internalType":"struct IUSDtbMinting.TokenConfig","components":[{"name":"tokenType","type":"uint8","internalType":"enum IUSDtbMinting.TokenType"},{"name":"isActive","type":"bool","internalType":"bool"},{"name":"maxMintPerBlock","type":"uint128","internalType":"uint128"},{"name":"maxRedeemPerBlock","type":"uint128","internalType":"uint128"}]}],"outputs":[],"stateMutability":"nonpayable"},{"type":"function","name":"addWhitelistedBenefactor","inputs":[{"name":"benefactor","type":"address","internalType":"address"}],"outputs":[],"stateMutability":"nonpayable"},{"type":"function","name":"confirmDelegatedSigner","inputs":[{"name":"_delegatedBy","type":"address","internalType":"address"}],"outputs":[],"stateMutability":"nonpayable"},{"type":"function","name":"delegatedSigner","inputs":[{"name":"","type":"address","internalType":"address"},{"name":"","type":"address","internalType":"address"}],"outputs":[{"name":"","type":"uint8","internalType":"enum IUSDtbMinting.DelegatedSignerStatus"}],"stateMutability":"view"},{"type":"function","name":"disableMintRedeem","inputs":[],"outputs":[],"stateMutability":"nonpayable"},{"type":"function","name":"encodeOrder","inputs":[{"name":"order","type":"tuple","internalType":"struct IUSDtbMinting.Order","components":[{"name":"order_id","type":"string","internalType":"string"},{"name":"order_type","type":"uint8","internalType":"enum IUSDtbMinting.OrderType"},{"name":"expiry","type":"uint120","internalType":"uint120"},{"name":"nonce","type":"uint128","internalType":"uint128"},{"name":"benefactor","type":"address","internalType":"address"},{"name":"beneficiary","type":"address","internalType":"address"},{"name":"collateral_asset","type":"address","internalType":"address"},{"name":"collateral_amount","type":"uint128","internalType":"uint128"},{"name":"usdtb_amount","type":"uint128","internalType":"uint128"}]}],"outputs":[{"name":"","type":"bytes","internalType":"bytes"}],"stateMutability":"pure"},{"type":"function","name":"getDomainSeparator","inputs":[],"outputs":[{"name":"","type":"bytes32","internalType":"bytes32"}],"stateMutability":"view"},{"type":"function","name":"getRoleAdmin","inputs":[{"name":"role","type":"bytes32","internalType":"bytes32"}],"outputs":[{"name":"","type":"bytes32","internalType":"bytes32"}],"stateMutability":"view"},{"type":"function","name":"globalConfig","inputs":[],"outputs":[{"name":"globalMaxMintPerBlock","type":"uint128","internalType":"uint128"},{"name":"globalMaxRedeemPerBlock","type":"uint128","internalType":"uint128"}],"stateMutability":"view"},{"type":"function","name":"grantRole","inputs":[{"name":"role","type":"bytes32","internalType":"bytes32"},{"name":"account","type":"address","internalType":"address"}],"outputs":[],"stateMutability":"nonpayable"},{"type":"function","name":"hasRole","inputs":[{"name":"role","type":"bytes32","internalType":"bytes32"},{"name":"account","type":"address","internalType":"address"}],"outputs":[{"name":"","type":"bool","internalType":"bool"}],"stateMutability":"view"},{"type":"function","name":"hashOrder","inputs":[{"name":"order","type":"tuple","internalType":"struct IUSDtbMinting.Order","components":[{"name":"order_id","type":"string","internalType":"string"},{"name":"order_type","type":"uint8","internalType":"enum IUSDtbMinting.OrderType"},{"name":"expiry","type":"uint120","internalType":"uint120"},{"name":"nonce","type":"uint128","internalType":"uint128"},{"name":"benefactor","type":"address","internalType":"address"},{"name":"beneficiary","type":"address","internalType":"address"},{"name":"collateral_asset","type":"address","internalType":"address"},{"name":"collateral_amount","type":"uint128","internalType":"uint128"},{"name":"usdtb_amount","type":"uint128","internalType":"uint128"}]}],"outputs":[{"name":"","type":"bytes32","internalType":"bytes32"}],"stateMutability":"view"},{"type":"function","name":"isApprovedBeneficiary","inputs":[{"name":"benefactor","type":"address","internalType":"address"},{"name":"beneficiary","type":"address","internalType":"address"}],"outputs":[{"name":"","type":"bool","internalType":"bool"}],"stateMutability":"view"},{"type":"function","name":"isCustodianAddress","inputs":[{"name":"custodian","type":"address","internalType":"address"}],"outputs":[{"name":"","type":"bool","internalType":"bool"}],"stateMutability":"view"},{"type":"function","name":"isSupportedAsset","inputs":[{"name":"asset","type":"address","internalType":"address"}],"outputs":[{"name":"","type":"bool","internalType":"bool"}],"stateMutability":"view"},{"type":"function","name":"isWhitelistedBenefactor","inputs":[{"name":"benefactor","type":"address","internalType":"address"}],"outputs":[{"name":"","type":"bool","internalType":"bool"}],"stateMutability":"view"},{"type":"function","name":"mint","inputs":[{"name":"order","type":"tuple","internalType":"struct IUSDtbMinting.Order","components":[{"name":"order_id","type":"string","internalType":"string"},{"name":"order_type","type":"uint8","internalType":"enum IUSDtbMinting.OrderType"},{"name":"expiry","type":"uint120","internalType":"uint120"},{"name":"nonce","type":"uint128","internalType":"uint128"},{"name":"benefactor","type":"address","internalType":"address"},{"name":"beneficiary","type":"address","internalType":"address"},{"name":"collateral_asset","type":"address","internalType":"address"},{"name":"collateral_amount","type":"uint128","internalType":"uint128"},{"name":"usdtb_amount","type":"uint128","internalType":"uint128"}]},{"name":"route","type":"tuple","internalType":"struct IUSDtbMinting.Route","components":[{"name":"addresses","type":"address[]","internalType":"address[]"},{"name":"ratios","type":"uint128[]","internalType":"uint128[]"}]},{"name":"signature","type":"tuple","internalType":"struct IUSDtbMinting.Signature","components":[{"name":"signature_type","type":"uint8","internalType":"enum IUSDtbMinting.SignatureType"},{"name":"signature_bytes","type":"bytes","internalType":"bytes"}]}],"outputs":[],"stateMutability":"nonpayable"},{"type":"function","name":"owner","inputs":[],"outputs":[{"name":"","type":"address","internalType":"address"}],"stateMutability":"view"},{"type":"function","name":"redeem","inputs":[{"name":"order","type":"tuple","internalType":"struct IUSDtbMinting.Order","components":[{"name":"order_id","type":"string","internalType":"string"},{"name":"order_type","type":"uint8","internalType":"enum IUSDtbMinting.OrderType"},{"name":"expiry","type":"uint120","internalType":"uint120"},{"name":"nonce","type":"uint128","internalType":"uint128"},{"name":"benefactor","type":"address","internalType":"address"},{"name":"beneficiary","type":"address","internalType":"address"},{"name":"collateral_asset","type":"address","internalType":"address"},{"name":"collateral_amount","type":"uint128","internalType":"uint128"},{"name":"usdtb_amount","type":"uint128","internalType":"uint128"}]},{"name":"signature","type":"tuple","internalType":"struct IUSDtbMinting.Signature","components":[{"name":"signature_type","type":"uint8","internalType":"enum IUSDtbMinting.SignatureType"},{"name":"signature_bytes","type":"bytes","internalType":"bytes"}]}],"outputs":[],"stateMutability":"nonpayable"},{"type":"function","name":"removeCollateralManagerRole","inputs":[{"name":"collateralManager","type":"address","internalType":"address"}],"outputs":[],"stateMutability":"nonpayable"},{"type":"function","name":"removeCustodianAddress","inputs":[{"name":"custodian","type":"address","internalType":"address"}],"outputs":[],"stateMutability":"nonpayable"},{"type":"function","name":"removeDelegatedSigner","inputs":[{"name":"_removedSigner","type":"address","internalType":"address"}],"outputs":[],"stateMutability":"nonpayable"},{"type":"function","name":"removeMinterRole","inputs":[{"name":"minter","type":"address","internalType":"address"}],"outputs":[],"stateMutability":"nonpayable"},{"type":"function","name":"removeRedeemerRole","inputs":[{"name":"redeemer","type":"address","internalType":"address"}],"outputs":[],"stateMutability":"nonpayable"},{"type":"function","name":"removeSupportedAsset","inputs":[{"name":"asset","type":"address","internalType":"address"}],"outputs":[],"stateMutability":"nonpayable"},{"type":"function","name":"removeWhitelistedBenefactor","inputs":[{"name":"benefactor","type":"address","internalType":"address"}],"outputs":[],"stateMutability":"nonpayable"},{"type":"function","name":"renounceRole","inputs":[{"name":"role","type":"bytes32","internalType":"bytes32"},{"name":"account","type":"address","internalType":"address"}],"outputs":[],"stateMutability":"nonpayable"},{"type":"function","name":"revokeRole","inputs":[{"name":"role","type":"bytes32","internalType":"bytes32"},{"name":"account","type":"address","internalType":"address"}],"outputs":[],"stateMutability":"nonpayable"},{"type":"function","name":"setApprovedBeneficiary","inputs":[{"name":"beneficiary","type":"address","internalType":"address"},{"name":"status","type":"bool","internalType":"bool"}],"outputs":[],"stateMutability":"nonpayable"},{"type":"function","name":"setDelegatedSigner","inputs":[{"name":"_delegateTo","type":"address","internalType":"address"}],"outputs":[],"stateMutability":"nonpayable"},{"type":"function","name":"setGlobalMaxMintPerBlock","inputs":[{"name":"_globalMaxMintPerBlock","type":"uint128","internalType":"uint128"}],"outputs":[],"stateMutability":"nonpayable"},{"type":"function","name":"setGlobalMaxRedeemPerBlock","inputs":[{"name":"_globalMaxRedeemPerBlock","type":"uint128","internalType":"uint128"}],"outputs":[],"stateMutability":"nonpayable"},{"type":"function","name":"setMaxMintPerBlock","inputs":[{"name":"_maxMintPerBlock","type":"uint128","internalType":"uint128"},{"name":"asset","type":"address","internalType":"address"}],"outputs":[],"stateMutability":"nonpayable"},{"type":"function","name":"setMaxRedeemPerBlock","inputs":[{"name":"_maxRedeemPerBlock","type":"uint128","internalType":"uint128"},{"name":"asset","type":"address","internalType":"address"}],"outputs":[],"stateMutability":"nonpayable"},{"type":"function","name":"setStablesDeltaLimit","inputs":[{"name":"_stablesDeltaLimit","type":"uint128","internalType":"uint128"}],"outputs":[],"stateMutability":"nonpayable"},{"type":"function","name":"setTokenType","inputs":[{"name":"asset","type":"address","internalType":"address"},{"name":"tokenType","type":"uint8","internalType":"enum IUSDtbMinting.TokenType"}],"outputs":[],"stateMutability":"nonpayable"},{"type":"function","name":"setUSDtbToken","inputs":[{"name":"_usdtb","type":"address","internalType":"contract IUSDtb"}],"outputs":[],"stateMutability":"nonpayable"},{"type":"function","name":"stablesDeltaLimit","inputs":[],"outputs":[{"name":"","type":"uint128","internalType":"uint128"}],"stateMutability":"view"},{"type":"function","name":"supportsInterface","inputs":[{"name":"interfaceId","type":"bytes4","internalType":"bytes4"}],"outputs":[{"name":"","type":"bool","internalType":"bool"}],"stateMutability":"view"},{"type":"function","name":"tokenConfig","inputs":[{"name":"","type":"address","internalType":"address"}],"outputs":[{"name":"tokenType","type":"uint8","internalType":"enum IUSDtbMinting.TokenType"},{"name":"isActive","type":"bool","internalType":"bool"},{"name":"maxMintPerBlock","type":"uint128","internalType":"uint128"},{"name":"maxRedeemPerBlock","type":"uint128","internalType":"uint128"}],"stateMutability":"view"},{"type":"function","name":"totalPerBlock","inputs":[{"name":"","type":"uint256","internalType":"uint256"}],"outputs":[{"name":"mintedPerBlock","type":"uint128","internalType":"uint128"},{"name":"redeemedPerBlock","type":"uint128","internalType":"uint128"}],"stateMutability":"view"},{"type":"function","name":"totalPerBlockPerAsset","inputs":[{"name":"","type":"uint256","internalType":"uint256"},{"name":"","type":"address","internalType":"address"}],"outputs":[{"name":"mintedPerBlock","type":"uint128","internalType":"uint128"},{"name":"redeemedPerBlock","type":"uint128","internalType":"uint128"}],"stateMutability":"view"},{"type":"function","name":"transferAdmin","inputs":[{"name":"newAdmin","type":"address","internalType":"address"}],"outputs":[],"stateMutability":"nonpayable"},{"type":"function","name":"transferToCustody","inputs":[{"name":"wallet","type":"address","internalType":"address"},{"name":"asset","type":"address","internalType":"address"},{"name":"amount","type":"uint128","internalType":"uint128"}],"outputs":[],"stateMutability":"nonpayable"},{"type":"function","name":"usdtb","inputs":[],"outputs":[{"name":"","type":"address","internalType":"contract IUSDtb"}],"stateMutability":"view"},{"type":"function","name":"verifyNonce","inputs":[{"name":"sender","type":"address","internalType":"address"},{"name":"nonce","type":"uint128","internalType":"uint128"}],"outputs":[{"name":"","type":"uint128","internalType":"uint128"},{"name":"","type":"uint256","internalType":"uint256"},{"name":"","type":"uint256","internalType":"uint256"}],"stateMutability":"view"},{"type":"function","name":"verifyOrder","inputs":[{"name":"order","type":"tuple","internalType":"struct IUSDtbMinting.Order","components":[{"name":"order_id","type":"string","internalType":"string"},{"name":"order_type","type":"uint8","internalType":"enum IUSDtbMinting.OrderType"},{"name":"expiry","type":"uint120","internalType":"uint120"},{"name":"nonce","type":"uint128","internalType":"uint128"},{"name":"benefactor","type":"address","internalType":"address"},{"name":"beneficiary","type":"address","internalType":"address"},{"name":"collateral_asset","type":"address","internalType":"address"},{"name":"collateral_amount","type":"uint128","internalType":"uint128"},{"name":"usdtb_amount","type":"uint128","internalType":"uint128"}]},{"name":"signature","type":"tuple","internalType":"struct IUSDtbMinting.Signature","components":[{"name":"signature_type","type":"uint8","internalType":"enum IUSDtbMinting.SignatureType"},{"name":"signature_bytes","type":"bytes","internalType":"bytes"}]}],"outputs":[{"name":"taker_order_hash","type":"bytes32","internalType":"bytes32"}],"stateMutability":"view"},{"type":"function","name":"verifyRoute","inputs":[{"name":"route","type":"tuple","internalType":"struct IUSDtbMinting.Route","components":[{"name":"addresses","type":"address[]","internalType":"address[]"},{"name":"ratios","type":"uint128[]","internalType":"uint128[]"}]}],"outputs":[{"name":"","type":"bool","internalType":"bool"}],"stateMutability":"view"},{"type":"function","name":"verifyStablesLimit","inputs":[{"name":"collateralAmount","type":"uint128","internalType":"uint128"},{"name":"usdtbAmount","type":"uint128","internalType":"uint128"},{"name":"collateralAsset","type":"address","internalType":"address"},{"name":"orderType","type":"uint8","internalType":"enum IUSDtbMinting.OrderType"}],"outputs":[{"name":"","type":"bool","internalType":"bool"}],"stateMutability":"view"},{"type":"event","name":"AdminTransferRequested","inputs":[{"name":"oldAdmin","type":"address","indexed":true,"internalType":"address"},{"name":"newAdmin","type":"address","indexed":true,"internalType":"address"}],"anonymous":false},{"type":"event","name":"AdminTransferred","inputs":[{"name":"oldAdmin","type":"address","indexed":true,"internalType":"address"},{"name":"newAdmin","type":"address","indexed":true,"internalType":"address"}],"anonymous":false},{"type":"event","name":"AssetAdded","inputs":[{"name":"asset","type":"address","indexed":true,"internalType":"address"}],"anonymous":false},{"type":"event","name":"AssetRemoved","inputs":[{"name":"asset","type":"address","indexed":true,"internalType":"address"}],"anonymous":false},{"type":"event","name":"BenefactorAdded","inputs":[{"name":"benefactor","type":"address","indexed":true,"internalType":"address"}],"anonymous":false},{"type":"event","name":"BenefactorRemoved","inputs":[{"name":"benefactor","type":"address","indexed":true,"internalType":"address"}],"anonymous":false},{"type":"event","name":"BeneficiaryAdded","inputs":[{"name":"benefactor","type":"address","indexed":true,"internalType":"address"},{"name":"beneficiary","type":"address","indexed":true,"internalType":"address"}],"anonymous":false},{"type":"event","name":"BeneficiaryRemoved","inputs":[{"name":"benefactor","type":"address","indexed":true,"internalType":"address"},{"name":"beneficiary","type":"address","indexed":true,"internalType":"address"}],"anonymous":false},{"type":"event","name":"CustodianAddressAdded","inputs":[{"name":"custodian","type":"address","indexed":true,"internalType":"address"}],"anonymous":false},{"type":"event","name":"CustodianAddressRemoved","inputs":[{"name":"custodian","type":"address","indexed":true,"internalType":"address"}],"anonymous":false},{"type":"event","name":"CustodyTransfer","inputs":[{"name":"wallet","type":"address","indexed":true,"internalType":"address"},{"name":"asset","type":"address","indexed":true,"internalType":"address"},{"name":"amount","type":"uint256","indexed":false,"internalType":"uint256"}],"anonymous":false},{"type":"event","name":"DelegatedSignerAdded","inputs":[{"name":"signer","type":"address","indexed":true,"internalType":"address"},{"name":"delegator","type":"address","indexed":true,"internalType":"address"}],"anonymous":false},{"type":"event","name":"DelegatedSignerInitiated","inputs":[{"name":"signer","type":"address","indexed":true,"internalType":"address"},{"name":"delegator","type":"address","indexed":true,"internalType":"address"}],"anonymous":false},{"type":"event","name":"DelegatedSignerRemoved","inputs":[{"name":"signer","type":"address","indexed":true,"internalType":"address"},{"name":"delegator","type":"address","indexed":true,"internalType":"address"}],"anonymous":false},{"type":"event","name":"DisableMintRedeem","inputs":[{"name":"sender","type":"address","indexed":true,"internalType":"address"}],"anonymous":false},{"type":"event","name":"GlobalMaxMintPerBlock","inputs":[{"name":"sender","type":"address","indexed":true,"internalType":"address"},{"name":"globalMaxMintPerBlock","type":"uint128","indexed":false,"internalType":"uint128"}],"anonymous":false},{"type":"event","name":"GlobalMaxRedeemPerBlock","inputs":[{"name":"sender","type":"address","indexed":true,"internalType":"address"},{"name":"globalMaxRedeemPerBlock","type":"uint128","indexed":false,"internalType":"uint128"}],"anonymous":false},{"type":"event","name":"MaxMintPerBlockChanged","inputs":[{"name":"oldMaxMintPerBlock","type":"uint256","indexed":false,"internalType":"uint256"},{"name":"newMaxMintPerBlock","type":"uint256","indexed":false,"internalType":"uint256"},{"name":"asset","type":"address","indexed":true,"internalType":"address"}],"anonymous":false},{"type":"event","name":"MaxRedeemPerBlockChanged","inputs":[{"name":"oldMaxRedeemPerBlock","type":"uint256","indexed":false,"internalType":"uint256"},{"name":"newMaxRedeemPerBlock","type":"uint256","indexed":false,"internalType":"uint256"},{"name":"asset","type":"address","indexed":true,"internalType":"address"}],"anonymous":false},{"type":"event","name":"Mint","inputs":[{"name":"order_id","type":"string","indexed":true,"internalType":"string"},{"name":"benefactor","type":"address","indexed":true,"internalType":"address"},{"name":"beneficiary","type":"address","indexed":true,"internalType":"address"},{"name":"minter","type":"address","indexed":false,"internalType":"address"},{"name":"collateral_asset","type":"address","indexed":false,"internalType":"address"},{"name":"collateral_amount","type":"uint256","indexed":false,"internalType":"uint256"},{"name":"usdtb_amount","type":"uint256","indexed":false,"internalType":"uint256"}],"anonymous":false},{"type":"event","name":"Received","inputs":[{"name":"","type":"address","indexed":false,"internalType":"address"},{"name":"","type":"uint256","indexed":false,"internalType":"uint256"}],"anonymous":false},{"type":"event","name":"Redeem","inputs":[{"name":"order_id","type":"string","indexed":true,"internalType":"string"},{"name":"benefactor","type":"address","indexed":true,"internalType":"address"},{"name":"beneficiary","type":"address","indexed":true,"internalType":"address"},{"name":"redeemer","type":"address","indexed":false,"internalType":"address"},{"name":"collateral_asset","type":"address","indexed":false,"internalType":"address"},{"name":"collateral_amount","type":"uint256","indexed":false,"internalType":"uint256"},{"name":"usdtb_amount","type":"uint256","indexed":false,"internalType":"uint256"}],"anonymous":false},{"type":"event","name":"RoleAdminChanged","inputs":[{"name":"role","type":"bytes32","indexed":true,"internalType":"bytes32"},{"name":"previousAdminRole","type":"bytes32","indexed":true,"internalType":"bytes32"},{"name":"newAdminRole","type":"bytes32","indexed":true,"internalType":"bytes32"}],"anonymous":false},{"type":"event","name":"RoleGranted","inputs":[{"name":"role","type":"bytes32","indexed":true,"internalType":"bytes32"},{"name":"account","type":"address","indexed":true,"internalType":"address"},{"name":"sender","type":"address","indexed":true,"internalType":"address"}],"anonymous":false},{"type":"event","name":"RoleRevoked","inputs":[{"name":"role","type":"bytes32","indexed":true,"internalType":"bytes32"},{"name":"account","type":"address","indexed":true,"internalType":"address"},{"name":"sender","type":"address","indexed":true,"internalType":"address"}],"anonymous":false},{"type":"event","name":"TokenTypeSet","inputs":[{"name":"token","type":"address","indexed":true,"internalType":"address"},{"name":"tokenType","type":"uint256","indexed":false,"internalType":"uint256"}],"anonymous":false},{"type":"event","name":"USDtbSet","inputs":[{"name":"USDtb","type":"address","indexed":true,"internalType":"address"}],"anonymous":false},{"type":"error","name":"BenefactorNotWhitelisted","inputs":[]},{"type":"error","name":"BeneficiaryNotApproved","inputs":[]},{"type":"error","name":"DelegationNotInitiated","inputs":[]},{"type":"error","name":"GlobalMaxMintPerBlockExceeded","inputs":[]},{"type":"error","name":"GlobalMaxRedeemPerBlockExceeded","inputs":[]},{"type":"error","name":"InvalidAddress","inputs":[]},{"type":"error","name":"InvalidAdminChange","inputs":[]},{"type":"error","name":"InvalidAmount","inputs":[]},{"type":"error","name":"InvalidAssetAddress","inputs":[]},{"type":"error","name":"InvalidBenefactorAddress","inputs":[]},{"type":"error","name":"InvalidBeneficiaryAddress","inputs":[]},{"type":"error","name":"InvalidCustodianAddress","inputs":[]},{"type":"error","name":"InvalidEIP1271Signature","inputs":[]},{"type":"error","name":"InvalidEIP712Signature","inputs":[]},{"type":"error","name":"InvalidNonce","inputs":[]},{"type":"error","name":"InvalidOrder","inputs":[]},{"type":"error","name":"InvalidRoute","inputs":[]},{"type":"error","name":"InvalidStablePrice","inputs":[]},{"type":"error","name":"InvalidUSDtbAddress","inputs":[]},{"type":"error","name":"InvalidZeroAddress","inputs":[]},{"type":"error","name":"MaxMintPerBlockExceeded","inputs":[]},{"type":"error","name":"MaxRedeemPerBlockExceeded","inputs":[]},{"type":"error","name":"NoAssetsProvided","inputs":[]},{"type":"error","name":"NotPendingAdmin","inputs":[]},{"type":"error","name":"SignatureExpired","inputs":[]},{"type":"error","name":"TransferFailed","inputs":[]},{"type":"error","name":"UnknownSignatureType","inputs":[]},{"type":"error","name":"UnsupportedAsset","inputs":[]}],"bytecode":{"object":"0x60c060405234801561000f575f80fd5b50604051619336380380619336833981810160405281019061003191906112ca565b60016003819055505f845103610073576040517fdde4739400000000000000000000000000000000000000000000000000000000815260040160405180910390fd5b5f8551036100ad576040517fdde4739400000000000000000000000000000000000000000000000000000000815260040160405180910390fd5b5f73ffffffffffffffffffffffffffffffffffffffff168173ffffffffffffffffffffffffffffffffffffffff1603610112576040517ff6b2911f00000000000000000000000000000000000000000000000000000000815260040160405180910390fd5b6101245f801b3361045360201b60201c565b845184511461015f576040517f3334921400000000000000000000000000000000000000000000000000000000815260040160405180910390fd5b5f5b8251816fffffffffffffffffffffffffffffffff1610156101c2576101b783826fffffffffffffffffffffffffffffffff16815181106101a4576101a3611395565b5b602002602001015161058360201b60201c565b806001019050610161565b5082600d5f820151815f015f6101000a8154816fffffffffffffffffffffffffffffffff02191690836fffffffffffffffffffffffffffffffff1602179055506020820151815f0160106101000a8154816fffffffffffffffffffffffffffffffff02191690836fffffffffffffffffffffffffffffffff1602179055509050505f5b8451816fffffffffffffffffffffffffffffffff1610156103e55760105f87836fffffffffffffffffffffffffffffffff168151811061028857610287611395565b5b602002602001015173ffffffffffffffffffffffffffffffffffffffff1673ffffffffffffffffffffffffffffffffffffffff1681526020019081526020015f205f0160019054906101000a900460ff168061033b57505f73ffffffffffffffffffffffffffffffffffffffff1686826fffffffffffffffffffffffffffffffff168151811061031b5761031a611395565b5b602002602001015173ffffffffffffffffffffffffffffffffffffffff16145b15610372576040517f3334921400000000000000000000000000000000000000000000000000000000815260040160405180910390fd5b6103da86826fffffffffffffffffffffffffffffffff168151811061039a57610399611395565b5b602002602001015186836fffffffffffffffffffffffffffffffff16815181106103c7576103c6611395565b5b60200260200101516106b560201b60201c565b806001019050610245565b508073ffffffffffffffffffffffffffffffffffffffff163373ffffffffffffffffffffffffffffffffffffffff161461042c5761042b5f801b8261045360201b60201c565b5b466080818152505061044261084360201b60201c565b60a081815250505050505050611736565b5f801b820361056f578073ffffffffffffffffffffffffffffffffffffffff1660015f9054906101000a900473ffffffffffffffffffffffffffffffffffffffff1673ffffffffffffffffffffffffffffffffffffffff167ff8ccb027dfcd135e000e9d45e6cc2d662578a8825d4c45b5e32e0adf67e79ec660405160405180910390a361050a5f801b60015f9054906101000a900473ffffffffffffffffffffffffffffffffffffffff166108d860201b60201c565b8060015f6101000a81548173ffffffffffffffffffffffffffffffffffffffff021916908373ffffffffffffffffffffffffffffffffffffffff16021790555060025f6101000a81549073ffffffffffffffffffffffffffffffffffffffff02191690555b61057f82826109be60201b60201c565b5050565b5f801b61059581610aa460201b60201c565b5f73ffffffffffffffffffffffffffffffffffffffff168273ffffffffffffffffffffffffffffffffffffffff16148061061b575060045f9054906101000a900473ffffffffffffffffffffffffffffffffffffffff1673ffffffffffffffffffffffffffffffffffffffff168273ffffffffffffffffffffffffffffffffffffffff16145b806106375750610635826008610ac460201b90919060201c565b155b1561066e576040517facb80c5e00000000000000000000000000000000000000000000000000000000815260040160405180910390fd5b8173ffffffffffffffffffffffffffffffffffffffff167ffbd30b5bdd51f5de989170dc23d65aac2de0a6099f5d9d200bc5779d883abcd460405160405180910390a25050565b5f81604001516fffffffffffffffffffffffffffffffff1614806106ee57505f81606001516fffffffffffffffffffffffffffffffff16145b15610725576040517f2c5211c600000000000000000000000000000000000000000000000000000000815260040160405180910390fd5b60018160200190151590811515815250508060105f8473ffffffffffffffffffffffffffffffffffffffff1673ffffffffffffffffffffffffffffffffffffffff1681526020019081526020015f205f820151815f015f6101000a81548160ff0219169083600181111561079c5761079b6113c2565b5b02179055506020820151815f0160016101000a81548160ff0219169083151502179055506040820151815f0160026101000a8154816fffffffffffffffffffffffffffffffff02191690836fffffffffffffffffffffffffffffffff1602179055506060820151816001015f6101000a8154816fffffffffffffffffffffffffffffffff02191690836fffffffffffffffffffffffffffffffff1602179055509050505050565b5f7f8b73c3c69bb8fe3d512ecc4cf759cc79239f7b179b0ffacaa9a75d522b39400f7f0efb1d49f183b196c74c4366a2512c7d1674272cb0af02a6f23288badd93a1e27fc89efdaa54c0f20c7adf612882df0950f5a951637e0307cdcb4c672f298b8bc646306040516020016108bd95949392919061142e565b60405160208183030381529060405280519060200120905090565b6108e88282610af760201b60201c565b156109ba575f805f8481526020019081526020015f205f015f8373ffffffffffffffffffffffffffffffffffffffff1673ffffffffffffffffffffffffffffffffffffffff1681526020019081526020015f205f6101000a81548160ff02191690831515021790555061095f610b5a60201b60201c565b73ffffffffffffffffffffffffffffffffffffffff168173ffffffffffffffffffffffffffffffffffffffff16837ff6391f5c32d9c69d2a47ea670b442974b53935d1edc7fd64eb21e047a839171b60405160405180910390a45b5050565b6109ce8282610af760201b60201c565b610aa05760015f808481526020019081526020015f205f015f8373ffffffffffffffffffffffffffffffffffffffff1673ffffffffffffffffffffffffffffffffffffffff1681526020019081526020015f205f6101000a81548160ff021916908315150217905550610a45610b5a60201b60201c565b73ffffffffffffffffffffffffffffffffffffffff168173ffffffffffffffffffffffffffffffffffffffff16837f2f8788117e7eff1d82e926ec794901d17c78024a50270940304540a733656f0d60405160405180910390a45b5050565b610ac181610ab6610b5a60201b60201c565b610b6160201b60201c565b50565b5f610aef835f018373ffffffffffffffffffffffffffffffffffffffff165f1b610bf760201b60201c565b905092915050565b5f805f8481526020019081526020015f205f015f8373ffffffffffffffffffffffffffffffffffffffff1673ffffffffffffffffffffffffffffffffffffffff1681526020019081526020015f205f9054906101000a900460ff16905092915050565b5f33905090565b610b718282610af760201b60201c565b610bf357610b8481610c6460201b60201c565b610b97835f1c6020610c9760201b60201c565b604051602001610ba8929190611565565b6040516020818303038152906040526040517f08c379a0000000000000000000000000000000000000000000000000000000008152600401610bea91906115e6565b60405180910390fd5b5050565b5f610c088383610ecc60201b60201c565b610c5a57825f0182908060018154018082558091505060019003905f5260205f20015f9091909190915055825f0180549050836001015f8481526020019081526020015f208190555060019050610c5e565b5f90505b92915050565b6060610c908273ffffffffffffffffffffffffffffffffffffffff16601460ff16610c9760201b60201c565b9050919050565b60605f6002836002610ca99190611633565b610cb39190611674565b67ffffffffffffffff811115610ccc57610ccb610f11565b5b6040519080825280601f01601f191660200182016040528015610cfe5781602001600182028036833780820191505090505b5090507f3000000000000000000000000000000000000000000000000000000000000000815f81518110610d3557610d34611395565b5b60200101907effffffffffffffffffffffffffffffffffffffffffffffffffffffffffffff191690815f1a9053507f780000000000000000000000000000000000000000000000000000000000000081600181518110610d9857610d97611395565b5b60200101907effffffffffffffffffffffffffffffffffffffffffffffffffffffffffffff191690815f1a9053505f6001846002610dd69190611633565b610de09190611674565b90505b6001811115610e7f577f3031323334353637383961626364656600000000000000000000000000000000600f861660108110610e2257610e21611395565b5b1a60f81b828281518110610e3957610e38611395565b5b60200101907effffffffffffffffffffffffffffffffffffffffffffffffffffffffffffff191690815f1a905350600485901c945080610e78906116a7565b9050610de3565b505f8414610ec2576040517f08c379a0000000000000000000000000000000000000000000000000000000008152600401610eb990611718565b60405180910390fd5b8091505092915050565b5f80836001015f8481526020019081526020015f20541415905092915050565b5f604051905090565b5f80fd5b5f80fd5b5f80fd5b5f601f19601f8301169050919050565b7f4e487b71000000000000000000000000000000000000000000000000000000005f52604160045260245ffd5b610f4782610f01565b810181811067ffffffffffffffff82111715610f6657610f65610f11565b5b80604052505050565b5f610f78610eec565b9050610f848282610f3e565b919050565b5f67ffffffffffffffff821115610fa357610fa2610f11565b5b602082029050602081019050919050565b5f80fd5b5f73ffffffffffffffffffffffffffffffffffffffff82169050919050565b5f610fe182610fb8565b9050919050565b610ff181610fd7565b8114610ffb575f80fd5b50565b5f8151905061100c81610fe8565b92915050565b5f61102461101f84610f89565b610f6f565b9050808382526020820190506020840283018581111561104757611046610fb4565b5b835b81811015611070578061105c8882610ffe565b845260208401935050602081019050611049565b5050509392505050565b5f82601f83011261108e5761108d610efd565b5b815161109e848260208601611012565b91505092915050565b5f67ffffffffffffffff8211156110c1576110c0610f11565b5b602082029050602081019050919050565b5f80fd5b600281106110e2575f80fd5b50565b5f815190506110f3816110d6565b92915050565b5f8115159050919050565b61110d816110f9565b8114611117575f80fd5b50565b5f8151905061112881611104565b92915050565b5f6fffffffffffffffffffffffffffffffff82169050919050565b6111528161112e565b811461115c575f80fd5b50565b5f8151905061116d81611149565b92915050565b5f60808284031215611188576111876110d2565b5b6111926080610f6f565b90505f6111a1848285016110e5565b5f8301525060206111b48482850161111a565b60208301525060406111c88482850161115f565b60408301525060606111dc8482850161115f565b60608301525092915050565b5f6111fa6111f5846110a7565b610f6f565b9050808382526020820190506080840283018581111561121d5761121c610fb4565b5b835b8181101561124657806112328882611173565b84526020840193505060808101905061121f565b5050509392505050565b5f82601f83011261126457611263610efd565b5b81516112748482602086016111e8565b91505092915050565b5f60408284031215611292576112916110d2565b5b61129c6040610f6f565b90505f6112ab8482850161115f565b5f8301525060206112be8482850161115f565b60208301525092915050565b5f805f805f60c086880312156112e3576112e2610ef5565b5b5f86015167ffffffffffffffff811115611300576112ff610ef9565b5b61130c8882890161107a565b955050602086015167ffffffffffffffff81111561132d5761132c610ef9565b5b61133988828901611250565b945050604061134a8882890161127d565b935050608086015167ffffffffffffffff81111561136b5761136a610ef9565b5b6113778882890161107a565b92505060a061138888828901610ffe565b9150509295509295909350565b7f4e487b71000000000000000000000000000000000000000000000000000000005f52603260045260245ffd5b7f4e487b71000000000000000000000000000000000000000000000000000000005f52602160045260245ffd5b5f819050919050565b611401816113ef565b82525050565b5f819050919050565b61141981611407565b82525050565b61142881610fd7565b82525050565b5f60a0820190506114415f8301886113f8565b61144e60208301876113f8565b61145b60408301866113f8565b6114686060830185611410565b611475608083018461141f565b9695505050505050565b5f81905092915050565b7f416363657373436f6e74726f6c3a206163636f756e74200000000000000000005f82015250565b5f6114bd60178361147f565b91506114c882611489565b601782019050919050565b5f81519050919050565b8281835e5f83830152505050565b5f6114f5826114d3565b6114ff818561147f565b935061150f8185602086016114dd565b80840191505092915050565b7f206973206d697373696e6720726f6c65200000000000000000000000000000005f82015250565b5f61154f60118361147f565b915061155a8261151b565b601182019050919050565b5f61156f826114b1565b915061157b82856114eb565b915061158682611543565b915061159282846114eb565b91508190509392505050565b5f82825260208201905092915050565b5f6115b8826114d3565b6115c2818561159e565b93506115d28185602086016114dd565b6115db81610f01565b840191505092915050565b5f6020820190508181035f8301526115fe81846115ae565b905092915050565b7f4e487b71000000000000000000000000000000000000000000000000000000005f52601160045260245ffd5b5f61163d82611407565b915061164883611407565b925082820261165681611407565b9150828204841483151761166d5761166c611606565b5b5092915050565b5f61167e82611407565b915061168983611407565b92508282019050808211156116a1576116a0611606565b5b92915050565b5f6116b182611407565b91505f82036116c3576116c2611606565b5b600182039050919050565b7f537472696e67733a20686578206c656e67746820696e73756666696369656e745f82015250565b5f61170260208361159e565b915061170d826116ce565b602082019050919050565b5f6020820190508181035f83015261172f816116f6565b9050919050565b60805160a051617bdf6117575f395f61447201525f61444b0152617bdf5ff3fe608060405260043610610302575f3560e01c80638da5cb5b1161018f578063be4088ee116100db578063dfcf852811610094578063e3a17ff91161006e578063e3a17ff914610bdb578063ed24911d14610c17578063fa0025c814610c41578063fe136c4e14610c6b57610342565b8063dfcf852814610b4f578063e077020214610b77578063e2959b6c14610b9f57610342565b8063be4088ee14610a45578063c5ff38bd14610a6f578063cf9cc76614610a85578063d199001f14610ac1578063d547741f14610ae9578063d901561c14610b1157610342565b806396eea75011610148578063a693635e11610122578063a693635e1461098d578063a7c1abe0146109ca578063af4eca35146109f5578063b58f203d14610a1d57610342565b806396eea750146108ff5780639be918e614610927578063a217fddf1461096357610342565b80638da5cb5b146107d05780638db940e0146107fa57806391d148541461082257806392408dc71461085e57806392a3c04f1461089b578063936e2248146108d757610342565b80634ba87af91161024e5780637274c25c116102075780637adb8b86116101e15780637adb8b86146106f45780637c549c1d146107305780637cef7e911461076c5780637cfbc42f146107a857610342565b80637274c25c1461067c57806375829def146106a457806375c890dc146106cc57610342565b80634ba87af91461058c5780634be7a64b146105b4578063532c3f82146105dc578063538636131461060457806354f1e1261461062c5780636c2cd30f1461065457610342565b80631cf58ff2116102bb5780632da09621116102955780632da09621146104ec5780632f2ff15d1461051457806336568abe1461053c57806340e492161461056457610342565b80631cf58ff2146104385780631f6c7da214610474578063248a9ca3146104b057610342565b806301ffc9a7146103465780630e18b6811461038257806312a4a10e14610398578063157a4028146103c057806316255c43146103e85780631c46bc6f1461041057610342565b36610342577f88a5966d370b9919b20f3e2c13ff65706f196a4e32cc2c12bf57088f885258743334604051610338929190615ed2565b60405180910390a1005b5f80fd5b348015610351575f80fd5b5061036c60048036038101906103679190615f5f565b610caa565b6040516103799190615fa4565b60405180910390f35b34801561038d575f80fd5b50610396610d23565b005b3480156103a3575f80fd5b506103be60048036038101906103b9919061602c565b610db7565b005b3480156103cb575f80fd5b506103e660048036038101906103e1919061606a565b610dd2565b005b3480156103f3575f80fd5b5061040e6004803603810190610409919061606a565b610fb1565b005b34801561041b575f80fd5b506104366004803603810190610431919061606a565b611086565b005b348015610443575f80fd5b5061045e6004803603810190610459919061606a565b611205565b60405161046b9190615fa4565b60405180910390f35b34801561047f575f80fd5b5061049a600480360381019061049591906160b7565b611221565b6040516104a79190615fa4565b60405180910390f35b3480156104bb575f80fd5b506104d660048036038101906104d19190616131565b61147f565b6040516104e3919061616b565b60405180910390f35b3480156104f7575f80fd5b50610512600480360381019061050d9190616184565b61149b565b005b34801561051f575f80fd5b5061053a600480360381019061053591906161d4565b6116fe565b005b348015610547575f80fd5b50610562600480360381019061055d91906161d4565b611756565b005b34801561056f575f80fd5b5061058a6004803603810190610585919061606a565b6117a1565b005b348015610597575f80fd5b506105b260048036038101906105ad919061606a565b61189d565b005b3480156105bf575f80fd5b506105da60048036038101906105d5919061606a565b61193a565b005b3480156105e7575f80fd5b5061060260048036038101906105fd919061606a565b611a66565b005b34801561060f575f80fd5b5061062a6004803603810190610625919061606a565b611abe565b005b348015610637575f80fd5b50610652600480360381019061064d919061606a565b611bbb565b005b34801561065f575f80fd5b5061067a60048036038101906106759190616212565b611c13565b005b348015610687575f80fd5b506106a2600480360381019061069d919061606a565b611cab565b005b3480156106af575f80fd5b506106ca60048036038101906106c5919061606a565b611d03565b005b3480156106d7575f80fd5b506106f260048036038101906106ed919061627a565b611e33565b005b3480156106ff575f80fd5b5061071a600480360381019061071591906162f0565b61258d565b6040516107279190615fa4565b60405180910390f35b34801561073b575f80fd5b506107566004803603810190610751919061627a565b6125e5565b604051610763919061616b565b60405180910390f35b348015610777575f80fd5b50610792600480360381019061078d919061632e565b612d4f565b60405161079f919061616b565b60405180910390f35b3480156107b3575f80fd5b506107ce60048036038101906107c991906164c3565b612d77565b005b3480156107db575f80fd5b506107e4612ee6565b6040516107f19190616501565b60405180910390f35b348015610805575f80fd5b50610820600480360381019061081b919061606a565b612f0e565b005b34801561082d575f80fd5b50610848600480360381019061084391906161d4565b612fab565b6040516108559190615fa4565b60405180910390f35b348015610869575f80fd5b50610884600480360381019061087f9190616544565b61300e565b60405161089292919061657e565b60405180910390f35b3480156108a6575f80fd5b506108c160048036038101906108bc91906165c8565b613064565b6040516108ce9190615fa4565b60405180910390f35b3480156108e2575f80fd5b506108fd60048036038101906108f89190616212565b6132ef565b005b34801561090a575f80fd5b506109256004803603810190610920919061662c565b613388565b005b348015610932575f80fd5b5061094d6004803603810190610948919061606a565b613b4e565b60405161095a9190615fa4565b60405180910390f35b34801561096e575f80fd5b50610977613ba3565b604051610984919061616b565b60405180910390f35b348015610998575f80fd5b506109b360048036038101906109ae91906166d0565b613ba9565b6040516109c192919061657e565b60405180910390f35b3480156109d5575f80fd5b506109de613c0a565b6040516109ec92919061657e565b60405180910390f35b348015610a00575f80fd5b50610a1b6004803603810190610a169190616212565b613c51565b005b348015610a28575f80fd5b50610a436004803603810190610a3e919061670e565b613c99565b005b348015610a50575f80fd5b50610a59613e67565b604051610a66919061674c565b60405180910390f35b348015610a7a575f80fd5b50610a83613e88565b005b348015610a90575f80fd5b50610aab6004803603810190610aa691906162f0565b613f6d565b604051610ab891906167d8565b60405180910390f35b348015610acc575f80fd5b50610ae76004803603810190610ae2919061682c565b613f97565b005b348015610af4575f80fd5b50610b0f6004803603810190610b0a91906161d4565b61402a565b005b348015610b1c575f80fd5b50610b376004803603810190610b329190616857565b614082565b604051610b4693929190616895565b60405180910390f35b348015610b5a575f80fd5b50610b756004803603810190610b7091906168ca565b6141a7565b005b348015610b82575f80fd5b50610b9d6004803603810190610b98919061602c565b614301565b005b348015610baa575f80fd5b50610bc56004803603810190610bc0919061632e565b61431c565b604051610bd29190616968565b60405180910390f35b348015610be6575f80fd5b50610c016004803603810190610bfc919061606a565b61442c565b604051610c0e9190615fa4565b60405180910390f35b348015610c22575f80fd5b50610c2b614448565b604051610c38919061616b565b60405180910390f35b348015610c4c575f80fd5b50610c556144a6565b604051610c6291906169e3565b60405180910390f35b348015610c76575f80fd5b50610c916004803603810190610c8c919061606a565b6144cb565b604051610ca19493929190616a42565b60405180910390f35b5f7f7965db0b000000000000000000000000000000000000000000000000000000007bffffffffffffffffffffffffffffffffffffffffffffffffffffffff1916827bffffffffffffffffffffffffffffffffffffffffffffffffffffffff19161480610d1c5750610d1b82614545565b5b9050919050565b60025f9054906101000a900473ffffffffffffffffffffffffffffffffffffffff1673ffffffffffffffffffffffffffffffffffffffff163373ffffffffffffffffffffffffffffffffffffffff1614610da9576040517f058d9a1b00000000000000000000000000000000000000000000000000000000815260040160405180910390fd5b610db55f801b336145ae565b565b5f801b610dc3816146d2565b610dcd83836146e6565b505050565b60016002811115610de657610de5616765565b5b600b5f3373ffffffffffffffffffffffffffffffffffffffff1673ffffffffffffffffffffffffffffffffffffffff1681526020019081526020015f205f8373ffffffffffffffffffffffffffffffffffffffff1673ffffffffffffffffffffffffffffffffffffffff1681526020019081526020015f205f9054906101000a900460ff166002811115610e7d57610e7c616765565b5b14610eb4576040517f7b5afc0c00000000000000000000000000000000000000000000000000000000815260040160405180910390fd5b6002600b5f3373ffffffffffffffffffffffffffffffffffffffff1673ffffffffffffffffffffffffffffffffffffffff1681526020019081526020015f205f8373ffffffffffffffffffffffffffffffffffffffff1673ffffffffffffffffffffffffffffffffffffffff1681526020019081526020015f205f6101000a81548160ff02191690836002811115610f4f57610f4e616765565b5b02179055508073ffffffffffffffffffffffffffffffffffffffff163373ffffffffffffffffffffffffffffffffffffffff167fed6a1f03e365a374bf7e9fe68b09cf74960528af699108cb461241efc5ded90960405160405180910390a350565b5f801b610fbd816146d2565b5f73ffffffffffffffffffffffffffffffffffffffff168273ffffffffffffffffffffffffffffffffffffffff161480611008575061100682600561481090919063ffffffff16565b155b1561103f576040517fcc8d45bc00000000000000000000000000000000000000000000000000000000815260040160405180910390fd5b8173ffffffffffffffffffffffffffffffffffffffff167f2fbec2225160ba8b27d83182d706920f1170182d15934f2122fd744049140ae260405160405180910390a25050565b5f801b611092816146d2565b60105f8373ffffffffffffffffffffffffffffffffffffffff1673ffffffffffffffffffffffffffffffffffffffff1681526020019081526020015f205f0160019054906101000a900460ff16611115576040517f3334921400000000000000000000000000000000000000000000000000000000815260040160405180910390fd5b60105f8373ffffffffffffffffffffffffffffffffffffffff1673ffffffffffffffffffffffffffffffffffffffff1681526020019081526020015f205f8082015f6101000a81549060ff02191690555f820160016101000a81549060ff02191690555f820160026101000a8154906fffffffffffffffffffffffffffffffff0219169055600182015f6101000a8154906fffffffffffffffffffffffffffffffff021916905550508173ffffffffffffffffffffffffffffffffffffffff167f37803e2125c48ee96c38ddf04e826daf335b0e1603579040fd275aba6d06b6fc60405160405180910390a25050565b5f61121a82600861483d90919063ffffffff16565b9050919050565b5f805f90508280602001906112369190616a91565b905083805f01906112479190616af3565b905014611257575f91505061147a565b5f83805f01906112679190616af3565b905003611277575f91505061147a565b5f5b83805f01906112889190616af3565b9050816fffffffffffffffffffffffffffffffff16101561144c576112fd84805f01906112b59190616af3565b836fffffffffffffffffffffffffffffffff168181106112d8576112d7616b55565b5b90506020020160208101906112ed919061606a565b600861483d90919063ffffffff16565b158061137a57505f73ffffffffffffffffffffffffffffffffffffffff1684805f019061132a9190616af3565b836fffffffffffffffffffffffffffffffff1681811061134d5761134c616b55565b5b9050602002016020810190611362919061606a565b73ffffffffffffffffffffffffffffffffffffffff16145b806113dd57505f8480602001906113919190616a91565b836fffffffffffffffffffffffffffffffff168181106113b4576113b3616b55565b5b90506020020160208101906113c99190616212565b6fffffffffffffffffffffffffffffffff16145b156113ec575f9250505061147a565b8380602001906113fc9190616a91565b826fffffffffffffffffffffffffffffffff1681811061141f5761141e616b55565b5b90506020020160208101906114349190616212565b8261143f9190616baf565b9150806001019050611279565b506127106fffffffffffffffffffffffffffffffff16816fffffffffffffffffffffffffffffffff16149150505b919050565b5f805f8381526020019081526020015f20600101549050919050565b6114a361486a565b7f85e8f2d6819d6b24108062d87ea08f54651bcb8960d98062d3faf96e7873b8b96114cd816146d2565b5f73ffffffffffffffffffffffffffffffffffffffff168473ffffffffffffffffffffffffffffffffffffffff161480611518575061151684600861483d90919063ffffffff16565b155b1561154f576040517fe6c4247b00000000000000000000000000000000000000000000000000000000815260040160405180910390fd5b73eeeeeeeeeeeeeeeeeeeeeeeeeeeeeeeeeeeeeeee73ffffffffffffffffffffffffffffffffffffffff168373ffffffffffffffffffffffffffffffffffffffff160361164d575f8473ffffffffffffffffffffffffffffffffffffffff16836fffffffffffffffffffffffffffffffff166040516115cd90616c1f565b5f6040518083038185875af1925050503d805f8114611607576040519150601f19603f3d011682016040523d82523d5f602084013e61160c565b606091505b5050905080611647576040517f90b8ec1800000000000000000000000000000000000000000000000000000000815260040160405180910390fd5b5061168b565b61168a84836fffffffffffffffffffffffffffffffff168573ffffffffffffffffffffffffffffffffffffffff166148b99092919063ffffffff16565b5b8273ffffffffffffffffffffffffffffffffffffffff168473ffffffffffffffffffffffffffffffffffffffff167f90c5d8794dcf7c60ab2d20912d5228389b28f74d32af01e40894a784a90b9ac2846040516116e89190616c63565b60405180910390a3506116f961493f565b505050565b5f801b61170a816146d2565b825f801b8103611746576040517f6317a0fa00000000000000000000000000000000000000000000000000000000815260040160405180910390fd5b61175084846145ae565b50505050565b815f801b8103611792576040517f6317a0fa00000000000000000000000000000000000000000000000000000000815260040160405180910390fd5b61179c8383614949565b505050565b5f600b5f8373ffffffffffffffffffffffffffffffffffffffff1673ffffffffffffffffffffffffffffffffffffffff1681526020019081526020015f205f3373ffffffffffffffffffffffffffffffffffffffff1673ffffffffffffffffffffffffffffffffffffffff1681526020019081526020015f205f6101000a81548160ff0219169083600281111561183b5761183a616765565b5b02179055503373ffffffffffffffffffffffffffffffffffffffff168173ffffffffffffffffffffffffffffffffffffffff167f97b59d736dc70ae61c6b68295c19a1311cc4a48cbb9eb25c4dabf18c7f650a8a60405160405180910390a350565b5f801b6118a9816146d2565b6118bd8260086149cc90919063ffffffff16565b6118f3576040517facb80c5e00000000000000000000000000000000000000000000000000000000815260040160405180910390fd5b8173ffffffffffffffffffffffffffffffffffffffff167f75567811df62a6b68bd5ee394d5808ad7282e19541858be466bc789cad9d4dfb60405160405180910390a25050565b5f801b611946816146d2565b5f73ffffffffffffffffffffffffffffffffffffffff168273ffffffffffffffffffffffffffffffffffffffff1614806119cc575060045f9054906101000a900473ffffffffffffffffffffffffffffffffffffffff1673ffffffffffffffffffffffffffffffffffffffff168273ffffffffffffffffffffffffffffffffffffffff16145b806119e857506119e682600861481090919063ffffffff16565b155b15611a1f576040517facb80c5e00000000000000000000000000000000000000000000000000000000815260040160405180910390fd5b8173ffffffffffffffffffffffffffffffffffffffff167ffbd30b5bdd51f5de989170dc23d65aac2de0a6099f5d9d200bc5779d883abcd460405160405180910390a25050565b7f3c63e605be3290ab6b04cfc46c6e1516e626d43236b034f09d7ede1d017beb0c611a90816146d2565b611aba7f44ac9762eec3a11893fefb11d028bb3102560094137c3ed4518712475b2577cc836149f9565b5050565b6001600b5f8373ffffffffffffffffffffffffffffffffffffffff1673ffffffffffffffffffffffffffffffffffffffff1681526020019081526020015f205f3373ffffffffffffffffffffffffffffffffffffffff1673ffffffffffffffffffffffffffffffffffffffff1681526020019081526020015f205f6101000a81548160ff02191690836002811115611b5957611b58616765565b5b02179055503373ffffffffffffffffffffffffffffffffffffffff168173ffffffffffffffffffffffffffffffffffffffff167f769c75d94dacde64c18415b5a72f6d26e7f62b356387f8da812c4b0aa66a0f2560405160405180910390a350565b7f3c63e605be3290ab6b04cfc46c6e1516e626d43236b034f09d7ede1d017beb0c611be5816146d2565b611c0f7f9f2df0fed2c77648de5860a4cc508cd0818c85b8b8a1ab4ceeef8d981c8956a6836149f9565b5050565b5f801b611c1f816146d2565b81600d5f015f6101000a8154816fffffffffffffffffffffffffffffffff02191690836fffffffffffffffffffffffffffffffff1602179055503373ffffffffffffffffffffffffffffffffffffffff167f78c4ec308d1eaf4b158d257ffd929348ece25e1495a99c12ca4a67aae92db31983604051611c9f919061674c565b60405180910390a25050565b7f3c63e605be3290ab6b04cfc46c6e1516e626d43236b034f09d7ede1d017beb0c611cd5816146d2565b611cff7f85e8f2d6819d6b24108062d87ea08f54651bcb8960d98062d3faf96e7873b8b9836149f9565b5050565b5f801b611d0f816146d2565b3373ffffffffffffffffffffffffffffffffffffffff168273ffffffffffffffffffffffffffffffffffffffff1603611d74576040517f6317a0fa00000000000000000000000000000000000000000000000000000000815260040160405180910390fd5b8160025f6101000a81548173ffffffffffffffffffffffffffffffffffffffff021916908373ffffffffffffffffffffffffffffffffffffffff1602179055508173ffffffffffffffffffffffffffffffffffffffff1660015f9054906101000a900473ffffffffffffffffffffffffffffffffffffffff1673ffffffffffffffffffffffffffffffffffffffff167fefdcbba819467e00b0262c12892dda980bac68580b72178e57a162368b80876660405160405180910390a35050565b611e3b61486a565b7f44ac9762eec3a11893fefb11d028bb3102560094137c3ed4518712475b2577cc611e65816146d2565b82610100016020810190611e799190616212565b8360c0016020810190611e8c919061606a565b5f60105f8373ffffffffffffffffffffffffffffffffffffffff1673ffffffffffffffffffffffffffffffffffffffff1681526020019081526020015f206040518060800160405290815f82015f9054906101000a900460ff166001811115611ef857611ef7616765565b5b6001811115611f0a57611f09616765565b5b81526020015f820160019054906101000a900460ff161515151581526020015f820160029054906101000a90046fffffffffffffffffffffffffffffffff166fffffffffffffffffffffffffffffffff166fffffffffffffffffffffffffffffffff168152602001600182015f9054906101000a90046fffffffffffffffffffffffffffffffff166fffffffffffffffffffffffffffffffff166fffffffffffffffffffffffffffffffff168152505090508060200151611ff7576040517f24a0114400000000000000000000000000000000000000000000000000000000815260040160405180910390fd5b80606001516fffffffffffffffffffffffffffffffff1683600f5f4381526020019081526020015f205f8573ffffffffffffffffffffffffffffffffffffffff1673ffffffffffffffffffffffffffffffffffffffff1681526020019081526020015f205f0160109054906101000a90046fffffffffffffffffffffffffffffffff166120849190616baf565b6fffffffffffffffffffffffffffffffff1611156120ce576040517f4d4ea7ce00000000000000000000000000000000000000000000000000000000815260040160405180910390fd5b856101000160208101906120e29190616212565b5f600e5f4381526020019081526020015f205f0160109054906101000a90046fffffffffffffffffffffffffffffffff169050600d5f0160109054906101000a90046fffffffffffffffffffffffffffffffff166fffffffffffffffffffffffffffffffff1682826121549190616baf565b6fffffffffffffffffffffffffffffffff16111561219e576040517f7d11424700000000000000000000000000000000000000000000000000000000815260040160405180910390fd5b6001808111156121b1576121b0616765565b5b8860200160208101906121c49190616c7c565b60018111156121d6576121d5616765565b5b1461220d576040517faf61069300000000000000000000000000000000000000000000000000000000815260040160405180910390fd5b61221788886125e5565b5061224688608001602081019061222e919061606a565b8960600160208101906122419190616212565b614ad3565b8761010001602081019061225a9190616212565b600f5f4381526020019081526020015f205f8a60c001602081019061227f919061606a565b73ffffffffffffffffffffffffffffffffffffffff1673ffffffffffffffffffffffffffffffffffffffff1681526020019081526020015f205f0160108282829054906101000a90046fffffffffffffffffffffffffffffffff166122e49190616baf565b92506101000a8154816fffffffffffffffffffffffffffffffff02191690836fffffffffffffffffffffffffffffffff1602179055508761010001602081019061232e9190616212565b600e5f4381526020019081526020015f205f0160108282829054906101000a90046fffffffffffffffffffffffffffffffff1661236b9190616baf565b92506101000a8154816fffffffffffffffffffffffffffffffff02191690836fffffffffffffffffffffffffffffffff16021790555060045f9054906101000a900473ffffffffffffffffffffffffffffffffffffffff1673ffffffffffffffffffffffffffffffffffffffff166379cc67908960800160208101906123f1919061606a565b8a6101000160208101906124059190616212565b6040518363ffffffff1660e01b8152600401612422929190616ca7565b5f604051808303815f87803b158015612439575f80fd5b505af115801561244b573d5f803e3d5ffd5b505050506124908860a0016020810190612465919061606a565b8960c0016020810190612478919061606a565b8a60e001602081019061248b9190616212565b614b52565b8760a00160208101906124a3919061606a565b73ffffffffffffffffffffffffffffffffffffffff168860800160208101906124cc919061606a565b73ffffffffffffffffffffffffffffffffffffffff1689805f01906124f19190616cce565b6040516124ff929190616d6c565b60405180910390207f0ea36c5b7b274f8fe58654fe884bb9307dec1899e0312f40ae10d9b3d100cc0c338c60c001602081019061253c919061606a565b8d60e001602081019061254f9190616212565b8e6101000160208101906125639190616212565b6040516125739493929190616d84565b60405180910390a450505050505061258961493f565b5050565b5f6125dd8260075f8673ffffffffffffffffffffffffffffffffffffffff1673ffffffffffffffffffffffffffffffffffffffff1681526020019081526020015f2061483d90919063ffffffff16565b905092915050565b5f6125ef83612d4f565b90505f600181111561260457612603616765565b5b825f0160208101906126169190616dea565b600181111561262857612627616765565b5b036127cc575f612689828480602001906126429190616e15565b8080601f0160208091040260200160405190810160405280939291908181526020018383808284375f81840152601f19601f82011690508083019250505050505050614cdf565b905083608001602081019061269e919061606a565b73ffffffffffffffffffffffffffffffffffffffff168173ffffffffffffffffffffffffffffffffffffffff16148061279057506002808111156126e5576126e4616765565b5b600b5f8373ffffffffffffffffffffffffffffffffffffffff1673ffffffffffffffffffffffffffffffffffffffff1681526020019081526020015f205f866080016020810190612736919061606a565b73ffffffffffffffffffffffffffffffffffffffff1673ffffffffffffffffffffffffffffffffffffffff1681526020019081526020015f205f9054906101000a900460ff16600281111561278e5761278d616765565b5b145b6127c6576040517fb81d58e700000000000000000000000000000000000000000000000000000000815260040160405180910390fd5b50612972565b6001808111156127df576127de616765565b5b825f0160208101906127f19190616dea565b600181111561280357612802616765565b5b0361293f577f1626ba7e356f5979dd355a3d2bfb43e80420a480c3b854edce286a82d74968697bffffffffffffffffffffffffffffffffffffffffffffffffffffffff191683608001602081019061285b919061606a565b73ffffffffffffffffffffffffffffffffffffffff16631626ba7e838580602001906128879190616e15565b6040518463ffffffff1660e01b81526004016128a593929190616ea3565b602060405180830381865afa1580156128c0573d5f803e3d5ffd5b505050506040513d601f19601f820116820180604052508101906128e49190616ee7565b7bffffffffffffffffffffffffffffffffffffffffffffffffffffffff19161461293a576040517f5d52cbe300000000000000000000000000000000000000000000000000000000815260040160405180910390fd5b612971565b6040517f6b46e4d000000000000000000000000000000000000000000000000000000000815260040160405180910390fd5b5b612998836080016020810190612988919061606a565b600561483d90919063ffffffff16565b6129ce576040517f2107695300000000000000000000000000000000000000000000000000000000815260040160405180910390fd5b8260a00160208101906129e1919061606a565b73ffffffffffffffffffffffffffffffffffffffff16836080016020810190612a0a919061606a565b73ffffffffffffffffffffffffffffffffffffffff1614612acf57612a988360a0016020810190612a3b919061606a565b60075f866080016020810190612a51919061606a565b73ffffffffffffffffffffffffffffffffffffffff1673ffffffffffffffffffffffffffffffffffffffff1681526020019081526020015f2061483d90919063ffffffff16565b612ace576040517fa121756300000000000000000000000000000000000000000000000000000000815260040160405180910390fd5b5b5f60105f8560c0016020810190612ae6919061606a565b73ffffffffffffffffffffffffffffffffffffffff1673ffffffffffffffffffffffffffffffffffffffff1681526020019081526020015f205f015f9054906101000a900460ff1690505f6001811115612b4357612b42616765565b5b816001811115612b5657612b55616765565b5b03612be757612bb08460e0016020810190612b719190616212565b85610100016020810190612b859190616212565b8660c0016020810190612b98919061606a565b876020016020810190612bab9190616c7c565b613064565b612be6576040517fc32239d000000000000000000000000000000000000000000000000000000000815260040160405180910390fd5b5b5f73ffffffffffffffffffffffffffffffffffffffff168460a0016020810190612c11919061606a565b73ffffffffffffffffffffffffffffffffffffffff1603612c5e576040517fe6c4247b00000000000000000000000000000000000000000000000000000000815260040160405180910390fd5b5f8460e0016020810190612c729190616212565b6fffffffffffffffffffffffffffffffff161480612cb457505f84610100016020810190612ca09190616212565b6fffffffffffffffffffffffffffffffff16145b15612ceb576040517f2c5211c600000000000000000000000000000000000000000000000000000000815260040160405180910390fd5b836040016020810190612cfe9190616f56565b6effffffffffffffffffffffffffffff16421115612d48576040517f0819bdcd00000000000000000000000000000000000000000000000000000000815260040160405180910390fd5b5092915050565b5f612d70612d5b614448565b612d648461431c565b80519060200120614d04565b9050919050565b5f801b612d83816146d2565b60105f8473ffffffffffffffffffffffffffffffffffffffff1673ffffffffffffffffffffffffffffffffffffffff1681526020019081526020015f205f0160019054906101000a900460ff1680612e0657505f73ffffffffffffffffffffffffffffffffffffffff168373ffffffffffffffffffffffffffffffffffffffff16145b80612e5d575060045f9054906101000a900473ffffffffffffffffffffffffffffffffffffffff1673ffffffffffffffffffffffffffffffffffffffff168373ffffffffffffffffffffffffffffffffffffffff16145b15612e94576040517f3334921400000000000000000000000000000000000000000000000000000000815260040160405180910390fd5b612e9e8383614d44565b8273ffffffffffffffffffffffffffffffffffffffff167f0e3c58ebfb2e7465fbb1c32e6b4f40c3c4f5ca77e8218a386aff8617831260d760405160405180910390a2505050565b5f60015f9054906101000a900473ffffffffffffffffffffffffffffffffffffffff16905090565b5f801b612f1a816146d2565b612f2e8260056149cc90919063ffffffff16565b612f64576040517fe6c4247b00000000000000000000000000000000000000000000000000000000815260040160405180910390fd5b8173ffffffffffffffffffffffffffffffffffffffff167ff0ebdfe9729215cc867dca3785f752df456766a9ce4b178ad1bca9919ca4a65060405160405180910390a25050565b5f805f8481526020019081526020015f205f015f8373ffffffffffffffffffffffffffffffffffffffff1673ffffffffffffffffffffffffffffffffffffffff1681526020019081526020015f205f9054906101000a900460ff16905092915050565b600e602052805f5260405f205f91509050805f015f9054906101000a90046fffffffffffffffffffffffffffffffff1690805f0160109054906101000a90046fffffffffffffffffffffffffffffffff16905082565b5f8061309060045f9054906101000a900473ffffffffffffffffffffffffffffffffffffffff16614ed2565b90505f61309c85614ed2565b90505f80826fffffffffffffffffffffffffffffffff16846fffffffffffffffffffffffffffffffff16116130e85783836130d79190616f81565b600a6130e391906170f3565b613101565b82846130f49190616f81565b600a61310091906170f3565b5b9050826fffffffffffffffffffffffffffffffff16846fffffffffffffffffffffffffffffffff161161313f57808961313a919061716a565b61314c565b808961314b919061719a565b5b91505f886fffffffffffffffffffffffffffffffff16836fffffffffffffffffffffffffffffffff161161318b5782896131869190616f81565b613198565b88836131979190616f81565b5b90505f89612710836131aa919061719a565b6131b4919061716a565b90505f60018111156131c9576131c8616765565b5b8860018111156131dc576131db616765565b5b0361326657836fffffffffffffffffffffffffffffffff168a6fffffffffffffffffffffffffffffffff1611613213576001613259565b600c5f9054906101000a90046fffffffffffffffffffffffffffffffff166fffffffffffffffffffffffffffffffff16816fffffffffffffffffffffffffffffffff1611155b96505050505050506132e7565b896fffffffffffffffffffffffffffffffff16846fffffffffffffffffffffffffffffffff16116132985760016132de565b600c5f9054906101000a90046fffffffffffffffffffffffffffffffff166fffffffffffffffffffffffffffffffff16816fffffffffffffffffffffffffffffffff1611155b96505050505050505b949350505050565b5f801b6132fb816146d2565b81600d5f0160106101000a8154816fffffffffffffffffffffffffffffffff02191690836fffffffffffffffffffffffffffffffff1602179055503373ffffffffffffffffffffffffffffffffffffffff167f0f08f24f84f8190442aea27ae7ea6a46a9bd89d440cd9d0f7468f171ccf4e7b08360405161337c919061674c565b60405180910390a25050565b61339061486a565b7f9f2df0fed2c77648de5860a4cc508cd0818c85b8b8a1ab4ceeef8d981c8956a66133ba816146d2565b836101000160208101906133ce9190616212565b8460c00160208101906133e1919061606a565b5f60105f8373ffffffffffffffffffffffffffffffffffffffff1673ffffffffffffffffffffffffffffffffffffffff1681526020019081526020015f206040518060800160405290815f82015f9054906101000a900460ff16600181111561344d5761344c616765565b5b600181111561345f5761345e616765565b5b81526020015f820160019054906101000a900460ff161515151581526020015f820160029054906101000a90046fffffffffffffffffffffffffffffffff166fffffffffffffffffffffffffffffffff166fffffffffffffffffffffffffffffffff168152602001600182015f9054906101000a90046fffffffffffffffffffffffffffffffff166fffffffffffffffffffffffffffffffff166fffffffffffffffffffffffffffffffff16815250509050806020015161354c576040517f24a0114400000000000000000000000000000000000000000000000000000000815260040160405180910390fd5b80604001516fffffffffffffffffffffffffffffffff1683600f5f4381526020019081526020015f205f8573ffffffffffffffffffffffffffffffffffffffff1673ffffffffffffffffffffffffffffffffffffffff1681526020019081526020015f205f015f9054906101000a90046fffffffffffffffffffffffffffffffff166135d89190616baf565b6fffffffffffffffffffffffffffffffff161115613622576040517f0fbf0bc900000000000000000000000000000000000000000000000000000000815260040160405180910390fd5b866101000160208101906136369190616212565b5f600e5f436fffffffffffffffffffffffffffffffff1681526020019081526020015f205f015f9054906101000a90046fffffffffffffffffffffffffffffffff169050600d5f015f9054906101000a90046fffffffffffffffffffffffffffffffff166fffffffffffffffffffffffffffffffff1682826136b89190616baf565b6fffffffffffffffffffffffffffffffff161115613702576040517f1e0c1a7c00000000000000000000000000000000000000000000000000000000815260040160405180910390fd5b5f600181111561371557613714616765565b5b8960200160208101906137289190616c7c565b600181111561373a57613739616765565b5b14613771576040517faf61069300000000000000000000000000000000000000000000000000000000815260040160405180910390fd5b61377b89886125e5565b5061378588611221565b6137bb576040517f84e505d200000000000000000000000000000000000000000000000000000000815260040160405180910390fd5b6137e98960800160208101906137d1919061606a565b8a60600160208101906137e49190616212565b614ad3565b886101000160208101906137fd9190616212565b600f5f4381526020019081526020015f205f8b60c0016020810190613822919061606a565b73ffffffffffffffffffffffffffffffffffffffff1673ffffffffffffffffffffffffffffffffffffffff1681526020019081526020015f205f015f8282829054906101000a90046fffffffffffffffffffffffffffffffff166138869190616baf565b92506101000a8154816fffffffffffffffffffffffffffffffff02191690836fffffffffffffffffffffffffffffffff160217905550886101000160208101906138d09190616212565b600e5f4381526020019081526020015f205f015f8282829054906101000a90046fffffffffffffffffffffffffffffffff1661390c9190616baf565b92506101000a8154816fffffffffffffffffffffffffffffffff02191690836fffffffffffffffffffffffffffffffff1602179055506139a28960e00160208101906139589190616212565b8a60c001602081019061396b919061606a565b8b608001602081019061397e919061606a565b8b805f019061398d9190616af3565b8d806020019061399d9190616a91565b614f4f565b60045f9054906101000a900473ffffffffffffffffffffffffffffffffffffffff1673ffffffffffffffffffffffffffffffffffffffff166340c10f198a60a00160208101906139f2919061606a565b8b610100016020810190613a069190616212565b6040518363ffffffff1660e01b8152600401613a23929190616ca7565b5f604051808303815f87803b158015613a3a575f80fd5b505af1158015613a4c573d5f803e3d5ffd5b505050508860a0016020810190613a63919061606a565b73ffffffffffffffffffffffffffffffffffffffff16896080016020810190613a8c919061606a565b73ffffffffffffffffffffffffffffffffffffffff168a805f0190613ab19190616cce565b604051613abf929190616d6c565b60405180910390207f29ee92e51cda311463f5c9ef98c54824a4bebe45e689c37da35edc774585d437338d60c0016020810190613afc919061606a565b8e60e0016020810190613b0f9190616212565b8f610100016020810190613b239190616212565b604051613b339493929190616d84565b60405180910390a4505050505050613b4961493f565b505050565b5f60105f8373ffffffffffffffffffffffffffffffffffffffff1673ffffffffffffffffffffffffffffffffffffffff1681526020019081526020015f205f0160019054906101000a900460ff169050919050565b5f801b81565b600f602052815f5260405f20602052805f5260405f205f9150915050805f015f9054906101000a90046fffffffffffffffffffffffffffffffff1690805f0160109054906101000a90046fffffffffffffffffffffffffffffffff16905082565b600d805f015f9054906101000a90046fffffffffffffffffffffffffffffffff1690805f0160109054906101000a90046fffffffffffffffffffffffffffffffff16905082565b5f801b613c5d816146d2565b81600c5f6101000a8154816fffffffffffffffffffffffffffffffff02191690836fffffffffffffffffffffffffffffffff1602179055505050565b8015613d8357613cee8260075f3373ffffffffffffffffffffffffffffffffffffffff1673ffffffffffffffffffffffffffffffffffffffff1681526020019081526020015f2061481090919063ffffffff16565b613d24576040517fd343d98400000000000000000000000000000000000000000000000000000000815260040160405180910390fd5b8173ffffffffffffffffffffffffffffffffffffffff163373ffffffffffffffffffffffffffffffffffffffff167fbb39c36a7502b7256e1a687254146a9a2ea7b146c77cb9e40eb0e2b8793781e160405160405180910390a3613e63565b613dd28260075f3373ffffffffffffffffffffffffffffffffffffffff1673ffffffffffffffffffffffffffffffffffffffff1681526020019081526020015f206149cc90919063ffffffff16565b613e08576040517fd343d98400000000000000000000000000000000000000000000000000000000815260040160405180910390fd5b8173ffffffffffffffffffffffffffffffffffffffff163373ffffffffffffffffffffffffffffffffffffffff167f1a6590bd0cabbfcc7c86bef99e1034054e179905cfcc294598fcd426c092244260405160405180910390a35b5050565b600c5f9054906101000a90046fffffffffffffffffffffffffffffffff1681565b7f3c63e605be3290ab6b04cfc46c6e1516e626d43236b034f09d7ede1d017beb0c613eb2816146d2565b5f600d5f015f6101000a8154816fffffffffffffffffffffffffffffffff02191690836fffffffffffffffffffffffffffffffff1602179055505f600d5f0160106101000a8154816fffffffffffffffffffffffffffffffff02191690836fffffffffffffffffffffffffffffffff1602179055503373ffffffffffffffffffffffffffffffffffffffff167f7b199bc414fa21a5f39d29338e7c4665dada25b6e55322a386a3070c9f79895560405160405180910390a250565b600b602052815f5260405f20602052805f5260405f205f915091509054906101000a900460ff1681565b5f801b613fa3816146d2565b8160045f6101000a81548173ffffffffffffffffffffffffffffffffffffffff021916908373ffffffffffffffffffffffffffffffffffffffff1602179055508173ffffffffffffffffffffffffffffffffffffffff167fd4895cbd33d675923f62ac80e5ecf41ab1f609aae6dd326eb3d2cc2743fd3b7060405160405180910390a25050565b5f801b614036816146d2565b825f801b8103614072576040517f6317a0fa00000000000000000000000000000000000000000000000000000000815260040160405180910390fd5b61407c84846149f9565b50505050565b5f805f80846fffffffffffffffffffffffffffffffff16036140d0576040517f756688fe00000000000000000000000000000000000000000000000000000000815260040160405180910390fd5b5f60088567ffffffffffffffff16901c67ffffffffffffffff1690505f8560ff166001901b90505f600a5f8973ffffffffffffffffffffffffffffffffffffffff1673ffffffffffffffffffffffffffffffffffffffff1681526020019081526020015f205f846fffffffffffffffffffffffffffffffff1681526020019081526020015f205490505f82821614614194576040517f756688fe00000000000000000000000000000000000000000000000000000000815260040160405180910390fd5b8281839550955095505050509250925092565b5f801b6141b3816146d2565b60105f8473ffffffffffffffffffffffffffffffffffffffff1673ffffffffffffffffffffffffffffffffffffffff1681526020019081526020015f205f0160019054906101000a900460ff16614236576040517f24a0114400000000000000000000000000000000000000000000000000000000815260040160405180910390fd5b8160105f8573ffffffffffffffffffffffffffffffffffffffff1673ffffffffffffffffffffffffffffffffffffffff1681526020019081526020015f205f015f6101000a81548160ff0219169083600181111561429757614296616765565b5b02179055508273ffffffffffffffffffffffffffffffffffffffff167f82414669d8803616fdb8fe48ecd5b28a500e077ce5cfc4b57066463847aa78248360018111156142e7576142e6616765565b5b6040516142f491906171d6565b60405180910390a2505050565b5f801b61430d816146d2565b61431783836151d5565b505050565b60607f30ea2d3c63d9147a9427928fcd2f9ef2487a39b146f65eb5abd16732e41fd5a782805f019061434e9190616cce565b60405161435c929190617213565b60405180910390208360200160208101906143779190616c7c565b84604001602081019061438a9190616f56565b85606001602081019061439d9190616212565b8660800160208101906143b0919061606a565b8760a00160208101906143c3919061606a565b8860c00160208101906143d6919061606a565b8960e00160208101906143e99190616212565b8a6101000160208101906143fd9190616212565b6040516020016144169a99989796959493929190617280565b6040516020818303038152906040529050919050565b5f61444182600561483d90919063ffffffff16565b9050919050565b5f7f00000000000000000000000000000000000000000000000000000000000000004603614498577f000000000000000000000000000000000000000000000000000000000000000090506144a3565b6144a06152ff565b90505b90565b60045f9054906101000a900473ffffffffffffffffffffffffffffffffffffffff1681565b6010602052805f5260405f205f91509050805f015f9054906101000a900460ff1690805f0160019054906101000a900460ff1690805f0160029054906101000a90046fffffffffffffffffffffffffffffffff1690806001015f9054906101000a90046fffffffffffffffffffffffffffffffff16905084565b5f7f01ffc9a7000000000000000000000000000000000000000000000000000000007bffffffffffffffffffffffffffffffffffffffffffffffffffffffff1916827bffffffffffffffffffffffffffffffffffffffffffffffffffffffff1916149050919050565b5f801b82036146c4578073ffffffffffffffffffffffffffffffffffffffff1660015f9054906101000a900473ffffffffffffffffffffffffffffffffffffffff1673ffffffffffffffffffffffffffffffffffffffff167ff8ccb027dfcd135e000e9d45e6cc2d662578a8825d4c45b5e32e0adf67e79ec660405160405180910390a361465f5f801b60015f9054906101000a900473ffffffffffffffffffffffffffffffffffffffff166149f9565b8060015f6101000a81548173ffffffffffffffffffffffffffffffffffffffff021916908373ffffffffffffffffffffffffffffffffffffffff16021790555060025f6101000a81549073ffffffffffffffffffffffffffffffffffffffff02191690555b6146ce8282615394565b5050565b6146e3816146de61546e565b615475565b50565b5f60105f8373ffffffffffffffffffffffffffffffffffffffff1673ffffffffffffffffffffffffffffffffffffffff1681526020019081526020015f205f0160029054906101000a90046fffffffffffffffffffffffffffffffff1690508260105f8473ffffffffffffffffffffffffffffffffffffffff1673ffffffffffffffffffffffffffffffffffffffff1681526020019081526020015f205f0160026101000a8154816fffffffffffffffffffffffffffffffff02191690836fffffffffffffffffffffffffffffffff1602179055508173ffffffffffffffffffffffffffffffffffffffff167f13e2041fca7db19db36c1bbb93af5fa29559068bc0e162f0bf34c53945eeae10828560405161480392919061731a565b60405180910390a2505050565b5f614835835f018373ffffffffffffffffffffffffffffffffffffffff165f1b6154f9565b905092915050565b5f614862835f018373ffffffffffffffffffffffffffffffffffffffff165f1b615560565b905092915050565b6002600354036148af576040517f08c379a00000000000000000000000000000000000000000000000000000000081526004016148a69061739b565b60405180910390fd5b6002600381905550565b61493a8363a9059cbb60e01b84846040516024016148d8929190615ed2565b604051602081830303815290604052907bffffffffffffffffffffffffffffffffffffffffffffffffffffffff19166020820180517bffffffffffffffffffffffffffffffffffffffffffffffffffffffff8381831617835250505050615580565b505050565b6001600381905550565b61495161546e565b73ffffffffffffffffffffffffffffffffffffffff168173ffffffffffffffffffffffffffffffffffffffff16146149be576040517f08c379a00000000000000000000000000000000000000000000000000000000081526004016149b590617429565b60405180910390fd5b6149c882826149f9565b5050565b5f6149f1835f018373ffffffffffffffffffffffffffffffffffffffff165f1b615646565b905092915050565b614a038282612fab565b15614acf575f805f8481526020019081526020015f205f015f8373ffffffffffffffffffffffffffffffffffffffff1673ffffffffffffffffffffffffffffffffffffffff1681526020019081526020015f205f6101000a81548160ff021916908315150217905550614a7461546e565b73ffffffffffffffffffffffffffffffffffffffff168173ffffffffffffffffffffffffffffffffffffffff16837ff6391f5c32d9c69d2a47ea670b442974b53935d1edc7fd64eb21e047a839171b60405160405180910390a45b5050565b5f805f614ae08585614082565b925092509250808217600a5f8773ffffffffffffffffffffffffffffffffffffffff1673ffffffffffffffffffffffffffffffffffffffff1681526020019081526020015f205f856fffffffffffffffffffffffffffffffff1681526020019081526020015f20819055505050505050565b73eeeeeeeeeeeeeeeeeeeeeeeeeeeeeeeeeeeeeeee73ffffffffffffffffffffffffffffffffffffffff168273ffffffffffffffffffffffffffffffffffffffff1603614c9c57806fffffffffffffffffffffffffffffffff16471015614be5576040517f2c5211c600000000000000000000000000000000000000000000000000000000815260040160405180910390fd5b5f8373ffffffffffffffffffffffffffffffffffffffff16826fffffffffffffffffffffffffffffffff16604051614c1c90616c1f565b5f6040518083038185875af1925050503d805f8114614c56576040519150601f19603f3d011682016040523d82523d5f602084013e614c5b565b606091505b5050905080614c96576040517f90b8ec1800000000000000000000000000000000000000000000000000000000815260040160405180910390fd5b50614cda565b614cd983826fffffffffffffffffffffffffffffffff168473ffffffffffffffffffffffffffffffffffffffff166148b99092919063ffffffff16565b5b505050565b5f805f614cec8585615742565b91509150614cf98161578e565b819250505092915050565b5f6040517f190100000000000000000000000000000000000000000000000000000000000081528360028201528260228201526042812091505092915050565b5f81604001516fffffffffffffffffffffffffffffffff161480614d7d57505f81606001516fffffffffffffffffffffffffffffffff16145b15614db4576040517f2c5211c600000000000000000000000000000000000000000000000000000000815260040160405180910390fd5b60018160200190151590811515815250508060105f8473ffffffffffffffffffffffffffffffffffffffff1673ffffffffffffffffffffffffffffffffffffffff1681526020019081526020015f205f820151815f015f6101000a81548160ff02191690836001811115614e2b57614e2a616765565b5b02179055506020820151815f0160016101000a81548160ff0219169083151502179055506040820151815f0160026101000a8154816fffffffffffffffffffffffffffffffff02191690836fffffffffffffffffffffffffffffffff1602179055506060820151816001015f6101000a8154816fffffffffffffffffffffffffffffffff02191690836fffffffffffffffffffffffffffffffff1602179055509050505050565b5f808273ffffffffffffffffffffffffffffffffffffffff1663313ce5676040518163ffffffff1660e01b8152600401602060405180830381865afa158015614f1d573d5f803e3d5ffd5b505050506040513d601f19601f82011682018060405250810190614f41919061747d565b90508060ff16915050919050565b60105f8773ffffffffffffffffffffffffffffffffffffffff1673ffffffffffffffffffffffffffffffffffffffff1681526020019081526020015f205f0160019054906101000a900460ff161580614fe7575073eeeeeeeeeeeeeeeeeeeeeeeeeeeeeeeeeeeeeeee73ffffffffffffffffffffffffffffffffffffffff168673ffffffffffffffffffffffffffffffffffffffff16145b1561501e576040517f24a0114400000000000000000000000000000000000000000000000000000000815260040160405180910390fd5b5f8690505f805b86869050816fffffffffffffffffffffffffffffffff161015615129575f6127108686846fffffffffffffffffffffffffffffffff1681811061506b5761506a616b55565b5b90506020020160208101906150809190616212565b8c61508b919061719a565b615095919061716a565b905061510f898989856fffffffffffffffffffffffffffffffff168181106150c0576150bf616b55565b5b90506020020160208101906150d5919061606a565b836fffffffffffffffffffffffffffffffff168773ffffffffffffffffffffffffffffffffffffffff166158f3909392919063ffffffff16565b808361511b9190616baf565b925081600101915050615025565b505f818a6151379190616f81565b90505f816fffffffffffffffffffffffffffffffff1611156151c9576151c888888860018b8b905061516991906174a8565b81811061517957615178616b55565b5b905060200201602081019061518e919061606a565b836fffffffffffffffffffffffffffffffff168673ffffffffffffffffffffffffffffffffffffffff166158f3909392919063ffffffff16565b5b50505050505050505050565b5f60105f8373ffffffffffffffffffffffffffffffffffffffff1673ffffffffffffffffffffffffffffffffffffffff1681526020019081526020015f206001015f9054906101000a90046fffffffffffffffffffffffffffffffff1690508260105f8473ffffffffffffffffffffffffffffffffffffffff1673ffffffffffffffffffffffffffffffffffffffff1681526020019081526020015f206001015f6101000a8154816fffffffffffffffffffffffffffffffff02191690836fffffffffffffffffffffffffffffffff1602179055508173ffffffffffffffffffffffffffffffffffffffff167fd9ee404b97bf8fc636668dbeac99021346d69983ff8571279d36ed5de8e1ae8582856040516152f292919061731a565b60405180910390a2505050565b5f7f8b73c3c69bb8fe3d512ecc4cf759cc79239f7b179b0ffacaa9a75d522b39400f7f0efb1d49f183b196c74c4366a2512c7d1674272cb0af02a6f23288badd93a1e27fc89efdaa54c0f20c7adf612882df0950f5a951637e0307cdcb4c672f298b8bc646306040516020016153799594939291906174db565b60405160208183030381529060405280519060200120905090565b61539e8282612fab565b61546a5760015f808481526020019081526020015f205f015f8373ffffffffffffffffffffffffffffffffffffffff1673ffffffffffffffffffffffffffffffffffffffff1681526020019081526020015f205f6101000a81548160ff02191690831515021790555061540f61546e565b73ffffffffffffffffffffffffffffffffffffffff168173ffffffffffffffffffffffffffffffffffffffff16837f2f8788117e7eff1d82e926ec794901d17c78024a50270940304540a733656f0d60405160405180910390a45b5050565b5f33905090565b61547f8282612fab565b6154f55761548c8161597c565b615499835f1c60206159a9565b6040516020016154aa9291906175fa565b6040516020818303038152906040526040517f08c379a00000000000000000000000000000000000000000000000000000000081526004016154ec919061766b565b60405180910390fd5b5050565b5f6155048383615560565b61555657825f0182908060018154018082558091505060019003905f5260205f20015f9091909190915055825f0180549050836001015f8481526020019081526020015f20819055506001905061555a565b5f90505b92915050565b5f80836001015f8481526020019081526020015f20541415905092915050565b5f6155e1826040518060400160405280602081526020017f5361666545524332303a206c6f772d6c6576656c2063616c6c206661696c65648152508573ffffffffffffffffffffffffffffffffffffffff16615bde9092919063ffffffff16565b90505f81511480615602575080806020019051810190615601919061769f565b5b615641576040517f08c379a00000000000000000000000000000000000000000000000000000000081526004016156389061773a565b60405180910390fd5b505050565b5f80836001015f8481526020019081526020015f205490505f8114615737575f60018261567391906174a8565b90505f6001865f018054905061568991906174a8565b90508181146156ef575f865f0182815481106156a8576156a7616b55565b5b905f5260205f200154905080875f0184815481106156c9576156c8616b55565b5b905f5260205f20018190555083876001015f8381526020019081526020015f2081905550505b855f0180548061570257615701617758565b5b600190038181905f5260205f20015f90559055856001015f8681526020019081526020015f205f90556001935050505061573c565b5f9150505b92915050565b5f80604183510361577f575f805f602086015192506040860151915060608601515f1a905061577387828585615bf5565b94509450505050615787565b5f6002915091505b9250929050565b5f60048111156157a1576157a0616765565b5b8160048111156157b4576157b3616765565b5b03156158f057600160048111156157ce576157cd616765565b5b8160048111156157e1576157e0616765565b5b03615821576040517f08c379a0000000000000000000000000000000000000000000000000000000008152600401615818906177cf565b60405180910390fd5b6002600481111561583557615834616765565b5b81600481111561584857615847616765565b5b03615888576040517f08c379a000000000000000000000000000000000000000000000000000000000815260040161587f90617837565b60405180910390fd5b6003600481111561589c5761589b616765565b5b8160048111156158af576158ae616765565b5b036158ef576040517f08c379a00000000000000000000000000000000000000000000000000000000081526004016158e6906178c5565b60405180910390fd5b5b50565b615976846323b872dd60e01b858585604051602401615914939291906178e3565b604051602081830303815290604052907bffffffffffffffffffffffffffffffffffffffffffffffffffffffff19166020820180517bffffffffffffffffffffffffffffffffffffffffffffffffffffffff8381831617835250505050615580565b50505050565b60606159a28273ffffffffffffffffffffffffffffffffffffffff16601460ff166159a9565b9050919050565b60605f60028360026159bb9190617918565b6159c59190617959565b67ffffffffffffffff8111156159de576159dd616389565b5b6040519080825280601f01601f191660200182016040528015615a105781602001600182028036833780820191505090505b5090507f3000000000000000000000000000000000000000000000000000000000000000815f81518110615a4757615a46616b55565b5b60200101907effffffffffffffffffffffffffffffffffffffffffffffffffffffffffffff191690815f1a9053507f780000000000000000000000000000000000000000000000000000000000000081600181518110615aaa57615aa9616b55565b5b60200101907effffffffffffffffffffffffffffffffffffffffffffffffffffffffffffff191690815f1a9053505f6001846002615ae89190617918565b615af29190617959565b90505b6001811115615b91577f3031323334353637383961626364656600000000000000000000000000000000600f861660108110615b3457615b33616b55565b5b1a60f81b828281518110615b4b57615b4a616b55565b5b60200101907effffffffffffffffffffffffffffffffffffffffffffffffffffffffffffff191690815f1a905350600485901c945080615b8a9061798c565b9050615af5565b505f8414615bd4576040517f08c379a0000000000000000000000000000000000000000000000000000000008152600401615bcb906179fd565b60405180910390fd5b8091505092915050565b6060615bec84845f85615ccd565b90509392505050565b5f807f7fffffffffffffffffffffffffffffff5d576e7357a4501ddfe92f46681b20a0835f1c1115615c2d575f600391509150615cc4565b5f6001878787876040515f8152602001604052604051615c509493929190617a2a565b6020604051602081039080840390855afa158015615c70573d5f803e3d5ffd5b5050506020604051035190505f73ffffffffffffffffffffffffffffffffffffffff168173ffffffffffffffffffffffffffffffffffffffff1603615cbc575f60019250925050615cc4565b805f92509250505b94509492505050565b606082471015615d12576040517f08c379a0000000000000000000000000000000000000000000000000000000008152600401615d0990617add565b60405180910390fd5b5f808673ffffffffffffffffffffffffffffffffffffffff168587604051615d3a9190617b2b565b5f6040518083038185875af1925050503d805f8114615d74576040519150601f19603f3d011682016040523d82523d5f602084013e615d79565b606091505b5091509150615d8a87838387615d96565b92505050949350505050565b60608315615df7575f835103615def57615daf85615e0a565b615dee576040517f08c379a0000000000000000000000000000000000000000000000000000000008152600401615de590617b8b565b60405180910390fd5b5b829050615e02565b615e018383615e2c565b5b949350505050565b5f808273ffffffffffffffffffffffffffffffffffffffff163b119050919050565b5f82511115615e3e5781518083602001fd5b806040517f08c379a0000000000000000000000000000000000000000000000000000000008152600401615e72919061766b565b60405180910390fd5b5f73ffffffffffffffffffffffffffffffffffffffff82169050919050565b5f615ea482615e7b565b9050919050565b615eb481615e9a565b82525050565b5f819050919050565b615ecc81615eba565b82525050565b5f604082019050615ee55f830185615eab565b615ef26020830184615ec3565b9392505050565b5f604051905090565b5f80fd5b5f80fd5b5f7fffffffff0000000000000000000000000000000000000000000000000000000082169050919050565b615f3e81615f0a565b8114615f48575f80fd5b50565b5f81359050615f5981615f35565b92915050565b5f60208284031215615f7457615f73615f02565b5b5f615f8184828501615f4b565b91505092915050565b5f8115159050919050565b615f9e81615f8a565b82525050565b5f602082019050615fb75f830184615f95565b92915050565b5f6fffffffffffffffffffffffffffffffff82169050919050565b615fe181615fbd565b8114615feb575f80fd5b50565b5f81359050615ffc81615fd8565b92915050565b61600b81615e9a565b8114616015575f80fd5b50565b5f8135905061602681616002565b92915050565b5f806040838503121561604257616041615f02565b5b5f61604f85828601615fee565b925050602061606085828601616018565b9150509250929050565b5f6020828403121561607f5761607e615f02565b5b5f61608c84828501616018565b91505092915050565b5f80fd5b5f604082840312156160ae576160ad616095565b5b81905092915050565b5f602082840312156160cc576160cb615f02565b5b5f82013567ffffffffffffffff8111156160e9576160e8615f06565b5b6160f584828501616099565b91505092915050565b5f819050919050565b616110816160fe565b811461611a575f80fd5b50565b5f8135905061612b81616107565b92915050565b5f6020828403121561614657616145615f02565b5b5f6161538482850161611d565b91505092915050565b616165816160fe565b82525050565b5f60208201905061617e5f83018461615c565b92915050565b5f805f6060848603121561619b5761619a615f02565b5b5f6161a886828701616018565b93505060206161b986828701616018565b92505060406161ca86828701615fee565b9150509250925092565b5f80604083850312156161ea576161e9615f02565b5b5f6161f78582860161611d565b925050602061620885828601616018565b9150509250929050565b5f6020828403121561622757616226615f02565b5b5f61623484828501615fee565b91505092915050565b5f610120828403121561625357616252616095565b5b81905092915050565b5f6040828403121561627157616270616095565b5b81905092915050565b5f80604083850312156162905761628f615f02565b5b5f83013567ffffffffffffffff8111156162ad576162ac615f06565b5b6162b98582860161623d565b925050602083013567ffffffffffffffff8111156162da576162d9615f06565b5b6162e68582860161625c565b9150509250929050565b5f806040838503121561630657616305615f02565b5b5f61631385828601616018565b925050602061632485828601616018565b9150509250929050565b5f6020828403121561634357616342615f02565b5b5f82013567ffffffffffffffff8111156163605761635f615f06565b5b61636c8482850161623d565b91505092915050565b5f80fd5b5f601f19601f8301169050919050565b7f4e487b71000000000000000000000000000000000000000000000000000000005f52604160045260245ffd5b6163bf82616379565b810181811067ffffffffffffffff821117156163de576163dd616389565b5b80604052505050565b5f6163f0615ef9565b90506163fc82826163b6565b919050565b6002811061640d575f80fd5b50565b5f8135905061641e81616401565b92915050565b61642d81615f8a565b8114616437575f80fd5b50565b5f8135905061644881616424565b92915050565b5f6080828403121561646357616462616375565b5b61646d60806163e7565b90505f61647c84828501616410565b5f83015250602061648f8482850161643a565b60208301525060406164a384828501615fee565b60408301525060606164b784828501615fee565b60608301525092915050565b5f8060a083850312156164d9576164d8615f02565b5b5f6164e685828601616018565b92505060206164f78582860161644e565b9150509250929050565b5f6020820190506165145f830184615eab565b92915050565b61652381615eba565b811461652d575f80fd5b50565b5f8135905061653e8161651a565b92915050565b5f6020828403121561655957616558615f02565b5b5f61656684828501616530565b91505092915050565b61657881615fbd565b82525050565b5f6040820190506165915f83018561656f565b61659e602083018461656f565b9392505050565b600281106165b1575f80fd5b50565b5f813590506165c2816165a5565b92915050565b5f805f80608085870312156165e0576165df615f02565b5b5f6165ed87828801615fee565b94505060206165fe87828801615fee565b935050604061660f87828801616018565b9250506060616620878288016165b4565b91505092959194509250565b5f805f6060848603121561664357616642615f02565b5b5f84013567ffffffffffffffff8111156166605761665f615f06565b5b61666c8682870161623d565b935050602084013567ffffffffffffffff81111561668d5761668c615f06565b5b61669986828701616099565b925050604084013567ffffffffffffffff8111156166ba576166b9615f06565b5b6166c68682870161625c565b9150509250925092565b5f80604083850312156166e6576166e5615f02565b5b5f6166f385828601616530565b925050602061670485828601616018565b9150509250929050565b5f806040838503121561672457616723615f02565b5b5f61673185828601616018565b92505060206167428582860161643a565b9150509250929050565b5f60208201905061675f5f83018461656f565b92915050565b7f4e487b71000000000000000000000000000000000000000000000000000000005f52602160045260245ffd5b600381106167a3576167a2616765565b5b50565b5f8190506167b382616792565b919050565b5f6167c2826167a6565b9050919050565b6167d2816167b8565b82525050565b5f6020820190506167eb5f8301846167c9565b92915050565b5f6167fb82615e9a565b9050919050565b61680b816167f1565b8114616815575f80fd5b50565b5f8135905061682681616802565b92915050565b5f6020828403121561684157616840615f02565b5b5f61684e84828501616818565b91505092915050565b5f806040838503121561686d5761686c615f02565b5b5f61687a85828601616018565b925050602061688b85828601615fee565b9150509250929050565b5f6060820190506168a85f83018661656f565b6168b56020830185615ec3565b6168c26040830184615ec3565b949350505050565b5f80604083850312156168e0576168df615f02565b5b5f6168ed85828601616018565b92505060206168fe85828601616410565b9150509250929050565b5f81519050919050565b5f82825260208201905092915050565b8281835e5f83830152505050565b5f61693a82616908565b6169448185616912565b9350616954818560208601616922565b61695d81616379565b840191505092915050565b5f6020820190508181035f8301526169808184616930565b905092915050565b5f819050919050565b5f6169ab6169a66169a184615e7b565b616988565b615e7b565b9050919050565b5f6169bc82616991565b9050919050565b5f6169cd826169b2565b9050919050565b6169dd816169c3565b82525050565b5f6020820190506169f65f8301846169d4565b92915050565b60028110616a0d57616a0c616765565b5b50565b5f819050616a1d826169fc565b919050565b5f616a2c82616a10565b9050919050565b616a3c81616a22565b82525050565b5f608082019050616a555f830187616a33565b616a626020830186615f95565b616a6f604083018561656f565b616a7c606083018461656f565b95945050505050565b5f80fd5b5f80fd5b5f80fd5b5f8083356001602003843603038112616aad57616aac616a85565b5b80840192508235915067ffffffffffffffff821115616acf57616ace616a89565b5b602083019250602082023603831315616aeb57616aea616a8d565b5b509250929050565b5f8083356001602003843603038112616b0f57616b0e616a85565b5b80840192508235915067ffffffffffffffff821115616b3157616b30616a89565b5b602083019250602082023603831315616b4d57616b4c616a8d565b5b509250929050565b7f4e487b71000000000000000000000000000000000000000000000000000000005f52603260045260245ffd5b7f4e487b71000000000000000000000000000000000000000000000000000000005f52601160045260245ffd5b5f616bb982615fbd565b9150616bc483615fbd565b925082820190506fffffffffffffffffffffffffffffffff811115616bec57616beb616b82565b5b92915050565b5f81905092915050565b50565b5f616c0a5f83616bf2565b9150616c1582616bfc565b5f82019050919050565b5f616c2982616bff565b9150819050919050565b5f616c4d616c48616c4384615fbd565b616988565b615eba565b9050919050565b616c5d81616c33565b82525050565b5f602082019050616c765f830184616c54565b92915050565b5f60208284031215616c9157616c90615f02565b5b5f616c9e848285016165b4565b91505092915050565b5f604082019050616cba5f830185615eab565b616cc76020830184616c54565b9392505050565b5f8083356001602003843603038112616cea57616ce9616a85565b5b80840192508235915067ffffffffffffffff821115616d0c57616d0b616a89565b5b602083019250600182023603831315616d2857616d27616a8d565b5b509250929050565b5f81905092915050565b828183375f83830152505050565b5f616d538385616d30565b9350616d60838584616d3a565b82840190509392505050565b5f616d78828486616d48565b91508190509392505050565b5f608082019050616d975f830187615eab565b616da46020830186615eab565b616db16040830185616c54565b616dbe6060830184616c54565b95945050505050565b60028110616dd3575f80fd5b50565b5f81359050616de481616dc7565b92915050565b5f60208284031215616dff57616dfe615f02565b5b5f616e0c84828501616dd6565b91505092915050565b5f8083356001602003843603038112616e3157616e30616a85565b5b80840192508235915067ffffffffffffffff821115616e5357616e52616a89565b5b602083019250600182023603831315616e6f57616e6e616a8d565b5b509250929050565b5f616e828385616912565b9350616e8f838584616d3a565b616e9883616379565b840190509392505050565b5f604082019050616eb65f83018661615c565b8181036020830152616ec9818486616e77565b9050949350505050565b5f81519050616ee181615f35565b92915050565b5f60208284031215616efc57616efb615f02565b5b5f616f0984828501616ed3565b91505092915050565b5f6effffffffffffffffffffffffffffff82169050919050565b616f3581616f12565b8114616f3f575f80fd5b50565b5f81359050616f5081616f2c565b92915050565b5f60208284031215616f6b57616f6a615f02565b5b5f616f7884828501616f42565b91505092915050565b5f616f8b82615fbd565b9150616f9683615fbd565b925082820390506fffffffffffffffffffffffffffffffff811115616fbe57616fbd616b82565b5b92915050565b5f8160011c9050919050565b5f808291508390505b600185111561701957808604811115616ff557616ff4616b82565b5b60018516156170045780820291505b808102905061701285616fc4565b9450616fd9565b94509492505050565b5f8261703157600190506170ec565b8161703e575f90506170ec565b8160018114617054576002811461705e5761708d565b60019150506170ec565b60ff8411156170705761706f616b82565b5b8360020a91508482111561708757617086616b82565b5b506170ec565b5060208310610133831016604e8410600b84101617156170c25782820a9050838111156170bd576170bc616b82565b5b6170ec565b6170cf8484846001616fd0565b925090508184048111156170e6576170e5616b82565b5b81810290505b9392505050565b5f6170fd82615eba565b915061710883615fbd565b92506171357fffffffffffffffffffffffffffffffffffffffffffffffffffffffffffffffff8484617022565b905092915050565b7f4e487b71000000000000000000000000000000000000000000000000000000005f52601260045260245ffd5b5f61717482615fbd565b915061717f83615fbd565b92508261718f5761718e61713d565b5b828204905092915050565b5f6171a482615fbd565b91506171af83615fbd565b92508282026171bd81615fbd565b91508082146171cf576171ce616b82565b5b5092915050565b5f6020820190506171e95f830184615ec3565b92915050565b5f6171fa8385616bf2565b9350617207838584616d3a565b82840190509392505050565b5f61721f8284866171ef565b91508190509392505050565b6002811061723c5761723b616765565b5b50565b5f81905061724c8261722b565b919050565b5f61725b8261723f565b9050919050565b61726b81617251565b82525050565b61727a81616f12565b82525050565b5f610140820190506172945f83018d61615c565b6172a1602083018c61615c565b6172ae604083018b617262565b6172bb606083018a617271565b6172c8608083018961656f565b6172d560a0830188615eab565b6172e260c0830187615eab565b6172ef60e0830186615eab565b6172fd61010083018561656f565b61730b61012083018461656f565b9b9a5050505050505050505050565b5f60408201905061732d5f830185616c54565b61733a6020830184616c54565b9392505050565b5f82825260208201905092915050565b7f5265656e7472616e637947756172643a207265656e7472616e742063616c6c005f82015250565b5f617385601f83617341565b915061739082617351565b602082019050919050565b5f6020820190508181035f8301526173b281617379565b9050919050565b7f416363657373436f6e74726f6c3a2063616e206f6e6c792072656e6f756e63655f8201527f20726f6c657320666f722073656c660000000000000000000000000000000000602082015250565b5f617413602f83617341565b915061741e826173b9565b604082019050919050565b5f6020820190508181035f83015261744081617407565b9050919050565b5f60ff82169050919050565b61745c81617447565b8114617466575f80fd5b50565b5f8151905061747781617453565b92915050565b5f6020828403121561749257617491615f02565b5b5f61749f84828501617469565b91505092915050565b5f6174b282615eba565b91506174bd83615eba565b92508282039050818111156174d5576174d4616b82565b5b92915050565b5f60a0820190506174ee5f83018861615c565b6174fb602083018761615c565b617508604083018661615c565b6175156060830185615ec3565b6175226080830184615eab565b9695505050505050565b7f416363657373436f6e74726f6c3a206163636f756e74200000000000000000005f82015250565b5f617560601783616d30565b915061756b8261752c565b601782019050919050565b5f81519050919050565b5f61758a82617576565b6175948185616d30565b93506175a4818560208601616922565b80840191505092915050565b7f206973206d697373696e6720726f6c65200000000000000000000000000000005f82015250565b5f6175e4601183616d30565b91506175ef826175b0565b601182019050919050565b5f61760482617554565b91506176108285617580565b915061761b826175d8565b91506176278284617580565b91508190509392505050565b5f61763d82617576565b6176478185617341565b9350617657818560208601616922565b61766081616379565b840191505092915050565b5f6020820190508181035f8301526176838184617633565b905092915050565b5f8151905061769981616424565b92915050565b5f602082840312156176b4576176b3615f02565b5b5f6176c18482850161768b565b91505092915050565b7f5361666545524332303a204552433230206f7065726174696f6e20646964206e5f8201527f6f74207375636365656400000000000000000000000000000000000000000000602082015250565b5f617724602a83617341565b915061772f826176ca565b604082019050919050565b5f6020820190508181035f83015261775181617718565b9050919050565b7f4e487b71000000000000000000000000000000000000000000000000000000005f52603160045260245ffd5b7f45434453413a20696e76616c6964207369676e617475726500000000000000005f82015250565b5f6177b9601883617341565b91506177c482617785565b602082019050919050565b5f6020820190508181035f8301526177e6816177ad565b9050919050565b7f45434453413a20696e76616c6964207369676e6174757265206c656e677468005f82015250565b5f617821601f83617341565b915061782c826177ed565b602082019050919050565b5f6020820190508181035f83015261784e81617815565b9050919050565b7f45434453413a20696e76616c6964207369676e6174757265202773272076616c5f8201527f7565000000000000000000000000000000000000000000000000000000000000602082015250565b5f6178af602283617341565b91506178ba82617855565b604082019050919050565b5f6020820190508181035f8301526178dc816178a3565b9050919050565b5f6060820190506178f65f830186615eab565b6179036020830185615eab565b6179106040830184615ec3565b949350505050565b5f61792282615eba565b915061792d83615eba565b925082820261793b81615eba565b9150828204841483151761795257617951616b82565b5b5092915050565b5f61796382615eba565b915061796e83615eba565b925082820190508082111561798657617985616b82565b5b92915050565b5f61799682615eba565b91505f82036179a8576179a7616b82565b5b600182039050919050565b7f537472696e67733a20686578206c656e67746820696e73756666696369656e745f82015250565b5f6179e7602083617341565b91506179f2826179b3565b602082019050919050565b5f6020820190508181035f830152617a14816179db565b9050919050565b617a2481617447565b82525050565b5f608082019050617a3d5f83018761615c565b617a4a6020830186617a1b565b617a57604083018561615c565b617a64606083018461615c565b95945050505050565b7f416464726573733a20696e73756666696369656e742062616c616e636520666f5f8201527f722063616c6c0000000000000000000000000000000000000000000000000000602082015250565b5f617ac7602683617341565b9150617ad282617a6d565b604082019050919050565b5f6020820190508181035f830152617af481617abb565b9050919050565b5f617b0582616908565b617b0f8185616bf2565b9350617b1f818560208601616922565b80840191505092915050565b5f617b368284617afb565b915081905092915050565b7f416464726573733a2063616c6c20746f206e6f6e2d636f6e74726163740000005f82015250565b5f617b75601d83617341565b9150617b8082617b41565b602082019050919050565b5f6020820190508181035f830152617ba281617b69565b905091905056fea2646970667358221220666f953b7741475dc94b7cab5bfb5e1c53b1a77bb785d3e42b35cc294f3eea1164736f6c634300081a0033","linkReferences":{}},"methodIdentifiers":{"DEFAULT_ADMIN_ROLE()":"a217fddf","acceptAdmin()":"0e18b681","addCustodianAddress(address)":"4be7a64b","addSupportedAsset(address,(uint8,bool,uint128,uint128))":"7cfbc42f","addWhitelistedBenefactor(address)":"16255c43","confirmDelegatedSigner(address)":"157a4028","delegatedSigner(address,address)":"cf9cc766","disableMintRedeem()":"c5ff38bd","encodeOrder((string,uint8,uint120,uint128,address,address,address,uint128,uint128))":"e2959b6c","getDomainSeparator()":"ed24911d","getRoleAdmin(bytes32)":"248a9ca3","globalConfig()":"a7c1abe0","grantRole(bytes32,address)":"2f2ff15d","hasRole(bytes32,address)":"91d14854","hashOrder((string,uint8,uint120,uint128,address,address,address,uint128,uint128))":"7cef7e91","isApprovedBeneficiary(address,address)":"7adb8b86","isCustodianAddress(address)":"1cf58ff2","isSupportedAsset(address)":"9be918e6","isWhitelistedBenefactor(address)":"e3a17ff9","mint((string,uint8,uint120,uint128,address,address,address,uint128,uint128),(address[],uint128[]),(uint8,bytes))":"96eea750","owner()":"8da5cb5b","redeem((string,uint8,uint120,uint128,address,address,address,uint128,uint128),(uint8,bytes))":"75c890dc","removeCollateralManagerRole(address)":"7274c25c","removeCustodianAddress(address)":"4ba87af9","removeDelegatedSigner(address)":"40e49216","removeMinterRole(address)":"54f1e126","removeRedeemerRole(address)":"532c3f82","removeSupportedAsset(address)":"1c46bc6f","removeWhitelistedBenefactor(address)":"8db940e0","renounceRole(bytes32,address)":"36568abe","revokeRole(bytes32,address)":"d547741f","setApprovedBeneficiary(address,bool)":"b58f203d","setDelegatedSigner(address)":"53863613","setGlobalMaxMintPerBlock(uint128)":"6c2cd30f","setGlobalMaxRedeemPerBlock(uint128)":"936e2248","setMaxMintPerBlock(uint128,address)":"12a4a10e","setMaxRedeemPerBlock(uint128,address)":"e0770202","setStablesDeltaLimit(uint128)":"af4eca35","setTokenType(address,uint8)":"dfcf8528","setUSDtbToken(address)":"d199001f","stablesDeltaLimit()":"be4088ee","supportsInterface(bytes4)":"01ffc9a7","tokenConfig(address)":"fe136c4e","totalPerBlock(uint256)":"92408dc7","totalPerBlockPerAsset(uint256,address)":"a693635e","transferAdmin(address)":"75829def","transferToCustody(address,address,uint128)":"2da09621","usdtb()":"fa0025c8","verifyNonce(address,uint128)":"d901561c","verifyOrder((string,uint8,uint120,uint128,address,address,address,uint128,uint128),(uint8,bytes))":"7c549c1d","verifyRoute((address[],uint128[]))":"1f6c7da2","verifyStablesLimit(uint128,uint128,address,uint8)":"92a3c04f"},"id":38}