{"abi":[{"type":"constructor","inputs":[],"stateMutability":"nonpayable"},{"type":"function","name":"BLACKLISTED_ROLE","inputs":[],"outputs":[{"name":"","type":"bytes32","internalType":"bytes32"}],"stateMutability":"view"},{"type":"function","name":"BLACKLIST_MANAGER_ROLE","inputs":[],"outputs":[{"name":"","type":"bytes32","internalType":"bytes32"}],"stateMutability":"view"},{"type":"function","name":"DEFAULT_ADMIN_ROLE","inputs":[],"outputs":[{"name":"","type":"bytes32","internalType":"bytes32"}],"stateMutability":"view"},{"type":"function","name":"DOMAIN_SEPARATOR","inputs":[],"outputs":[{"name":"","type":"bytes32","internalType":"bytes32"}],"stateMutability":"view"},{"type":"function","name":"MAX_COOLDOWN_DURATION","inputs":[],"outputs":[{"name":"","type":"uint24","internalType":"uint24"}],"stateMutability":"view"},{"type":"function","name":"MAX_VESTING_PERIOD","inputs":[],"outputs":[{"name":"","type":"uint24","internalType":"uint24"}],"stateMutability":"view"},{"type":"function","name":"REWARDER_ROLE","inputs":[],"outputs":[{"name":"","type":"bytes32","internalType":"bytes32"}],"stateMutability":"view"},{"type":"function","name":"acceptAdmin","inputs":[],"outputs":[],"stateMutability":"nonpayable"},{"type":"function","name":"addToBlacklist","inputs":[{"name":"target","type":"address","internalType":"address"}],"outputs":[],"stateMutability":"nonpayable"},{"type":"function","name":"allowance","inputs":[{"name":"owner","type":"address","internalType":"address"},{"name":"spender","type":"address","internalType":"address"}],"outputs":[{"name":"","type":"uint256","internalType":"uint256"}],"stateMutability":"view"},{"type":"function","name":"approve","inputs":[{"name":"spender","type":"address","internalType":"address"},{"name":"amount","type":"uint256","internalType":"uint256"}],"outputs":[{"name":"","type":"bool","internalType":"bool"}],"stateMutability":"nonpayable"},{"type":"function","name":"asset","inputs":[],"outputs":[{"name":"","type":"address","internalType":"address"}],"stateMutability":"view"},{"type":"function","name":"balanceOf","inputs":[{"name":"account","type":"address","internalType":"address"}],"outputs":[{"name":"","type":"uint256","internalType":"uint256"}],"stateMutability":"view"},{"type":"function","name":"convertToAssets","inputs":[{"name":"shares","type":"uint256","internalType":"uint256"}],"outputs":[{"name":"","type":"uint256","internalType":"uint256"}],"stateMutability":"view"},{"type":"function","name":"convertToShares","inputs":[{"name":"assets","type":"uint256","internalType":"uint256"}],"outputs":[{"name":"","type":"uint256","internalType":"uint256"}],"stateMutability":"view"},{"type":"function","name":"cooldownAssets","inputs":[{"name":"assets","type":"uint256","internalType":"uint256"}],"outputs":[{"name":"shares","type":"uint256","internalType":"uint256"}],"stateMutability":"nonpayable"},{"type":"function","name":"cooldownDuration","inputs":[],"outputs":[{"name":"","type":"uint24","internalType":"uint24"}],"stateMutability":"view"},{"type":"function","name":"cooldownShares","inputs":[{"name":"shares","type":"uint256","internalType":"uint256"}],"outputs":[{"name":"assets","type":"uint256","internalType":"uint256"}],"stateMutability":"nonpayable"},{"type":"function","name":"cooldowns","inputs":[{"name":"","type":"address","internalType":"address"}],"outputs":[{"name":"cooldownEnd","type":"uint104","internalType":"uint104"},{"name":"underlyingAmount","type":"uint152","internalType":"uint152"}],"stateMutability":"view"},{"type":"function","name":"decimals","inputs":[],"outputs":[{"name":"","type":"uint8","internalType":"uint8"}],"stateMutability":"pure"},{"type":"function","name":"decreaseAllowance","inputs":[{"name":"spender","type":"address","internalType":"address"},{"name":"subtractedValue","type":"uint256","internalType":"uint256"}],"outputs":[{"name":"","type":"bool","internalType":"bool"}],"stateMutability":"nonpayable"},{"type":"function","name":"deposit","inputs":[{"name":"assets","type":"uint256","internalType":"uint256"},{"name":"receiver","type":"address","internalType":"address"}],"outputs":[{"name":"","type":"uint256","internalType":"uint256"}],"stateMutability":"nonpayable"},{"type":"function","name":"eip712Domain","inputs":[],"outputs":[{"name":"fields","type":"bytes1","internalType":"bytes1"},{"name":"name","type":"string","internalType":"string"},{"name":"version","type":"string","internalType":"string"},{"name":"chainId","type":"uint256","internalType":"uint256"},{"name":"verifyingContract","type":"address","internalType":"address"},{"name":"salt","type":"bytes32","internalType":"bytes32"},{"name":"extensions","type":"uint256[]","internalType":"uint256[]"}],"stateMutability":"view"},{"type":"function","name":"getRoleAdmin","inputs":[{"name":"role","type":"bytes32","internalType":"bytes32"}],"outputs":[{"name":"","type":"bytes32","internalType":"bytes32"}],"stateMutability":"view"},{"type":"function","name":"getUnvestedAmount","inputs":[],"outputs":[{"name":"","type":"uint256","internalType":"uint256"}],"stateMutability":"view"},{"type":"function","name":"grantRole","inputs":[{"name":"role","type":"bytes32","internalType":"bytes32"},{"name":"account","type":"address","internalType":"address"}],"outputs":[],"stateMutability":"nonpayable"},{"type":"function","name":"hasRole","inputs":[{"name":"role","type":"bytes32","internalType":"bytes32"},{"name":"account","type":"address","internalType":"address"}],"outputs":[{"name":"","type":"bool","internalType":"bool"}],"stateMutability":"view"},{"type":"function","name":"increaseAllowance","inputs":[{"name":"spender","type":"address","internalType":"address"},{"name":"addedValue","type":"uint256","internalType":"uint256"}],"outputs":[{"name":"","type":"bool","internalType":"bool"}],"stateMutability":"nonpayable"},{"type":"function","name":"initialize","inputs":[{"name":"_asset","type":"address","internalType":"contract IERC20Upgradeable"},{"name":"_initialRewarder","type":"address","internalType":"address"},{"name":"_owner","type":"address","internalType":"address"}],"outputs":[],"stateMutability":"nonpayable"},{"type":"function","name":"lastDistributionTimestamp","inputs":[],"outputs":[{"name":"","type":"uint256","internalType":"uint256"}],"stateMutability":"view"},{"type":"function","name":"maxDeposit","inputs":[{"name":"","type":"address","internalType":"address"}],"outputs":[{"name":"","type":"uint256","internalType":"uint256"}],"stateMutability":"view"},{"type":"function","name":"maxMint","inputs":[{"name":"","type":"address","internalType":"address"}],"outputs":[{"name":"","type":"uint256","internalType":"uint256"}],"stateMutability":"view"},{"type":"function","name":"maxRedeem","inputs":[{"name":"owner","type":"address","internalType":"address"}],"outputs":[{"name":"","type":"uint256","internalType":"uint256"}],"stateMutability":"view"},{"type":"function","name":"maxWithdraw","inputs":[{"name":"owner","type":"address","internalType":"address"}],"outputs":[{"name":"","type":"uint256","internalType":"uint256"}],"stateMutability":"view"},{"type":"function","name":"mint","inputs":[{"name":"shares","type":"uint256","internalType":"uint256"},{"name":"receiver","type":"address","internalType":"address"}],"outputs":[{"name":"","type":"uint256","internalType":"uint256"}],"stateMutability":"nonpayable"},{"type":"function","name":"name","inputs":[],"outputs":[{"name":"","type":"string","internalType":"string"}],"stateMutability":"view"},{"type":"function","name":"nonces","inputs":[{"name":"owner","type":"address","internalType":"address"}],"outputs":[{"name":"","type":"uint256","internalType":"uint256"}],"stateMutability":"view"},{"type":"function","name":"owner","inputs":[],"outputs":[{"name":"","type":"address","internalType":"address"}],"stateMutability":"view"},{"type":"function","name":"permit","inputs":[{"name":"owner","type":"address","internalType":"address"},{"name":"spender","type":"address","internalType":"address"},{"name":"value","type":"uint256","internalType":"uint256"},{"name":"deadline","type":"uint256","internalType":"uint256"},{"name":"v","type":"uint8","internalType":"uint8"},{"name":"r","type":"bytes32","internalType":"bytes32"},{"name":"s","type":"bytes32","internalType":"bytes32"}],"outputs":[],"stateMutability":"nonpayable"},{"type":"function","name":"previewDeposit","inputs":[{"name":"assets","type":"uint256","internalType":"uint256"}],"outputs":[{"name":"","type":"uint256","internalType":"uint256"}],"stateMutability":"view"},{"type":"function","name":"previewMint","inputs":[{"name":"shares","type":"uint256","internalType":"uint256"}],"outputs":[{"name":"","type":"uint256","internalType":"uint256"}],"stateMutability":"view"},{"type":"function","name":"previewRedeem","inputs":[{"name":"shares","type":"uint256","internalType":"uint256"}],"outputs":[{"name":"","type":"uint256","internalType":"uint256"}],"stateMutability":"view"},{"type":"function","name":"previewWithdraw","inputs":[{"name":"assets","type":"uint256","internalType":"uint256"}],"outputs":[{"name":"","type":"uint256","internalType":"uint256"}],"stateMutability":"view"},{"type":"function","name":"redeem","inputs":[{"name":"shares","type":"uint256","internalType":"uint256"},{"name":"receiver","type":"address","internalType":"address"},{"name":"_owner","type":"address","internalType":"address"}],"outputs":[{"name":"","type":"uint256","internalType":"uint256"}],"stateMutability":"nonpayable"},{"type":"function","name":"redistributeLockedAmount","inputs":[{"name":"from","type":"address","internalType":"address"},{"name":"to","type":"address","internalType":"address"}],"outputs":[],"stateMutability":"nonpayable"},{"type":"function","name":"removeFromBlacklist","inputs":[{"name":"target","type":"address","internalType":"address"}],"outputs":[],"stateMutability":"nonpayable"},{"type":"function","name":"renounceRole","inputs":[{"name":"","type":"bytes32","internalType":"bytes32"},{"name":"","type":"address","internalType":"address"}],"outputs":[],"stateMutability":"nonpayable"},{"type":"function","name":"rescueTokens","inputs":[{"name":"token","type":"address","internalType":"address"},{"name":"amount","type":"uint256","internalType":"uint256"},{"name":"to","type":"address","internalType":"address"}],"outputs":[],"stateMutability":"nonpayable"},{"type":"function","name":"revokeRole","inputs":[{"name":"role","type":"bytes32","internalType":"bytes32"},{"name":"account","type":"address","internalType":"address"}],"outputs":[],"stateMutability":"nonpayable"},{"type":"function","name":"setCooldownDuration","inputs":[{"name":"duration","type":"uint24","internalType":"uint24"}],"outputs":[],"stateMutability":"nonpayable"},{"type":"function","name":"silo","inputs":[],"outputs":[{"name":"","type":"address","internalType":"contract EnaSilo"}],"stateMutability":"view"},{"type":"function","name":"supportsInterface","inputs":[{"name":"interfaceId","type":"bytes4","internalType":"bytes4"}],"outputs":[{"name":"","type":"bool","internalType":"bool"}],"stateMutability":"view"},{"type":"function","name":"symbol","inputs":[],"outputs":[{"name":"","type":"string","internalType":"string"}],"stateMutability":"view"},{"type":"function","name":"totalAssets","inputs":[],"outputs":[{"name":"","type":"uint256","internalType":"uint256"}],"stateMutability":"view"},{"type":"function","name":"totalSupply","inputs":[],"outputs":[{"name":"","type":"uint256","internalType":"uint256"}],"stateMutability":"view"},{"type":"function","name":"transfer","inputs":[{"name":"to","type":"address","internalType":"address"},{"name":"amount","type":"uint256","internalType":"uint256"}],"outputs":[{"name":"","type":"bool","internalType":"bool"}],"stateMutability":"nonpayable"},{"type":"function","name":"transferAdmin","inputs":[{"name":"newAdmin","type":"address","internalType":"address"}],"outputs":[],"stateMutability":"nonpayable"},{"type":"function","name":"transferFrom","inputs":[{"name":"from","type":"address","internalType":"address"},{"name":"to","type":"address","internalType":"address"},{"name":"amount","type":"uint256","internalType":"uint256"}],"outputs":[{"name":"","type":"bool","internalType":"bool"}],"stateMutability":"nonpayable"},{"type":"function","name":"transferInRewards","inputs":[{"name":"amount","type":"uint256","internalType":"uint256"}],"outputs":[],"stateMutability":"nonpayable"},{"type":"function","name":"unstake","inputs":[{"name":"receiver","type":"address","internalType":"address"}],"outputs":[],"stateMutability":"nonpayable"},{"type":"function","name":"updateVestingPeriod","inputs":[{"name":"newVestingPeriod","type":"uint24","internalType":"uint24"}],"outputs":[],"stateMutability":"nonpayable"},{"type":"function","name":"useNonce","inputs":[],"outputs":[{"name":"","type":"uint256","internalType":"uint256"}],"stateMutability":"nonpayable"},{"type":"function","name":"vestingAmount","inputs":[],"outputs":[{"name":"","type":"uint256","internalType":"uint256"}],"stateMutability":"view"},{"type":"function","name":"vestingPeriod","inputs":[],"outputs":[{"name":"","type":"uint24","internalType":"uint24"}],"stateMutability":"view"},{"type":"function","name":"withdraw","inputs":[{"name":"assets","type":"uint256","internalType":"uint256"},{"name":"receiver","type":"address","internalType":"address"},{"name":"_owner","type":"address","internalType":"address"}],"outputs":[{"name":"","type":"uint256","internalType":"uint256"}],"stateMutability":"nonpayable"},{"type":"event","name":"AdminTransferRequested","inputs":[{"name":"oldAdmin","type":"address","indexed":true,"internalType":"address"},{"name":"newAdmin","type":"address","indexed":true,"internalType":"address"}],"anonymous":false},{"type":"event","name":"AdminTransferred","inputs":[{"name":"oldAdmin","type":"address","indexed":true,"internalType":"address"},{"name":"newAdmin","type":"address","indexed":true,"internalType":"address"}],"anonymous":false},{"type":"event","name":"Approval","inputs":[{"name":"owner","type":"address","indexed":true,"internalType":"address"},{"name":"spender","type":"address","indexed":true,"internalType":"address"},{"name":"value","type":"uint256","indexed":false,"internalType":"uint256"}],"anonymous":false},{"type":"event","name":"CooldownDurationUpdated","inputs":[{"name":"previousDuration","type":"uint24","indexed":false,"internalType":"uint24"},{"name":"newDuration","type":"uint24","indexed":false,"internalType":"uint24"}],"anonymous":false},{"type":"event","name":"CooldownStarted","inputs":[{"name":"cooler","type":"address","indexed":true,"internalType":"address"},{"name":"assets","type":"uint256","indexed":false,"internalType":"uint256"},{"name":"shares","type":"uint256","indexed":false,"internalType":"uint256"}],"anonymous":false},{"type":"event","name":"Deposit","inputs":[{"name":"sender","type":"address","indexed":true,"internalType":"address"},{"name":"owner","type":"address","indexed":true,"internalType":"address"},{"name":"assets","type":"uint256","indexed":false,"internalType":"uint256"},{"name":"shares","type":"uint256","indexed":false,"internalType":"uint256"}],"anonymous":false},{"type":"event","name":"EIP712DomainChanged","inputs":[],"anonymous":false},{"type":"event","name":"Initialized","inputs":[{"name":"version","type":"uint8","indexed":false,"internalType":"uint8"}],"anonymous":false},{"type":"event","name":"RewardsReceived","inputs":[{"name":"amount","type":"uint256","indexed":false,"internalType":"uint256"}],"anonymous":false},{"type":"event","name":"RoleAdminChanged","inputs":[{"name":"role","type":"bytes32","indexed":true,"internalType":"bytes32"},{"name":"previousAdminRole","type":"bytes32","indexed":true,"internalType":"bytes32"},{"name":"newAdminRole","type":"bytes32","indexed":true,"internalType":"bytes32"}],"anonymous":false},{"type":"event","name":"RoleGranted","inputs":[{"name":"role","type":"bytes32","indexed":true,"internalType":"bytes32"},{"name":"account","type":"address","indexed":true,"internalType":"address"},{"name":"sender","type":"address","indexed":true,"internalType":"address"}],"anonymous":false},{"type":"event","name":"RoleRevoked","inputs":[{"name":"role","type":"bytes32","indexed":true,"internalType":"bytes32"},{"name":"account","type":"address","indexed":true,"internalType":"address"},{"name":"sender","type":"address","indexed":true,"internalType":"address"}],"anonymous":false},{"type":"event","name":"StakedENARedistributed","inputs":[{"name":"from","type":"address","indexed":true,"internalType":"address"},{"name":"to","type":"address","indexed":true,"internalType":"address"},{"name":"amount","type":"uint256","indexed":false,"internalType":"uint256"}],"anonymous":false},{"type":"event","name":"TokensRescued","inputs":[{"name":"token","type":"address","indexed":true,"internalType":"address"},{"name":"to","type":"address","indexed":true,"internalType":"address"},{"name":"amount","type":"uint256","indexed":false,"internalType":"uint256"}],"anonymous":false},{"type":"event","name":"Transfer","inputs":[{"name":"from","type":"address","indexed":true,"internalType":"address"},{"name":"to","type":"address","indexed":true,"internalType":"address"},{"name":"value","type":"uint256","indexed":false,"internalType":"uint256"}],"anonymous":false},{"type":"event","name":"Unstake","inputs":[{"name":"unstaker","type":"address","indexed":true,"internalType":"address"},{"name":"receiver","type":"address","indexed":true,"internalType":"address"},{"name":"amount","type":"uint256","indexed":false,"internalType":"uint256"}],"anonymous":false},{"type":"event","name":"VestingDurationUpdated","inputs":[{"name":"previousDuration","type":"uint24","indexed":false,"internalType":"uint24"},{"name":"newDuration","type":"uint24","indexed":false,"internalType":"uint24"}],"anonymous":false},{"type":"event","name":"Withdraw","inputs":[{"name":"sender","type":"address","indexed":true,"internalType":"address"},{"name":"receiver","type":"address","indexed":true,"internalType":"address"},{"name":"owner","type":"address","indexed":true,"internalType":"address"},{"name":"assets","type":"uint256","indexed":false,"internalType":"uint256"},{"name":"shares","type":"uint256","indexed":false,"internalType":"uint256"}],"anonymous":false},{"type":"error","name":"CantBlacklistOwner","inputs":[]},{"type":"error","name":"ExcessiveRedeemAmount","inputs":[]},{"type":"error","name":"ExcessiveWithdrawAmount","inputs":[]},{"type":"error","name":"InvalidAdminChange","inputs":[]},{"type":"error","name":"InvalidAmount","inputs":[]},{"type":"error","name":"InvalidCooldown","inputs":[]},{"type":"error","name":"InvalidToken","inputs":[]},{"type":"error","name":"InvalidVestingPeriod","inputs":[]},{"type":"error","name":"InvalidZeroAddress","inputs":[]},{"type":"error","name":"MinSharesViolation","inputs":[]},{"type":"error","name":"NotPendingAdmin","inputs":[]},{"type":"error","name":"OperationNotAllowed","inputs":[]},{"type":"error","name":"StillVesting","inputs":[]}],"bytecode":{"object":"0x608060405234801561000f575f80fd5b5061001e61002360201b60201c565b6101b2565b5f60019054906101000a900460ff1615610072576040517f08c379a000000000000000000000000000000000000000000000000000000000815260040161006990610160565b60405180910390fd5b60ff80165f8054906101000a900460ff1660ff16146100de5760ff5f806101000a81548160ff021916908360ff1602179055507f7f26b83ff96e1f2b6a682f133852f6798a09c465da95921460cefb384740249860ff6040516100d59190610199565b60405180910390a15b565b5f82825260208201905092915050565b7f496e697469616c697a61626c653a20636f6e747261637420697320696e6974695f8201527f616c697a696e6700000000000000000000000000000000000000000000000000602082015250565b5f61014a6027836100e0565b9150610155826100f0565b604082019050919050565b5f6020820190508181035f8301526101778161013e565b9050919050565b5f60ff82169050919050565b6101938161017e565b82525050565b5f6020820190506101ac5f83018461018a565b92915050565b61791c806101bf5f395ff3fe608060405234801561000f575f80fd5b50600436106103d8575f3560e01c80637ecebe0011610208578063ba08765211610123578063d505accf116100b6578063e5a5e67411610085578063e5a5e67414610ca3578063e7c2a60814610cc1578063eb3beb2914610cdf578063ef8b30f714610cfd578063f2888dbb14610d2d576103d8565b8063d505accf14610c0b578063d547741f14610c27578063d905777e14610c43578063dd62ed3e14610c73576103d8565b8063c80ef110116100f2578063c80ef11014610b73578063cdac52ed14610b8f578063ce23eb3c14610bbf578063ce96cb7714610bdb576103d8565b8063ba08765214610ac7578063c0c53b8b14610af7578063c63d75b614610b13578063c6e6f59214610b43576103d8565b806395d89b411161019b578063a9059cbb1161016a578063a9059cbb14610a1b578063b37fd19014610a4b578063b3d7f6b914610a67578063b460af9414610a97576103d8565b806395d89b4114610993578063a0776b82146109b1578063a217fddf146109cd578063a457c2d7146109eb576103d8565b80638da5cb5b116101d75780638da5cb5b146108e557806391d14854146109035780639343d9e11461093357806394bf804d14610963576103d8565b80637ecebe001461085757806384b0196e146108875780638580cf76146108ab5780638593d033146108c9576103d8565b806335269315116102f85780634cdad5061161028b5780636e553f651161025a5780636e553f65146107bd57806370a08231146107ed5780637313ee5a1461081d57806375829def1461083b576103d8565b80634cdad50614610735578063537df3b61461076557806362b199c51461078157806369615a4c1461079f576103d8565b806339509351116102c7578063395093511461069b578063402d267d146106cb578063410b2424146106fb57806344337ea114610719576103d8565b806335269315146106255780633644e5151461064357806336568abe1461066157806338d52e0f1461067d576103d8565b80630e18b6811161037057806323b872dd1161033f57806323b872dd1461058b578063248a9ca3146105bb5780632f2ff15d146105eb578063313ce56714610607576103d8565b80630e18b6811461052757806318160ddd146105315780631e9049cf1461054f578063209509331461056d576103d8565b806306fdde03116103ac57806306fdde031461047957806307a2d13a14610497578063095ea7b3146104c75780630a28a477146104f7576103d8565b8062728f76146103dc57806301320fe2146103fa57806301e1d1141461042b57806301ffc9a714610449575b5f80fd5b6103e4610d49565b6040516103f19190615339565b60405180910390f35b610414600480360381019061040f91906153b0565b610d50565b60405161042292919061542f565b60405180910390f35b610433610da7565b6040516104409190615339565b60405180910390f35b610463600480360381019061045e91906154ab565b610e3e565b60405161047091906154f0565b60405180910390f35b610481610eb7565b60405161048e9190615579565b60405180910390f35b6104b160048036038101906104ac91906155c3565b610f47565b6040516104be9190615339565b60405180910390f35b6104e160048036038101906104dc91906155ee565b610f59565b6040516104ee91906154f0565b60405180910390f35b610511600480360381019061050c91906155c3565b610f7b565b60405161051e9190615339565b60405180910390f35b61052f610f8e565b005b610539611022565b6040516105469190615339565b60405180910390f35b61055761102b565b6040516105649190615649565b60405180910390f35b610575611032565b6040516105829190615339565b60405180910390f35b6105a560048036038101906105a09190615662565b611039565b6040516105b291906154f0565b60405180910390f35b6105d560048036038101906105d091906156e5565b611067565b6040516105e2919061571f565b60405180910390f35b61060560048036038101906106009190615738565b611084565b005b61060f6110dc565b60405161061c9190615791565b60405180910390f35b61062d6110e4565b60405161063a9190615649565b60405180910390f35b61064b6110fa565b604051610658919061571f565b60405180910390f35b61067b60048036038101906106769190615738565b611108565b005b61068561113a565b60405161069291906157b9565b60405180910390f35b6106b560048036038101906106b091906155ee565b611163565b6040516106c291906154f0565b60405180910390f35b6106e560048036038101906106e091906153b0565b611199565b6040516106f29190615339565b60405180910390f35b6107036111c2565b604051610710919061571f565b60405180910390f35b610733600480360381019061072e91906153b0565b6111e6565b005b61074f600480360381019061074a91906155c3565b6112bc565b60405161075c9190615339565b60405180910390f35b61077f600480360381019061077a91906153b0565b6112ce565b005b610789611336565b604051610796919061571f565b60405180910390f35b6107a761135a565b6040516107b49190615339565b60405180910390f35b6107d760048036038101906107d291906157d2565b611369565b6040516107e49190615339565b60405180910390f35b610807600480360381019061080291906153b0565b6113de565b6040516108149190615339565b60405180910390f35b610825611424565b6040516108329190615649565b60405180910390f35b610855600480360381019061085091906153b0565b611439565b005b610871600480360381019061086c91906153b0565b611569565b60405161087e9190615339565b60405180910390f35b61088f6115b7565b6040516108a29796959493929190615901565b60405180910390f35b6108b36116b1565b6040516108c0919061571f565b60405180910390f35b6108e360048036038101906108de91906159ad565b6116d5565b005b6108ed6116fe565b6040516108fa91906157b9565b60405180910390f35b61091d60048036038101906109189190615738565b611726565b60405161092a91906154f0565b60405180910390f35b61094d600480360381019061094891906155c3565b61178a565b60405161095a9190615339565b60405180910390f35b61097d600480360381019061097891906157d2565b6119e9565b60405161098a9190615339565b60405180910390f35b61099b611a5e565b6040516109a89190615579565b60405180910390f35b6109cb60048036038101906109c691906159d8565b611aee565b005b6109d5611cb0565b6040516109e2919061571f565b60405180910390f35b610a056004803603810190610a0091906155ee565b611cb6565b604051610a1291906154f0565b60405180910390f35b610a356004803603810190610a3091906155ee565b611d2b565b604051610a4291906154f0565b60405180910390f35b610a656004803603810190610a609190615a16565b611d4d565b005b610a816004803603810190610a7c91906155c3565b611e6b565b604051610a8e9190615339565b60405180910390f35b610ab16004803603810190610aac9190615a66565b611e7e565b604051610abe9190615339565b60405180910390f35b610ae16004803603810190610adc9190615a66565b611ee3565b604051610aee9190615339565b60405180910390f35b610b116004803603810190610b0c9190615af1565b611f48565b005b610b2d6004803603810190610b2891906153b0565b6122e9565b604051610b3a9190615339565b60405180910390f35b610b5d6004803603810190610b5891906155c3565b612312565b604051610b6a9190615339565b60405180910390f35b610b8d6004803603810190610b8891906155c3565b612324565b005b610ba96004803603810190610ba491906155c3565b612411565b604051610bb69190615339565b60405180910390f35b610bd96004803603810190610bd491906159ad565b612670565b005b610bf56004803603810190610bf091906153b0565b612759565b604051610c029190615339565b60405180910390f35b610c256004803603810190610c209190615b6b565b612773565b005b610c416004803603810190610c3c9190615738565b6128b2565b005b610c5d6004803603810190610c5891906153b0565b61290a565b604051610c6a9190615339565b60405180910390f35b610c8d6004803603810190610c8891906159d8565b61291b565b604051610c9a9190615339565b60405180910390f35b610cab61299d565b604051610cb89190615649565b60405180910390f35b610cc96129a4565b604051610cd69190615339565b60405180910390f35b610ce7612a31565b604051610cf49190615c63565b60405180910390f35b610d176004803603810190610d1291906155c3565b612a58565b604051610d249190615339565b60405180910390f35b610d476004803603810190610d4291906153b0565b612a6a565b005b6101965481565b610199602052805f5260405f205f91509050805f015f9054906101000a90046cffffffffffffffffffffffffff1690805f01600d9054906101000a900472ffffffffffffffffffffffffffffffffffffff16905082565b5f610db06129a4565b610db861113a565b73ffffffffffffffffffffffffffffffffffffffff166370a08231306040518263ffffffff1660e01b8152600401610df091906157b9565b602060405180830381865afa158015610e0b573d5f803e3d5ffd5b505050506040513d601f19601f82011682018060405250810190610e2f9190615c90565b610e399190615ce8565b905090565b5f7f7965db0b000000000000000000000000000000000000000000000000000000007bffffffffffffffffffffffffffffffffffffffffffffffffffffffff1916827bffffffffffffffffffffffffffffffffffffffffffffffffffffffff19161480610eb05750610eaf82612ce9565b5b9050919050565b606060ce8054610ec690615d48565b80601f0160208091040260200160405190810160405280929190818152602001828054610ef290615d48565b8015610f3d5780601f10610f1457610100808354040283529160200191610f3d565b820191905f5260205f20905b815481529060010190602001808311610f2057829003601f168201915b5050505050905090565b5f610f52825f612d52565b9050919050565b5f80610f63612daa565b9050610f70818585612db1565b600191505092915050565b5f610f87826001612f74565b9050919050565b60985f9054906101000a900473ffffffffffffffffffffffffffffffffffffffff1673ffffffffffffffffffffffffffffffffffffffff163373ffffffffffffffffffffffffffffffffffffffff1614611014576040517f058d9a1b00000000000000000000000000000000000000000000000000000000815260040160405180910390fd5b6110205f801b33612fcc565b565b5f60cd54905090565b6276a70081565b6101975481565b5f80611043612daa565b90506110508582856130f0565b61105b85858561317b565b60019150509392505050565b5f60655f8381526020019081526020015f20600101549050919050565b5f801b611090816133ea565b825f801b81036110cc576040517f6317a0fa00000000000000000000000000000000000000000000000000000000815260040160405180910390fd5b6110d68484612fcc565b50505050565b5f6012905090565b61019860039054906101000a900462ffffff1681565b5f6111036133fe565b905090565b6040517ff50a3b5200000000000000000000000000000000000000000000000000000000815260040160405180910390fd5b5f6101645f9054906101000a900473ffffffffffffffffffffffffffffffffffffffff16905090565b5f8061116d612daa565b905061118e81858561117f858961291b565b6111899190615d78565b612db1565b600191505092915050565b5f7fffffffffffffffffffffffffffffffffffffffffffffffffffffffffffffffff9050919050565b7ff988e4fb62b8e14f4820fed03192306ddf4d7dbfa215595ba1c6ba4b76b369ee81565b6111ee61340c565b7ff988e4fb62b8e14f4820fed03192306ddf4d7dbfa215595ba1c6ba4b76b369ee611218816133ea565b816112216116fe565b73ffffffffffffffffffffffffffffffffffffffff168173ffffffffffffffffffffffffffffffffffffffff1603611285576040517ffe7c574000000000000000000000000000000000000000000000000000000000815260040160405180910390fd5b6112af7f548c7f0307ab2a7ea894e5c7e8c5353cc750bb9385ee2e945f189a9a83daa8ed84612fcc565b50506112b961345b565b50565b5f6112c7825f612d52565b9050919050565b6112d661340c565b7ff988e4fb62b8e14f4820fed03192306ddf4d7dbfa215595ba1c6ba4b76b369ee611300816133ea565b61132a7f548c7f0307ab2a7ea894e5c7e8c5353cc750bb9385ee2e945f189a9a83daa8ed83613465565b5061133361345b565b50565b7f548c7f0307ab2a7ea894e5c7e8c5353cc750bb9385ee2e945f189a9a83daa8ed81565b5f61136433613540565b905090565b5f61137382611199565b8311156113b5576040517f08c379a00000000000000000000000000000000000000000000000000000000081526004016113ac90615df5565b60405180910390fd5b5f6113bf84612a58565b90506113d46113cc612daa565b84868461359c565b8091505092915050565b5f60cb5f8373ffffffffffffffffffffffffffffffffffffffff1673ffffffffffffffffffffffffffffffffffffffff1681526020019081526020015f20549050919050565b6101985f9054906101000a900462ffffff1681565b5f801b611445816133ea565b3373ffffffffffffffffffffffffffffffffffffffff168273ffffffffffffffffffffffffffffffffffffffff16036114aa576040517f6317a0fa00000000000000000000000000000000000000000000000000000000815260040160405180910390fd5b8160985f6101000a81548173ffffffffffffffffffffffffffffffffffffffff021916908373ffffffffffffffffffffffffffffffffffffffff1602179055508173ffffffffffffffffffffffffffffffffffffffff1660975f9054906101000a900473ffffffffffffffffffffffffffffffffffffffff1673ffffffffffffffffffffffffffffffffffffffff167fefdcbba819467e00b0262c12892dda980bac68580b72178e57a162368b80876660405160405180910390a35050565b5f6115b06101315f8473ffffffffffffffffffffffffffffffffffffffff1673ffffffffffffffffffffffffffffffffffffffff1681526020019081526020015f2061363c565b9050919050565b5f6060805f805f60605f801b60fd541480156115d657505f801b60fe54145b611615576040517f08c379a000000000000000000000000000000000000000000000000000000000815260040161160c90615e5d565b60405180910390fd5b61161d613648565b6116256136d8565b46305f801b5f67ffffffffffffffff81111561164457611643615e7b565b5b6040519080825280602002602001820160405280156116725781602001602082028036833780820191505090505b507f0f00000000000000000000000000000000000000000000000000000000000000959493929190965096509650965096509650965090919293949596565b7fbeec13769b5f410b0584f69811bfd923818456d5edcf426b0e31cf90eed7a3f681565b6116dd61340c565b5f801b6116e9816133ea565b6116f282613769565b506116fb61345b565b50565b5f60975f9054906101000a900473ffffffffffffffffffffffffffffffffffffffff16905090565b5f60655f8481526020019081526020015f205f015f8373ffffffffffffffffffffffffffffffffffffffff1673ffffffffffffffffffffffffffffffffffffffff1681526020019081526020015f205f9054906101000a900460ff16905092915050565b5f8061019860039054906101000a900462ffffff1662ffffff16036117db576040517ff50a3b5200000000000000000000000000000000000000000000000000000000815260040160405180910390fd5b6117e43361290a565b82111561181d576040517f6334538800000000000000000000000000000000000000000000000000000000815260040160405180910390fd5b611826826112bc565b905061019860039054906101000a900462ffffff1662ffffff164261184b9190615ea8565b6101995f3373ffffffffffffffffffffffffffffffffffffffff1673ffffffffffffffffffffffffffffffffffffffff1681526020019081526020015f205f015f6101000a8154816cffffffffffffffffffffffffff02191690836cffffffffffffffffffffffffff160217905550806101995f3373ffffffffffffffffffffffffffffffffffffffff1673ffffffffffffffffffffffffffffffffffffffff1681526020019081526020015f205f01600d8282829054906101000a900472ffffffffffffffffffffffffffffffffffffff166119289190615ee8565b92506101000a81548172ffffffffffffffffffffffffffffffffffffff021916908372ffffffffffffffffffffffffffffffffffffff1602179055506119943361019860069054906101000a900473ffffffffffffffffffffffffffffffffffffffff1633848661385d565b3373ffffffffffffffffffffffffffffffffffffffff167fa4b3d92c67ba96e840c4888c41c81bb378420dfa35fbdcec3c0581372fb0606882846040516119dc929190615f2e565b60405180910390a2919050565b5f6119f3826122e9565b831115611a35576040517f08c379a0000000000000000000000000000000000000000000000000000000008152600401611a2c90615f9f565b60405180910390fd5b5f611a3f84611e6b565b9050611a54611a4c612daa565b84838761359c565b8091505092915050565b606060cf8054611a6d90615d48565b80601f0160208091040260200160405190810160405280929190818152602001828054611a9990615d48565b8015611ae45780601f10611abb57610100808354040283529160200191611ae4565b820191905f5260205f20905b815481529060010190602001808311611ac757829003601f168201915b5050505050905090565b611af661340c565b5f801b611b02816133ea565b611b2c7f548c7f0307ab2a7ea894e5c7e8c5353cc750bb9385ee2e945f189a9a83daa8ed84611726565b1580611b5e5750611b5d7f548c7f0307ab2a7ea894e5c7e8c5353cc750bb9385ee2e945f189a9a83daa8ed83611726565b5b15611b95576040517ff50a3b5200000000000000000000000000000000000000000000000000000000815260040160405180910390fd5b5f611b9f846113de565b90505f8103611bda576040517f2c5211c600000000000000000000000000000000000000000000000000000000815260040160405180910390fd5b5f611be4826112bc565b9050611bf08583613991565b5f73ffffffffffffffffffffffffffffffffffffffff168473ffffffffffffffffffffffffffffffffffffffff1603611c3157611c2c81613b56565b611c3c565b611c3b8483613baa565b5b8373ffffffffffffffffffffffffffffffffffffffff168573ffffffffffffffffffffffffffffffffffffffff167f876c16d00405860345e61598200d0bca4ba4a4aadc6de7a752860eed93f6d8c484604051611c999190615339565b60405180910390a3505050611cac61345b565b5050565b5f801b81565b5f80611cc0612daa565b90505f611ccd828661291b565b905083811015611d12576040517f08c379a0000000000000000000000000000000000000000000000000000000008152600401611d099061602d565b60405180910390fd5b611d1f8286868403612db1565b60019250505092915050565b5f80611d35612daa565b9050611d4281858561317b565b600191505092915050565b611d5561340c565b5f801b611d61816133ea565b611d6961113a565b73ffffffffffffffffffffffffffffffffffffffff168473ffffffffffffffffffffffffffffffffffffffff1603611dcd576040517fc1ab6dc100000000000000000000000000000000000000000000000000000000815260040160405180910390fd5b611df882848673ffffffffffffffffffffffffffffffffffffffff16613cf99092919063ffffffff16565b8173ffffffffffffffffffffffffffffffffffffffff168473ffffffffffffffffffffffffffffffffffffffff167f77023e19c7343ad491fd706c36335ca0e738340a91f29b1fd81e2673d44896c485604051611e559190615339565b60405180910390a350611e6661345b565b505050565b5f611e77826001612d52565b9050919050565b5f8061019860039054906101000a900462ffffff1662ffffff1614611ecf576040517ff50a3b5200000000000000000000000000000000000000000000000000000000815260040160405180910390fd5b611eda848484613d7f565b90509392505050565b5f8061019860039054906101000a900462ffffff1662ffffff1614611f34576040517ff50a3b5200000000000000000000000000000000000000000000000000000000815260040160405180910390fd5b611f3f848484613df6565b90509392505050565b5f8060019054906101000a900460ff16159050808015611f77575060015f8054906101000a900460ff1660ff16105b80611fa35750611f8630613e6d565b158015611fa2575060015f8054906101000a900460ff1660ff16145b5b611fe2576040517f08c379a0000000000000000000000000000000000000000000000000000000008152600401611fd9906160bb565b60405180910390fd5b60015f806101000a81548160ff021916908360ff160217905550801561201d5760015f60016101000a81548160ff0219169083151502179055505b6120916040518060400160405280600a81526020017f5374616b656420454e41000000000000000000000000000000000000000000008152506040518060400160405280600481526020017f73454e4100000000000000000000000000000000000000000000000000000000815250613e8f565b61209a84613eeb565b6120d86040518060400160405280600481526020017f73454e4100000000000000000000000000000000000000000000000000000000815250613f45565b6120e0613fd5565b5f73ffffffffffffffffffffffffffffffffffffffff168273ffffffffffffffffffffffffffffffffffffffff16148061214557505f73ffffffffffffffffffffffffffffffffffffffff168373ffffffffffffffffffffffffffffffffffffffff16145b8061217b57505f73ffffffffffffffffffffffffffffffffffffffff168473ffffffffffffffffffffffffffffffffffffffff16145b156121b2576040517ff6b2911f00000000000000000000000000000000000000000000000000000000815260040160405180910390fd5b30846040516121c090615314565b6121cb9291906160d9565b604051809103905ff0801580156121e4573d5f803e3d5ffd5b5061019860066101000a81548173ffffffffffffffffffffffffffffffffffffffff021916908373ffffffffffffffffffffffffffffffffffffffff16021790555061223262093a80613769565b61225c7fbeec13769b5f410b0584f69811bfd923818456d5edcf426b0e31cf90eed7a3f684612fcc565b6122685f801b83612fcc565b62093a8061019860036101000a81548162ffffff021916908362ffffff16021790555080156122e3575f8060016101000a81548160ff0219169083151502179055507f7f26b83ff96e1f2b6a682f133852f6798a09c465da95921460cefb384740249860016040516122da9190616139565b60405180910390a15b50505050565b5f7fffffffffffffffffffffffffffffffffffffffffffffffffffffffffffffffff9050919050565b5f61231d825f612f74565b9050919050565b61232c61340c565b7fbeec13769b5f410b0584f69811bfd923818456d5edcf426b0e31cf90eed7a3f6612356816133ea565b815f8103612390576040517f2c5211c600000000000000000000000000000000000000000000000000000000815260040160405180910390fd5b61239983613b56565b6123cd3330856123a761113a565b73ffffffffffffffffffffffffffffffffffffffff1661402d909392919063ffffffff16565b7fbb28dd7cd6be6f61828ea9158a04c5182c716a946a6d2f31f4864edb87471aa6836040516123fc9190615339565b60405180910390a1505061240e61345b565b50565b5f8061019860039054906101000a900462ffffff1662ffffff1603612462576040517ff50a3b5200000000000000000000000000000000000000000000000000000000815260040160405180910390fd5b61246b33612759565b8211156124a4576040517fdf53dde200000000000000000000000000000000000000000000000000000000815260040160405180910390fd5b6124ad82610f7b565b905061019860039054906101000a900462ffffff1662ffffff16426124d29190615ea8565b6101995f3373ffffffffffffffffffffffffffffffffffffffff1673ffffffffffffffffffffffffffffffffffffffff1681526020019081526020015f205f015f6101000a8154816cffffffffffffffffffffffffff02191690836cffffffffffffffffffffffffff160217905550816101995f3373ffffffffffffffffffffffffffffffffffffffff1673ffffffffffffffffffffffffffffffffffffffff1681526020019081526020015f205f01600d8282829054906101000a900472ffffffffffffffffffffffffffffffffffffff166125af9190615ee8565b92506101000a81548172ffffffffffffffffffffffffffffffffffffff021916908372ffffffffffffffffffffffffffffffffffffff16021790555061261b3361019860069054906101000a900473ffffffffffffffffffffffffffffffffffffffff1633858561385d565b3373ffffffffffffffffffffffffffffffffffffffff167fa4b3d92c67ba96e840c4888c41c81bb378420dfa35fbdcec3c0581372fb060688383604051612663929190615f2e565b60405180910390a2919050565b61267861340c565b5f801b612684816133ea565b6276a70062ffffff168262ffffff1611156126cb576040517fe8ebb09a00000000000000000000000000000000000000000000000000000000815260040160405180910390fd5b5f61019860039054906101000a900462ffffff1690508261019860036101000a81548162ffffff021916908362ffffff1602179055507f180eacdf7dbaeecaa983d93173b4285db2f2c0de0044697e1f932bbbb73dcaa68161019860039054906101000a900462ffffff16604051612744929190616152565b60405180910390a1505061275661345b565b50565b5f61276c612766836113de565b5f612d52565b9050919050565b834211156127b6576040517f08c379a00000000000000000000000000000000000000000000000000000000081526004016127ad906161c3565b60405180910390fd5b5f7f6e71edae12b1b97f4d1f60370fef10105fa2faae0126114a169c64845d6126c98888886127e48c613540565b896040516020016127fa969594939291906161e1565b6040516020818303038152906040528051906020012090505f61281c826140b6565b90505f61282b828787876140cf565b90508973ffffffffffffffffffffffffffffffffffffffff168173ffffffffffffffffffffffffffffffffffffffff161461289b576040517f08c379a00000000000000000000000000000000000000000000000000000000081526004016128929061628a565b60405180910390fd5b6128a68a8a8a612db1565b50505050505050505050565b5f801b6128be816133ea565b825f801b81036128fa576040517f6317a0fa00000000000000000000000000000000000000000000000000000000815260040160405180910390fd5b6129048484613465565b50505050565b5f612914826113de565b9050919050565b5f60cc5f8473ffffffffffffffffffffffffffffffffffffffff1673ffffffffffffffffffffffffffffffffffffffff1681526020019081526020015f205f8373ffffffffffffffffffffffffffffffffffffffff1673ffffffffffffffffffffffffffffffffffffffff1681526020019081526020015f2054905092915050565b6276a70081565b5f8061019754426129b59190615ce8565b90506101985f9054906101000a900462ffffff1662ffffff1681106129dd575f915050612a2e565b5f816101985f9054906101000a900462ffffff1662ffffff160390506101985f9054906101000a900462ffffff1662ffffff166101965482612a1f91906162a8565b612a299190616316565b925050505b90565b61019860069054906101000a900473ffffffffffffffffffffffffffffffffffffffff1681565b5f612a63825f612f74565b9050919050565b612a7261340c565b5f6101995f3373ffffffffffffffffffffffffffffffffffffffff1673ffffffffffffffffffffffffffffffffffffffff1681526020019081526020015f2090505f815f01600d9054906101000a900472ffffffffffffffffffffffffffffffffffffff1672ffffffffffffffffffffffffffffffffffffff169050815f015f9054906101000a90046cffffffffffffffffffffffffff166cffffffffffffffffffffffffff1642101580612b3d57505f61019860039054906101000a900462ffffff1662ffffff16145b15612caa575f825f015f6101000a8154816cffffffffffffffffffffffffff02191690836cffffffffffffffffffffffffff1602179055505f825f01600d6101000a81548172ffffffffffffffffffffffffffffffffffffff021916908372ffffffffffffffffffffffffffffffffffffff16021790555061019860069054906101000a900473ffffffffffffffffffffffffffffffffffffffff1673ffffffffffffffffffffffffffffffffffffffff1663f3fef3a384836040518363ffffffff1660e01b8152600401612c13929190616346565b5f604051808303815f87803b158015612c2a575f80fd5b505af1158015612c3c573d5f803e3d5ffd5b505050508273ffffffffffffffffffffffffffffffffffffffff163373ffffffffffffffffffffffffffffffffffffffff167f390b1276974b9463e5d66ab10df69b6f3d7b930eb066a0e66df327edd2cc811c83604051612c9d9190615339565b60405180910390a3612cdc565b6040517fe8ebb09a00000000000000000000000000000000000000000000000000000000815260040160405180910390fd5b5050612ce661345b565b50565b5f7f01ffc9a7000000000000000000000000000000000000000000000000000000007bffffffffffffffffffffffffffffffffffffffffffffffffffffffff1916827bffffffffffffffffffffffffffffffffffffffffffffffffffffffff1916149050919050565b5f612da26001612d60610da7565b612d6a9190615d78565b612d726140f8565b600a612d7e919061649c565b612d86611022565b612d909190615d78565b84866140fc909392919063ffffffff16565b905092915050565b5f33905090565b5f73ffffffffffffffffffffffffffffffffffffffff168373ffffffffffffffffffffffffffffffffffffffff1603612e1f576040517f08c379a0000000000000000000000000000000000000000000000000000000008152600401612e1690616556565b60405180910390fd5b5f73ffffffffffffffffffffffffffffffffffffffff168273ffffffffffffffffffffffffffffffffffffffff1603612e8d576040517f08c379a0000000000000000000000000000000000000000000000000000000008152600401612e84906165e4565b60405180910390fd5b8060cc5f8573ffffffffffffffffffffffffffffffffffffffff1673ffffffffffffffffffffffffffffffffffffffff1681526020019081526020015f205f8473ffffffffffffffffffffffffffffffffffffffff1673ffffffffffffffffffffffffffffffffffffffff1681526020019081526020015f20819055508173ffffffffffffffffffffffffffffffffffffffff168373ffffffffffffffffffffffffffffffffffffffff167f8c5be1e5ebec7d5bd14f71427d1e84f3dd0314c0f7b2291e5b200ac8c7c3b92583604051612f679190615339565b60405180910390a3505050565b5f612fc4612f806140f8565b600a612f8c919061649c565b612f94611022565b612f9e9190615d78565b6001612fa8610da7565b612fb29190615d78565b84866140fc909392919063ffffffff16565b905092915050565b5f801b82036130e2578073ffffffffffffffffffffffffffffffffffffffff1660975f9054906101000a900473ffffffffffffffffffffffffffffffffffffffff1673ffffffffffffffffffffffffffffffffffffffff167ff8ccb027dfcd135e000e9d45e6cc2d662578a8825d4c45b5e32e0adf67e79ec660405160405180910390a361307d5f801b60975f9054906101000a900473ffffffffffffffffffffffffffffffffffffffff16613465565b8060975f6101000a81548173ffffffffffffffffffffffffffffffffffffffff021916908373ffffffffffffffffffffffffffffffffffffffff16021790555060985f6101000a81549073ffffffffffffffffffffffffffffffffffffffff02191690555b6130ec8282614170565b5050565b5f6130fb848461291b565b90507fffffffffffffffffffffffffffffffffffffffffffffffffffffffffffffffff81146131755781811015613167576040517f08c379a000000000000000000000000000000000000000000000000000000000815260040161315e9061664c565b60405180910390fd5b6131748484848403612db1565b5b50505050565b5f73ffffffffffffffffffffffffffffffffffffffff168373ffffffffffffffffffffffffffffffffffffffff16036131e9576040517f08c379a00000000000000000000000000000000000000000000000000000000081526004016131e0906166da565b60405180910390fd5b5f73ffffffffffffffffffffffffffffffffffffffff168273ffffffffffffffffffffffffffffffffffffffff1603613257576040517f08c379a000000000000000000000000000000000000000000000000000000000815260040161324e90616768565b60405180910390fd5b61326283838361424b565b5f60cb5f8573ffffffffffffffffffffffffffffffffffffffff1673ffffffffffffffffffffffffffffffffffffffff1681526020019081526020015f20549050818110156132e6576040517f08c379a00000000000000000000000000000000000000000000000000000000081526004016132dd906167f6565b60405180910390fd5b81810360cb5f8673ffffffffffffffffffffffffffffffffffffffff1673ffffffffffffffffffffffffffffffffffffffff1681526020019081526020015f20819055508160cb5f8573ffffffffffffffffffffffffffffffffffffffff1673ffffffffffffffffffffffffffffffffffffffff1681526020019081526020015f205f82825401925050819055508273ffffffffffffffffffffffffffffffffffffffff168473ffffffffffffffffffffffffffffffffffffffff167fddf252ad1be2c89b69c2b068fc378daa952ba7f163c4a11628f55a4df523b3ef846040516133d19190615339565b60405180910390a36133e48484846143ab565b50505050565b6133fb816133f6612daa565b6143b0565b50565b5f613407614434565b905090565b600260995403613451576040517f08c379a00000000000000000000000000000000000000000000000000000000081526004016134489061685e565b60405180910390fd5b6002609981905550565b6001609981905550565b61346f8282611726565b1561353c575f60655f8481526020019081526020015f205f015f8373ffffffffffffffffffffffffffffffffffffffff1673ffffffffffffffffffffffffffffffffffffffff1681526020019081526020015f205f6101000a81548160ff0219169083151502179055506134e1612daa565b73ffffffffffffffffffffffffffffffffffffffff168173ffffffffffffffffffffffffffffffffffffffff16837ff6391f5c32d9c69d2a47ea670b442974b53935d1edc7fd64eb21e047a839171b60405160405180910390a45b5050565b5f806101315f8473ffffffffffffffffffffffffffffffffffffffff1673ffffffffffffffffffffffffffffffffffffffff1681526020019081526020015f20905061358b8161363c565b915061359681614497565b50919050565b6135a461340c565b815f81036135de576040517f2c5211c600000000000000000000000000000000000000000000000000000000815260040160405180910390fd5b815f8103613618576040517f2c5211c600000000000000000000000000000000000000000000000000000000815260040160405180910390fd5b613624868686866144ab565b61362c614550565b505061363661345b565b50505050565b5f815f01549050919050565b606060ff805461365790615d48565b80601f016020809104026020016040519081016040528092919081815260200182805461368390615d48565b80156136ce5780601f106136a5576101008083540402835291602001916136ce565b820191905f5260205f20905b8154815290600101906020018083116136b157829003601f168201915b5050505050905090565b606061010080546136e890615d48565b80601f016020809104026020016040519081016040528092919081815260200182805461371490615d48565b801561375f5780601f106137365761010080835404028352916020019161375f565b820191905f5260205f20905b81548152906001019060200180831161374257829003601f168201915b5050505050905090565b5f6137726129a4565b11156137aa576040517f010133de00000000000000000000000000000000000000000000000000000000815260040160405180910390fd5b6276a70062ffffff168162ffffff1611156137f1576040517fca6075df00000000000000000000000000000000000000000000000000000000815260040160405180910390fd5b7f1d5e587d799342f659bb468470d4b37b49fc0509536bf48b24518a193af538726101985f9054906101000a900462ffffff1682604051613833929190616152565b60405180910390a1806101985f6101000a81548162ffffff021916908362ffffff16021790555050565b61386561340c565b815f810361389f576040517f2c5211c600000000000000000000000000000000000000000000000000000000815260040160405180910390fd5b815f81036138d9576040517f2c5211c600000000000000000000000000000000000000000000000000000000815260040160405180910390fd5b6139037f548c7f0307ab2a7ea894e5c7e8c5353cc750bb9385ee2e945f189a9a83daa8ed86611726565b8061393457506139337f548c7f0307ab2a7ea894e5c7e8c5353cc750bb9385ee2e945f189a9a83daa8ed87611726565b5b1561396b576040517ff50a3b5200000000000000000000000000000000000000000000000000000000815260040160405180910390fd5b61397887878787876145b5565b613980614550565b505061398a61345b565b5050505050565b5f73ffffffffffffffffffffffffffffffffffffffff168273ffffffffffffffffffffffffffffffffffffffff16036139ff576040517f08c379a00000000000000000000000000000000000000000000000000000000081526004016139f6906168ec565b60405180910390fd5b613a0a825f8361424b565b5f60cb5f8473ffffffffffffffffffffffffffffffffffffffff1673ffffffffffffffffffffffffffffffffffffffff1681526020019081526020015f2054905081811015613a8e576040517f08c379a0000000000000000000000000000000000000000000000000000000008152600401613a859061697a565b60405180910390fd5b81810360cb5f8573ffffffffffffffffffffffffffffffffffffffff1673ffffffffffffffffffffffffffffffffffffffff1681526020019081526020015f20819055508160cd5f82825403925050819055505f73ffffffffffffffffffffffffffffffffffffffff168373ffffffffffffffffffffffffffffffffffffffff167fddf252ad1be2c89b69c2b068fc378daa952ba7f163c4a11628f55a4df523b3ef84604051613b3e9190615339565b60405180910390a3613b51835f846143ab565b505050565b5f613b5f6129a4565b1115613b97576040517f010133de00000000000000000000000000000000000000000000000000000000815260040160405180910390fd5b8061019681905550426101978190555050565b5f73ffffffffffffffffffffffffffffffffffffffff168273ffffffffffffffffffffffffffffffffffffffff1603613c18576040517f08c379a0000000000000000000000000000000000000000000000000000000008152600401613c0f906169e2565b60405180910390fd5b613c235f838361424b565b8060cd5f828254613c349190615d78565b925050819055508060cb5f8473ffffffffffffffffffffffffffffffffffffffff1673ffffffffffffffffffffffffffffffffffffffff1681526020019081526020015f205f82825401925050819055508173ffffffffffffffffffffffffffffffffffffffff165f73ffffffffffffffffffffffffffffffffffffffff167fddf252ad1be2c89b69c2b068fc378daa952ba7f163c4a11628f55a4df523b3ef83604051613ce29190615339565b60405180910390a3613cf55f83836143ab565b5050565b613d7a8363a9059cbb60e01b8484604051602401613d18929190616346565b604051602081830303815290604052907bffffffffffffffffffffffffffffffffffffffffffffffffffffffff19166020820180517bffffffffffffffffffffffffffffffffffffffffffffffffffffffff83818316178352505050506146b0565b505050565b5f613d8982612759565b841115613dcb576040517f08c379a0000000000000000000000000000000000000000000000000000000008152600401613dc290616a4a565b60405180910390fd5b5f613dd585610f7b565b9050613deb613de2612daa565b8585888561385d565b809150509392505050565b5f613e008261290a565b841115613e42576040517f08c379a0000000000000000000000000000000000000000000000000000000008152600401613e3990616ab2565b60405180910390fd5b5f613e4c856112bc565b9050613e62613e59612daa565b8585848961385d565b809150509392505050565b5f808273ffffffffffffffffffffffffffffffffffffffff163b119050919050565b5f60019054906101000a900460ff16613edd576040517f08c379a0000000000000000000000000000000000000000000000000000000008152600401613ed490616b40565b60405180910390fd5b613ee78282614776565b5050565b5f60019054906101000a900460ff16613f39576040517f08c379a0000000000000000000000000000000000000000000000000000000008152600401613f3090616b40565b60405180910390fd5b613f42816147e8565b50565b5f60019054906101000a900460ff16613f93576040517f08c379a0000000000000000000000000000000000000000000000000000000008152600401613f8a90616b40565b60405180910390fd5b613fd2816040518060400160405280600181526020017f31000000000000000000000000000000000000000000000000000000000000008152506148b4565b50565b5f60019054906101000a900460ff16614023576040517f08c379a000000000000000000000000000000000000000000000000000000000815260040161401a90616b40565b60405180910390fd5b61402b614939565b565b6140b0846323b872dd60e01b85858560405160240161404e93929190616b5e565b604051602081830303815290604052907bffffffffffffffffffffffffffffffffffffffffffffffffffffffff19166020820180517bffffffffffffffffffffffffffffffffffffffffffffffffffffffff83818316178352505050506146b0565b50505050565b5f6140c86140c26133fe565b83614991565b9050919050565b5f805f6140de878787876149d1565b915091506140eb81614aa9565b8192505050949350505050565b5f90565b5f80614109868686614c0e565b90506001600281111561411f5761411e616b93565b5b83600281111561413257614131616b93565b5b14801561414f57505f848061414a576141496162e9565b5b868809115b15614164576001816141619190615d78565b90505b80915050949350505050565b61417a8282611726565b61424757600160655f8481526020019081526020015f205f015f8373ffffffffffffffffffffffffffffffffffffffff1673ffffffffffffffffffffffffffffffffffffffff1681526020019081526020015f205f6101000a81548160ff0219169083151502179055506141ec612daa565b73ffffffffffffffffffffffffffffffffffffffff168173ffffffffffffffffffffffffffffffffffffffff16837f2f8788117e7eff1d82e926ec794901d17c78024a50270940304540a733656f0d60405160405180910390a45b5050565b6142757f548c7f0307ab2a7ea894e5c7e8c5353cc750bb9385ee2e945f189a9a83daa8ed33611726565b156142ac576040517ff50a3b5200000000000000000000000000000000000000000000000000000000815260040160405180910390fd5b6142d67f548c7f0307ab2a7ea894e5c7e8c5353cc750bb9385ee2e945f189a9a83daa8ed84611726565b801561430e57505f73ffffffffffffffffffffffffffffffffffffffff168273ffffffffffffffffffffffffffffffffffffffff1614155b15614345576040517ff50a3b5200000000000000000000000000000000000000000000000000000000815260040160405180910390fd5b61436f7f548c7f0307ab2a7ea894e5c7e8c5353cc750bb9385ee2e945f189a9a83daa8ed83611726565b156143a6576040517ff50a3b5200000000000000000000000000000000000000000000000000000000815260040160405180910390fd5b505050565b505050565b6143ba8282611726565b614430576143c781614d18565b6143d4835f1c6020614d45565b6040516020016143e5929190616c8e565b6040516020818303038152906040526040517f08c379a00000000000000000000000000000000000000000000000000000000081526004016144279190615579565b60405180910390fd5b5050565b5f7f8b73c3c69bb8fe3d512ecc4cf759cc79239f7b179b0ffacaa9a75d522b39400f61445e614f7a565b614466614fe1565b463060405160200161447c959493929190616cc7565b60405160208183030381529060405280519060200120905090565b6001815f015f828254019250508190555050565b6144d96101645f9054906101000a900473ffffffffffffffffffffffffffffffffffffffff1685308561402d565b6144e38382613baa565b8273ffffffffffffffffffffffffffffffffffffffff168473ffffffffffffffffffffffffffffffffffffffff167fdcbc1c05240f31ff3ad067ef1ee35ce4997762752e3a095284754544f4c709d78484604051614542929190615f2e565b60405180910390a350505050565b5f614559611022565b90505f8111801561457b5750670de0b6b3a764000067ffffffffffffffff1681105b156145b2576040517fb4b836aa00000000000000000000000000000000000000000000000000000000815260040160405180910390fd5b50565b8273ffffffffffffffffffffffffffffffffffffffff168573ffffffffffffffffffffffffffffffffffffffff16146145f4576145f38386836130f0565b5b6145fe8382613991565b61462b6101645f9054906101000a900473ffffffffffffffffffffffffffffffffffffffff168584613cf9565b8273ffffffffffffffffffffffffffffffffffffffff168473ffffffffffffffffffffffffffffffffffffffff168673ffffffffffffffffffffffffffffffffffffffff167ffbde797d201c681b91056529119e0b02407c7bb96a4a2c75c01fc9667232c8db85856040516146a1929190615f2e565b60405180910390a45050505050565b5f614711826040518060400160405280602081526020017f5361666545524332303a206c6f772d6c6576656c2063616c6c206661696c65648152508573ffffffffffffffffffffffffffffffffffffffff166150489092919063ffffffff16565b90505f815114806147325750808060200190518101906147319190616d42565b5b614771576040517f08c379a000000000000000000000000000000000000000000000000000000000815260040161476890616ddd565b60405180910390fd5b505050565b5f60019054906101000a900460ff166147c4576040517f08c379a00000000000000000000000000000000000000000000000000000000081526004016147bb90616b40565b60405180910390fd5b8160ce90816147d39190616f8f565b508060cf90816147e39190616f8f565b505050565b5f60019054906101000a900460ff16614836576040517f08c379a000000000000000000000000000000000000000000000000000000000815260040161482d90616b40565b60405180910390fd5b5f806148418361505f565b9150915081614851576012614853565b805b61016460146101000a81548160ff021916908360ff160217905550826101645f6101000a81548173ffffffffffffffffffffffffffffffffffffffff021916908373ffffffffffffffffffffffffffffffffffffffff160217905550505050565b5f60019054906101000a900460ff16614902576040517f08c379a00000000000000000000000000000000000000000000000000000000081526004016148f990616b40565b60405180910390fd5b8160ff90816149119190616f8f565b508061010090816149229190616f8f565b505f801b60fd819055505f801b60fe819055505050565b5f60019054906101000a900460ff16614987576040517f08c379a000000000000000000000000000000000000000000000000000000000815260040161497e90616b40565b60405180910390fd5b6001609981905550565b5f6040517f190100000000000000000000000000000000000000000000000000000000000081528360028201528260228201526042812091505092915050565b5f807f7fffffffffffffffffffffffffffffff5d576e7357a4501ddfe92f46681b20a0835f1c1115614a09575f600391509150614aa0565b5f6001878787876040515f8152602001604052604051614a2c949392919061705e565b6020604051602081039080840390855afa158015614a4c573d5f803e3d5ffd5b5050506020604051035190505f73ffffffffffffffffffffffffffffffffffffffff168173ffffffffffffffffffffffffffffffffffffffff1603614a98575f60019250925050614aa0565b805f92509250505b94509492505050565b5f6004811115614abc57614abb616b93565b5b816004811115614acf57614ace616b93565b5b0315614c0b5760016004811115614ae957614ae8616b93565b5b816004811115614afc57614afb616b93565b5b03614b3c576040517f08c379a0000000000000000000000000000000000000000000000000000000008152600401614b33906170eb565b60405180910390fd5b60026004811115614b5057614b4f616b93565b5b816004811115614b6357614b62616b93565b5b03614ba3576040517f08c379a0000000000000000000000000000000000000000000000000000000008152600401614b9a90617153565b60405180910390fd5b60036004811115614bb757614bb6616b93565b5b816004811115614bca57614bc9616b93565b5b03614c0a576040517f08c379a0000000000000000000000000000000000000000000000000000000008152600401614c01906171e1565b60405180910390fd5b5b50565b5f805f80198587098587029250828110838203039150505f8103614c4657838281614c3c57614c3b6162e9565b5b0492505050614d11565b808411614c88576040517f08c379a0000000000000000000000000000000000000000000000000000000008152600401614c7f90617249565b60405180910390fd5b5f8486880990508281118203915080830392505f60018619018616905080860495508084049350600181825f0304019050808302841793505f600287600302189050808702600203810290508087026002038102905080870260020381029050808702600203810290508087026002038102905080870260020381029050808502955050505050505b9392505050565b6060614d3e8273ffffffffffffffffffffffffffffffffffffffff16601460ff16614d45565b9050919050565b60605f6002836002614d5791906162a8565b614d619190615d78565b67ffffffffffffffff811115614d7a57614d79615e7b565b5b6040519080825280601f01601f191660200182016040528015614dac5781602001600182028036833780820191505090505b5090507f3000000000000000000000000000000000000000000000000000000000000000815f81518110614de357614de2617267565b5b60200101907effffffffffffffffffffffffffffffffffffffffffffffffffffffffffffff191690815f1a9053507f780000000000000000000000000000000000000000000000000000000000000081600181518110614e4657614e45617267565b5b60200101907effffffffffffffffffffffffffffffffffffffffffffffffffffffffffffff191690815f1a9053505f6001846002614e8491906162a8565b614e8e9190615d78565b90505b6001811115614f2d577f3031323334353637383961626364656600000000000000000000000000000000600f861660108110614ed057614ecf617267565b5b1a60f81b828281518110614ee757614ee6617267565b5b60200101907effffffffffffffffffffffffffffffffffffffffffffffffffffffffffffff191690815f1a905350600485901c945080614f2690617294565b9050614e91565b505f8414614f70576040517f08c379a0000000000000000000000000000000000000000000000000000000008152600401614f6790617305565b60405180910390fd5b8091505092915050565b5f80614f84613648565b90505f81511115614f9f578080519060200120915050614fde565b5f60fd5490505f801b8114614fb8578092505050614fde565b7fc5d2460186f7233c927e7db2dcc703c0e500b653ca82273b7bfad8045d85a470925050505b90565b5f80614feb6136d8565b90505f81511115615006578080519060200120915050615045565b5f60fe5490505f801b811461501f578092505050615045565b7fc5d2460186f7233c927e7db2dcc703c0e500b653ca82273b7bfad8045d85a470925050505b90565b606061505684845f85615188565b90509392505050565b5f805f808473ffffffffffffffffffffffffffffffffffffffff1663313ce56760e01b604051602401604051602081830303815290604052907bffffffffffffffffffffffffffffffffffffffffffffffffffffffff19166020820180517bffffffffffffffffffffffffffffffffffffffffffffffffffffffff83818316178352505050506040516150f29190617367565b5f60405180830381855afa9150503d805f811461512a576040519150601f19603f3d011682016040523d82523d5f602084013e61512f565b606091505b509150915081801561514357506020815110155b1561517a575f8180602001905181019061515d9190615c90565b905060ff801681116151785760018194509450505050615183565b505b5f809350935050505b915091565b6060824710156151cd576040517f08c379a00000000000000000000000000000000000000000000000000000000081526004016151c4906173ed565b60405180910390fd5b5f808673ffffffffffffffffffffffffffffffffffffffff1685876040516151f59190617367565b5f6040518083038185875af1925050503d805f811461522f576040519150601f19603f3d011682016040523d82523d5f602084013e615234565b606091505b509150915061524587838387615251565b92505050949350505050565b606083156152b2575f8351036152aa5761526a85613e6d565b6152a9576040517f08c379a00000000000000000000000000000000000000000000000000000000081526004016152a090617455565b60405180910390fd5b5b8290506152bd565b6152bc83836152c5565b5b949350505050565b5f825111156152d75781518083602001fd5b806040517f08c379a000000000000000000000000000000000000000000000000000000000815260040161530b9190615579565b60405180910390fd5b6104738061747483390190565b5f819050919050565b61533381615321565b82525050565b5f60208201905061534c5f83018461532a565b92915050565b5f80fd5b5f73ffffffffffffffffffffffffffffffffffffffff82169050919050565b5f61537f82615356565b9050919050565b61538f81615375565b8114615399575f80fd5b50565b5f813590506153aa81615386565b92915050565b5f602082840312156153c5576153c4615352565b5b5f6153d28482850161539c565b91505092915050565b5f6cffffffffffffffffffffffffff82169050919050565b6153fc816153db565b82525050565b5f72ffffffffffffffffffffffffffffffffffffff82169050919050565b61542981615402565b82525050565b5f6040820190506154425f8301856153f3565b61544f6020830184615420565b9392505050565b5f7fffffffff0000000000000000000000000000000000000000000000000000000082169050919050565b61548a81615456565b8114615494575f80fd5b50565b5f813590506154a581615481565b92915050565b5f602082840312156154c0576154bf615352565b5b5f6154cd84828501615497565b91505092915050565b5f8115159050919050565b6154ea816154d6565b82525050565b5f6020820190506155035f8301846154e1565b92915050565b5f81519050919050565b5f82825260208201905092915050565b8281835e5f83830152505050565b5f601f19601f8301169050919050565b5f61554b82615509565b6155558185615513565b9350615565818560208601615523565b61556e81615531565b840191505092915050565b5f6020820190508181035f8301526155918184615541565b905092915050565b6155a281615321565b81146155ac575f80fd5b50565b5f813590506155bd81615599565b92915050565b5f602082840312156155d8576155d7615352565b5b5f6155e5848285016155af565b91505092915050565b5f806040838503121561560457615603615352565b5b5f6156118582860161539c565b9250506020615622858286016155af565b9150509250929050565b5f62ffffff82169050919050565b6156438161562c565b82525050565b5f60208201905061565c5f83018461563a565b92915050565b5f805f6060848603121561567957615678615352565b5b5f6156868682870161539c565b93505060206156978682870161539c565b92505060406156a8868287016155af565b9150509250925092565b5f819050919050565b6156c4816156b2565b81146156ce575f80fd5b50565b5f813590506156df816156bb565b92915050565b5f602082840312156156fa576156f9615352565b5b5f615707848285016156d1565b91505092915050565b615719816156b2565b82525050565b5f6020820190506157325f830184615710565b92915050565b5f806040838503121561574e5761574d615352565b5b5f61575b858286016156d1565b925050602061576c8582860161539c565b9150509250929050565b5f60ff82169050919050565b61578b81615776565b82525050565b5f6020820190506157a45f830184615782565b92915050565b6157b381615375565b82525050565b5f6020820190506157cc5f8301846157aa565b92915050565b5f80604083850312156157e8576157e7615352565b5b5f6157f5858286016155af565b92505060206158068582860161539c565b9150509250929050565b5f7fff0000000000000000000000000000000000000000000000000000000000000082169050919050565b61584481615810565b82525050565b5f81519050919050565b5f82825260208201905092915050565b5f819050602082019050919050565b61587c81615321565b82525050565b5f61588d8383615873565b60208301905092915050565b5f602082019050919050565b5f6158af8261584a565b6158b98185615854565b93506158c483615864565b805f5b838110156158f45781516158db8882615882565b97506158e683615899565b9250506001810190506158c7565b5085935050505092915050565b5f60e0820190506159145f83018a61583b565b81810360208301526159268189615541565b9050818103604083015261593a8188615541565b9050615949606083018761532a565b61595660808301866157aa565b61596360a0830185615710565b81810360c083015261597581846158a5565b905098975050505050505050565b61598c8161562c565b8114615996575f80fd5b50565b5f813590506159a781615983565b92915050565b5f602082840312156159c2576159c1615352565b5b5f6159cf84828501615999565b91505092915050565b5f80604083850312156159ee576159ed615352565b5b5f6159fb8582860161539c565b9250506020615a0c8582860161539c565b9150509250929050565b5f805f60608486031215615a2d57615a2c615352565b5b5f615a3a8682870161539c565b9350506020615a4b868287016155af565b9250506040615a5c8682870161539c565b9150509250925092565b5f805f60608486031215615a7d57615a7c615352565b5b5f615a8a868287016155af565b9350506020615a9b8682870161539c565b9250506040615aac8682870161539c565b9150509250925092565b5f615ac082615375565b9050919050565b615ad081615ab6565b8114615ada575f80fd5b50565b5f81359050615aeb81615ac7565b92915050565b5f805f60608486031215615b0857615b07615352565b5b5f615b1586828701615add565b9350506020615b268682870161539c565b9250506040615b378682870161539c565b9150509250925092565b615b4a81615776565b8114615b54575f80fd5b50565b5f81359050615b6581615b41565b92915050565b5f805f805f805f60e0888a031215615b8657615b85615352565b5b5f615b938a828b0161539c565b9750506020615ba48a828b0161539c565b9650506040615bb58a828b016155af565b9550506060615bc68a828b016155af565b9450506080615bd78a828b01615b57565b93505060a0615be88a828b016156d1565b92505060c0615bf98a828b016156d1565b91505092959891949750929550565b5f819050919050565b5f615c2b615c26615c2184615356565b615c08565b615356565b9050919050565b5f615c3c82615c11565b9050919050565b5f615c4d82615c32565b9050919050565b615c5d81615c43565b82525050565b5f602082019050615c765f830184615c54565b92915050565b5f81519050615c8a81615599565b92915050565b5f60208284031215615ca557615ca4615352565b5b5f615cb284828501615c7c565b91505092915050565b7f4e487b71000000000000000000000000000000000000000000000000000000005f52601160045260245ffd5b5f615cf282615321565b9150615cfd83615321565b9250828203905081811115615d1557615d14615cbb565b5b92915050565b7f4e487b71000000000000000000000000000000000000000000000000000000005f52602260045260245ffd5b5f6002820490506001821680615d5f57607f821691505b602082108103615d7257615d71615d1b565b5b50919050565b5f615d8282615321565b9150615d8d83615321565b9250828201905080821115615da557615da4615cbb565b5b92915050565b7f455243343632363a206465706f736974206d6f7265207468616e206d617800005f82015250565b5f615ddf601e83615513565b9150615dea82615dab565b602082019050919050565b5f6020820190508181035f830152615e0c81615dd3565b9050919050565b7f4549503731323a20556e696e697469616c697a656400000000000000000000005f82015250565b5f615e47601583615513565b9150615e5282615e13565b602082019050919050565b5f6020820190508181035f830152615e7481615e3b565b9050919050565b7f4e487b71000000000000000000000000000000000000000000000000000000005f52604160045260245ffd5b5f615eb2826153db565b9150615ebd836153db565b925082820190506cffffffffffffffffffffffffff811115615ee257615ee1615cbb565b5b92915050565b5f615ef282615402565b9150615efd83615402565b9250828201905072ffffffffffffffffffffffffffffffffffffff811115615f2857615f27615cbb565b5b92915050565b5f604082019050615f415f83018561532a565b615f4e602083018461532a565b9392505050565b7f455243343632363a206d696e74206d6f7265207468616e206d617800000000005f82015250565b5f615f89601b83615513565b9150615f9482615f55565b602082019050919050565b5f6020820190508181035f830152615fb681615f7d565b9050919050565b7f45524332303a2064656372656173656420616c6c6f77616e63652062656c6f775f8201527f207a65726f000000000000000000000000000000000000000000000000000000602082015250565b5f616017602583615513565b915061602282615fbd565b604082019050919050565b5f6020820190508181035f8301526160448161600b565b9050919050565b7f496e697469616c697a61626c653a20636f6e747261637420697320616c7265615f8201527f647920696e697469616c697a6564000000000000000000000000000000000000602082015250565b5f6160a5602e83615513565b91506160b08261604b565b604082019050919050565b5f6020820190508181035f8301526160d281616099565b9050919050565b5f6040820190506160ec5f8301856157aa565b6160f960208301846157aa565b9392505050565b5f819050919050565b5f61612361611e61611984616100565b615c08565b615776565b9050919050565b61613381616109565b82525050565b5f60208201905061614c5f83018461612a565b92915050565b5f6040820190506161655f83018561563a565b616172602083018461563a565b9392505050565b7f45524332305065726d69743a206578706972656420646561646c696e650000005f82015250565b5f6161ad601d83615513565b91506161b882616179565b602082019050919050565b5f6020820190508181035f8301526161da816161a1565b9050919050565b5f60c0820190506161f45f830189615710565b61620160208301886157aa565b61620e60408301876157aa565b61621b606083018661532a565b616228608083018561532a565b61623560a083018461532a565b979650505050505050565b7f45524332305065726d69743a20696e76616c6964207369676e617475726500005f82015250565b5f616274601e83615513565b915061627f82616240565b602082019050919050565b5f6020820190508181035f8301526162a181616268565b9050919050565b5f6162b282615321565b91506162bd83615321565b92508282026162cb81615321565b915082820484148315176162e2576162e1615cbb565b5b5092915050565b7f4e487b71000000000000000000000000000000000000000000000000000000005f52601260045260245ffd5b5f61632082615321565b915061632b83615321565b92508261633b5761633a6162e9565b5b828204905092915050565b5f6040820190506163595f8301856157aa565b616366602083018461532a565b9392505050565b5f8160011c9050919050565b5f808291508390505b60018511156163c25780860481111561639e5761639d615cbb565b5b60018516156163ad5780820291505b80810290506163bb8561636d565b9450616382565b94509492505050565b5f826163da5760019050616495565b816163e7575f9050616495565b81600181146163fd576002811461640757616436565b6001915050616495565b60ff84111561641957616418615cbb565b5b8360020a9150848211156164305761642f615cbb565b5b50616495565b5060208310610133831016604e8410600b841016171561646b5782820a90508381111561646657616465615cbb565b5b616495565b6164788484846001616379565b9250905081840481111561648f5761648e615cbb565b5b81810290505b9392505050565b5f6164a682615321565b91506164b183615776565b92506164de7fffffffffffffffffffffffffffffffffffffffffffffffffffffffffffffffff84846163cb565b905092915050565b7f45524332303a20617070726f76652066726f6d20746865207a65726f206164645f8201527f7265737300000000000000000000000000000000000000000000000000000000602082015250565b5f616540602483615513565b915061654b826164e6565b604082019050919050565b5f6020820190508181035f83015261656d81616534565b9050919050565b7f45524332303a20617070726f766520746f20746865207a65726f2061646472655f8201527f7373000000000000000000000000000000000000000000000000000000000000602082015250565b5f6165ce602283615513565b91506165d982616574565b604082019050919050565b5f6020820190508181035f8301526165fb816165c2565b9050919050565b7f45524332303a20696e73756666696369656e7420616c6c6f77616e63650000005f82015250565b5f616636601d83615513565b915061664182616602565b602082019050919050565b5f6020820190508181035f8301526166638161662a565b9050919050565b7f45524332303a207472616e736665722066726f6d20746865207a65726f2061645f8201527f6472657373000000000000000000000000000000000000000000000000000000602082015250565b5f6166c4602583615513565b91506166cf8261666a565b604082019050919050565b5f6020820190508181035f8301526166f1816166b8565b9050919050565b7f45524332303a207472616e7366657220746f20746865207a65726f20616464725f8201527f6573730000000000000000000000000000000000000000000000000000000000602082015250565b5f616752602383615513565b915061675d826166f8565b604082019050919050565b5f6020820190508181035f83015261677f81616746565b9050919050565b7f45524332303a207472616e7366657220616d6f756e74206578636565647320625f8201527f616c616e63650000000000000000000000000000000000000000000000000000602082015250565b5f6167e0602683615513565b91506167eb82616786565b604082019050919050565b5f6020820190508181035f83015261680d816167d4565b9050919050565b7f5265656e7472616e637947756172643a207265656e7472616e742063616c6c005f82015250565b5f616848601f83615513565b915061685382616814565b602082019050919050565b5f6020820190508181035f8301526168758161683c565b9050919050565b7f45524332303a206275726e2066726f6d20746865207a65726f206164647265735f8201527f7300000000000000000000000000000000000000000000000000000000000000602082015250565b5f6168d6602183615513565b91506168e18261687c565b604082019050919050565b5f6020820190508181035f830152616903816168ca565b9050919050565b7f45524332303a206275726e20616d6f756e7420657863656564732062616c616e5f8201527f6365000000000000000000000000000000000000000000000000000000000000602082015250565b5f616964602283615513565b915061696f8261690a565b604082019050919050565b5f6020820190508181035f83015261699181616958565b9050919050565b7f45524332303a206d696e7420746f20746865207a65726f2061646472657373005f82015250565b5f6169cc601f83615513565b91506169d782616998565b602082019050919050565b5f6020820190508181035f8301526169f9816169c0565b9050919050565b7f455243343632363a207769746864726177206d6f7265207468616e206d6178005f82015250565b5f616a34601f83615513565b9150616a3f82616a00565b602082019050919050565b5f6020820190508181035f830152616a6181616a28565b9050919050565b7f455243343632363a2072656465656d206d6f7265207468616e206d61780000005f82015250565b5f616a9c601d83615513565b9150616aa782616a68565b602082019050919050565b5f6020820190508181035f830152616ac981616a90565b9050919050565b7f496e697469616c697a61626c653a20636f6e7472616374206973206e6f7420695f8201527f6e697469616c697a696e67000000000000000000000000000000000000000000602082015250565b5f616b2a602b83615513565b9150616b3582616ad0565b604082019050919050565b5f6020820190508181035f830152616b5781616b1e565b9050919050565b5f606082019050616b715f8301866157aa565b616b7e60208301856157aa565b616b8b604083018461532a565b949350505050565b7f4e487b71000000000000000000000000000000000000000000000000000000005f52602160045260245ffd5b5f81905092915050565b7f416363657373436f6e74726f6c3a206163636f756e74200000000000000000005f82015250565b5f616bfe601783616bc0565b9150616c0982616bca565b601782019050919050565b5f616c1e82615509565b616c288185616bc0565b9350616c38818560208601615523565b80840191505092915050565b7f206973206d697373696e6720726f6c65200000000000000000000000000000005f82015250565b5f616c78601183616bc0565b9150616c8382616c44565b601182019050919050565b5f616c9882616bf2565b9150616ca48285616c14565b9150616caf82616c6c565b9150616cbb8284616c14565b91508190509392505050565b5f60a082019050616cda5f830188615710565b616ce76020830187615710565b616cf46040830186615710565b616d01606083018561532a565b616d0e60808301846157aa565b9695505050505050565b616d21816154d6565b8114616d2b575f80fd5b50565b5f81519050616d3c81616d18565b92915050565b5f60208284031215616d5757616d56615352565b5b5f616d6484828501616d2e565b91505092915050565b7f5361666545524332303a204552433230206f7065726174696f6e20646964206e5f8201527f6f74207375636365656400000000000000000000000000000000000000000000602082015250565b5f616dc7602a83615513565b9150616dd282616d6d565b604082019050919050565b5f6020820190508181035f830152616df481616dbb565b9050919050565b5f819050815f5260205f209050919050565b5f6020601f8301049050919050565b5f82821b905092915050565b5f60088302616e577fffffffffffffffffffffffffffffffffffffffffffffffffffffffffffffffff82616e1c565b616e618683616e1c565b95508019841693508086168417925050509392505050565b5f616e93616e8e616e8984615321565b615c08565b615321565b9050919050565b5f819050919050565b616eac83616e79565b616ec0616eb882616e9a565b848454616e28565b825550505050565b5f90565b616ed4616ec8565b616edf818484616ea3565b505050565b5b81811015616f0257616ef75f82616ecc565b600181019050616ee5565b5050565b601f821115616f4757616f1881616dfb565b616f2184616e0d565b81016020851015616f30578190505b616f44616f3c85616e0d565b830182616ee4565b50505b505050565b5f82821c905092915050565b5f616f675f1984600802616f4c565b1980831691505092915050565b5f616f7f8383616f58565b9150826002028217905092915050565b616f9882615509565b67ffffffffffffffff811115616fb157616fb0615e7b565b5b616fbb8254615d48565b616fc6828285616f06565b5f60209050601f831160018114616ff7575f8415616fe5578287015190505b616fef8582616f74565b865550617056565b601f19841661700586616dfb565b5f5b8281101561702c57848901518255600182019150602085019450602081019050617007565b868310156170495784890151617045601f891682616f58565b8355505b6001600288020188555050505b505050505050565b5f6080820190506170715f830187615710565b61707e6020830186615782565b61708b6040830185615710565b6170986060830184615710565b95945050505050565b7f45434453413a20696e76616c6964207369676e617475726500000000000000005f82015250565b5f6170d5601883615513565b91506170e0826170a1565b602082019050919050565b5f6020820190508181035f830152617102816170c9565b9050919050565b7f45434453413a20696e76616c6964207369676e6174757265206c656e677468005f82015250565b5f61713d601f83615513565b915061714882617109565b602082019050919050565b5f6020820190508181035f83015261716a81617131565b9050919050565b7f45434453413a20696e76616c6964207369676e6174757265202773272076616c5f8201527f7565000000000000000000000000000000000000000000000000000000000000602082015250565b5f6171cb602283615513565b91506171d682617171565b604082019050919050565b5f6020820190508181035f8301526171f8816171bf565b9050919050565b7f4d6174683a206d756c446976206f766572666c6f7700000000000000000000005f82015250565b5f617233601583615513565b915061723e826171ff565b602082019050919050565b5f6020820190508181035f83015261726081617227565b9050919050565b7f4e487b71000000000000000000000000000000000000000000000000000000005f52603260045260245ffd5b5f61729e82615321565b91505f82036172b0576172af615cbb565b5b600182039050919050565b7f537472696e67733a20686578206c656e67746820696e73756666696369656e745f82015250565b5f6172ef602083615513565b91506172fa826172bb565b602082019050919050565b5f6020820190508181035f83015261731c816172e3565b9050919050565b5f81519050919050565b5f81905092915050565b5f61734182617323565b61734b818561732d565b935061735b818560208601615523565b80840191505092915050565b5f6173728284617337565b915081905092915050565b7f416464726573733a20696e73756666696369656e742062616c616e636520666f5f8201527f722063616c6c0000000000000000000000000000000000000000000000000000602082015250565b5f6173d7602683615513565b91506173e28261737d565b604082019050919050565b5f6020820190508181035f830152617404816173cb565b9050919050565b7f416464726573733a2063616c6c20746f206e6f6e2d636f6e74726163740000005f82015250565b5f61743f601d83615513565b915061744a8261740b565b602082019050919050565b5f6020820190508181035f83015261746c81617433565b905091905056fe60c060405234801561000f575f80fd5b50604051610473380380610473833981810160405281019061003191906100fe565b8173ffffffffffffffffffffffffffffffffffffffff1660808173ffffffffffffffffffffffffffffffffffffffff16815250508073ffffffffffffffffffffffffffffffffffffffff1660a08173ffffffffffffffffffffffffffffffffffffffff1681525050505061013c565b5f80fd5b5f73ffffffffffffffffffffffffffffffffffffffff82169050919050565b5f6100cd826100a4565b9050919050565b6100dd816100c3565b81146100e7575f80fd5b50565b5f815190506100f8816100d4565b92915050565b5f8060408385031215610114576101136100a0565b5b5f610121858286016100ea565b9250506020610132858286016100ea565b9150509250929050565b60805160a05161031861015b5f395f60d001525f604b01526103185ff3fe608060405234801561000f575f80fd5b5060043610610029575f3560e01c8063f3fef3a31461002d575b5f80fd5b610047600480360381019061004291906101ff565b610049565b005b7f000000000000000000000000000000000000000000000000000000000000000073ffffffffffffffffffffffffffffffffffffffff163373ffffffffffffffffffffffffffffffffffffffff16146100ce576040517f17dd114500000000000000000000000000000000000000000000000000000000815260040160405180910390fd5b7f000000000000000000000000000000000000000000000000000000000000000073ffffffffffffffffffffffffffffffffffffffff1663a9059cbb83836040518363ffffffff1660e01b815260040161012992919061025b565b6020604051808303815f875af1158015610145573d5f803e3d5ffd5b505050506040513d601f19601f8201168201806040525081019061016991906102b7565b505050565b5f80fd5b5f73ffffffffffffffffffffffffffffffffffffffff82169050919050565b5f61019b82610172565b9050919050565b6101ab81610191565b81146101b5575f80fd5b50565b5f813590506101c6816101a2565b92915050565b5f819050919050565b6101de816101cc565b81146101e8575f80fd5b50565b5f813590506101f9816101d5565b92915050565b5f80604083850312156102155761021461016e565b5b5f610222858286016101b8565b9250506020610233858286016101eb565b9150509250929050565b61024681610191565b82525050565b610255816101cc565b82525050565b5f60408201905061026e5f83018561023d565b61027b602083018461024c565b9392505050565b5f8115159050919050565b61029681610282565b81146102a0575f80fd5b50565b5f815190506102b18161028d565b92915050565b5f602082840312156102cc576102cb61016e565b5b5f6102d9848285016102a3565b9150509291505056fea264697066735822122081aa438e060c89477da715f8f601f31497847b7086fcfb082d2e123a0336ae2564736f6c634300081a0033a2646970667358221220e1af05ed25cf799470de2424c8bc46a0478cb06eaa56b34ddc3cf8a86301b17c64736f6c634300081a0033","linkReferences":{}},"methodIdentifiers":{"BLACKLISTED_ROLE()":"62b199c5","BLACKLIST_MANAGER_ROLE()":"410b2424","DEFAULT_ADMIN_ROLE()":"a217fddf","DOMAIN_SEPARATOR()":"3644e515","MAX_COOLDOWN_DURATION()":"1e9049cf","MAX_VESTING_PERIOD()":"e5a5e674","REWARDER_ROLE()":"8580cf76","acceptAdmin()":"0e18b681","addToBlacklist(address)":"44337ea1","allowance(address,address)":"dd62ed3e","approve(address,uint256)":"095ea7b3","asset()":"38d52e0f","balanceOf(address)":"70a08231","convertToAssets(uint256)":"07a2d13a","convertToShares(uint256)":"c6e6f592","cooldownAssets(uint256)":"cdac52ed","cooldownDuration()":"35269315","cooldownShares(uint256)":"9343d9e1","cooldowns(address)":"01320fe2","decimals()":"313ce567","decreaseAllowance(address,uint256)":"a457c2d7","deposit(uint256,address)":"6e553f65","eip712Domain()":"84b0196e","getRoleAdmin(bytes32)":"248a9ca3","getUnvestedAmount()":"e7c2a608","grantRole(bytes32,address)":"2f2ff15d","hasRole(bytes32,address)":"91d14854","increaseAllowance(address,uint256)":"39509351","initialize(address,address,address)":"c0c53b8b","lastDistributionTimestamp()":"20950933","maxDeposit(address)":"402d267d","maxMint(address)":"c63d75b6","maxRedeem(address)":"d905777e","maxWithdraw(address)":"ce96cb77","mint(uint256,address)":"94bf804d","name()":"06fdde03","nonces(address)":"7ecebe00","owner()":"8da5cb5b","permit(address,address,uint256,uint256,uint8,bytes32,bytes32)":"d505accf","previewDeposit(uint256)":"ef8b30f7","previewMint(uint256)":"b3d7f6b9","previewRedeem(uint256)":"4cdad506","previewWithdraw(uint256)":"0a28a477","redeem(uint256,address,address)":"ba087652","redistributeLockedAmount(address,address)":"a0776b82","removeFromBlacklist(address)":"537df3b6","renounceRole(bytes32,address)":"36568abe","rescueTokens(address,uint256,address)":"b37fd190","revokeRole(bytes32,address)":"d547741f","setCooldownDuration(uint24)":"ce23eb3c","silo()":"eb3beb29","supportsInterface(bytes4)":"01ffc9a7","symbol()":"95d89b41","totalAssets()":"01e1d114","totalSupply()":"18160ddd","transfer(address,uint256)":"a9059cbb","transferAdmin(address)":"75829def","transferFrom(address,address,uint256)":"23b872dd","transferInRewards(uint256)":"c80ef110","unstake(address)":"f2888dbb","updateVestingPeriod(uint24)":"8593d033","useNonce()":"69615a4c","vestingAmount()":"00728f76","vestingPeriod()":"7313ee5a","withdraw(uint256,address,address)":"b460af94"},"id":2}