{"abi":[{"type":"constructor","inputs":[{"name":"stakingVault","type":"address","internalType":"address"},{"name":"usde","type":"address","internalType":"address"}],"stateMutability":"nonpayable"},{"type":"function","name":"withdraw","inputs":[{"name":"to","type":"address","internalType":"address"},{"name":"amount","type":"uint256","internalType":"uint256"}],"outputs":[],"stateMutability":"nonpayable"},{"type":"error","name":"OnlyStakingVault","inputs":[]}],"bytecode":{"object":"0x60c060405234801561001057600080fd5b5060405161049638038061049683398181016040528101906100329190610104565b8173ffffffffffffffffffffffffffffffffffffffff1660808173ffffffffffffffffffffffffffffffffffffffff16815250508073ffffffffffffffffffffffffffffffffffffffff1660a08173ffffffffffffffffffffffffffffffffffffffff16815250505050610144565b600080fd5b600073ffffffffffffffffffffffffffffffffffffffff82169050919050565b60006100d1826100a6565b9050919050565b6100e1816100c6565b81146100ec57600080fd5b50565b6000815190506100fe816100d8565b92915050565b6000806040838503121561011b5761011a6100a1565b5b6000610129858286016100ef565b925050602061013a858286016100ef565b9150509250929050565b60805160a05161032f610167600039600060d301526000604e015261032f6000f3fe608060405234801561001057600080fd5b506004361061002b5760003560e01c8063f3fef3a314610030575b600080fd5b61004a6004803603810190610045919061020d565b61004c565b005b7f000000000000000000000000000000000000000000000000000000000000000073ffffffffffffffffffffffffffffffffffffffff163373ffffffffffffffffffffffffffffffffffffffff16146100d1576040517f17dd114500000000000000000000000000000000000000000000000000000000815260040160405180910390fd5b7f000000000000000000000000000000000000000000000000000000000000000073ffffffffffffffffffffffffffffffffffffffff1663a9059cbb83836040518363ffffffff1660e01b815260040161012c92919061026b565b6020604051808303816000875af115801561014b573d6000803e3d6000fd5b505050506040513d601f19601f8201168201806040525081019061016f91906102cc565b505050565b600080fd5b600073ffffffffffffffffffffffffffffffffffffffff82169050919050565b60006101a482610179565b9050919050565b6101b481610199565b81146101bf57600080fd5b50565b6000813590506101d1816101ab565b92915050565b6000819050919050565b6101ea816101d7565b81146101f557600080fd5b50565b600081359050610207816101e1565b92915050565b6000806040838503121561022457610223610174565b5b6000610232858286016101c2565b9250506020610243858286016101f8565b9150509250929050565b61025681610199565b82525050565b610265816101d7565b82525050565b6000604082019050610280600083018561024d565b61028d602083018461025c565b9392505050565b60008115159050919050565b6102a981610294565b81146102b457600080fd5b50565b6000815190506102c6816102a0565b92915050565b6000602082840312156102e2576102e1610174565b5b60006102f0848285016102b7565b9150509291505056fea2646970667358221220f9e6b4760e34f7979b302ae16fee600f34cc81072b5f7bb7fca61768d804645364736f6c63430008130033","linkReferences":{}},"methodIdentifiers":{"withdraw(address,uint256)":"f3fef3a3"},"id":42}