{"abi":[{"type":"constructor","inputs":[{"name":"_rateLimitConfigs","type":"tuple[]","internalType":"struct RateLimiter.RateLimitConfig[]","components":[{"name":"dstEid","type":"uint32","internalType":"uint32"},{"name":"limit","type":"uint256","internalType":"uint256"},{"name":"window","type":"uint256","internalType":"uint256"}]},{"name":"_token","type":"address","internalType":"address"},{"name":"_lzEndpoint","type":"address","internalType":"address"},{"name":"_delegate","type":"address","internalType":"address"}],"stateMutability":"nonpayable"},{"type":"function","name":"SEND","inputs":[],"outputs":[{"name":"","type":"uint16","internalType":"uint16"}],"stateMutability":"view"},{"type":"function","name":"SEND_AND_CALL","inputs":[],"outputs":[{"name":"","type":"uint16","internalType":"uint16"}],"stateMutability":"view"},{"type":"function","name":"acceptOwnership","inputs":[],"outputs":[],"stateMutability":"nonpayable"},{"type":"function","name":"allowInitializePath","inputs":[{"name":"origin","type":"tuple","internalType":"struct Origin","components":[{"name":"srcEid","type":"uint32","internalType":"uint32"},{"name":"sender","type":"bytes32","internalType":"bytes32"},{"name":"nonce","type":"uint64","internalType":"uint64"}]}],"outputs":[{"name":"","type":"bool","internalType":"bool"}],"stateMutability":"view"},{"type":"function","name":"approvalRequired","inputs":[],"outputs":[{"name":"","type":"bool","internalType":"bool"}],"stateMutability":"pure"},{"type":"function","name":"combineOptions","inputs":[{"name":"_eid","type":"uint32","internalType":"uint32"},{"name":"_msgType","type":"uint16","internalType":"uint16"},{"name":"_extraOptions","type":"bytes","internalType":"bytes"}],"outputs":[{"name":"","type":"bytes","internalType":"bytes"}],"stateMutability":"view"},{"type":"function","name":"composeMsgSender","inputs":[],"outputs":[{"name":"sender","type":"address","internalType":"address"}],"stateMutability":"view"},{"type":"function","name":"decimalConversionRate","inputs":[],"outputs":[{"name":"","type":"uint256","internalType":"uint256"}],"stateMutability":"view"},{"type":"function","name":"endpoint","inputs":[],"outputs":[{"name":"","type":"address","internalType":"contract ILayerZeroEndpointV2"}],"stateMutability":"view"},{"type":"function","name":"enforcedOptions","inputs":[{"name":"eid","type":"uint32","internalType":"uint32"},{"name":"msgType","type":"uint16","internalType":"uint16"}],"outputs":[{"name":"enforcedOption","type":"bytes","internalType":"bytes"}],"stateMutability":"view"},{"type":"function","name":"getAmountCanBeSent","inputs":[{"name":"_dstEid","type":"uint32","internalType":"uint32"}],"outputs":[{"name":"currentAmountInFlight","type":"uint256","internalType":"uint256"},{"name":"amountCanBeSent","type":"uint256","internalType":"uint256"}],"stateMutability":"view"},{"type":"function","name":"isPeer","inputs":[{"name":"_eid","type":"uint32","internalType":"uint32"},{"name":"_peer","type":"bytes32","internalType":"bytes32"}],"outputs":[{"name":"","type":"bool","internalType":"bool"}],"stateMutability":"view"},{"type":"function","name":"lzReceive","inputs":[{"name":"_origin","type":"tuple","internalType":"struct Origin","components":[{"name":"srcEid","type":"uint32","internalType":"uint32"},{"name":"sender","type":"bytes32","internalType":"bytes32"},{"name":"nonce","type":"uint64","internalType":"uint64"}]},{"name":"_guid","type":"bytes32","internalType":"bytes32"},{"name":"_message","type":"bytes","internalType":"bytes"},{"name":"_executor","type":"address","internalType":"address"},{"name":"_extraData","type":"bytes","internalType":"bytes"}],"outputs":[],"stateMutability":"payable"},{"type":"function","name":"lzReceiveAndRevert","inputs":[{"name":"_packets","type":"tuple[]","internalType":"struct InboundPacket[]","components":[{"name":"origin","type":"tuple","internalType":"struct Origin","components":[{"name":"srcEid","type":"uint32","internalType":"uint32"},{"name":"sender","type":"bytes32","internalType":"bytes32"},{"name":"nonce","type":"uint64","internalType":"uint64"}]},{"name":"dstEid","type":"uint32","internalType":"uint32"},{"name":"receiver","type":"address","internalType":"address"},{"name":"guid","type":"bytes32","internalType":"bytes32"},{"name":"value","type":"uint256","internalType":"uint256"},{"name":"executor","type":"address","internalType":"address"},{"name":"message","type":"bytes","internalType":"bytes"},{"name":"extraData","type":"bytes","internalType":"bytes"}]}],"outputs":[],"stateMutability":"payable"},{"type":"function","name":"lzReceiveSimulate","inputs":[{"name":"_origin","type":"tuple","internalType":"struct Origin","components":[{"name":"srcEid","type":"uint32","internalType":"uint32"},{"name":"sender","type":"bytes32","internalType":"bytes32"},{"name":"nonce","type":"uint64","internalType":"uint64"}]},{"name":"_guid","type":"bytes32","internalType":"bytes32"},{"name":"_message","type":"bytes","internalType":"bytes"},{"name":"_executor","type":"address","internalType":"address"},{"name":"_extraData","type":"bytes","internalType":"bytes"}],"outputs":[],"stateMutability":"payable"},{"type":"function","name":"msgInspector","inputs":[],"outputs":[{"name":"","type":"address","internalType":"address"}],"stateMutability":"view"},{"type":"function","name":"nextNonce","inputs":[{"name":"","type":"uint32","internalType":"uint32"},{"name":"","type":"bytes32","internalType":"bytes32"}],"outputs":[{"name":"nonce","type":"uint64","internalType":"uint64"}],"stateMutability":"view"},{"type":"function","name":"oApp","inputs":[],"outputs":[{"name":"","type":"address","internalType":"address"}],"stateMutability":"view"},{"type":"function","name":"oAppVersion","inputs":[],"outputs":[{"name":"senderVersion","type":"uint64","internalType":"uint64"},{"name":"receiverVersion","type":"uint64","internalType":"uint64"}],"stateMutability":"pure"},{"type":"function","name":"oftVersion","inputs":[],"outputs":[{"name":"interfaceId","type":"bytes4","internalType":"bytes4"},{"name":"version","type":"uint64","internalType":"uint64"}],"stateMutability":"pure"},{"type":"function","name":"owner","inputs":[],"outputs":[{"name":"","type":"address","internalType":"address"}],"stateMutability":"view"},{"type":"function","name":"peers","inputs":[{"name":"eid","type":"uint32","internalType":"uint32"}],"outputs":[{"name":"peer","type":"bytes32","internalType":"bytes32"}],"stateMutability":"view"},{"type":"function","name":"pendingOwner","inputs":[],"outputs":[{"name":"","type":"address","internalType":"address"}],"stateMutability":"view"},{"type":"function","name":"preCrime","inputs":[],"outputs":[{"name":"","type":"address","internalType":"address"}],"stateMutability":"view"},{"type":"function","name":"quoteOFT","inputs":[{"name":"_sendParam","type":"tuple","internalType":"struct SendParam","components":[{"name":"dstEid","type":"uint32","internalType":"uint32"},{"name":"to","type":"bytes32","internalType":"bytes32"},{"name":"amountLD","type":"uint256","internalType":"uint256"},{"name":"minAmountLD","type":"uint256","internalType":"uint256"},{"name":"extraOptions","type":"bytes","internalType":"bytes"},{"name":"composeMsg","type":"bytes","internalType":"bytes"},{"name":"oftCmd","type":"bytes","internalType":"bytes"}]}],"outputs":[{"name":"oftLimit","type":"tuple","internalType":"struct OFTLimit","components":[{"name":"minAmountLD","type":"uint256","internalType":"uint256"},{"name":"maxAmountLD","type":"uint256","internalType":"uint256"}]},{"name":"oftFeeDetails","type":"tuple[]","internalType":"struct OFTFeeDetail[]","components":[{"name":"feeAmountLD","type":"int256","internalType":"int256"},{"name":"description","type":"string","internalType":"string"}]},{"name":"oftReceipt","type":"tuple","internalType":"struct OFTReceipt","components":[{"name":"amountSentLD","type":"uint256","internalType":"uint256"},{"name":"amountReceivedLD","type":"uint256","internalType":"uint256"}]}],"stateMutability":"view"},{"type":"function","name":"quoteSend","inputs":[{"name":"_sendParam","type":"tuple","internalType":"struct SendParam","components":[{"name":"dstEid","type":"uint32","internalType":"uint32"},{"name":"to","type":"bytes32","internalType":"bytes32"},{"name":"amountLD","type":"uint256","internalType":"uint256"},{"name":"minAmountLD","type":"uint256","internalType":"uint256"},{"name":"extraOptions","type":"bytes","internalType":"bytes"},{"name":"composeMsg","type":"bytes","internalType":"bytes"},{"name":"oftCmd","type":"bytes","internalType":"bytes"}]},{"name":"_payInLzToken","type":"bool","internalType":"bool"}],"outputs":[{"name":"msgFee","type":"tuple","internalType":"struct MessagingFee","components":[{"name":"nativeFee","type":"uint256","internalType":"uint256"},{"name":"lzTokenFee","type":"uint256","internalType":"uint256"}]}],"stateMutability":"view"},{"type":"function","name":"rateLimiter","inputs":[],"outputs":[{"name":"","type":"address","internalType":"address"}],"stateMutability":"view"},{"type":"function","name":"rateLimits","inputs":[{"name":"dstEid","type":"uint32","internalType":"uint32"}],"outputs":[{"name":"amountInFlight","type":"uint256","internalType":"uint256"},{"name":"lastUpdated","type":"uint256","internalType":"uint256"},{"name":"limit","type":"uint256","internalType":"uint256"},{"name":"window","type":"uint256","internalType":"uint256"}],"stateMutability":"view"},{"type":"function","name":"renounceOwnership","inputs":[],"outputs":[],"stateMutability":"view"},{"type":"function","name":"send","inputs":[{"name":"_sendParam","type":"tuple","internalType":"struct SendParam","components":[{"name":"dstEid","type":"uint32","internalType":"uint32"},{"name":"to","type":"bytes32","internalType":"bytes32"},{"name":"amountLD","type":"uint256","internalType":"uint256"},{"name":"minAmountLD","type":"uint256","internalType":"uint256"},{"name":"extraOptions","type":"bytes","internalType":"bytes"},{"name":"composeMsg","type":"bytes","internalType":"bytes"},{"name":"oftCmd","type":"bytes","internalType":"bytes"}]},{"name":"_fee","type":"tuple","internalType":"struct MessagingFee","components":[{"name":"nativeFee","type":"uint256","internalType":"uint256"},{"name":"lzTokenFee","type":"uint256","internalType":"uint256"}]},{"name":"_refundAddress","type":"address","internalType":"address"}],"outputs":[{"name":"msgReceipt","type":"tuple","internalType":"struct MessagingReceipt","components":[{"name":"guid","type":"bytes32","internalType":"bytes32"},{"name":"nonce","type":"uint64","internalType":"uint64"},{"name":"fee","type":"tuple","internalType":"struct MessagingFee","components":[{"name":"nativeFee","type":"uint256","internalType":"uint256"},{"name":"lzTokenFee","type":"uint256","internalType":"uint256"}]}]},{"name":"oftReceipt","type":"tuple","internalType":"struct OFTReceipt","components":[{"name":"amountSentLD","type":"uint256","internalType":"uint256"},{"name":"amountReceivedLD","type":"uint256","internalType":"uint256"}]}],"stateMutability":"payable"},{"type":"function","name":"setDelegate","inputs":[{"name":"_delegate","type":"address","internalType":"address"}],"outputs":[],"stateMutability":"nonpayable"},{"type":"function","name":"setEnforcedOptions","inputs":[{"name":"_enforcedOptions","type":"tuple[]","internalType":"struct EnforcedOptionParam[]","components":[{"name":"eid","type":"uint32","internalType":"uint32"},{"name":"msgType","type":"uint16","internalType":"uint16"},{"name":"options","type":"bytes","internalType":"bytes"}]}],"outputs":[],"stateMutability":"nonpayable"},{"type":"function","name":"setMsgInspector","inputs":[{"name":"_msgInspector","type":"address","internalType":"address"}],"outputs":[],"stateMutability":"nonpayable"},{"type":"function","name":"setPeer","inputs":[{"name":"_eid","type":"uint32","internalType":"uint32"},{"name":"_peer","type":"bytes32","internalType":"bytes32"}],"outputs":[],"stateMutability":"nonpayable"},{"type":"function","name":"setPreCrime","inputs":[{"name":"_preCrime","type":"address","internalType":"address"}],"outputs":[],"stateMutability":"nonpayable"},{"type":"function","name":"setRateLimiter","inputs":[{"name":"_rateLimiter","type":"address","internalType":"address"}],"outputs":[],"stateMutability":"nonpayable"},{"type":"function","name":"setRateLimits","inputs":[{"name":"_rateLimitConfigs","type":"tuple[]","internalType":"struct RateLimiter.RateLimitConfig[]","components":[{"name":"dstEid","type":"uint32","internalType":"uint32"},{"name":"limit","type":"uint256","internalType":"uint256"},{"name":"window","type":"uint256","internalType":"uint256"}]}],"outputs":[],"stateMutability":"nonpayable"},{"type":"function","name":"sharedDecimals","inputs":[],"outputs":[{"name":"","type":"uint8","internalType":"uint8"}],"stateMutability":"pure"},{"type":"function","name":"token","inputs":[],"outputs":[{"name":"","type":"address","internalType":"address"}],"stateMutability":"view"},{"type":"function","name":"transferOwnership","inputs":[{"name":"newOwner","type":"address","internalType":"address"}],"outputs":[],"stateMutability":"nonpayable"},{"type":"event","name":"EnforcedOptionSet","inputs":[{"name":"_enforcedOptions","type":"tuple[]","indexed":false,"internalType":"struct EnforcedOptionParam[]","components":[{"name":"eid","type":"uint32","internalType":"uint32"},{"name":"msgType","type":"uint16","internalType":"uint16"},{"name":"options","type":"bytes","internalType":"bytes"}]}],"anonymous":false},{"type":"event","name":"MsgInspectorSet","inputs":[{"name":"inspector","type":"address","indexed":false,"internalType":"address"}],"anonymous":false},{"type":"event","name":"OFTReceived","inputs":[{"name":"guid","type":"bytes32","indexed":true,"internalType":"bytes32"},{"name":"srcEid","type":"uint32","indexed":false,"internalType":"uint32"},{"name":"toAddress","type":"address","indexed":true,"internalType":"address"},{"name":"amountReceivedLD","type":"uint256","indexed":false,"internalType":"uint256"}],"anonymous":false},{"type":"event","name":"OFTSent","inputs":[{"name":"guid","type":"bytes32","indexed":true,"internalType":"bytes32"},{"name":"dstEid","type":"uint32","indexed":false,"internalType":"uint32"},{"name":"fromAddress","type":"address","indexed":true,"internalType":"address"},{"name":"amountSentLD","type":"uint256","indexed":false,"internalType":"uint256"},{"name":"amountReceivedLD","type":"uint256","indexed":false,"internalType":"uint256"}],"anonymous":false},{"type":"event","name":"OwnershipTransferStarted","inputs":[{"name":"previousOwner","type":"address","indexed":true,"internalType":"address"},{"name":"newOwner","type":"address","indexed":true,"internalType":"address"}],"anonymous":false},{"type":"event","name":"OwnershipTransferred","inputs":[{"name":"previousOwner","type":"address","indexed":true,"internalType":"address"},{"name":"newOwner","type":"address","indexed":true,"internalType":"address"}],"anonymous":false},{"type":"event","name":"PeerSet","inputs":[{"name":"eid","type":"uint32","indexed":false,"internalType":"uint32"},{"name":"peer","type":"bytes32","indexed":false,"internalType":"bytes32"}],"anonymous":false},{"type":"event","name":"PreCrimeSet","inputs":[{"name":"preCrimeAddress","type":"address","indexed":false,"internalType":"address"}],"anonymous":false},{"type":"event","name":"RateLimiterSet","inputs":[{"name":"rateLimiter","type":"address","indexed":true,"internalType":"address"}],"anonymous":false},{"type":"event","name":"RateLimitsChanged","inputs":[{"name":"rateLimitConfigs","type":"tuple[]","indexed":false,"internalType":"struct RateLimiter.RateLimitConfig[]","components":[{"name":"dstEid","type":"uint32","internalType":"uint32"},{"name":"limit","type":"uint256","internalType":"uint256"},{"name":"window","type":"uint256","internalType":"uint256"}]}],"anonymous":false},{"type":"error","name":"AddressEmptyCode","inputs":[{"name":"target","type":"address","internalType":"address"}]},{"type":"error","name":"AddressInsufficientBalance","inputs":[{"name":"account","type":"address","internalType":"address"}]},{"type":"error","name":"CantRenounceOwnership","inputs":[]},{"type":"error","name":"FailedInnerCall","inputs":[]},{"type":"error","name":"InvalidDelegate","inputs":[]},{"type":"error","name":"InvalidEndpointCall","inputs":[]},{"type":"error","name":"InvalidLocalDecimals","inputs":[]},{"type":"error","name":"InvalidOptions","inputs":[{"name":"options","type":"bytes","internalType":"bytes"}]},{"type":"error","name":"LzTokenUnavailable","inputs":[]},{"type":"error","name":"NoPeer","inputs":[{"name":"eid","type":"uint32","internalType":"uint32"}]},{"type":"error","name":"NotEnoughNative","inputs":[{"name":"msgValue","type":"uint256","internalType":"uint256"}]},{"type":"error","name":"OnlyEndpoint","inputs":[{"name":"addr","type":"address","internalType":"address"}]},{"type":"error","name":"OnlyPeer","inputs":[{"name":"eid","type":"uint32","internalType":"uint32"},{"name":"sender","type":"bytes32","internalType":"bytes32"}]},{"type":"error","name":"OnlyRateLimiter","inputs":[]},{"type":"error","name":"OnlySelf","inputs":[]},{"type":"error","name":"OwnableInvalidOwner","inputs":[{"name":"owner","type":"address","internalType":"address"}]},{"type":"error","name":"OwnableUnauthorizedAccount","inputs":[{"name":"account","type":"address","internalType":"address"}]},{"type":"error","name":"RateLimitExceeded","inputs":[]},{"type":"error","name":"SafeERC20FailedOperation","inputs":[{"name":"token","type":"address","internalType":"address"}]},{"type":"error","name":"SimulationResult","inputs":[{"name":"result","type":"bytes","internalType":"bytes"}]},{"type":"error","name":"SlippageExceeded","inputs":[{"name":"amountLD","type":"uint256","internalType":"uint256"},{"name":"minAmountLD","type":"uint256","internalType":"uint256"}]}],"bytecode":{"object":"0x60e060405234801561000f575f5ffd5b50604051615bc2380380615bc28339818101604052810190610031919061076b565b8282828282828273ffffffffffffffffffffffffffffffffffffffff1663313ce5676040518163ffffffff1660e01b8152600401602060405180830381865afa158015610080573d5f5f3e3d5ffd5b505050506040513d601f19601f820116820180604052508101906100a49190610821565b8282818181818a5f73ffffffffffffffffffffffffffffffffffffffff168173ffffffffffffffffffffffffffffffffffffffff160361011b575f6040517f1e4fbdf7000000000000000000000000000000000000000000000000000000008152600401610112919061085b565b60405180910390fd5b61012a816102fe60201b60201c565b508173ffffffffffffffffffffffffffffffffffffffff1660808173ffffffffffffffffffffffffffffffffffffffff16815250505f73ffffffffffffffffffffffffffffffffffffffff168173ffffffffffffffffffffffffffffffffffffffff16036101c4576040517fb586360400000000000000000000000000000000000000000000000000000000815260040160405180910390fd5b60805173ffffffffffffffffffffffffffffffffffffffff1663ca5eb5e1826040518263ffffffff1660e01b81526004016101ff919061085b565b5f604051808303815f87803b158015610216575f5ffd5b505af1158015610228573d5f5f3e3d5ffd5b505050505050505061023e61033460201b60201c565b60ff168360ff16101561027d576040517f1e9714b000000000000000000000000000000000000000000000000000000000815260040160405180910390fd5b61028b61033460201b60201c565b8361029691906108a1565b600a6102a29190610a04565b60a081815250505050508273ffffffffffffffffffffffffffffffffffffffff1660c08173ffffffffffffffffffffffffffffffffffffffff16815250505050505050506102f58461033c60201b60201c565b50505050610ba1565b60055f6101000a81549073ffffffffffffffffffffffffffffffffffffffff02191690556103318161041e60201b60201c565b50565b5f6006905090565b5f5f90505b81518110156103e3575f60065f84848151811061036157610360610a4e565b5b60200260200101515f015163ffffffff1663ffffffff1681526020019081526020015f20905082828151811061039a57610399610a4e565b5b60200260200101516020015181600201819055508282815181106103c1576103c0610a4e565b5b6020026020010151604001518160030181905550508080600101915050610341565b507fe888347665897e637801f36c5129f510657276178c89022bc5fa0246dbc19de1816040516104139190610b81565b60405180910390a150565b5f5f5f9054906101000a900473ffffffffffffffffffffffffffffffffffffffff169050815f5f6101000a81548173ffffffffffffffffffffffffffffffffffffffff021916908373ffffffffffffffffffffffffffffffffffffffff1602179055508173ffffffffffffffffffffffffffffffffffffffff168173ffffffffffffffffffffffffffffffffffffffff167f8be0079c531659141344cd1fd0a4f28419497f9722a3daafe3b4186f6b6457e060405160405180910390a35050565b5f604051905090565b5f5ffd5b5f5ffd5b5f5ffd5b5f601f19601f8301169050919050565b7f4e487b71000000000000000000000000000000000000000000000000000000005f52604160045260245ffd5b61053a826104f4565b810181811067ffffffffffffffff8211171561055957610558610504565b5b80604052505050565b5f61056b6104df565b90506105778282610531565b919050565b5f67ffffffffffffffff82111561059657610595610504565b5b602082029050602081019050919050565b5f5ffd5b5f5ffd5b5f63ffffffff82169050919050565b6105c7816105af565b81146105d1575f5ffd5b50565b5f815190506105e2816105be565b92915050565b5f819050919050565b6105fa816105e8565b8114610604575f5ffd5b50565b5f81519050610615816105f1565b92915050565b5f606082840312156106305761062f6105ab565b5b61063a6060610562565b90505f610649848285016105d4565b5f83015250602061065c84828501610607565b602083015250604061067084828501610607565b60408301525092915050565b5f61068e6106898461057c565b610562565b905080838252602082019050606084028301858111156106b1576106b06105a7565b5b835b818110156106da57806106c6888261061b565b8452602084019350506060810190506106b3565b5050509392505050565b5f82601f8301126106f8576106f76104f0565b5b815161070884826020860161067c565b91505092915050565b5f73ffffffffffffffffffffffffffffffffffffffff82169050919050565b5f61073a82610711565b9050919050565b61074a81610730565b8114610754575f5ffd5b50565b5f8151905061076581610741565b92915050565b5f5f5f5f60808587031215610783576107826104e8565b5b5f85015167ffffffffffffffff8111156107a05761079f6104ec565b5b6107ac878288016106e4565b94505060206107bd87828801610757565b93505060406107ce87828801610757565b92505060606107df87828801610757565b91505092959194509250565b5f60ff82169050919050565b610800816107eb565b811461080a575f5ffd5b50565b5f8151905061081b816107f7565b92915050565b5f60208284031215610836576108356104e8565b5b5f6108438482850161080d565b91505092915050565b61085581610730565b82525050565b5f60208201905061086e5f83018461084c565b92915050565b7f4e487b71000000000000000000000000000000000000000000000000000000005f52601160045260245ffd5b5f6108ab826107eb565b91506108b6836107eb565b9250828203905060ff8111156108cf576108ce610874565b5b92915050565b5f8160011c9050919050565b5f5f8291508390505b600185111561092a5780860481111561090657610905610874565b5b60018516156109155780820291505b8081029050610923856108d5565b94506108ea565b94509492505050565b5f8261094257600190506109fd565b8161094f575f90506109fd565b8160018114610965576002811461096f5761099e565b60019150506109fd565b60ff84111561098157610980610874565b5b8360020a91508482111561099857610997610874565b5b506109fd565b5060208310610133831016604e8410600b84101617156109d35782820a9050838111156109ce576109cd610874565b5b6109fd565b6109e084848460016108e1565b925090508184048111156109f7576109f6610874565b5b81810290505b9392505050565b5f610a0e826105e8565b9150610a19836107eb565b9250610a467fffffffffffffffffffffffffffffffffffffffffffffffffffffffffffffffff8484610933565b905092915050565b7f4e487b71000000000000000000000000000000000000000000000000000000005f52603260045260245ffd5b5f81519050919050565b5f82825260208201905092915050565b5f819050602082019050919050565b610aad816105af565b82525050565b610abc816105e8565b82525050565b606082015f820151610ad65f850182610aa4565b506020820151610ae96020850182610ab3565b506040820151610afc6040850182610ab3565b50505050565b5f610b0d8383610ac2565b60608301905092915050565b5f602082019050919050565b5f610b2f82610a7b565b610b398185610a85565b9350610b4483610a95565b805f5b83811015610b74578151610b5b8882610b02565b9750610b6683610b19565b925050600181019050610b47565b5085935050505092915050565b5f6020820190508181035f830152610b998184610b25565b905092915050565b60805160a05160c051614f9c610c265f395f8181611a4901528181612489015261279c01525f818161103101528181612381015281816123a201528181612446015261258101525f8181610a4a01528181610e8a0152818161175e01528181611c0b01528181611f42015281816122830152818161283901526129310152614f9c5ff3fe60806040526004361061023a575f3560e01c80638da5cb5b1161012d578063c272198d116100aa578063e30c39781161006e578063e30c39781461084f578063f018d7c014610879578063f2fde38b146108a1578063fc0c546a146108c9578063ff7bd03d146108f35761023a565b8063c272198d14610775578063c7c7f5b3146107b2578063ca5eb5e1146107e3578063d045a0dc1461080b578063d4243885146108275761023a565b8063b92d0eff116100f1578063b92d0eff1461068f578063b98bd070146106b9578063bb0b6a53146106e1578063bc70b3541461071d578063bd815db0146107595761023a565b80638da5cb5b146105a8578063963efcaa146105d25780639f68b964146105fc578063ab99095d14610626578063b731ea0a146106655761023a565b806352ae2879116101bb5780636fc1b31e1161017f5780636fc1b31e146104ee578063715018a61461051657806379ba50971461052c5780637d25a05e14610542578063857749b01461057e5761023a565b806352ae2879146103f857806353d4fe33146104225780635535d4611461044c5780635a0dfe4d146104885780635e280f11146104c45761023a565b806317442b701161020257806317442b70146103175780631f5e1334146103425780633400288b1461036c5780633b6f743b1461039457806346f943e9146103d05761023a565b80630d35b4151461023e578063111ecdad1461027c57806313137d65146102a6578063134d4f25146102c2578063156a0d0f146102ec575b5f5ffd5b348015610249575f5ffd5b50610264600480360381019061025f9190612da5565b61092f565b60405161027393929190612fdb565b60405180910390f35b348015610287575f5ffd5b50610290610a0c565b60405161029d9190613056565b60405180910390f35b6102c060048036038101906102bb919061314b565b610a31565b005b3480156102cd575f5ffd5b506102d6610b51565b6040516102e3919061321e565b60405180910390f35b3480156102f7575f5ffd5b50610300610b56565b60405161030e929190613293565b60405180910390f35b348015610322575f5ffd5b5061032b610b83565b6040516103399291906132ba565b60405180910390f35b34801561034d575f5ffd5b50610356610b90565b604051610363919061321e565b60405180910390f35b348015610377575f5ffd5b50610392600480360381019061038d919061331a565b610b95565b005b34801561039f575f5ffd5b506103ba60048036038101906103b5919061338d565b610bfc565b6040516103c79190613414565b60405180910390f35b3480156103db575f5ffd5b506103f660048036038101906103f19190613482565b610c64565b005b348015610403575f5ffd5b5061040c610d8d565b6040516104199190613056565b60405180910390f35b34801561042d575f5ffd5b50610436610d94565b6040516104439190613056565b60405180910390f35b348015610457575f5ffd5b50610472600480360381019061046d91906134f7565b610db9565b60405161047f9190613587565b60405180910390f35b348015610493575f5ffd5b506104ae60048036038101906104a9919061331a565b610e5f565b6040516104bb91906135b6565b60405180910390f35b3480156104cf575f5ffd5b506104d8610e88565b6040516104e5919061362a565b60405180910390f35b3480156104f9575f5ffd5b50610514600480360381019061050f9190613643565b610eac565b005b348015610521575f5ffd5b5061052a610f2e565b005b348015610537575f5ffd5b50610540610f68565b005b34801561054d575f5ffd5b506105686004803603810190610563919061331a565b610ff6565b604051610575919061366e565b60405180910390f35b348015610589575f5ffd5b50610592611000565b60405161059f91906136a2565b60405180910390f35b3480156105b3575f5ffd5b506105bc611008565b6040516105c99190613056565b60405180910390f35b3480156105dd575f5ffd5b506105e661102f565b6040516105f391906136ca565b60405180910390f35b348015610607575f5ffd5b50610610611053565b60405161061d91906135b6565b60405180910390f35b348015610631575f5ffd5b5061064c600480360381019061064791906136e3565b61105b565b60405161065c949392919061370e565b60405180910390f35b348015610670575f5ffd5b50610679611087565b6040516106869190613056565b60405180910390f35b34801561069a575f5ffd5b506106a36110ac565b6040516106b09190613056565b60405180910390f35b3480156106c4575f5ffd5b506106df60048036038101906106da91906137a6565b6110b3565b005b3480156106ec575f5ffd5b50610707600480360381019061070291906136e3565b611233565b6040516107149190613800565b60405180910390f35b348015610728575f5ffd5b50610743600480360381019061073e9190613819565b611248565b6040516107509190613587565b60405180910390f35b610773600480360381019061076e91906138df565b611408565b005b348015610780575f5ffd5b5061079b600480360381019061079691906136e3565b6115d7565b6040516107a992919061392a565b60405180910390f35b6107cc60048036038101906107c7919061396f565b611650565b6040516107da929190613a66565b60405180910390f35b3480156107ee575f5ffd5b5061080960048036038101906108049190613643565b611754565b005b6108256004803603810190610820919061314b565b6117e5565b005b348015610832575f5ffd5b5061084d60048036038101906108489190613643565b611862565b005b34801561085a575f5ffd5b506108636118e4565b6040516108709190613056565b60405180910390f35b348015610884575f5ffd5b5061089f600480360381019061089a9190613643565b61190c565b005b3480156108ac575f5ffd5b506108c760048036038101906108c29190613643565b61199a565b005b3480156108d4575f5ffd5b506108dd611a46565b6040516108ea9190613056565b60405180910390f35b3480156108fe575f5ffd5b5061091960048036038101906109149190613a8d565b611a6d565b60405161092691906135b6565b60405180910390f35b610937612ce2565b6060610941612cfa565b5f5f90505f67ffffffffffffffff8016905060405180604001604052808381526020018281525094505f67ffffffffffffffff81111561098457610983613ab8565b5b6040519080825280602002602001820160405280156109bd57816020015b6109aa612d12565b8152602001906001900390816109a25790505b5093505f5f6109e6886040013589606001358a5f0160208101906109e191906136e3565b611aaa565b915091506040518060400160405280838152602001828152509450505050509193909250565b60045f9054906101000a900473ffffffffffffffffffffffffffffffffffffffff1681565b3373ffffffffffffffffffffffffffffffffffffffff167f000000000000000000000000000000000000000000000000000000000000000073ffffffffffffffffffffffffffffffffffffffff1614610ac157336040517f91ac5e4f000000000000000000000000000000000000000000000000000000008152600401610ab89190613056565b60405180910390fd5b8660200135610ae0885f016020810190610adb91906136e3565b611b09565b14610b3957865f016020810190610af791906136e3565b87602001356040517fc26bebcc000000000000000000000000000000000000000000000000000000008152600401610b30929190613af4565b60405180910390fd5b610b4887878787878787611b7a565b50505050505050565b600281565b5f5f7f02e49c2c000000000000000000000000000000000000000000000000000000006001915091509091565b5f5f600180915091509091565b600181565b610b9d611d04565b8060015f8463ffffffff1663ffffffff1681526020019081526020015f20819055507f238399d427b947898edb290f5ff0f9109849b1c3ba196a42e35f00c50a54b98b8282604051610bf0929190613af4565b60405180910390a15050565b610c04612d2b565b5f610c2984604001358560600135865f016020810190610c2491906136e3565b611aaa565b9150505f5f610c388684611d8b565b91509150610c59865f016020810190610c5191906136e3565b838388611f38565b935050505092915050565b60075f9054906101000a900473ffffffffffffffffffffffffffffffffffffffff1673ffffffffffffffffffffffffffffffffffffffff163373ffffffffffffffffffffffffffffffffffffffff1614158015610cf45750610cc4611008565b73ffffffffffffffffffffffffffffffffffffffff163373ffffffffffffffffffffffffffffffffffffffff1614155b15610d2b576040517f07f07ab700000000000000000000000000000000000000000000000000000000815260040160405180910390fd5b610d898282808060200260200160405190810160405280939291908181526020015f905b82821015610d7f57848483905060600201803603810190610d709190613bf5565b81526020019060010190610d4f565b5050505050612019565b5050565b5f30905090565b60075f9054906101000a900473ffffffffffffffffffffffffffffffffffffffff1681565b6003602052815f5260405f20602052805f5260405f205f91509150508054610de090613c4d565b80601f0160208091040260200160405190810160405280929190818152602001828054610e0c90613c4d565b8015610e575780601f10610e2e57610100808354040283529160200191610e57565b820191905f5260205f20905b815481529060010190602001808311610e3a57829003601f168201915b505050505081565b5f8160015f8563ffffffff1663ffffffff1681526020019081526020015f205414905092915050565b7f000000000000000000000000000000000000000000000000000000000000000081565b610eb4611d04565b8060045f6101000a81548173ffffffffffffffffffffffffffffffffffffffff021916908373ffffffffffffffffffffffffffffffffffffffff1602179055507ff0be4f1e87349231d80c36b33f9e8639658eeaf474014dee15a3e6a4d441419781604051610f239190613056565b60405180910390a150565b610f36611d04565b6040517f185b73b100000000000000000000000000000000000000000000000000000000815260040160405180910390fd5b5f610f716120fb565b90508073ffffffffffffffffffffffffffffffffffffffff16610f926118e4565b73ffffffffffffffffffffffffffffffffffffffff1614610fea57806040517f118cdaa7000000000000000000000000000000000000000000000000000000008152600401610fe19190613056565b60405180910390fd5b610ff381612102565b50565b5f5f905092915050565b5f6006905090565b5f5f5f9054906101000a900473ffffffffffffffffffffffffffffffffffffffff16905090565b7f000000000000000000000000000000000000000000000000000000000000000081565b5f6001905090565b6006602052805f5260405f205f91509050805f0154908060010154908060020154908060030154905084565b60025f9054906101000a900473ffffffffffffffffffffffffffffffffffffffff1681565b5f30905090565b6110bb611d04565b5f5f90505b828290508110156111f5576111078383838181106110e1576110e0613c7d565b5b90506020028101906110f39190613cb6565b80604001906111029190613cdd565b612132565b82828281811061111a57611119613c7d565b5b905060200281019061112c9190613cb6565b806040019061113b9190613cdd565b60035f86868681811061115157611150613c7d565b5b90506020028101906111639190613cb6565b5f01602081019061117491906136e3565b63ffffffff1663ffffffff1681526020019081526020015f205f8686868181106111a1576111a0613c7d565b5b90506020028101906111b39190613cb6565b60200160208101906111c59190613d3f565b61ffff1661ffff1681526020019081526020015f2091826111e7929190613f0b565b5080806001019150506110c0565b507fbe4864a8e820971c0247f5992e2da559595f7bf076a21cb5928d443d2a13b6748282604051611227929190614212565b60405180910390a15050565b6001602052805f5260405f205f915090505481565b60605f60035f8763ffffffff1663ffffffff1681526020019081526020015f205f8661ffff1661ffff1681526020019081526020015f20805461128a90613c4d565b80601f01602080910402602001604051908101604052809291908181526020018280546112b690613c4d565b80156113015780601f106112d857610100808354040283529160200191611301565b820191905f5260205f20905b8154815290600101906020018083116112e457829003601f168201915b505050505090505f81510361135c5783838080601f0160208091040260200160405190810160405280939291908181526020018383808284375f81840152601f19601f82011690508083019250505050505050915050611400565b5f848490500361136f5780915050611400565b600284849050106113c1576113848484612132565b80848460029080926113989392919061423c565b6040516020016113aa939291906142d4565b604051602081830303815290604052915050611400565b83836040517f9a6d49cd0000000000000000000000000000000000000000000000000000000081526004016113f7929190614325565b60405180910390fd5b949350505050565b5f5f90505b8282905081101561152a573683838381811061142c5761142b613c7d565b5b905060200281019061143e9190614347565b9050611463815f015f01602081019061145791906136e3565b825f0160200135610e5f565b61146d575061151d565b3073ffffffffffffffffffffffffffffffffffffffff1663d045a0dc8260c00135835f018460a00135858061010001906114a79190613cdd565b8760e00160208101906114ba9190613643565b888061012001906114cb9190613cdd565b6040518963ffffffff1660e01b81526004016114ed979695949392919061441d565b5f604051808303818588803b158015611504575f5ffd5b505af1158015611516573d5f5f3e3d5ffd5b5050505050505b808060010191505061140d565b503373ffffffffffffffffffffffffffffffffffffffff16638e9e70996040518163ffffffff1660e01b81526004015f60405180830381865afa158015611573573d5f5f3e3d5ffd5b505050506040513d5f823e3d601f19601f8201168201806040525081019061159b9190614522565b6040517f8351eea70000000000000000000000000000000000000000000000000000000081526004016115ce9190613587565b60405180910390fd5b5f5f5f60065f8563ffffffff1663ffffffff1681526020019081526020015f206040518060800160405290815f820154815260200160018201548152602001600282015481526020016003820154815250509050611646815f01518260200151836040015184606001516121aa565b9250925050915091565b611658612d43565b611660612cfa565b5f5f61168687604001358860600135895f01602081019061168191906136e3565b61222d565b915091505f5f6116968984611d8b565b915091506116c8895f0160208101906116af91906136e3565b83838b8036038101906116c291906145b6565b8b612250565b955060405180604001604052808581526020018481525094503373ffffffffffffffffffffffffffffffffffffffff16865f01517f85496b760a4b7f8d66384b9df21b381f5d1b1e79f229a47aaf4c232edc2fe59a8b5f01602081019061172f91906136e3565b8787604051611740939291906145e1565b60405180910390a350505050935093915050565b61175c611d04565b7f000000000000000000000000000000000000000000000000000000000000000073ffffffffffffffffffffffffffffffffffffffff1663ca5eb5e1826040518263ffffffff1660e01b81526004016117b59190613056565b5f604051808303815f87803b1580156117cc575f5ffd5b505af11580156117de573d5f5f3e3d5ffd5b5050505050565b3073ffffffffffffffffffffffffffffffffffffffff163373ffffffffffffffffffffffffffffffffffffffff161461184a576040517f14d4a4e800000000000000000000000000000000000000000000000000000000815260040160405180910390fd5b61185987878787878787612366565b50505050505050565b61186a611d04565b8060025f6101000a81548173ffffffffffffffffffffffffffffffffffffffff021916908373ffffffffffffffffffffffffffffffffffffffff1602179055507fd48d879cef83a1c0bdda516f27b13ddb1b3f8bbac1c9e1511bb2a659c2427760816040516118d99190613056565b60405180910390a150565b5f60055f9054906101000a900473ffffffffffffffffffffffffffffffffffffffff16905090565b611914611d04565b8060075f6101000a81548173ffffffffffffffffffffffffffffffffffffffff021916908373ffffffffffffffffffffffffffffffffffffffff1602179055508073ffffffffffffffffffffffffffffffffffffffff167f3881bcae1b79d28312da310a8d211e93a9d6ea5a30e04f43bca54b0768e5b3e760405160405180910390a250565b6119a2611d04565b8060055f6101000a81548173ffffffffffffffffffffffffffffffffffffffff021916908373ffffffffffffffffffffffffffffffffffffffff1602179055508073ffffffffffffffffffffffffffffffffffffffff16611a01611008565b73ffffffffffffffffffffffffffffffffffffffff167f38d16b8cac22d99fc7c124b9cd0de2d3fa1faef420bfe791d8c362d765e2270060405160405180910390a350565b5f7f0000000000000000000000000000000000000000000000000000000000000000905090565b5f816020013560015f845f016020810190611a8891906136e3565b63ffffffff1663ffffffff1681526020019081526020015f2054149050919050565b5f5f611ab58561237e565b915081905083811015611b015780846040517f71c4efed000000000000000000000000000000000000000000000000000000008152600401611af892919061392a565b60405180910390fd5b935093915050565b5f5f60015f8463ffffffff1663ffffffff1681526020019081526020015f205490505f5f1b8103611b7157826040517ff6ff4fb7000000000000000000000000000000000000000000000000000000008152600401611b689190614616565b60405180910390fd5b80915050919050565b5f611b8d611b8887876123dd565b612407565b90505f611bbd82611ba6611ba18a8a612412565b612443565b8b5f016020810190611bb891906136e3565b612481565b9050611bc987876124d7565b15611c97575f611c078a6040016020810190611be5919061462f565b8b5f016020810190611bf791906136e3565b84611c028c8c6124ea565b61254c565b90507f000000000000000000000000000000000000000000000000000000000000000073ffffffffffffffffffffffffffffffffffffffff16637cb59012848b5f856040518563ffffffff1660e01b8152600401611c689493929190614693565b5f604051808303815f87803b158015611c7f575f5ffd5b505af1158015611c91573d5f5f3e3d5ffd5b50505050505b8173ffffffffffffffffffffffffffffffffffffffff16887fefed6d3500546b29533b128a29e3a94d70788727f0507505ac12eaf2e578fd9c8b5f016020810190611ce291906136e3565b84604051611cf19291906146dd565b60405180910390a3505050505050505050565b611d0c6120fb565b73ffffffffffffffffffffffffffffffffffffffff16611d2a611008565b73ffffffffffffffffffffffffffffffffffffffff1614611d8957611d4d6120fb565b6040517f118cdaa7000000000000000000000000000000000000000000000000000000008152600401611d809190613056565b60405180910390fd5b565b6060805f611df78560200135611da08661257e565b878060a00190611db09190613cdd565b8080601f0160208091040260200160405190810160405280939291908181526020018383808284375f81840152601f19601f820116905080830192505050505050506125b2565b80925081945050505f81611e0c576001611e0f565b60025b9050611e3c865f016020810190611e2691906136e3565b82888060800190611e379190613cdd565b611248565b92505f73ffffffffffffffffffffffffffffffffffffffff1660045f9054906101000a900473ffffffffffffffffffffffffffffffffffffffff1673ffffffffffffffffffffffffffffffffffffffff1614611f2f5760045f9054906101000a900473ffffffffffffffffffffffffffffffffffffffff1673ffffffffffffffffffffffffffffffffffffffff1663043a78eb85856040518363ffffffff1660e01b8152600401611eee929190614704565b602060405180830381865afa158015611f09573d5f5f3e3d5ffd5b505050506040513d601f19601f82011682018060405250810190611f2d919061474d565b505b50509250929050565b611f40612d2b565b7f000000000000000000000000000000000000000000000000000000000000000073ffffffffffffffffffffffffffffffffffffffff1663ddc28c586040518060a001604052808863ffffffff168152602001611f9c89611b09565b8152602001878152602001868152602001851515815250306040518363ffffffff1660e01b8152600401611fd1929190614839565b6040805180830381865afa158015611feb573d5f5f3e3d5ffd5b505050506040513d601f19601f8201168201806040525081019061200f91906148c8565b9050949350505050565b5f5f90505b81518110156120c0575f60065f84848151811061203e5761203d613c7d565b5b60200260200101515f015163ffffffff1663ffffffff1681526020019081526020015f20905082828151811061207757612076613c7d565b5b602002602001015160200151816002018190555082828151811061209e5761209d613c7d565b5b602002602001015160400151816003018190555050808060010191505061201e565b507fe888347665897e637801f36c5129f510657276178c89022bc5fa0246dbc19de1816040516120f091906149db565b60405180910390a150565b5f33905090565b60055f6101000a81549073ffffffffffffffffffffffffffffffffffffffff021916905561212f81612620565b50565b5f82825f906002926121469392919061423c565b906121519190614a26565b60f01c9050600361ffff168161ffff16146121a55782826040517f9a6d49cd00000000000000000000000000000000000000000000000000000000815260040161219c929190614325565b60405180910390fd5b505050565b5f5f5f85426121b99190614ab1565b90508381106121cd575f9250849150612223565b5f8482876121db9190614ae4565b6121e59190614b52565b9050808811156122005780886121fb9190614ab1565b612202565b5f5b93508386111561221d5783866122189190614ab1565b61221f565b5f5b9250505b5094509492505050565b5f5f61223983866126e1565b61224485858561277f565b91509150935093915050565b612258612d43565b5f612265845f01516127e9565b90505f84602001511115612281576122808460200151612836565b5b7f000000000000000000000000000000000000000000000000000000000000000073ffffffffffffffffffffffffffffffffffffffff16632637a450826040518060a001604052808b63ffffffff1681526020016122de8c611b09565b81526020018a81526020018981526020015f8960200151111515815250866040518463ffffffff1660e01b8152600401612319929190614839565b60806040518083038185885af1158015612335573d5f5f3e3d5ffd5b50505050506040513d601f19601f8201168201806040525081019061235a9190614c0b565b91505095945050505050565b61237587878787878787611b7a565b50505050505050565b5f7f00000000000000000000000000000000000000000000000000000000000000007f0000000000000000000000000000000000000000000000000000000000000000836123cc9190614b52565b6123d69190614ae4565b9050919050565b5f82825f90602060ff16926123f49392919061423c565b906123ff9190614c36565b905092915050565b5f815f1c9050919050565b5f8282602060ff1690602860ff169261242d9392919061423c565b906124389190614cbf565b60c01c905092915050565b5f7f00000000000000000000000000000000000000000000000000000000000000008267ffffffffffffffff1661247a9190614ae4565b9050919050565b5f6124cd84847f000000000000000000000000000000000000000000000000000000000000000073ffffffffffffffffffffffffffffffffffffffff1661297c9092919063ffffffff16565b8290509392505050565b5f602860ff168383905011905092915050565b60608282602860ff169080926125029392919061423c565b8080601f0160208091040260200160405190810160405280939291908181526020018383808284375f81840152601f19601f82011690508083019250505050505050905092915050565b6060848484846040516020016125659493929190614da5565b6040516020818303038152906040529050949350505050565b5f7f0000000000000000000000000000000000000000000000000000000000000000826125ab9190614b52565b9050919050565b60605f5f8351119050806125e75784846040516020016125d3929190614e0e565b604051602081830303815290604052612616565b84846125f2336129fb565b856040516020016126069493929190614e39565b6040516020818303038152906040525b9150935093915050565b5f5f5f9054906101000a900473ffffffffffffffffffffffffffffffffffffffff169050815f5f6101000a81548173ffffffffffffffffffffffffffffffffffffffff021916908373ffffffffffffffffffffffffffffffffffffffff1602179055508173ffffffffffffffffffffffffffffffffffffffff168173ffffffffffffffffffffffffffffffffffffffff167f8be0079c531659141344cd1fd0a4f28419497f9722a3daafe3b4186f6b6457e060405160405180910390a35050565b5f60065f8463ffffffff1663ffffffff1681526020019081526020015f2090505f5f61271e835f01548460010154856002015486600301546121aa565b915091508084111561275c576040517fa74c1c5f00000000000000000000000000000000000000000000000000000000815260040160405180910390fd5b83826127689190614e82565b835f01819055504283600101819055505050505050565b5f5f61278c858585611aaa565b80925081935050506127e13330847f000000000000000000000000000000000000000000000000000000000000000073ffffffffffffffffffffffffffffffffffffffff16612a1c909392919063ffffffff16565b935093915050565b5f81341461282e57346040517f9f70412000000000000000000000000000000000000000000000000000000000815260040161282591906136ca565b60405180910390fd5b819050919050565b5f7f000000000000000000000000000000000000000000000000000000000000000073ffffffffffffffffffffffffffffffffffffffff1663e4fe1d946040518163ffffffff1660e01b8152600401602060405180830381865afa1580156128a0573d5f5f3e3d5ffd5b505050506040513d601f19601f820116820180604052508101906128c49190614ec9565b90505f73ffffffffffffffffffffffffffffffffffffffff168173ffffffffffffffffffffffffffffffffffffffff160361292b576040517f5373352a00000000000000000000000000000000000000000000000000000000815260040160405180910390fd5b612978337f0000000000000000000000000000000000000000000000000000000000000000848473ffffffffffffffffffffffffffffffffffffffff16612a1c909392919063ffffffff16565b5050565b6129f6838473ffffffffffffffffffffffffffffffffffffffff1663a9059cbb85856040516024016129af929190614ef4565b604051602081830303815290604052915060e01b6020820180517bffffffffffffffffffffffffffffffffffffffffffffffffffffffff8381831617835250505050612a9e565b505050565b5f8173ffffffffffffffffffffffffffffffffffffffff165f1b9050919050565b612a98848573ffffffffffffffffffffffffffffffffffffffff166323b872dd868686604051602401612a5193929190614f1b565b604051602081830303815290604052915060e01b6020820180517bffffffffffffffffffffffffffffffffffffffffffffffffffffffff8381831617835250505050612a9e565b50505050565b5f612ac8828473ffffffffffffffffffffffffffffffffffffffff16612b3390919063ffffffff16565b90505f815114158015612aec575080806020019051810190612aea919061474d565b155b15612b2e57826040517f5274afe7000000000000000000000000000000000000000000000000000000008152600401612b259190613056565b60405180910390fd5b505050565b6060612b4083835f612b48565b905092915050565b606081471015612b8f57306040517fcd786059000000000000000000000000000000000000000000000000000000008152600401612b869190613056565b60405180910390fd5b5f5f8573ffffffffffffffffffffffffffffffffffffffff168486604051612bb79190614f50565b5f6040518083038185875af1925050503d805f8114612bf1576040519150601f19603f3d011682016040523d82523d5f602084013e612bf6565b606091505b5091509150612c06868383612c11565b925050509392505050565b606082612c2657612c2182612c9e565b612c96565b5f8251148015612c4c57505f8473ffffffffffffffffffffffffffffffffffffffff163b145b15612c8e57836040517f9996b315000000000000000000000000000000000000000000000000000000008152600401612c859190613056565b60405180910390fd5b819050612c97565b5b9392505050565b5f81511115612cb05780518082602001fd5b6040517f1425ea4200000000000000000000000000000000000000000000000000000000815260040160405180910390fd5b60405180604001604052805f81526020015f81525090565b60405180604001604052805f81526020015f81525090565b60405180604001604052805f8152602001606081525090565b60405180604001604052805f81526020015f81525090565b60405180606001604052805f81526020015f67ffffffffffffffff168152602001612d6c612d2b565b81525090565b5f604051905090565b5f5ffd5b5f5ffd5b5f5ffd5b5f60e08284031215612d9c57612d9b612d83565b5b81905092915050565b5f60208284031215612dba57612db9612d7b565b5b5f82013567ffffffffffffffff811115612dd757612dd6612d7f565b5b612de384828501612d87565b91505092915050565b5f819050919050565b612dfe81612dec565b82525050565b604082015f820151612e185f850182612df5565b506020820151612e2b6020850182612df5565b50505050565b5f81519050919050565b5f82825260208201905092915050565b5f819050602082019050919050565b5f819050919050565b612e6c81612e5a565b82525050565b5f81519050919050565b5f82825260208201905092915050565b8281835e5f83830152505050565b5f601f19601f8301169050919050565b5f612eb482612e72565b612ebe8185612e7c565b9350612ece818560208601612e8c565b612ed781612e9a565b840191505092915050565b5f604083015f830151612ef75f860182612e63565b5060208301518482036020860152612f0f8282612eaa565b9150508091505092915050565b5f612f278383612ee2565b905092915050565b5f602082019050919050565b5f612f4582612e31565b612f4f8185612e3b565b935083602082028501612f6185612e4b565b805f5b85811015612f9c5784840389528151612f7d8582612f1c565b9450612f8883612f2f565b925060208a01995050600181019050612f64565b50829750879550505050505092915050565b604082015f820151612fc25f850182612df5565b506020820151612fd56020850182612df5565b50505050565b5f60a082019050612fee5f830186612e04565b81810360408301526130008185612f3b565b905061300f6060830184612fae565b949350505050565b5f73ffffffffffffffffffffffffffffffffffffffff82169050919050565b5f61304082613017565b9050919050565b61305081613036565b82525050565b5f6020820190506130695f830184613047565b92915050565b5f6060828403121561308457613083612d83565b5b81905092915050565b5f819050919050565b61309f8161308d565b81146130a9575f5ffd5b50565b5f813590506130ba81613096565b92915050565b5f5ffd5b5f5ffd5b5f5ffd5b5f5f83601f8401126130e1576130e06130c0565b5b8235905067ffffffffffffffff8111156130fe576130fd6130c4565b5b60208301915083600182028301111561311a576131196130c8565b5b9250929050565b61312a81613036565b8114613134575f5ffd5b50565b5f8135905061314581613121565b92915050565b5f5f5f5f5f5f5f60e0888a03121561316657613165612d7b565b5b5f6131738a828b0161306f565b97505060606131848a828b016130ac565b965050608088013567ffffffffffffffff8111156131a5576131a4612d7f565b5b6131b18a828b016130cc565b955095505060a06131c48a828b01613137565b93505060c088013567ffffffffffffffff8111156131e5576131e4612d7f565b5b6131f18a828b016130cc565b925092505092959891949750929550565b5f61ffff82169050919050565b61321881613202565b82525050565b5f6020820190506132315f83018461320f565b92915050565b5f7fffffffff0000000000000000000000000000000000000000000000000000000082169050919050565b61326b81613237565b82525050565b5f67ffffffffffffffff82169050919050565b61328d81613271565b82525050565b5f6040820190506132a65f830185613262565b6132b36020830184613284565b9392505050565b5f6040820190506132cd5f830185613284565b6132da6020830184613284565b9392505050565b5f63ffffffff82169050919050565b6132f9816132e1565b8114613303575f5ffd5b50565b5f81359050613314816132f0565b92915050565b5f5f604083850312156133305761332f612d7b565b5b5f61333d85828601613306565b925050602061334e858286016130ac565b9150509250929050565b5f8115159050919050565b61336c81613358565b8114613376575f5ffd5b50565b5f8135905061338781613363565b92915050565b5f5f604083850312156133a3576133a2612d7b565b5b5f83013567ffffffffffffffff8111156133c0576133bf612d7f565b5b6133cc85828601612d87565b92505060206133dd85828601613379565b9150509250929050565b604082015f8201516133fb5f850182612df5565b50602082015161340e6020850182612df5565b50505050565b5f6040820190506134275f8301846133e7565b92915050565b5f5f83601f840112613442576134416130c0565b5b8235905067ffffffffffffffff81111561345f5761345e6130c4565b5b60208301915083606082028301111561347b5761347a6130c8565b5b9250929050565b5f5f6020838503121561349857613497612d7b565b5b5f83013567ffffffffffffffff8111156134b5576134b4612d7f565b5b6134c18582860161342d565b92509250509250929050565b6134d681613202565b81146134e0575f5ffd5b50565b5f813590506134f1816134cd565b92915050565b5f5f6040838503121561350d5761350c612d7b565b5b5f61351a85828601613306565b925050602061352b858286016134e3565b9150509250929050565b5f81519050919050565b5f82825260208201905092915050565b5f61355982613535565b613563818561353f565b9350613573818560208601612e8c565b61357c81612e9a565b840191505092915050565b5f6020820190508181035f83015261359f818461354f565b905092915050565b6135b081613358565b82525050565b5f6020820190506135c95f8301846135a7565b92915050565b5f819050919050565b5f6135f26135ed6135e884613017565b6135cf565b613017565b9050919050565b5f613603826135d8565b9050919050565b5f613614826135f9565b9050919050565b6136248161360a565b82525050565b5f60208201905061363d5f83018461361b565b92915050565b5f6020828403121561365857613657612d7b565b5b5f61366584828501613137565b91505092915050565b5f6020820190506136815f830184613284565b92915050565b5f60ff82169050919050565b61369c81613687565b82525050565b5f6020820190506136b55f830184613693565b92915050565b6136c481612dec565b82525050565b5f6020820190506136dd5f8301846136bb565b92915050565b5f602082840312156136f8576136f7612d7b565b5b5f61370584828501613306565b91505092915050565b5f6080820190506137215f8301876136bb565b61372e60208301866136bb565b61373b60408301856136bb565b61374860608301846136bb565b95945050505050565b5f5f83601f840112613766576137656130c0565b5b8235905067ffffffffffffffff811115613783576137826130c4565b5b60208301915083602082028301111561379f5761379e6130c8565b5b9250929050565b5f5f602083850312156137bc576137bb612d7b565b5b5f83013567ffffffffffffffff8111156137d9576137d8612d7f565b5b6137e585828601613751565b92509250509250929050565b6137fa8161308d565b82525050565b5f6020820190506138135f8301846137f1565b92915050565b5f5f5f5f6060858703121561383157613830612d7b565b5b5f61383e87828801613306565b945050602061384f878288016134e3565b935050604085013567ffffffffffffffff8111156138705761386f612d7f565b5b61387c878288016130cc565b925092505092959194509250565b5f5f83601f84011261389f5761389e6130c0565b5b8235905067ffffffffffffffff8111156138bc576138bb6130c4565b5b6020830191508360208202830111156138d8576138d76130c8565b5b9250929050565b5f5f602083850312156138f5576138f4612d7b565b5b5f83013567ffffffffffffffff81111561391257613911612d7f565b5b61391e8582860161388a565b92509250509250929050565b5f60408201905061393d5f8301856136bb565b61394a60208301846136bb565b9392505050565b5f6040828403121561396657613965612d83565b5b81905092915050565b5f5f5f6080848603121561398657613985612d7b565b5b5f84013567ffffffffffffffff8111156139a3576139a2612d7f565b5b6139af86828701612d87565b93505060206139c086828701613951565b92505060606139d186828701613137565b9150509250925092565b6139e48161308d565b82525050565b6139f381613271565b82525050565b604082015f820151613a0d5f850182612df5565b506020820151613a206020850182612df5565b50505050565b608082015f820151613a3a5f8501826139db565b506020820151613a4d60208501826139ea565b506040820151613a6060408501826139f9565b50505050565b5f60c082019050613a795f830185613a26565b613a866080830184612fae565b9392505050565b5f60608284031215613aa257613aa1612d7b565b5b5f613aaf8482850161306f565b91505092915050565b7f4e487b71000000000000000000000000000000000000000000000000000000005f52604160045260245ffd5b613aee816132e1565b82525050565b5f604082019050613b075f830185613ae5565b613b1460208301846137f1565b9392505050565b5f5ffd5b613b2882612e9a565b810181811067ffffffffffffffff82111715613b4757613b46613ab8565b5b80604052505050565b5f613b59612d72565b9050613b658282613b1f565b919050565b613b7381612dec565b8114613b7d575f5ffd5b50565b5f81359050613b8e81613b6a565b92915050565b5f60608284031215613ba957613ba8613b1b565b5b613bb36060613b50565b90505f613bc284828501613306565b5f830152506020613bd584828501613b80565b6020830152506040613be984828501613b80565b60408301525092915050565b5f60608284031215613c0a57613c09612d7b565b5b5f613c1784828501613b94565b91505092915050565b7f4e487b71000000000000000000000000000000000000000000000000000000005f52602260045260245ffd5b5f6002820490506001821680613c6457607f821691505b602082108103613c7757613c76613c20565b5b50919050565b7f4e487b71000000000000000000000000000000000000000000000000000000005f52603260045260245ffd5b5f5ffd5b5f5ffd5b5f5ffd5b5f82356001606003833603038112613cd157613cd0613caa565b5b80830191505092915050565b5f5f83356001602003843603038112613cf957613cf8613caa565b5b80840192508235915067ffffffffffffffff821115613d1b57613d1a613cae565b5b602083019250600182023603831315613d3757613d36613cb2565b5b509250929050565b5f60208284031215613d5457613d53612d7b565b5b5f613d61848285016134e3565b91505092915050565b5f82905092915050565b5f819050815f5260205f209050919050565b5f6020601f8301049050919050565b5f82821b905092915050565b5f60088302613dd07fffffffffffffffffffffffffffffffffffffffffffffffffffffffffffffffff82613d95565b613dda8683613d95565b95508019841693508086168417925050509392505050565b5f613e0c613e07613e0284612dec565b6135cf565b612dec565b9050919050565b5f819050919050565b613e2583613df2565b613e39613e3182613e13565b848454613da1565b825550505050565b5f5f905090565b613e50613e41565b613e5b818484613e1c565b505050565b5b81811015613e7e57613e735f82613e48565b600181019050613e61565b5050565b601f821115613ec357613e9481613d74565b613e9d84613d86565b81016020851015613eac578190505b613ec0613eb885613d86565b830182613e60565b50505b505050565b5f82821c905092915050565b5f613ee35f1984600802613ec8565b1980831691505092915050565b5f613efb8383613ed4565b9150826002028217905092915050565b613f158383613d6a565b67ffffffffffffffff811115613f2e57613f2d613ab8565b5b613f388254613c4d565b613f43828285613e82565b5f601f831160018114613f70575f8415613f5e578287013590505b613f688582613ef0565b865550613fcf565b601f198416613f7e86613d74565b5f5b82811015613fa557848901358255600182019150602085019450602081019050613f80565b86831015613fc25784890135613fbe601f891682613ed4565b8355505b6001600288020188555050505b50505050505050565b5f82825260208201905092915050565b5f819050919050565b5f613fff6020840184613306565b905092915050565b614010816132e1565b82525050565b5f61402460208401846134e3565b905092915050565b61403581613202565b82525050565b5f5ffd5b5f5ffd5b5f5ffd5b5f5f8335600160200384360303811261406357614062614043565b5b83810192508235915060208301925067ffffffffffffffff82111561408b5761408a61403b565b5b6001820236038313156140a1576140a061403f565b5b509250929050565b5f82825260208201905092915050565b828183375f83830152505050565b5f6140d283856140a9565b93506140df8385846140b9565b6140e883612e9a565b840190509392505050565b5f606083016141045f840184613ff1565b6141105f860182614007565b5061411e6020840184614016565b61412b602086018261402c565b506141396040840184614047565b858303604087015261414c8382846140c7565b925050508091505092915050565b5f61416583836140f3565b905092915050565b5f8235600160600383360303811261418857614187614043565b5b82810191505092915050565b5f602082019050919050565b5f6141ab8385613fd8565b9350836020840285016141bd84613fe8565b805f5b878110156142005784840389526141d7828461416d565b6141e1858261415a565b94506141ec83614194565b925060208a019950506001810190506141c0565b50829750879450505050509392505050565b5f6020820190508181035f83015261422b8184866141a0565b90509392505050565b5f5ffd5b5f5ffd5b5f5f8585111561424f5761424e614234565b5b838611156142605761425f614238565b5b6001850283019150848603905094509492505050565b5f81905092915050565b5f61428a82613535565b6142948185614276565b93506142a4818560208601612e8c565b80840191505092915050565b5f6142bb8385614276565b93506142c88385846140b9565b82840190509392505050565b5f6142df8286614280565b91506142ec8284866142b0565b9150819050949350505050565b5f614304838561353f565b93506143118385846140b9565b61431a83612e9a565b840190509392505050565b5f6020820190508181035f83015261433e8184866142f9565b90509392505050565b5f823560016101400383360303811261436357614362613caa565b5b80830191505092915050565b5f61437d60208401846130ac565b905092915050565b61438e81613271565b8114614398575f5ffd5b50565b5f813590506143a981614385565b92915050565b5f6143bd602084018461439b565b905092915050565b606082016143d55f830183613ff1565b6143e15f850182614007565b506143ef602083018361436f565b6143fc60208501826139db565b5061440a60408301836143af565b61441760408501826139ea565b50505050565b5f60e0820190506144305f83018a6143c5565b61443d60608301896137f1565b81810360808301526144508187896142f9565b905061445f60a0830186613047565b81810360c08301526144728184866142f9565b905098975050505050505050565b5f5ffd5b5f67ffffffffffffffff82111561449e5761449d613ab8565b5b6144a782612e9a565b9050602081019050919050565b5f6144c66144c184614484565b613b50565b9050828152602081018484840111156144e2576144e1614480565b5b6144ed848285612e8c565b509392505050565b5f82601f830112614509576145086130c0565b5b81516145198482602086016144b4565b91505092915050565b5f6020828403121561453757614536612d7b565b5b5f82015167ffffffffffffffff81111561455457614553612d7f565b5b614560848285016144f5565b91505092915050565b5f6040828403121561457e5761457d613b1b565b5b6145886040613b50565b90505f61459784828501613b80565b5f8301525060206145aa84828501613b80565b60208301525092915050565b5f604082840312156145cb576145ca612d7b565b5b5f6145d884828501614569565b91505092915050565b5f6060820190506145f45f830186613ae5565b61460160208301856136bb565b61460e60408301846136bb565b949350505050565b5f6020820190506146295f830184613ae5565b92915050565b5f6020828403121561464457614643612d7b565b5b5f6146518482850161439b565b91505092915050565b5f819050919050565b5f61467d6146786146738461465a565b6135cf565b613202565b9050919050565b61468d81614663565b82525050565b5f6080820190506146a65f830187613047565b6146b360208301866137f1565b6146c06040830185614684565b81810360608301526146d2818461354f565b905095945050505050565b5f6040820190506146f05f830185613ae5565b6146fd60208301846136bb565b9392505050565b5f6040820190508181035f83015261471c818561354f565b90508181036020830152614730818461354f565b90509392505050565b5f8151905061474781613363565b92915050565b5f6020828403121561476257614761612d7b565b5b5f61476f84828501614739565b91505092915050565b5f61478282613535565b61478c81856140a9565b935061479c818560208601612e8c565b6147a581612e9a565b840191505092915050565b6147b981613358565b82525050565b5f60a083015f8301516147d45f860182614007565b5060208301516147e760208601826139db565b50604083015184820360408601526147ff8282614778565b915050606083015184820360608601526148198282614778565b915050608083015161482e60808601826147b0565b508091505092915050565b5f6040820190508181035f83015261485181856147bf565b90506148606020830184613047565b9392505050565b5f8151905061487581613b6a565b92915050565b5f604082840312156148905761488f613b1b565b5b61489a6040613b50565b90505f6148a984828501614867565b5f8301525060206148bc84828501614867565b60208301525092915050565b5f604082840312156148dd576148dc612d7b565b5b5f6148ea8482850161487b565b91505092915050565b5f81519050919050565b5f82825260208201905092915050565b5f819050602082019050919050565b606082015f8201516149305f850182614007565b5060208201516149436020850182612df5565b5060408201516149566040850182612df5565b50505050565b5f614967838361491c565b60608301905092915050565b5f602082019050919050565b5f614989826148f3565b61499381856148fd565b935061499e8361490d565b805f5b838110156149ce5781516149b5888261495c565b97506149c083614973565b9250506001810190506149a1565b5085935050505092915050565b5f6020820190508181035f8301526149f3818461497f565b905092915050565b5f7fffff00000000000000000000000000000000000000000000000000000000000082169050919050565b5f614a318383613d6a565b82614a3c81356149fb565b92506002821015614a7c57614a777fffff00000000000000000000000000000000000000000000000000000000000083600203600802613d95565b831692505b505092915050565b7f4e487b71000000000000000000000000000000000000000000000000000000005f52601160045260245ffd5b5f614abb82612dec565b9150614ac683612dec565b9250828203905081811115614ade57614add614a84565b5b92915050565b5f614aee82612dec565b9150614af983612dec565b9250828202614b0781612dec565b91508282048414831517614b1e57614b1d614a84565b5b5092915050565b7f4e487b71000000000000000000000000000000000000000000000000000000005f52601260045260245ffd5b5f614b5c82612dec565b9150614b6783612dec565b925082614b7757614b76614b25565b5b828204905092915050565b5f81519050614b9081613096565b92915050565b5f81519050614ba481614385565b92915050565b5f60808284031215614bbf57614bbe613b1b565b5b614bc96060613b50565b90505f614bd884828501614b82565b5f830152506020614beb84828501614b96565b6020830152506040614bff8482850161487b565b60408301525092915050565b5f60808284031215614c2057614c1f612d7b565b5b5f614c2d84828501614baa565b91505092915050565b5f614c418383613d6a565b82614c4c813561308d565b92506020821015614c8c57614c877fffffffffffffffffffffffffffffffffffffffffffffffffffffffffffffffff83602003600802613d95565b831692505b505092915050565b5f7fffffffffffffffff00000000000000000000000000000000000000000000000082169050919050565b5f614cca8383613d6a565b82614cd58135614c94565b92506008821015614d1557614d107fffffffffffffffff00000000000000000000000000000000000000000000000083600803600802613d95565b831692505b505092915050565b5f8160c01b9050919050565b5f614d3382614d1d565b9050919050565b614d4b614d4682613271565b614d29565b82525050565b5f8160e01b9050919050565b5f614d6782614d51565b9050919050565b614d7f614d7a826132e1565b614d5d565b82525050565b5f819050919050565b614d9f614d9a82612dec565b614d85565b82525050565b5f614db08287614d3a565b600882019150614dc08286614d6e565b600482019150614dd08285614d8e565b602082019150614de08284614280565b915081905095945050505050565b5f819050919050565b614e08614e038261308d565b614dee565b82525050565b5f614e198285614df7565b602082019150614e298284614d3a565b6008820191508190509392505050565b5f614e448287614df7565b602082019150614e548286614d3a565b600882019150614e648285614df7565b602082019150614e748284614280565b915081905095945050505050565b5f614e8c82612dec565b9150614e9783612dec565b9250828201905080821115614eaf57614eae614a84565b5b92915050565b5f81519050614ec381613121565b92915050565b5f60208284031215614ede57614edd612d7b565b5b5f614eeb84828501614eb5565b91505092915050565b5f604082019050614f075f830185613047565b614f1460208301846136bb565b9392505050565b5f606082019050614f2e5f830186613047565b614f3b6020830185613047565b614f4860408301846136bb565b949350505050565b5f614f5b8284614280565b91508190509291505056fea26469706673582212204f9aecad35df3b23fcecd266b51d67eb837ee7fc79b5e1a748306f4aa75824c064736f6c634300081e0033","linkReferences":{}},"methodIdentifiers":{"SEND()":"1f5e1334","SEND_AND_CALL()":"134d4f25","acceptOwnership()":"79ba5097","allowInitializePath((uint32,bytes32,uint64))":"ff7bd03d","approvalRequired()":"9f68b964","combineOptions(uint32,uint16,bytes)":"bc70b354","composeMsgSender()":"b92d0eff","decimalConversionRate()":"963efcaa","endpoint()":"5e280f11","enforcedOptions(uint32,uint16)":"5535d461","getAmountCanBeSent(uint32)":"c272198d","isPeer(uint32,bytes32)":"5a0dfe4d","lzReceive((uint32,bytes32,uint64),bytes32,bytes,address,bytes)":"13137d65","lzReceiveAndRevert(((uint32,bytes32,uint64),uint32,address,bytes32,uint256,address,bytes,bytes)[])":"bd815db0","lzReceiveSimulate((uint32,bytes32,uint64),bytes32,bytes,address,bytes)":"d045a0dc","msgInspector()":"111ecdad","nextNonce(uint32,bytes32)":"7d25a05e","oApp()":"52ae2879","oAppVersion()":"17442b70","oftVersion()":"156a0d0f","owner()":"8da5cb5b","peers(uint32)":"bb0b6a53","pendingOwner()":"e30c3978","preCrime()":"b731ea0a","quoteOFT((uint32,bytes32,uint256,uint256,bytes,bytes,bytes))":"0d35b415","quoteSend((uint32,bytes32,uint256,uint256,bytes,bytes,bytes),bool)":"3b6f743b","rateLimiter()":"53d4fe33","rateLimits(uint32)":"ab99095d","renounceOwnership()":"715018a6","send((uint32,bytes32,uint256,uint256,bytes,bytes,bytes),(uint256,uint256),address)":"c7c7f5b3","setDelegate(address)":"ca5eb5e1","setEnforcedOptions((uint32,uint16,bytes)[])":"b98bd070","setMsgInspector(address)":"6fc1b31e","setPeer(uint32,bytes32)":"3400288b","setPreCrime(address)":"d4243885","setRateLimiter(address)":"f018d7c0","setRateLimits((uint32,uint256,uint256)[])":"46f943e9","sharedDecimals()":"857749b0","token()":"fc0c546a","transferOwnership(address)":"f2fde38b"},"id":135}