{"abi":[{"type":"constructor","inputs":[{"name":"_usde","type":"address","internalType":"contract IUSDe"},{"name":"_weth","type":"address","internalType":"contract IWETH9"},{"name":"_assets","type":"address[]","internalType":"address[]"},{"name":"_custodians","type":"address[]","internalType":"address[]"},{"name":"_admin","type":"address","internalType":"address"},{"name":"_maxMintPerBlock","type":"uint256","internalType":"uint256"},{"name":"_maxRedeemPerBlock","type":"uint256","internalType":"uint256"}],"stateMutability":"nonpayable"},{"type":"receive","stateMutability":"payable"},{"type":"function","name":"DEFAULT_ADMIN_ROLE","inputs":[],"outputs":[{"name":"","type":"bytes32","internalType":"bytes32"}],"stateMutability":"view"},{"type":"function","name":"acceptAdmin","inputs":[],"outputs":[],"stateMutability":"nonpayable"},{"type":"function","name":"addCustodianAddress","inputs":[{"name":"custodian","type":"address","internalType":"address"}],"outputs":[],"stateMutability":"nonpayable"},{"type":"function","name":"addSupportedAsset","inputs":[{"name":"asset","type":"address","internalType":"address"}],"outputs":[],"stateMutability":"nonpayable"},{"type":"function","name":"confirmDelegatedSigner","inputs":[{"name":"_delegatedBy","type":"address","internalType":"address"}],"outputs":[],"stateMutability":"nonpayable"},{"type":"function","name":"delegatedSigner","inputs":[{"name":"","type":"address","internalType":"address"},{"name":"","type":"address","internalType":"address"}],"outputs":[{"name":"","type":"uint8","internalType":"enum IEthenaMinting.DelegatedSignerStatus"}],"stateMutability":"view"},{"type":"function","name":"disableMintRedeem","inputs":[],"outputs":[],"stateMutability":"nonpayable"},{"type":"function","name":"encodeOrder","inputs":[{"name":"order","type":"tuple","internalType":"struct IEthenaMinting.Order","components":[{"name":"order_type","type":"uint8","internalType":"enum IEthenaMinting.OrderType"},{"name":"expiry","type":"uint256","internalType":"uint256"},{"name":"nonce","type":"uint256","internalType":"uint256"},{"name":"benefactor","type":"address","internalType":"address"},{"name":"beneficiary","type":"address","internalType":"address"},{"name":"collateral_asset","type":"address","internalType":"address"},{"name":"collateral_amount","type":"uint256","internalType":"uint256"},{"name":"usde_amount","type":"uint256","internalType":"uint256"}]}],"outputs":[{"name":"","type":"bytes","internalType":"bytes"}],"stateMutability":"pure"},{"type":"function","name":"getDomainSeparator","inputs":[],"outputs":[{"name":"","type":"bytes32","internalType":"bytes32"}],"stateMutability":"view"},{"type":"function","name":"getRoleAdmin","inputs":[{"name":"role","type":"bytes32","internalType":"bytes32"}],"outputs":[{"name":"","type":"bytes32","internalType":"bytes32"}],"stateMutability":"view"},{"type":"function","name":"grantRole","inputs":[{"name":"role","type":"bytes32","internalType":"bytes32"},{"name":"account","type":"address","internalType":"address"}],"outputs":[],"stateMutability":"nonpayable"},{"type":"function","name":"hasRole","inputs":[{"name":"role","type":"bytes32","internalType":"bytes32"},{"name":"account","type":"address","internalType":"address"}],"outputs":[{"name":"","type":"bool","internalType":"bool"}],"stateMutability":"view"},{"type":"function","name":"hashOrder","inputs":[{"name":"order","type":"tuple","internalType":"struct IEthenaMinting.Order","components":[{"name":"order_type","type":"uint8","internalType":"enum IEthenaMinting.OrderType"},{"name":"expiry","type":"uint256","internalType":"uint256"},{"name":"nonce","type":"uint256","internalType":"uint256"},{"name":"benefactor","type":"address","internalType":"address"},{"name":"beneficiary","type":"address","internalType":"address"},{"name":"collateral_asset","type":"address","internalType":"address"},{"name":"collateral_amount","type":"uint256","internalType":"uint256"},{"name":"usde_amount","type":"uint256","internalType":"uint256"}]}],"outputs":[{"name":"","type":"bytes32","internalType":"bytes32"}],"stateMutability":"view"},{"type":"function","name":"isSupportedAsset","inputs":[{"name":"asset","type":"address","internalType":"address"}],"outputs":[{"name":"","type":"bool","internalType":"bool"}],"stateMutability":"view"},{"type":"function","name":"maxMintPerBlock","inputs":[],"outputs":[{"name":"","type":"uint256","internalType":"uint256"}],"stateMutability":"view"},{"type":"function","name":"maxRedeemPerBlock","inputs":[],"outputs":[{"name":"","type":"uint256","internalType":"uint256"}],"stateMutability":"view"},{"type":"function","name":"mint","inputs":[{"name":"order","type":"tuple","internalType":"struct IEthenaMinting.Order","components":[{"name":"order_type","type":"uint8","internalType":"enum IEthenaMinting.OrderType"},{"name":"expiry","type":"uint256","internalType":"uint256"},{"name":"nonce","type":"uint256","internalType":"uint256"},{"name":"benefactor","type":"address","internalType":"address"},{"name":"beneficiary","type":"address","internalType":"address"},{"name":"collateral_asset","type":"address","internalType":"address"},{"name":"collateral_amount","type":"uint256","internalType":"uint256"},{"name":"usde_amount","type":"uint256","internalType":"uint256"}]},{"name":"route","type":"tuple","internalType":"struct IEthenaMinting.Route","components":[{"name":"addresses","type":"address[]","internalType":"address[]"},{"name":"ratios","type":"uint256[]","internalType":"uint256[]"}]},{"name":"signature","type":"tuple","internalType":"struct IEthenaMinting.Signature","components":[{"name":"signature_type","type":"uint8","internalType":"enum IEthenaMinting.SignatureType"},{"name":"signature_bytes","type":"bytes","internalType":"bytes"}]}],"outputs":[],"stateMutability":"nonpayable"},{"type":"function","name":"mintWETH","inputs":[{"name":"order","type":"tuple","internalType":"struct IEthenaMinting.Order","components":[{"name":"order_type","type":"uint8","internalType":"enum IEthenaMinting.OrderType"},{"name":"expiry","type":"uint256","internalType":"uint256"},{"name":"nonce","type":"uint256","internalType":"uint256"},{"name":"benefactor","type":"address","internalType":"address"},{"name":"beneficiary","type":"address","internalType":"address"},{"name":"collateral_asset","type":"address","internalType":"address"},{"name":"collateral_amount","type":"uint256","internalType":"uint256"},{"name":"usde_amount","type":"uint256","internalType":"uint256"}]},{"name":"route","type":"tuple","internalType":"struct IEthenaMinting.Route","components":[{"name":"addresses","type":"address[]","internalType":"address[]"},{"name":"ratios","type":"uint256[]","internalType":"uint256[]"}]},{"name":"signature","type":"tuple","internalType":"struct IEthenaMinting.Signature","components":[{"name":"signature_type","type":"uint8","internalType":"enum IEthenaMinting.SignatureType"},{"name":"signature_bytes","type":"bytes","internalType":"bytes"}]}],"outputs":[],"stateMutability":"nonpayable"},{"type":"function","name":"mintedPerBlock","inputs":[{"name":"","type":"uint256","internalType":"uint256"}],"outputs":[{"name":"","type":"uint256","internalType":"uint256"}],"stateMutability":"view"},{"type":"function","name":"owner","inputs":[],"outputs":[{"name":"","type":"address","internalType":"address"}],"stateMutability":"view"},{"type":"function","name":"redeem","inputs":[{"name":"order","type":"tuple","internalType":"struct IEthenaMinting.Order","components":[{"name":"order_type","type":"uint8","internalType":"enum IEthenaMinting.OrderType"},{"name":"expiry","type":"uint256","internalType":"uint256"},{"name":"nonce","type":"uint256","internalType":"uint256"},{"name":"benefactor","type":"address","internalType":"address"},{"name":"beneficiary","type":"address","internalType":"address"},{"name":"collateral_asset","type":"address","internalType":"address"},{"name":"collateral_amount","type":"uint256","internalType":"uint256"},{"name":"usde_amount","type":"uint256","internalType":"uint256"}]},{"name":"signature","type":"tuple","internalType":"struct IEthenaMinting.Signature","components":[{"name":"signature_type","type":"uint8","internalType":"enum IEthenaMinting.SignatureType"},{"name":"signature_bytes","type":"bytes","internalType":"bytes"}]}],"outputs":[],"stateMutability":"nonpayable"},{"type":"function","name":"redeemedPerBlock","inputs":[{"name":"","type":"uint256","internalType":"uint256"}],"outputs":[{"name":"","type":"uint256","internalType":"uint256"}],"stateMutability":"view"},{"type":"function","name":"removeCollateralManagerRole","inputs":[{"name":"collateralManager","type":"address","internalType":"address"}],"outputs":[],"stateMutability":"nonpayable"},{"type":"function","name":"removeCustodianAddress","inputs":[{"name":"custodian","type":"address","internalType":"address"}],"outputs":[],"stateMutability":"nonpayable"},{"type":"function","name":"removeDelegatedSigner","inputs":[{"name":"_removedSigner","type":"address","internalType":"address"}],"outputs":[],"stateMutability":"nonpayable"},{"type":"function","name":"removeMinterRole","inputs":[{"name":"minter","type":"address","internalType":"address"}],"outputs":[],"stateMutability":"nonpayable"},{"type":"function","name":"removeRedeemerRole","inputs":[{"name":"redeemer","type":"address","internalType":"address"}],"outputs":[],"stateMutability":"nonpayable"},{"type":"function","name":"removeSupportedAsset","inputs":[{"name":"asset","type":"address","internalType":"address"}],"outputs":[],"stateMutability":"nonpayable"},{"type":"function","name":"renounceRole","inputs":[{"name":"role","type":"bytes32","internalType":"bytes32"},{"name":"account","type":"address","internalType":"address"}],"outputs":[],"stateMutability":"nonpayable"},{"type":"function","name":"revokeRole","inputs":[{"name":"role","type":"bytes32","internalType":"bytes32"},{"name":"account","type":"address","internalType":"address"}],"outputs":[],"stateMutability":"nonpayable"},{"type":"function","name":"setDelegatedSigner","inputs":[{"name":"_delegateTo","type":"address","internalType":"address"}],"outputs":[],"stateMutability":"nonpayable"},{"type":"function","name":"setMaxMintPerBlock","inputs":[{"name":"_maxMintPerBlock","type":"uint256","internalType":"uint256"}],"outputs":[],"stateMutability":"nonpayable"},{"type":"function","name":"setMaxRedeemPerBlock","inputs":[{"name":"_maxRedeemPerBlock","type":"uint256","internalType":"uint256"}],"outputs":[],"stateMutability":"nonpayable"},{"type":"function","name":"supportsInterface","inputs":[{"name":"interfaceId","type":"bytes4","internalType":"bytes4"}],"outputs":[{"name":"","type":"bool","internalType":"bool"}],"stateMutability":"view"},{"type":"function","name":"transferAdmin","inputs":[{"name":"newAdmin","type":"address","internalType":"address"}],"outputs":[],"stateMutability":"nonpayable"},{"type":"function","name":"transferToCustody","inputs":[{"name":"wallet","type":"address","internalType":"address"},{"name":"asset","type":"address","internalType":"address"},{"name":"amount","type":"uint256","internalType":"uint256"}],"outputs":[],"stateMutability":"nonpayable"},{"type":"function","name":"usde","inputs":[],"outputs":[{"name":"","type":"address","internalType":"contract IUSDe"}],"stateMutability":"view"},{"type":"function","name":"verifyNonce","inputs":[{"name":"sender","type":"address","internalType":"address"},{"name":"nonce","type":"uint256","internalType":"uint256"}],"outputs":[{"name":"","type":"uint256","internalType":"uint256"},{"name":"","type":"uint256","internalType":"uint256"},{"name":"","type":"uint256","internalType":"uint256"}],"stateMutability":"view"},{"type":"function","name":"verifyOrder","inputs":[{"name":"order","type":"tuple","internalType":"struct IEthenaMinting.Order","components":[{"name":"order_type","type":"uint8","internalType":"enum IEthenaMinting.OrderType"},{"name":"expiry","type":"uint256","internalType":"uint256"},{"name":"nonce","type":"uint256","internalType":"uint256"},{"name":"benefactor","type":"address","internalType":"address"},{"name":"beneficiary","type":"address","internalType":"address"},{"name":"collateral_asset","type":"address","internalType":"address"},{"name":"collateral_amount","type":"uint256","internalType":"uint256"},{"name":"usde_amount","type":"uint256","internalType":"uint256"}]},{"name":"signature","type":"tuple","internalType":"struct IEthenaMinting.Signature","components":[{"name":"signature_type","type":"uint8","internalType":"enum IEthenaMinting.SignatureType"},{"name":"signature_bytes","type":"bytes","internalType":"bytes"}]}],"outputs":[{"name":"taker_order_hash","type":"bytes32","internalType":"bytes32"}],"stateMutability":"view"},{"type":"function","name":"verifyRoute","inputs":[{"name":"route","type":"tuple","internalType":"struct IEthenaMinting.Route","components":[{"name":"addresses","type":"address[]","internalType":"address[]"},{"name":"ratios","type":"uint256[]","internalType":"uint256[]"}]}],"outputs":[{"name":"","type":"bool","internalType":"bool"}],"stateMutability":"view"},{"type":"event","name":"AdminTransferRequested","inputs":[{"name":"oldAdmin","type":"address","indexed":true,"internalType":"address"},{"name":"newAdmin","type":"address","indexed":true,"internalType":"address"}],"anonymous":false},{"type":"event","name":"AdminTransferred","inputs":[{"name":"oldAdmin","type":"address","indexed":true,"internalType":"address"},{"name":"newAdmin","type":"address","indexed":true,"internalType":"address"}],"anonymous":false},{"type":"event","name":"AssetAdded","inputs":[{"name":"asset","type":"address","indexed":true,"internalType":"address"}],"anonymous":false},{"type":"event","name":"AssetRemoved","inputs":[{"name":"asset","type":"address","indexed":true,"internalType":"address"}],"anonymous":false},{"type":"event","name":"CustodianAddressAdded","inputs":[{"name":"custodian","type":"address","indexed":true,"internalType":"address"}],"anonymous":false},{"type":"event","name":"CustodianAddressRemoved","inputs":[{"name":"custodian","type":"address","indexed":true,"internalType":"address"}],"anonymous":false},{"type":"event","name":"CustodyTransfer","inputs":[{"name":"wallet","type":"address","indexed":true,"internalType":"address"},{"name":"asset","type":"address","indexed":true,"internalType":"address"},{"name":"amount","type":"uint256","indexed":false,"internalType":"uint256"}],"anonymous":false},{"type":"event","name":"DelegatedSignerAdded","inputs":[{"name":"signer","type":"address","indexed":true,"internalType":"address"},{"name":"delegator","type":"address","indexed":true,"internalType":"address"}],"anonymous":false},{"type":"event","name":"DelegatedSignerInitiated","inputs":[{"name":"signer","type":"address","indexed":true,"internalType":"address"},{"name":"delegator","type":"address","indexed":true,"internalType":"address"}],"anonymous":false},{"type":"event","name":"DelegatedSignerRemoved","inputs":[{"name":"signer","type":"address","indexed":true,"internalType":"address"},{"name":"delegator","type":"address","indexed":true,"internalType":"address"}],"anonymous":false},{"type":"event","name":"MaxMintPerBlockChanged","inputs":[{"name":"oldMaxMintPerBlock","type":"uint256","indexed":false,"internalType":"uint256"},{"name":"newMaxMintPerBlock","type":"uint256","indexed":false,"internalType":"uint256"}],"anonymous":false},{"type":"event","name":"MaxRedeemPerBlockChanged","inputs":[{"name":"oldMaxRedeemPerBlock","type":"uint256","indexed":false,"internalType":"uint256"},{"name":"newMaxRedeemPerBlock","type":"uint256","indexed":false,"internalType":"uint256"}],"anonymous":false},{"type":"event","name":"Mint","inputs":[{"name":"minter","type":"address","indexed":true,"internalType":"address"},{"name":"benefactor","type":"address","indexed":true,"internalType":"address"},{"name":"beneficiary","type":"address","indexed":true,"internalType":"address"},{"name":"collateral_asset","type":"address","indexed":false,"internalType":"address"},{"name":"collateral_amount","type":"uint256","indexed":false,"internalType":"uint256"},{"name":"usde_amount","type":"uint256","indexed":false,"internalType":"uint256"}],"anonymous":false},{"type":"event","name":"Received","inputs":[{"name":"","type":"address","indexed":false,"internalType":"address"},{"name":"","type":"uint256","indexed":false,"internalType":"uint256"}],"anonymous":false},{"type":"event","name":"Redeem","inputs":[{"name":"redeemer","type":"address","indexed":true,"internalType":"address"},{"name":"benefactor","type":"address","indexed":true,"internalType":"address"},{"name":"beneficiary","type":"address","indexed":true,"internalType":"address"},{"name":"collateral_asset","type":"address","indexed":false,"internalType":"address"},{"name":"collateral_amount","type":"uint256","indexed":false,"internalType":"uint256"},{"name":"usde_amount","type":"uint256","indexed":false,"internalType":"uint256"}],"anonymous":false},{"type":"event","name":"RoleAdminChanged","inputs":[{"name":"role","type":"bytes32","indexed":true,"internalType":"bytes32"},{"name":"previousAdminRole","type":"bytes32","indexed":true,"internalType":"bytes32"},{"name":"newAdminRole","type":"bytes32","indexed":true,"internalType":"bytes32"}],"anonymous":false},{"type":"event","name":"RoleGranted","inputs":[{"name":"role","type":"bytes32","indexed":true,"internalType":"bytes32"},{"name":"account","type":"address","indexed":true,"internalType":"address"},{"name":"sender","type":"address","indexed":true,"internalType":"address"}],"anonymous":false},{"type":"event","name":"RoleRevoked","inputs":[{"name":"role","type":"bytes32","indexed":true,"internalType":"bytes32"},{"name":"account","type":"address","indexed":true,"internalType":"address"},{"name":"sender","type":"address","indexed":true,"internalType":"address"}],"anonymous":false},{"type":"event","name":"USDeSet","inputs":[{"name":"USDe","type":"address","indexed":true,"internalType":"address"}],"anonymous":false},{"type":"error","name":"DelegationNotInitiated","inputs":[]},{"type":"error","name":"InvalidAddress","inputs":[]},{"type":"error","name":"InvalidAdminChange","inputs":[]},{"type":"error","name":"InvalidAmount","inputs":[]},{"type":"error","name":"InvalidAssetAddress","inputs":[]},{"type":"error","name":"InvalidCustodianAddress","inputs":[]},{"type":"error","name":"InvalidNonce","inputs":[]},{"type":"error","name":"InvalidOrder","inputs":[]},{"type":"error","name":"InvalidRoute","inputs":[]},{"type":"error","name":"InvalidSignature","inputs":[]},{"type":"error","name":"InvalidUSDeAddress","inputs":[]},{"type":"error","name":"InvalidZeroAddress","inputs":[]},{"type":"error","name":"MaxMintPerBlockExceeded","inputs":[]},{"type":"error","name":"MaxRedeemPerBlockExceeded","inputs":[]},{"type":"error","name":"NoAssetsProvided","inputs":[]},{"type":"error","name":"NotPendingAdmin","inputs":[]},{"type":"error","name":"SignatureExpired","inputs":[]},{"type":"error","name":"TransferFailed","inputs":[]},{"type":"error","name":"UnsupportedAsset","inputs":[]}],"bytecode":{"object":"0x6101006040523480156200001257600080fd5b5060405162006e6c38038062006e6c833981810160405281019062000038919062001175565b6001600381905550600073ffffffffffffffffffffffffffffffffffffffff168773ffffffffffffffffffffffffffffffffffffffff1603620000a7576040517fb2b3c8dc00000000000000000000000000000000000000000000000000000000815260040160405180910390fd5b600073ffffffffffffffffffffffffffffffffffffffff168673ffffffffffffffffffffffffffffffffffffffff16036200010e576040517ff6b2911f00000000000000000000000000000000000000000000000000000000815260040160405180910390fd5b60008551036200014a576040517fdde4739400000000000000000000000000000000000000000000000000000000815260040160405180910390fd5b600073ffffffffffffffffffffffffffffffffffffffff168373ffffffffffffffffffffffffffffffffffffffff1603620001b1576040517ff6b2911f00000000000000000000000000000000000000000000000000000000815260040160405180910390fd5b8673ffffffffffffffffffffffffffffffffffffffff1660a08173ffffffffffffffffffffffffffffffffffffffff16815250508573ffffffffffffffffffffffffffffffffffffffff1660808173ffffffffffffffffffffffffffffffffffffffff16815250506200022e6000801b336200039960201b60201c565b60005b855181101562000275576200026986828151811062000255576200025462001266565b5b6020026020010151620004d460201b60201c565b80600101905062000231565b5060005b8451811015620002bd57620002b18582815181106200029d576200029c62001266565b5b6020026020010151620005f060201b60201c565b80600101905062000279565b50620002cf826200070c60201b60201c565b620002e0816200075b60201b60201c565b8273ffffffffffffffffffffffffffffffffffffffff163373ffffffffffffffffffffffffffffffffffffffff16146200032a57620003296000801b846200039960201b60201c565b5b4660c0818152505062000342620007aa60201b60201c565b60e081815250508673ffffffffffffffffffffffffffffffffffffffff167f72fb0d31878f6e7247733418a2aeabf201fddda56677167f041e9bb10ffd5c9e60405160405180910390a25050505050505062001682565b6000801b8203620004be578073ffffffffffffffffffffffffffffffffffffffff16600160009054906101000a900473ffffffffffffffffffffffffffffffffffffffff1673ffffffffffffffffffffffffffffffffffffffff167ff8ccb027dfcd135e000e9d45e6cc2d662578a8825d4c45b5e32e0adf67e79ec660405160405180910390a3620004576000801b600160009054906101000a900473ffffffffffffffffffffffffffffffffffffffff166200084260201b60201c565b80600160006101000a81548173ffffffffffffffffffffffffffffffffffffffff021916908373ffffffffffffffffffffffffffffffffffffffff160217905550600260006101000a81549073ffffffffffffffffffffffffffffffffffffffff02191690555b620004d082826200093460201b60201c565b5050565b6000801b620004e98162000a2560201b60201c565b600073ffffffffffffffffffffffffffffffffffffffff168273ffffffffffffffffffffffffffffffffffffffff16148062000552575060a05173ffffffffffffffffffffffffffffffffffffffff168273ffffffffffffffffffffffffffffffffffffffff16145b806200057157506200056f82600462000a4960201b90919060201c565b155b15620005a9576040517f3334921400000000000000000000000000000000000000000000000000000000815260040160405180910390fd5b8173ffffffffffffffffffffffffffffffffffffffff167f0e3c58ebfb2e7465fbb1c32e6b4f40c3c4f5ca77e8218a386aff8617831260d760405160405180910390a25050565b6000801b620006058162000a2560201b60201c565b600073ffffffffffffffffffffffffffffffffffffffff168273ffffffffffffffffffffffffffffffffffffffff1614806200066e575060a05173ffffffffffffffffffffffffffffffffffffffff168273ffffffffffffffffffffffffffffffffffffffff16145b806200068d57506200068b82600662000a4960201b90919060201c565b155b15620006c5576040517facb80c5e00000000000000000000000000000000000000000000000000000000815260040160405180910390fd5b8173ffffffffffffffffffffffffffffffffffffffff167ffbd30b5bdd51f5de989170dc23d65aac2de0a6099f5d9d200bc5779d883abcd460405160405180910390a25050565b6000600c54905081600c819055507fb4a832eb73ba0066dc45acd0d1f4454cdee155b17bdb1ccbabb428cc39750ad181600c546040516200074f929190620012a6565b60405180910390a15050565b6000600d54905081600d819055507f6fd3eacad9328fdc902c323518cfef3a2f6a9da89c40a7b82428adc2370114c381600d546040516200079e929190620012a6565b60405180910390a15050565b60007f8b73c3c69bb8fe3d512ecc4cf759cc79239f7b179b0ffacaa9a75d522b39400f7fdfc7060bb2e53279833759ad83d246a6016adac9d59a3fc1c0c23c3d495e137e7fc89efdaa54c0f20c7adf612882df0950f5a951637e0307cdcb4c672f298b8bc6463060405160200162000827959493929190620012ff565b60405160208183030381529060405280519060200120905090565b62000854828262000a8160201b60201c565b156200093057600080600084815260200190815260200160002060000160008373ffffffffffffffffffffffffffffffffffffffff1673ffffffffffffffffffffffffffffffffffffffff16815260200190815260200160002060006101000a81548160ff021916908315150217905550620008d562000aeb60201b60201c565b73ffffffffffffffffffffffffffffffffffffffff168173ffffffffffffffffffffffffffffffffffffffff16837ff6391f5c32d9c69d2a47ea670b442974b53935d1edc7fd64eb21e047a839171b60405160405180910390a45b5050565b62000946828262000a8160201b60201c565b62000a2157600160008084815260200190815260200160002060000160008373ffffffffffffffffffffffffffffffffffffffff1673ffffffffffffffffffffffffffffffffffffffff16815260200190815260200160002060006101000a81548160ff021916908315150217905550620009c662000aeb60201b60201c565b73ffffffffffffffffffffffffffffffffffffffff168173ffffffffffffffffffffffffffffffffffffffff16837f2f8788117e7eff1d82e926ec794901d17c78024a50270940304540a733656f0d60405160405180910390a45b5050565b62000a468162000a3a62000aeb60201b60201c565b62000af360201b60201c565b50565b600062000a79836000018373ffffffffffffffffffffffffffffffffffffffff1660001b62000b9560201b60201c565b905092915050565b600080600084815260200190815260200160002060000160008373ffffffffffffffffffffffffffffffffffffffff1673ffffffffffffffffffffffffffffffffffffffff16815260200190815260200160002060009054906101000a900460ff16905092915050565b600033905090565b62000b05828262000a8160201b60201c565b62000b915762000b1b8162000c0f60201b60201c565b62000b318360001c602062000c4460201b60201c565b60405160200162000b4492919062001475565b6040516020818303038152906040526040517f08c379a000000000000000000000000000000000000000000000000000000000815260040162000b88919062001509565b60405180910390fd5b5050565b600062000ba9838362000e9f60201b60201c565b62000c0457826000018290806001815401808255809150506001900390600052602060002001600090919091909150558260000180549050836001016000848152602001908152602001600020819055506001905062000c09565b600090505b92915050565b606062000c3d8273ffffffffffffffffffffffffffffffffffffffff16601460ff1662000c4460201b60201c565b9050919050565b60606000600283600262000c5991906200155c565b62000c659190620015a7565b67ffffffffffffffff81111562000c815762000c8062000faa565b5b6040519080825280601f01601f19166020018201604052801562000cb45781602001600182028036833780820191505090505b5090507f30000000000000000000000000000000000000000000000000000000000000008160008151811062000cef5762000cee62001266565b5b60200101907effffffffffffffffffffffffffffffffffffffffffffffffffffffffffffff1916908160001a9053507f78000000000000000000000000000000000000000000000000000000000000008160018151811062000d565762000d5562001266565b5b60200101907effffffffffffffffffffffffffffffffffffffffffffffffffffffffffffff1916908160001a9053506000600184600262000d9891906200155c565b62000da49190620015a7565b90505b600181111562000e4e577f3031323334353637383961626364656600000000000000000000000000000000600f86166010811062000dea5762000de962001266565b5b1a60f81b82828151811062000e045762000e0362001266565b5b60200101907effffffffffffffffffffffffffffffffffffffffffffffffffffffffffffff1916908160001a905350600485901c94508062000e4690620015e2565b905062000da7565b506000841462000e95576040517f08c379a000000000000000000000000000000000000000000000000000000000815260040162000e8c9062001660565b60405180910390fd5b8091505092915050565b600080836001016000848152602001908152602001600020541415905092915050565b6000604051905090565b600080fd5b600080fd5b600073ffffffffffffffffffffffffffffffffffffffff82169050919050565b600062000f038262000ed6565b9050919050565b600062000f178262000ef6565b9050919050565b62000f298162000f0a565b811462000f3557600080fd5b50565b60008151905062000f498162000f1e565b92915050565b600062000f5c8262000ef6565b9050919050565b62000f6e8162000f4f565b811462000f7a57600080fd5b50565b60008151905062000f8e8162000f63565b92915050565b600080fd5b6000601f19601f8301169050919050565b7f4e487b7100000000000000000000000000000000000000000000000000000000600052604160045260246000fd5b62000fe48262000f99565b810181811067ffffffffffffffff8211171562001006576200100562000faa565b5b80604052505050565b60006200101b62000ec2565b905062001029828262000fd9565b919050565b600067ffffffffffffffff8211156200104c576200104b62000faa565b5b602082029050602081019050919050565b600080fd5b6200106d8162000ef6565b81146200107957600080fd5b50565b6000815190506200108d8162001062565b92915050565b6000620010aa620010a4846200102e565b6200100f565b90508083825260208201905060208402830185811115620010d057620010cf6200105d565b5b835b81811015620010fd5780620010e888826200107c565b845260208401935050602081019050620010d2565b5050509392505050565b600082601f8301126200111f576200111e62000f94565b5b81516200113184826020860162001093565b91505092915050565b6000819050919050565b6200114f816200113a565b81146200115b57600080fd5b50565b6000815190506200116f8162001144565b92915050565b600080600080600080600060e0888a03121562001197576200119662000ecc565b5b6000620011a78a828b0162000f38565b9750506020620011ba8a828b0162000f7d565b965050604088015167ffffffffffffffff811115620011de57620011dd62000ed1565b5b620011ec8a828b0162001107565b955050606088015167ffffffffffffffff81111562001210576200120f62000ed1565b5b6200121e8a828b0162001107565b9450506080620012318a828b016200107c565b93505060a0620012448a828b016200115e565b92505060c0620012578a828b016200115e565b91505092959891949750929550565b7f4e487b7100000000000000000000000000000000000000000000000000000000600052603260045260246000fd5b620012a0816200113a565b82525050565b6000604082019050620012bd600083018562001295565b620012cc602083018462001295565b9392505050565b6000819050919050565b620012e881620012d3565b82525050565b620012f98162000ef6565b82525050565b600060a082019050620013166000830188620012dd565b620013256020830187620012dd565b620013346040830186620012dd565b62001343606083018562001295565b620013526080830184620012ee565b9695505050505050565b600081905092915050565b7f416363657373436f6e74726f6c3a206163636f756e7420000000000000000000600082015250565b60006200139f6017836200135c565b9150620013ac8262001367565b601782019050919050565b600081519050919050565b60005b83811015620013e2578082015181840152602081019050620013c5565b60008484015250505050565b6000620013fb82620013b7565b6200140781856200135c565b935062001419818560208601620013c2565b80840191505092915050565b7f206973206d697373696e6720726f6c6520000000000000000000000000000000600082015250565b60006200145d6011836200135c565b91506200146a8262001425565b601182019050919050565b6000620014828262001390565b9150620014908285620013ee565b91506200149d826200144e565b9150620014ab8284620013ee565b91508190509392505050565b600082825260208201905092915050565b6000620014d582620013b7565b620014e18185620014b7565b9350620014f3818560208601620013c2565b620014fe8162000f99565b840191505092915050565b60006020820190508181036000830152620015258184620014c8565b905092915050565b7f4e487b7100000000000000000000000000000000000000000000000000000000600052601160045260246000fd5b600062001569826200113a565b915062001576836200113a565b925082820262001586816200113a565b91508282048414831517620015a0576200159f6200152d565b5b5092915050565b6000620015b4826200113a565b9150620015c1836200113a565b9250828201905080821115620015dc57620015db6200152d565b5b92915050565b6000620015ef826200113a565b9150600082036200160557620016046200152d565b5b600182039050919050565b7f537472696e67733a20686578206c656e67746820696e73756666696369656e74600082015250565b600062001648602083620014b7565b9150620016558262001610565b602082019050919050565b600060208201905081810360008301526200167b8162001639565b9050919050565b60805160a05160c05160e051615786620016e6600039600061248801526000612461015260008181610ad8015281816113520152818161197201528181611f86015281816127b501526129680152600081816134ba015261357401526157866000f3fe60806040526004361061023f5760003560e01c80638da5cb5b1161012e578063cf9cc766116100ab578063e0f3fc9f1161006f578063e0f3fc9f146108e1578063ed24911d1461090a578063f4ee2a8b14610935578063f5c42eb314610974578063fac09e871461099d5761027f565b8063cf9cc766146107ec578063d48c03e514610829578063d547741f14610852578063d8369d751461087b578063d8f065bd146108a45761027f565b80639cd29136116100f25780639cd2913614610707578063a217fddf14610730578063b6c780631461075b578063c5ff38bd14610798578063ccb2676b146107af5761027f565b80638da5cb5b1461060e57806391d1485414610639578063928907dd1461067657806395165e8b146106a15780639be918e6146106ca5761027f565b8063402a8d37116101bc5780635386361311610180578063538636131461053f57806354f1e126146105685780637274c25c1461059157806375829def146105ba578063844452fa146105e35761027f565b8063402a8d371461045e57806340e492161461049b5780634ba87af9146104c45780634be7a64b146104ed578063532c3f82146105165761027f565b80631c46bc6f116102035780631c46bc6f14610369578063248a9ca3146103925780632ba32991146103cf5780632f2ff15d1461040c57806336568abe146104355761027f565b806301ffc9a7146102845780630e18b681146102c15780630fd761e0146102d8578063157a40281461030357806319bfcdec1461032c5761027f565b3661027f577f88a5966d370b9919b20f3e2c13ff65706f196a4e32cc2c12bf57088f8852587433346040516102759291906143b6565b60405180910390a1005b600080fd5b34801561029057600080fd5b506102ab60048036038101906102a69190614441565b6109c6565b6040516102b89190614489565b60405180910390f35b3480156102cd57600080fd5b506102d6610a40565b005b3480156102e457600080fd5b506102ed610ad6565b6040516102fa9190614503565b60405180910390f35b34801561030f57600080fd5b5061032a6004803603810190610325919061454a565b610afa565b005b34801561033857600080fd5b50610353600480360381019061034e919061459c565b610ce3565b60405161036091906145e3565b60405180910390f35b34801561037557600080fd5b50610390600480360381019061038b919061454a565b610d0c565b005b34801561039e57600080fd5b506103b960048036038101906103b4919061462a565b610daa565b6040516103c691906145e3565b60405180910390f35b3480156103db57600080fd5b506103f660048036038101906103f19190614683565b610dc9565b60405161040391906146b0565b60405180910390f35b34801561041857600080fd5b50610433600480360381019061042e91906146cb565b610de1565b005b34801561044157600080fd5b5061045c600480360381019061045791906146cb565b610e3b565b005b34801561046a57600080fd5b506104856004803603810190610480919061472a565b610e87565b60405161049291906145e3565b60405180910390f35b3480156104a757600080fd5b506104c260048036038101906104bd919061454a565b61116d565b005b3480156104d057600080fd5b506104eb60048036038101906104e6919061454a565b61126f565b005b3480156104f957600080fd5b50610514600480360381019061050f919061454a565b61130d565b005b34801561052257600080fd5b5061053d6004803603810190610538919061454a565b61143a565b005b34801561054b57600080fd5b506105666004803603810190610561919061454a565b611492565b005b34801561057457600080fd5b5061058f600480360381019061058a919061454a565b611594565b005b34801561059d57600080fd5b506105b860048036038101906105b3919061454a565b6115ec565b005b3480156105c657600080fd5b506105e160048036038101906105dc919061454a565b611644565b005b3480156105ef57600080fd5b506105f8611777565b60405161060591906146b0565b60405180910390f35b34801561061a57600080fd5b5061062361177d565b6040516106309190614788565b60405180910390f35b34801561064557600080fd5b50610660600480360381019061065b91906146cb565b6117a7565b60405161066d9190614489565b60405180910390f35b34801561068257600080fd5b5061068b611811565b60405161069891906146b0565b60405180910390f35b3480156106ad57600080fd5b506106c860048036038101906106c3919061472a565b611817565b005b3480156106d657600080fd5b506106f160048036038101906106ec919061454a565b611b12565b6040516106fe9190614489565b60405180910390f35b34801561071357600080fd5b5061072e60048036038101906107299190614683565b611b2f565b005b34801561073c57600080fd5b50610745611b49565b60405161075291906145e3565b60405180910390f35b34801561076757600080fd5b50610782600480360381019061077d9190614683565b611b50565b60405161078f91906146b0565b60405180910390f35b3480156107a457600080fd5b506107ad611b68565b005b3480156107bb57600080fd5b506107d660048036038101906107d191906147c2565b611ba9565b6040516107e39190614489565b60405180910390f35b3480156107f857600080fd5b50610813600480360381019061080e919061480b565b611d69565b60405161082091906148c2565b60405180910390f35b34801561083557600080fd5b50610850600480360381019061084b91906148dd565b611d98565b005b34801561085e57600080fd5b50610879600480360381019061087491906146cb565b6120f4565b005b34801561088757600080fd5b506108a2600480360381019061089d9190614683565b61214e565b005b3480156108b057600080fd5b506108cb60048036038101906108c6919061459c565b612168565b6040516108d891906149fb565b60405180910390f35b3480156108ed57600080fd5b5061090860048036038101906109039190614a1d565b612219565b005b34801561091657600080fd5b5061091f61245d565b60405161092c91906145e3565b60405180910390f35b34801561094157600080fd5b5061095c60048036038101906109579190614a70565b6124bc565b60405161096b93929190614ab0565b60405180910390f35b34801561098057600080fd5b5061099b600480360381019061099691906148dd565b6125c7565b005b3480156109a957600080fd5b506109c460048036038101906109bf919061454a565b612923565b005b60007f7965db0b000000000000000000000000000000000000000000000000000000007bffffffffffffffffffffffffffffffffffffffffffffffffffffffff1916827bffffffffffffffffffffffffffffffffffffffffffffffffffffffff19161480610a395750610a3882612a50565b5b9050919050565b600260009054906101000a900473ffffffffffffffffffffffffffffffffffffffff1673ffffffffffffffffffffffffffffffffffffffff163373ffffffffffffffffffffffffffffffffffffffff1614610ac7576040517f058d9a1b00000000000000000000000000000000000000000000000000000000815260040160405180910390fd5b610ad46000801b33612aba565b565b7f000000000000000000000000000000000000000000000000000000000000000081565b60016002811115610b0e57610b0d61484b565b5b600b60003373ffffffffffffffffffffffffffffffffffffffff1673ffffffffffffffffffffffffffffffffffffffff16815260200190815260200160002060008373ffffffffffffffffffffffffffffffffffffffff1673ffffffffffffffffffffffffffffffffffffffff16815260200190815260200160002060009054906101000a900460ff166002811115610baa57610ba961484b565b5b14610be1576040517f7b5afc0c00000000000000000000000000000000000000000000000000000000815260040160405180910390fd5b6002600b60003373ffffffffffffffffffffffffffffffffffffffff1673ffffffffffffffffffffffffffffffffffffffff16815260200190815260200160002060008373ffffffffffffffffffffffffffffffffffffffff1673ffffffffffffffffffffffffffffffffffffffff16815260200190815260200160002060006101000a81548160ff02191690836002811115610c8157610c8061484b565b5b02179055508073ffffffffffffffffffffffffffffffffffffffff163373ffffffffffffffffffffffffffffffffffffffff167fed6a1f03e365a374bf7e9fe68b09cf74960528af699108cb461241efc5ded90960405160405180910390a350565b6000610d05610cf061245d565b610cf984612168565b80519060200120612be4565b9050919050565b6000801b610d1981612c25565b610d2d826004612c3990919063ffffffff16565b610d63576040517f3334921400000000000000000000000000000000000000000000000000000000815260040160405180910390fd5b8173ffffffffffffffffffffffffffffffffffffffff167f37803e2125c48ee96c38ddf04e826daf335b0e1603579040fd275aba6d06b6fc60405160405180910390a25050565b6000806000838152602001908152602001600020600101549050919050565b60096020528060005260406000206000915090505481565b6000801b610dee81612c25565b826000801b8103610e2b576040517f6317a0fa00000000000000000000000000000000000000000000000000000000815260040160405180910390fd5b610e358484612aba565b50505050565b816000801b8103610e78576040517f6317a0fa00000000000000000000000000000000000000000000000000000000815260040160405180910390fd5b610e828383612c69565b505050565b6000610e9283610ce3565b90506000610ef282848060200190610eaa9190614af6565b8080601f016020809104026020016040519081016040528093929190818152602001838380828437600081840152601f19601f82011690508083019250505050505050612cec565b9050836060016020810190610f07919061454a565b73ffffffffffffffffffffffffffffffffffffffff168173ffffffffffffffffffffffffffffffffffffffff161480610ffe5750600280811115610f4e57610f4d61484b565b5b600b60008373ffffffffffffffffffffffffffffffffffffffff1673ffffffffffffffffffffffffffffffffffffffff1681526020019081526020016000206000866060016020810190610fa2919061454a565b73ffffffffffffffffffffffffffffffffffffffff1673ffffffffffffffffffffffffffffffffffffffff16815260200190815260200160002060009054906101000a900460ff166002811115610ffc57610ffb61484b565b5b145b611034576040517f8baa579f00000000000000000000000000000000000000000000000000000000815260040160405180910390fd5b600073ffffffffffffffffffffffffffffffffffffffff1684608001602081019061105f919061454a565b73ffffffffffffffffffffffffffffffffffffffff16036110ac576040517fe6c4247b00000000000000000000000000000000000000000000000000000000815260040160405180910390fd5b60008460c00135036110ea576040517f2c5211c600000000000000000000000000000000000000000000000000000000815260040160405180910390fd5b60008460e0013503611128576040517f2c5211c600000000000000000000000000000000000000000000000000000000815260040160405180910390fd5b8360200135421115611166576040517f0819bdcd00000000000000000000000000000000000000000000000000000000815260040160405180910390fd5b5092915050565b6000600b60008373ffffffffffffffffffffffffffffffffffffffff1673ffffffffffffffffffffffffffffffffffffffff16815260200190815260200160002060003373ffffffffffffffffffffffffffffffffffffffff1673ffffffffffffffffffffffffffffffffffffffff16815260200190815260200160002060006101000a81548160ff0219169083600281111561120d5761120c61484b565b5b02179055503373ffffffffffffffffffffffffffffffffffffffff168173ffffffffffffffffffffffffffffffffffffffff167f97b59d736dc70ae61c6b68295c19a1311cc4a48cbb9eb25c4dabf18c7f650a8a60405160405180910390a350565b6000801b61127c81612c25565b611290826006612c3990919063ffffffff16565b6112c6576040517facb80c5e00000000000000000000000000000000000000000000000000000000815260040160405180910390fd5b8173ffffffffffffffffffffffffffffffffffffffff167f75567811df62a6b68bd5ee394d5808ad7282e19541858be466bc789cad9d4dfb60405160405180910390a25050565b6000801b61131a81612c25565b600073ffffffffffffffffffffffffffffffffffffffff168273ffffffffffffffffffffffffffffffffffffffff1614806113a057507f000000000000000000000000000000000000000000000000000000000000000073ffffffffffffffffffffffffffffffffffffffff168273ffffffffffffffffffffffffffffffffffffffff16145b806113bc57506113ba826006612d1390919063ffffffff16565b155b156113f3576040517facb80c5e00000000000000000000000000000000000000000000000000000000815260040160405180910390fd5b8173ffffffffffffffffffffffffffffffffffffffff167ffbd30b5bdd51f5de989170dc23d65aac2de0a6099f5d9d200bc5779d883abcd460405160405180910390a25050565b7f3c63e605be3290ab6b04cfc46c6e1516e626d43236b034f09d7ede1d017beb0c61146481612c25565b61148e7f44ac9762eec3a11893fefb11d028bb3102560094137c3ed4518712475b2577cc83612d43565b5050565b6001600b60008373ffffffffffffffffffffffffffffffffffffffff1673ffffffffffffffffffffffffffffffffffffffff16815260200190815260200160002060003373ffffffffffffffffffffffffffffffffffffffff1673ffffffffffffffffffffffffffffffffffffffff16815260200190815260200160002060006101000a81548160ff021916908360028111156115325761153161484b565b5b02179055503373ffffffffffffffffffffffffffffffffffffffff168173ffffffffffffffffffffffffffffffffffffffff167f769c75d94dacde64c18415b5a72f6d26e7f62b356387f8da812c4b0aa66a0f2560405160405180910390a350565b7f3c63e605be3290ab6b04cfc46c6e1516e626d43236b034f09d7ede1d017beb0c6115be81612c25565b6115e87f9f2df0fed2c77648de5860a4cc508cd0818c85b8b8a1ab4ceeef8d981c8956a683612d43565b5050565b7f3c63e605be3290ab6b04cfc46c6e1516e626d43236b034f09d7ede1d017beb0c61161681612c25565b6116407f85e8f2d6819d6b24108062d87ea08f54651bcb8960d98062d3faf96e7873b8b983612d43565b5050565b6000801b61165181612c25565b3373ffffffffffffffffffffffffffffffffffffffff168273ffffffffffffffffffffffffffffffffffffffff16036116b6576040517f6317a0fa00000000000000000000000000000000000000000000000000000000815260040160405180910390fd5b81600260006101000a81548173ffffffffffffffffffffffffffffffffffffffff021916908373ffffffffffffffffffffffffffffffffffffffff1602179055508173ffffffffffffffffffffffffffffffffffffffff16600160009054906101000a900473ffffffffffffffffffffffffffffffffffffffff1673ffffffffffffffffffffffffffffffffffffffff167fefdcbba819467e00b0262c12892dda980bac68580b72178e57a162368b80876660405160405180910390a35050565b600d5481565b6000600160009054906101000a900473ffffffffffffffffffffffffffffffffffffffff16905090565b600080600084815260200190815260200160002060000160008373ffffffffffffffffffffffffffffffffffffffff1673ffffffffffffffffffffffffffffffffffffffff16815260200190815260200160002060009054906101000a900460ff16905092915050565b600c5481565b61181f612e24565b7f44ac9762eec3a11893fefb11d028bb3102560094137c3ed4518712475b2577cc61184981612c25565b8260e00135600d5481600a6000438152602001908152602001600020546118709190614b88565b11156118a8576040517f4d4ea7ce00000000000000000000000000000000000000000000000000000000815260040160405180910390fd5b6001808111156118bb576118ba61484b565b5b8460000160208101906118ce9190614be1565b60018111156118e0576118df61484b565b5b14611917576040517faf61069300000000000000000000000000000000000000000000000000000000815260040160405180910390fd5b6119218484610e87565b50611942846060016020810190611938919061454a565b8560400135612e73565b8360e00135600a600043815260200190815260200160002060008282546119699190614b88565b925050819055507f000000000000000000000000000000000000000000000000000000000000000073ffffffffffffffffffffffffffffffffffffffff166379cc67908560600160208101906119bf919061454a565b8660e001356040518363ffffffff1660e01b81526004016119e19291906143b6565b600060405180830381600087803b1580156119fb57600080fd5b505af1158015611a0f573d6000803e3d6000fd5b50505050611a46846080016020810190611a29919061454a565b8560a0016020810190611a3c919061454a565b8660c00135612ee6565b836080016020810190611a59919061454a565b73ffffffffffffffffffffffffffffffffffffffff16846060016020810190611a82919061454a565b73ffffffffffffffffffffffffffffffffffffffff163373ffffffffffffffffffffffffffffffffffffffff167f18fd144d7dbcbaa6f00fd47a84adc7dc3cc64a326ffa2dc7691a25e3837dba038760a0016020810190611ae3919061454a565b8860c001358960e00135604051611afc93929190614c0e565b60405180910390a45050611b0e61308b565b5050565b6000611b2882600461309590919063ffffffff16565b9050919050565b6000801b611b3c81612c25565b611b45826130c5565b5050565b6000801b81565b600a6020528060005260406000206000915090505481565b7f3c63e605be3290ab6b04cfc46c6e1516e626d43236b034f09d7ede1d017beb0c611b9281612c25565b611b9c60006130c5565b611ba66000613112565b50565b60008060009050828060200190611bc09190614c45565b9050838060000190611bd29190614ca8565b905014611be3576000915050611d64565b6000838060000190611bf59190614ca8565b905003611c06576000915050611d64565b60005b838060000190611c199190614ca8565b9050811015611d5a57611c6b848060000190611c359190614ca8565b83818110611c4657611c45614d0b565b5b9050602002016020810190611c5b919061454a565b600661309590919063ffffffff16565b1580611cd85750600073ffffffffffffffffffffffffffffffffffffffff16848060000190611c9a9190614ca8565b83818110611cab57611caa614d0b565b5b9050602002016020810190611cc0919061454a565b73ffffffffffffffffffffffffffffffffffffffff16145b80611d0a57506000848060200190611cf09190614c45565b83818110611d0157611d00614d0b565b5b90506020020135145b15611d1a57600092505050611d64565b838060200190611d2a9190614c45565b82818110611d3b57611d3a614d0b565b5b9050602002013582611d4d9190614b88565b9150806001019050611c09565b5061271081149150505b919050565b600b6020528160005260406000206020528060005260406000206000915091509054906101000a900460ff1681565b611da0612e24565b7f9f2df0fed2c77648de5860a4cc508cd0818c85b8b8a1ab4ceeef8d981c8956a6611dca81612c25565b8360e00135600c54816009600043815260200190815260200160002054611df19190614b88565b1115611e29576040517f0fbf0bc900000000000000000000000000000000000000000000000000000000815260040160405180910390fd5b60006001811115611e3d57611e3c61484b565b5b856000016020810190611e509190614be1565b6001811115611e6257611e6161484b565b5b14611e99576040517faf61069300000000000000000000000000000000000000000000000000000000815260040160405180910390fd5b611ea38584610e87565b50611ead84611ba9565b611ee3576040517f84e505d200000000000000000000000000000000000000000000000000000000815260040160405180910390fd5b611f03856060016020810190611ef9919061454a565b8660400135612e73565b8460e00135600960004381526020019081526020016000206000828254611f2a9190614b88565b92505081905550611f848560c001358660a0016020810190611f4c919061454a565b876060016020810190611f5f919061454a565b878060000190611f6f9190614ca8565b898060200190611f7f9190614c45565b61315f565b7f000000000000000000000000000000000000000000000000000000000000000073ffffffffffffffffffffffffffffffffffffffff166340c10f19866080016020810190611fd3919061454a565b8760e001356040518363ffffffff1660e01b8152600401611ff59291906143b6565b600060405180830381600087803b15801561200f57600080fd5b505af1158015612023573d6000803e3d6000fd5b5050505084608001602081019061203a919061454a565b73ffffffffffffffffffffffffffffffffffffffff16856060016020810190612063919061454a565b73ffffffffffffffffffffffffffffffffffffffff163373ffffffffffffffffffffffffffffffffffffffff167ff114ca9eb82947af39f957fa726280fd3d5d81c3d7635a4aeb5c302962856eba8860a00160208101906120c4919061454a565b8960c001358a60e001356040516120dd93929190614c0e565b60405180910390a450506120ef61308b565b505050565b6000801b61210181612c25565b826000801b810361213e576040517f6317a0fa00000000000000000000000000000000000000000000000000000000815260040160405180910390fd5b6121488484612d43565b50505050565b6000801b61215b81612c25565b61216482613112565b5050565b60607fadd81430b566ae2d49ebbbd6d0bbf5717dd8781caa842362ba2b8bf25c0288b582600001602081019061219e9190614be1565b836020013584604001358560600160208101906121bb919061454a565b8660800160208101906121ce919061454a565b8760a00160208101906121e1919061454a565b8860c001358960e0013560405160200161220399989796959493929190614d82565b6040516020818303038152906040529050919050565b612221612e24565b7f85e8f2d6819d6b24108062d87ea08f54651bcb8960d98062d3faf96e7873b8b961224b81612c25565b600073ffffffffffffffffffffffffffffffffffffffff168473ffffffffffffffffffffffffffffffffffffffff161480612297575061229584600661309590919063ffffffff16565b155b156122ce576040517fe6c4247b00000000000000000000000000000000000000000000000000000000815260040160405180910390fd5b73eeeeeeeeeeeeeeeeeeeeeeeeeeeeeeeeeeeeeeee73ffffffffffffffffffffffffffffffffffffffff168373ffffffffffffffffffffffffffffffffffffffff16036123be5760008473ffffffffffffffffffffffffffffffffffffffff168360405161233b90614e40565b60006040518083038185875af1925050503d8060008114612378576040519150601f19603f3d011682016040523d82523d6000602084013e61237d565b606091505b50509050806123b8576040517f90b8ec1800000000000000000000000000000000000000000000000000000000815260040160405180910390fd5b506123ea565b6123e984838573ffffffffffffffffffffffffffffffffffffffff166133379092919063ffffffff16565b5b8273ffffffffffffffffffffffffffffffffffffffff168473ffffffffffffffffffffffffffffffffffffffff167f90c5d8794dcf7c60ab2d20912d5228389b28f74d32af01e40894a784a90b9ac28460405161244791906146b0565b60405180910390a35061245861308b565b505050565b60007f000000000000000000000000000000000000000000000000000000000000000046036124ae577f000000000000000000000000000000000000000000000000000000000000000090506124b9565b6124b66133bd565b90505b90565b60008060008084036124fa576040517f756688fe00000000000000000000000000000000000000000000000000000000815260040160405180910390fd5b600060088567ffffffffffffffff16901c67ffffffffffffffff16905060008560ff166001901b90506000600860008973ffffffffffffffffffffffffffffffffffffffff1673ffffffffffffffffffffffffffffffffffffffff16815260200190815260200160002060008481526020019081526020016000205490506000828216146125b4576040517f756688fe00000000000000000000000000000000000000000000000000000000815260040160405180910390fd5b8281839550955095505050509250925092565b6125cf612e24565b7f9f2df0fed2c77648de5860a4cc508cd0818c85b8b8a1ab4ceeef8d981c8956a66125f981612c25565b8360e00135600c548160096000438152602001908152602001600020546126209190614b88565b1115612658576040517f0fbf0bc900000000000000000000000000000000000000000000000000000000815260040160405180910390fd5b6000600181111561266c5761266b61484b565b5b85600001602081019061267f9190614be1565b60018111156126915761269061484b565b5b146126c8576040517faf61069300000000000000000000000000000000000000000000000000000000815260040160405180910390fd5b6126d28584610e87565b506126dc84611ba9565b612712576040517f84e505d200000000000000000000000000000000000000000000000000000000815260040160405180910390fd5b612732856060016020810190612728919061454a565b8660400135612e73565b8460e001356009600043815260200190815260200160002060008282546127599190614b88565b925050819055506127b38560c001358660a001602081019061277b919061454a565b87606001602081019061278e919061454a565b87806000019061279e9190614ca8565b8980602001906127ae9190614c45565b613453565b7f000000000000000000000000000000000000000000000000000000000000000073ffffffffffffffffffffffffffffffffffffffff166340c10f19866080016020810190612802919061454a565b8760e001356040518363ffffffff1660e01b81526004016128249291906143b6565b600060405180830381600087803b15801561283e57600080fd5b505af1158015612852573d6000803e3d6000fd5b50505050846080016020810190612869919061454a565b73ffffffffffffffffffffffffffffffffffffffff16856060016020810190612892919061454a565b73ffffffffffffffffffffffffffffffffffffffff163373ffffffffffffffffffffffffffffffffffffffff167ff114ca9eb82947af39f957fa726280fd3d5d81c3d7635a4aeb5c302962856eba8860a00160208101906128f3919061454a565b8960c001358a60e0013560405161290c93929190614c0e565b60405180910390a4505061291e61308b565b505050565b6000801b61293081612c25565b600073ffffffffffffffffffffffffffffffffffffffff168273ffffffffffffffffffffffffffffffffffffffff1614806129b657507f000000000000000000000000000000000000000000000000000000000000000073ffffffffffffffffffffffffffffffffffffffff168273ffffffffffffffffffffffffffffffffffffffff16145b806129d257506129d0826004612d1390919063ffffffff16565b155b15612a09576040517f3334921400000000000000000000000000000000000000000000000000000000815260040160405180910390fd5b8173ffffffffffffffffffffffffffffffffffffffff167f0e3c58ebfb2e7465fbb1c32e6b4f40c3c4f5ca77e8218a386aff8617831260d760405160405180910390a25050565b60007f01ffc9a7000000000000000000000000000000000000000000000000000000007bffffffffffffffffffffffffffffffffffffffffffffffffffffffff1916827bffffffffffffffffffffffffffffffffffffffffffffffffffffffff1916149050919050565b6000801b8203612bd6578073ffffffffffffffffffffffffffffffffffffffff16600160009054906101000a900473ffffffffffffffffffffffffffffffffffffffff1673ffffffffffffffffffffffffffffffffffffffff167ff8ccb027dfcd135e000e9d45e6cc2d662578a8825d4c45b5e32e0adf67e79ec660405160405180910390a3612b6f6000801b600160009054906101000a900473ffffffffffffffffffffffffffffffffffffffff16612d43565b80600160006101000a81548173ffffffffffffffffffffffffffffffffffffffff021916908373ffffffffffffffffffffffffffffffffffffffff160217905550600260006101000a81549073ffffffffffffffffffffffffffffffffffffffff02191690555b612be08282613828565b5050565b60006040517f190100000000000000000000000000000000000000000000000000000000000081528360028201528260228201526042812091505092915050565b612c3681612c31613908565b613910565b50565b6000612c61836000018373ffffffffffffffffffffffffffffffffffffffff1660001b613995565b905092915050565b612c71613908565b73ffffffffffffffffffffffffffffffffffffffff168173ffffffffffffffffffffffffffffffffffffffff1614612cde576040517f08c379a0000000000000000000000000000000000000000000000000000000008152600401612cd590614ed8565b60405180910390fd5b612ce88282612d43565b5050565b6000806000612cfb8585613aa9565b91509150612d0881613afa565b819250505092915050565b6000612d3b836000018373ffffffffffffffffffffffffffffffffffffffff1660001b613c60565b905092915050565b612d4d82826117a7565b15612e2057600080600084815260200190815260200160002060000160008373ffffffffffffffffffffffffffffffffffffffff1673ffffffffffffffffffffffffffffffffffffffff16815260200190815260200160002060006101000a81548160ff021916908315150217905550612dc5613908565b73ffffffffffffffffffffffffffffffffffffffff168173ffffffffffffffffffffffffffffffffffffffff16837ff6391f5c32d9c69d2a47ea670b442974b53935d1edc7fd64eb21e047a839171b60405160405180910390a45b5050565b600260035403612e69576040517f08c379a0000000000000000000000000000000000000000000000000000000008152600401612e6090614f44565b60405180910390fd5b6002600381905550565b6000806000612e8285856124bc565b925092509250808217600860008773ffffffffffffffffffffffffffffffffffffffff1673ffffffffffffffffffffffffffffffffffffffff1681526020019081526020016000206000858152602001908152602001600020819055505050505050565b73eeeeeeeeeeeeeeeeeeeeeeeeeeeeeeeeeeeeeeee73ffffffffffffffffffffffffffffffffffffffff168273ffffffffffffffffffffffffffffffffffffffff16036130105780471015612f67576040517f2c5211c600000000000000000000000000000000000000000000000000000000815260040160405180910390fd5b60008373ffffffffffffffffffffffffffffffffffffffff1682604051612f8d90614e40565b60006040518083038185875af1925050503d8060008114612fca576040519150601f19603f3d011682016040523d82523d6000602084013e612fcf565b606091505b505090508061300a576040517f90b8ec1800000000000000000000000000000000000000000000000000000000815260040160405180910390fd5b50613086565b61302482600461309590919063ffffffff16565b61305a576040517f24a0114400000000000000000000000000000000000000000000000000000000815260040160405180910390fd5b61308583828473ffffffffffffffffffffffffffffffffffffffff166133379092919063ffffffff16565b5b505050565b6001600381905550565b60006130bd836000018373ffffffffffffffffffffffffffffffffffffffff1660001b613cd0565b905092915050565b6000600c54905081600c819055507fb4a832eb73ba0066dc45acd0d1f4454cdee155b17bdb1ccbabb428cc39750ad181600c54604051613106929190614f64565b60405180910390a15050565b6000600d54905081600d819055507f6fd3eacad9328fdc902c323518cfef3a2f6a9da89c40a7b82428adc2370114c381600d54604051613153929190614f64565b60405180910390a15050565b61317386600461309590919063ffffffff16565b15806131be575073eeeeeeeeeeeeeeeeeeeeeeeeeeeeeeeeeeeeeeee73ffffffffffffffffffffffffffffffffffffffff168673ffffffffffffffffffffffffffffffffffffffff16145b156131f5576040517f24a0114400000000000000000000000000000000000000000000000000000000815260040160405180910390fd5b60008690506000805b868690508110156132ad57600061271086868481811061322157613220614d0b565b5b905060200201358c6132339190614f8d565b61323d9190614ffe565b90506132938989898581811061325657613255614d0b565b5b905060200201602081019061326b919061454a565b838773ffffffffffffffffffffffffffffffffffffffff16613cf3909392919063ffffffff16565b808361329f9190614b88565b9250816001019150506131fe565b506000818a6132bc919061502f565b9050600081111561332b5761332a88888860018b8b90506132dd919061502f565b8181106132ed576132ec614d0b565b5b9050602002016020810190613302919061454a565b838673ffffffffffffffffffffffffffffffffffffffff16613cf3909392919063ffffffff16565b5b50505050505050505050565b6133b88363a9059cbb60e01b84846040516024016133569291906143b6565b604051602081830303815290604052907bffffffffffffffffffffffffffffffffffffffffffffffffffffffff19166020820180517bffffffffffffffffffffffffffffffffffffffffffffffffffffffff8381831617835250505050613d7c565b505050565b60007f8b73c3c69bb8fe3d512ecc4cf759cc79239f7b179b0ffacaa9a75d522b39400f7fdfc7060bb2e53279833759ad83d246a6016adac9d59a3fc1c0c23c3d495e137e7fc89efdaa54c0f20c7adf612882df0950f5a951637e0307cdcb4c672f298b8bc64630604051602001613438959493929190615063565b60405160208183030381529060405280519060200120905090565b61346786600461309590919063ffffffff16565b15806134b2575073eeeeeeeeeeeeeeeeeeeeeeeeeeeeeeeeeeeeeeee73ffffffffffffffffffffffffffffffffffffffff168673ffffffffffffffffffffffffffffffffffffffff16145b8061350957507f000000000000000000000000000000000000000000000000000000000000000073ffffffffffffffffffffffffffffffffffffffff168673ffffffffffffffffffffffffffffffffffffffff1614155b15613540576040517f24a0114400000000000000000000000000000000000000000000000000000000815260040160405180910390fd5b600086905061357286308a8473ffffffffffffffffffffffffffffffffffffffff16613cf3909392919063ffffffff16565b7f000000000000000000000000000000000000000000000000000000000000000073ffffffffffffffffffffffffffffffffffffffff16632e1a7d4d896040518263ffffffff1660e01b81526004016135cb91906146b0565b600060405180830381600087803b1580156135e557600080fd5b505af11580156135f9573d6000803e3d6000fd5b505050506000805b8686905081101561372757600061271086868481811061362457613623614d0b565b5b905060200201358c6136369190614f8d565b6136409190614ffe565b9050600088888481811061365757613656614d0b565b5b905060200201602081019061366c919061454a565b73ffffffffffffffffffffffffffffffffffffffff168260405161368f90614e40565b60006040518083038185875af1925050503d80600081146136cc576040519150601f19603f3d011682016040523d82523d6000602084013e6136d1565b606091505b505090508061370c576040517f90b8ec1800000000000000000000000000000000000000000000000000000000815260040160405180910390fd5b81846137189190614b88565b93508260010192505050613601565b506000818a613736919061502f565b9050600081111561381c576000878760018a8a9050613755919061502f565b81811061376557613764614d0b565b5b905060200201602081019061377a919061454a565b73ffffffffffffffffffffffffffffffffffffffff168260405161379d90614e40565b60006040518083038185875af1925050503d80600081146137da576040519150601f19603f3d011682016040523d82523d6000602084013e6137df565b606091505b505090508061381a576040517f90b8ec1800000000000000000000000000000000000000000000000000000000815260040160405180910390fd5b505b50505050505050505050565b61383282826117a7565b61390457600160008084815260200190815260200160002060000160008373ffffffffffffffffffffffffffffffffffffffff1673ffffffffffffffffffffffffffffffffffffffff16815260200190815260200160002060006101000a81548160ff0219169083151502179055506138a9613908565b73ffffffffffffffffffffffffffffffffffffffff168173ffffffffffffffffffffffffffffffffffffffff16837f2f8788117e7eff1d82e926ec794901d17c78024a50270940304540a733656f0d60405160405180910390a45b5050565b600033905090565b61391a82826117a7565b6139915761392781613e44565b6139358360001c6020613e71565b604051602001613946929190615195565b6040516020818303038152906040526040517f08c379a00000000000000000000000000000000000000000000000000000000081526004016139889190615208565b60405180910390fd5b5050565b60008083600101600084815260200190815260200160002054905060008114613a9d5760006001826139c7919061502f565b90506000600186600001805490506139df919061502f565b9050818114613a4e576000866000018281548110613a00576139ff614d0b565b5b9060005260206000200154905080876000018481548110613a2457613a23614d0b565b5b90600052602060002001819055508387600101600083815260200190815260200160002081905550505b85600001805480613a6257613a6161522a565b5b600190038181906000526020600020016000905590558560010160008681526020019081526020016000206000905560019350505050613aa3565b60009150505b92915050565b6000806041835103613aea5760008060006020860151925060408601519150606086015160001a9050613ade878285856140ad565b94509450505050613af3565b60006002915091505b9250929050565b60006004811115613b0e57613b0d61484b565b5b816004811115613b2157613b2061484b565b5b0315613c5d5760016004811115613b3b57613b3a61484b565b5b816004811115613b4e57613b4d61484b565b5b03613b8e576040517f08c379a0000000000000000000000000000000000000000000000000000000008152600401613b85906152a5565b60405180910390fd5b60026004811115613ba257613ba161484b565b5b816004811115613bb557613bb461484b565b5b03613bf5576040517f08c379a0000000000000000000000000000000000000000000000000000000008152600401613bec90615311565b60405180910390fd5b60036004811115613c0957613c0861484b565b5b816004811115613c1c57613c1b61484b565b5b03613c5c576040517f08c379a0000000000000000000000000000000000000000000000000000000008152600401613c53906153a3565b60405180910390fd5b5b50565b6000613c6c8383613cd0565b613cc5578260000182908060018154018082558091505060019003906000526020600020016000909190919091505582600001805490508360010160008481526020019081526020016000208190555060019050613cca565b600090505b92915050565b600080836001016000848152602001908152602001600020541415905092915050565b613d76846323b872dd60e01b858585604051602401613d14939291906153c3565b604051602081830303815290604052907bffffffffffffffffffffffffffffffffffffffffffffffffffffffff19166020820180517bffffffffffffffffffffffffffffffffffffffffffffffffffffffff8381831617835250505050613d7c565b50505050565b6000613dde826040518060400160405280602081526020017f5361666545524332303a206c6f772d6c6576656c2063616c6c206661696c65648152508573ffffffffffffffffffffffffffffffffffffffff1661418f9092919063ffffffff16565b9050600081511480613e00575080806020019051810190613dff9190615426565b5b613e3f576040517f08c379a0000000000000000000000000000000000000000000000000000000008152600401613e36906154c5565b60405180910390fd5b505050565b6060613e6a8273ffffffffffffffffffffffffffffffffffffffff16601460ff16613e71565b9050919050565b606060006002836002613e849190614f8d565b613e8e9190614b88565b67ffffffffffffffff811115613ea757613ea66154e5565b5b6040519080825280601f01601f191660200182016040528015613ed95781602001600182028036833780820191505090505b5090507f300000000000000000000000000000000000000000000000000000000000000081600081518110613f1157613f10614d0b565b5b60200101907effffffffffffffffffffffffffffffffffffffffffffffffffffffffffffff1916908160001a9053507f780000000000000000000000000000000000000000000000000000000000000081600181518110613f7557613f74614d0b565b5b60200101907effffffffffffffffffffffffffffffffffffffffffffffffffffffffffffff1916908160001a90535060006001846002613fb59190614f8d565b613fbf9190614b88565b90505b600181111561405f577f3031323334353637383961626364656600000000000000000000000000000000600f86166010811061400157614000614d0b565b5b1a60f81b82828151811061401857614017614d0b565b5b60200101907effffffffffffffffffffffffffffffffffffffffffffffffffffffffffffff1916908160001a905350600485901c94508061405890615514565b9050613fc2565b50600084146140a3576040517f08c379a000000000000000000000000000000000000000000000000000000000815260040161409a90615589565b60405180910390fd5b8091505092915050565b6000807f7fffffffffffffffffffffffffffffff5d576e7357a4501ddfe92f46681b20a08360001c11156140e8576000600391509150614186565b60006001878787876040516000815260200160405260405161410d94939291906155c5565b6020604051602081039080840390855afa15801561412f573d6000803e3d6000fd5b505050602060405103519050600073ffffffffffffffffffffffffffffffffffffffff168173ffffffffffffffffffffffffffffffffffffffff160361417d57600060019250925050614186565b80600092509250505b94509492505050565b606061419e84846000856141a7565b90509392505050565b6060824710156141ec576040517f08c379a00000000000000000000000000000000000000000000000000000000081526004016141e39061567c565b60405180910390fd5b6000808673ffffffffffffffffffffffffffffffffffffffff16858760405161421591906156cd565b60006040518083038185875af1925050503d8060008114614252576040519150601f19603f3d011682016040523d82523d6000602084013e614257565b606091505b509150915061426887838387614274565b92505050949350505050565b606083156142d65760008351036142ce5761428e856142e9565b6142cd576040517f08c379a00000000000000000000000000000000000000000000000000000000081526004016142c490615730565b60405180910390fd5b5b8290506142e1565b6142e0838361430c565b5b949350505050565b6000808273ffffffffffffffffffffffffffffffffffffffff163b119050919050565b60008251111561431f5781518083602001fd5b806040517f08c379a00000000000000000000000000000000000000000000000000000000081526004016143539190615208565b60405180910390fd5b600073ffffffffffffffffffffffffffffffffffffffff82169050919050565b60006143878261435c565b9050919050565b6143978161437c565b82525050565b6000819050919050565b6143b08161439d565b82525050565b60006040820190506143cb600083018561438e565b6143d860208301846143a7565b9392505050565b600080fd5b600080fd5b60007fffffffff0000000000000000000000000000000000000000000000000000000082169050919050565b61441e816143e9565b811461442957600080fd5b50565b60008135905061443b81614415565b92915050565b600060208284031215614457576144566143df565b5b60006144658482850161442c565b91505092915050565b60008115159050919050565b6144838161446e565b82525050565b600060208201905061449e600083018461447a565b92915050565b6000819050919050565b60006144c96144c46144bf8461435c565b6144a4565b61435c565b9050919050565b60006144db826144ae565b9050919050565b60006144ed826144d0565b9050919050565b6144fd816144e2565b82525050565b600060208201905061451860008301846144f4565b92915050565b6145278161437c565b811461453257600080fd5b50565b6000813590506145448161451e565b92915050565b6000602082840312156145605761455f6143df565b5b600061456e84828501614535565b91505092915050565b600080fd5b6000610100828403121561459357614592614577565b5b81905092915050565b600061010082840312156145b3576145b26143df565b5b60006145c18482850161457c565b91505092915050565b6000819050919050565b6145dd816145ca565b82525050565b60006020820190506145f860008301846145d4565b92915050565b614607816145ca565b811461461257600080fd5b50565b600081359050614624816145fe565b92915050565b6000602082840312156146405761463f6143df565b5b600061464e84828501614615565b91505092915050565b6146608161439d565b811461466b57600080fd5b50565b60008135905061467d81614657565b92915050565b600060208284031215614699576146986143df565b5b60006146a78482850161466e565b91505092915050565b60006020820190506146c560008301846143a7565b92915050565b600080604083850312156146e2576146e16143df565b5b60006146f085828601614615565b925050602061470185828601614535565b9150509250929050565b60006040828403121561472157614720614577565b5b81905092915050565b6000806101208385031215614742576147416143df565b5b60006147508582860161457c565b92505061010083013567ffffffffffffffff811115614772576147716143e4565b5b61477e8582860161470b565b9150509250929050565b600060208201905061479d600083018461438e565b92915050565b6000604082840312156147b9576147b8614577565b5b81905092915050565b6000602082840312156147d8576147d76143df565b5b600082013567ffffffffffffffff8111156147f6576147f56143e4565b5b614802848285016147a3565b91505092915050565b60008060408385031215614822576148216143df565b5b600061483085828601614535565b925050602061484185828601614535565b9150509250929050565b7f4e487b7100000000000000000000000000000000000000000000000000000000600052602160045260246000fd5b6003811061488b5761488a61484b565b5b50565b600081905061489c8261487a565b919050565b60006148ac8261488e565b9050919050565b6148bc816148a1565b82525050565b60006020820190506148d760008301846148b3565b92915050565b600080600061014084860312156148f7576148f66143df565b5b60006149058682870161457c565b93505061010084013567ffffffffffffffff811115614927576149266143e4565b5b614933868287016147a3565b92505061012084013567ffffffffffffffff811115614955576149546143e4565b5b6149618682870161470b565b9150509250925092565b600081519050919050565b600082825260208201905092915050565b60005b838110156149a557808201518184015260208101905061498a565b60008484015250505050565b6000601f19601f8301169050919050565b60006149cd8261496b565b6149d78185614976565b93506149e7818560208601614987565b6149f0816149b1565b840191505092915050565b60006020820190508181036000830152614a1581846149c2565b905092915050565b600080600060608486031215614a3657614a356143df565b5b6000614a4486828701614535565b9350506020614a5586828701614535565b9250506040614a668682870161466e565b9150509250925092565b60008060408385031215614a8757614a866143df565b5b6000614a9585828601614535565b9250506020614aa68582860161466e565b9150509250929050565b6000606082019050614ac560008301866143a7565b614ad260208301856143a7565b614adf60408301846143a7565b949350505050565b600080fd5b600080fd5b600080fd5b60008083356001602003843603038112614b1357614b12614ae7565b5b80840192508235915067ffffffffffffffff821115614b3557614b34614aec565b5b602083019250600182023603831315614b5157614b50614af1565b5b509250929050565b7f4e487b7100000000000000000000000000000000000000000000000000000000600052601160045260246000fd5b6000614b938261439d565b9150614b9e8361439d565b9250828201905080821115614bb657614bb5614b59565b5b92915050565b60028110614bc957600080fd5b50565b600081359050614bdb81614bbc565b92915050565b600060208284031215614bf757614bf66143df565b5b6000614c0584828501614bcc565b91505092915050565b6000606082019050614c23600083018661438e565b614c3060208301856143a7565b614c3d60408301846143a7565b949350505050565b60008083356001602003843603038112614c6257614c61614ae7565b5b80840192508235915067ffffffffffffffff821115614c8457614c83614aec565b5b602083019250602082023603831315614ca057614c9f614af1565b5b509250929050565b60008083356001602003843603038112614cc557614cc4614ae7565b5b80840192508235915067ffffffffffffffff821115614ce757614ce6614aec565b5b602083019250602082023603831315614d0357614d02614af1565b5b509250929050565b7f4e487b7100000000000000000000000000000000000000000000000000000000600052603260045260246000fd5b60028110614d4b57614d4a61484b565b5b50565b6000819050614d5c82614d3a565b919050565b6000614d6c82614d4e565b9050919050565b614d7c81614d61565b82525050565b600061012082019050614d98600083018c6145d4565b614da5602083018b614d73565b614db2604083018a6143a7565b614dbf60608301896143a7565b614dcc608083018861438e565b614dd960a083018761438e565b614de660c083018661438e565b614df360e08301856143a7565b614e016101008301846143a7565b9a9950505050505050505050565b600081905092915050565b50565b6000614e2a600083614e0f565b9150614e3582614e1a565b600082019050919050565b6000614e4b82614e1d565b9150819050919050565b600082825260208201905092915050565b7f416363657373436f6e74726f6c3a2063616e206f6e6c792072656e6f756e636560008201527f20726f6c657320666f722073656c660000000000000000000000000000000000602082015250565b6000614ec2602f83614e55565b9150614ecd82614e66565b604082019050919050565b60006020820190508181036000830152614ef181614eb5565b9050919050565b7f5265656e7472616e637947756172643a207265656e7472616e742063616c6c00600082015250565b6000614f2e601f83614e55565b9150614f3982614ef8565b602082019050919050565b60006020820190508181036000830152614f5d81614f21565b9050919050565b6000604082019050614f7960008301856143a7565b614f8660208301846143a7565b9392505050565b6000614f988261439d565b9150614fa38361439d565b9250828202614fb18161439d565b91508282048414831517614fc857614fc7614b59565b5b5092915050565b7f4e487b7100000000000000000000000000000000000000000000000000000000600052601260045260246000fd5b60006150098261439d565b91506150148361439d565b92508261502457615023614fcf565b5b828204905092915050565b600061503a8261439d565b91506150458361439d565b925082820390508181111561505d5761505c614b59565b5b92915050565b600060a08201905061507860008301886145d4565b61508560208301876145d4565b61509260408301866145d4565b61509f60608301856143a7565b6150ac608083018461438e565b9695505050505050565b600081905092915050565b7f416363657373436f6e74726f6c3a206163636f756e7420000000000000000000600082015250565b60006150f76017836150b6565b9150615102826150c1565b601782019050919050565b600081519050919050565b60006151238261510d565b61512d81856150b6565b935061513d818560208601614987565b80840191505092915050565b7f206973206d697373696e6720726f6c6520000000000000000000000000000000600082015250565b600061517f6011836150b6565b915061518a82615149565b601182019050919050565b60006151a0826150ea565b91506151ac8285615118565b91506151b782615172565b91506151c38284615118565b91508190509392505050565b60006151da8261510d565b6151e48185614e55565b93506151f4818560208601614987565b6151fd816149b1565b840191505092915050565b6000602082019050818103600083015261522281846151cf565b905092915050565b7f4e487b7100000000000000000000000000000000000000000000000000000000600052603160045260246000fd5b7f45434453413a20696e76616c6964207369676e61747572650000000000000000600082015250565b600061528f601883614e55565b915061529a82615259565b602082019050919050565b600060208201905081810360008301526152be81615282565b9050919050565b7f45434453413a20696e76616c6964207369676e6174757265206c656e67746800600082015250565b60006152fb601f83614e55565b9150615306826152c5565b602082019050919050565b6000602082019050818103600083015261532a816152ee565b9050919050565b7f45434453413a20696e76616c6964207369676e6174757265202773272076616c60008201527f7565000000000000000000000000000000000000000000000000000000000000602082015250565b600061538d602283614e55565b915061539882615331565b604082019050919050565b600060208201905081810360008301526153bc81615380565b9050919050565b60006060820190506153d8600083018661438e565b6153e5602083018561438e565b6153f260408301846143a7565b949350505050565b6154038161446e565b811461540e57600080fd5b50565b600081519050615420816153fa565b92915050565b60006020828403121561543c5761543b6143df565b5b600061544a84828501615411565b91505092915050565b7f5361666545524332303a204552433230206f7065726174696f6e20646964206e60008201527f6f74207375636365656400000000000000000000000000000000000000000000602082015250565b60006154af602a83614e55565b91506154ba82615453565b604082019050919050565b600060208201905081810360008301526154de816154a2565b9050919050565b7f4e487b7100000000000000000000000000000000000000000000000000000000600052604160045260246000fd5b600061551f8261439d565b91506000820361553257615531614b59565b5b600182039050919050565b7f537472696e67733a20686578206c656e67746820696e73756666696369656e74600082015250565b6000615573602083614e55565b915061557e8261553d565b602082019050919050565b600060208201905081810360008301526155a281615566565b9050919050565b600060ff82169050919050565b6155bf816155a9565b82525050565b60006080820190506155da60008301876145d4565b6155e760208301866155b6565b6155f460408301856145d4565b61560160608301846145d4565b95945050505050565b7f416464726573733a20696e73756666696369656e742062616c616e636520666f60008201527f722063616c6c0000000000000000000000000000000000000000000000000000602082015250565b6000615666602683614e55565b91506156718261560a565b604082019050919050565b6000602082019050818103600083015261569581615659565b9050919050565b60006156a78261496b565b6156b18185614e0f565b93506156c1818560208601614987565b80840191505092915050565b60006156d9828461569c565b915081905092915050565b7f416464726573733a2063616c6c20746f206e6f6e2d636f6e7472616374000000600082015250565b600061571a601d83614e55565b9150615725826156e4565b602082019050919050565b600060208201905081810360008301526157498161570d565b905091905056fea26469706673582212204bbc408dffe4dde8fd7c92604347501eda140bf61a4ef952605bcd99ed3ebfe764736f6c63430008130033","linkReferences":{}},"methodIdentifiers":{"DEFAULT_ADMIN_ROLE()":"a217fddf","acceptAdmin()":"0e18b681","addCustodianAddress(address)":"4be7a64b","addSupportedAsset(address)":"fac09e87","confirmDelegatedSigner(address)":"157a4028","delegatedSigner(address,address)":"cf9cc766","disableMintRedeem()":"c5ff38bd","encodeOrder((uint8,uint256,uint256,address,address,address,uint256,uint256))":"d8f065bd","getDomainSeparator()":"ed24911d","getRoleAdmin(bytes32)":"248a9ca3","grantRole(bytes32,address)":"2f2ff15d","hasRole(bytes32,address)":"91d14854","hashOrder((uint8,uint256,uint256,address,address,address,uint256,uint256))":"19bfcdec","isSupportedAsset(address)":"9be918e6","maxMintPerBlock()":"928907dd","maxRedeemPerBlock()":"844452fa","mint((uint8,uint256,uint256,address,address,address,uint256,uint256),(address[],uint256[]),(uint8,bytes))":"d48c03e5","mintWETH((uint8,uint256,uint256,address,address,address,uint256,uint256),(address[],uint256[]),(uint8,bytes))":"f5c42eb3","mintedPerBlock(uint256)":"2ba32991","owner()":"8da5cb5b","redeem((uint8,uint256,uint256,address,address,address,uint256,uint256),(uint8,bytes))":"95165e8b","redeemedPerBlock(uint256)":"b6c78063","removeCollateralManagerRole(address)":"7274c25c","removeCustodianAddress(address)":"4ba87af9","removeDelegatedSigner(address)":"40e49216","removeMinterRole(address)":"54f1e126","removeRedeemerRole(address)":"532c3f82","removeSupportedAsset(address)":"1c46bc6f","renounceRole(bytes32,address)":"36568abe","revokeRole(bytes32,address)":"d547741f","setDelegatedSigner(address)":"53863613","setMaxMintPerBlock(uint256)":"9cd29136","setMaxRedeemPerBlock(uint256)":"d8369d75","supportsInterface(bytes4)":"01ffc9a7","transferAdmin(address)":"75829def","transferToCustody(address,address,uint256)":"e0f3fc9f","usde()":"0fd761e0","verifyNonce(address,uint256)":"f4ee2a8b","verifyOrder((uint8,uint256,uint256,address,address,address,uint256,uint256),(uint8,bytes))":"402a8d37","verifyRoute((address[],uint256[]))":"ccb2676b"},"id":18}